:020000040800F2
:100000000020002081050008A5040008AB040008BA
:10001000B1040008B7040008BD0400080000000097
:10002000000000000000000000000000C304000801
:10003000CF04000800000000DB040008E70400080B
:10004000C9050008C9050008C9050008C905000858
:10005000C9050008C9050008C9050008C905000848
:10006000C9050008C9050008C9050008C905000838
:10007000C9050008C9050008C9050008C905000828
:10008000C9050008C9050008C905000800000000EE
:10009000000000000000000000000000C90500088A
:1000A000C9050008C9050008C9050008C9050008F8
:1000B000C9050008C9050008C9050008C9050008E8
:1000C000C90500080000000000000000C905000884
:1000D000C9050008C9050008C9050008C9050008C8
:1000E000C9050008C9050008C9050008000000008E
:1000F0000000000000000000000000000000000000
:1001000000000000000000000000000000000000EF
:100110000000000000000000F5040008C905000808
:1001200000000000000000000000000000000000CF
:1001300000000000000000000000000000000000BF
:1001400000000000000000000000000000000000AF
:10015000000000000000000000000000000000009F
:10016000000000000000000000000000000000008F
:10017000000000000000000000000000000000007F
:10018000000000000000000000000000000000006F
:10019000000000000000000000000000000000005F
:1001A000000000000000000000000000000000004F
:1001B000000000000000000000000000000000003F
:1001C0000000000000000000000000005FF808F1DF
:1001D00010B5054C237833B9044B13B10448AFF381
:1001E00000800123237010BD740000200000000077
:1001F0008C36000808B5034B1BB103490348AFF325
:10020000008008BD00000000780000208C36000847
:10021000034613F8012B002AFBD1181A0138704746
:1002200080B485B000AF7860084B9A6907497B6855
:1002300013438B61054B9A697B681340FB60FB6835
:1002400000BF1437BD4680BC704700BF001002409D
:1002500008B500F0BAF900F00FF800F079F800F0F6
:1002600039F800F05BF8034C02F0F6FB204600F092
:1002700005FAF9E740420F0030B5002302220124BD
:1002800010254FF4002191B006A8CDE90833CDE93F
:100290000133CDE90333CDE90A45079300930E936B
:1002A0000C9306920D920F9100F09EFC78B90146D6
:1002B0000F240225002200236846CDE90045CDE940
:1002C0000223049100F010FF08B911B030BD00F016
:1002D00043F800BF00234FF6FF7210B50D4C0E49D6
:1002E00082B02046CDE90033C4E90133A361216027
:1002F000E26001F065F850B900220023694620460B
:10030000CDE9002301F0E0FA08B902B010BD00F019
:1003100023F800BFEC0500200010004010B50023BA
:100320004FF4E1340C2208480849C0E90233C0E91F
:100330000014C0E906334261036101F03DFB00B9DE
:1003400010BD00F009F800BFAC05002000380140E6
:100350000420FFF765BF00BF72B6FEE780B485B02A
:1003600000AF154B9B69144A43F001039361124B94
:100370009B6903F00103BB60BB680F4BDB690E4A4E
:1003800043F08053D3610C4BDB6903F080537B60F7
:100390007B680A4B5B68FB60FB6823F0E063FB60F3
:1003A000FB6843F00073FB60044AFB68536000BFC6
:1003B0001437BD4680BC7047001002400000014069
:1003C00080B584B000AF78607B681B680D4A9342AB
:1003D00013D10D4BDB690C4A43F01003D3610A4B78
:1003E000DB6903F01003FB60FB680022002136206C
:1003F00000F03FFA362000F058FA00BF1037BD4633
:1004000080BD00BF001000400010024080B588B0E1
:1004100000AF786007F1100300221A605A609A60FA
:10042000DA607B681B681C4A934231D11B4B9B6985
:100430001A4A43F480439361184B9B6903F4804349
:10044000FB60FB68154B9B69144A43F004039361FE
:10045000124B9B6903F00403BB60BB684FF400734D
:100460003B6102237B610323FB6107F11003194603
:100470000B4800F035FA4FF480633B6100237B6149
:100480000023BB6107F110031946054800F028FA64
:1004900000BF2037BD4680BD00380140001002403B
:1004A0000008014080B400AFFEE780B400AFFEE773
:1004B00080B400AFFEE780B400AFFEE780B400AFC9
:1004C000FEE780B400AF00BFBD4680BC704780B47B
:1004D00000AF00BFBD4680BC704780B400AF00BF16
:1004E000BD4680BC704780B500AF00F0ABF800BFE0
:1004F00080BD000080B500AF024801F039F800BFB0
:1005000080BD00BFEC05002080B586B000AF7860EC
:10051000144A154BD31A7B617B693B61134B1B68F3
:10052000002B02D1114B124A1A60104B1A687B68DB
:1005300013443A699A4207D202F03CFC03460C226B
:100540001A604FF0FF3309E0084B1B68FB60074B54
:100550001A687B681344054A1360FB68184618370D
:10056000BD4680BD00200020000400009000002057
:100570008006002080B400AF00BFBD4680BC70473D
:10058000002103E00B4B5B58435004310A480B4BEE
:1005900042189A42F6D30A4A02E0002342F8043B8A
:1005A000084B9A42F9D3FFF7E5FF02F009FCFFF789
:1005B0004FFE7047803A00080000002074000020C1
:1005C000740000207C060020FEE780B500AF032009
:1005D00000F044F9002000F005F8FFF7BFFE00230B
:1005E000184680BD80B582B000AF7860124B1A68A3
:1005F000124B1B7819464FF47A73B3FBF1F3B2FB3D
:10060000F3F3184600F05FF90346002B01D00123F5
:100610000EE07B680F2B0AD8002279684FF0FF307C
:1006200000F027F9064A7B681360002300E00123ED
:1006300018460837BD4680BD000000200800002095
:100640000400002080B400AF054B1B781A46054B10
:100650001B681344034A136000BFBD4680BC70474B
:10066000080000203406002080B400AF024B1B6855
:100670001846BD4680BC70473406002080B584B063
:1006800000AF7860FFF7F0FFB8607B68FB60FB6845
:10069000B3F1FF3F05D00A4B1B781A46FB681344A1
:1006A000FB6000BFFFF7E0FF0246BB68D31AFA68A1
:1006B0009A42F7D800BF00BF1037BD4680BD00BFCB
:1006C0000800002080B485B000AF78607B6803F03C
:1006D0000703FB600C4BDB68BB60BA684FF6FF0397
:1006E0001340BB60FB681A02BB68134343F0BF634F
:1006F00043F40033BB60044ABB68D36000BF1437C7
:10070000BD4680BC704700BF00ED00E080B400AF84
:10071000044BDB681B0A03F007031846BD4680BC88
:10072000704700BF00ED00E080B483B000AF034627
:10073000FB7197F90730002B0BDBFB7903F01F02ED
:10074000064997F907305B09012000FA02F241F8E7
:10075000232000BF0C37BD4680BC704700E100E09D
:1007600080B483B000AF03463960FB7197F907305E
:10077000002B0ADB3B68DAB20C4997F9073012010B
:10078000D2B20B4483F800230AE03B68DAB208498E
:10079000FB7903F00F03043B1201D2B20B441A762B
:1007A00000BF0C37BD4680BC704700BF00E100E0D1
:1007B00000ED00E080B489B000AFF860B9607A6005
:1007C000FB6803F00703FB61FB69C3F10703042B1C
:1007D00028BF0423BB61FB690433062B02D9FB69E4
:1007E000033B00E000237B614FF0FF32BB6902FA5C
:1007F00003F3DA43BB681A407B699A404FF0FF313C
:100800007B6901FA03F3D9437B680B401343184615
:100810002437BD4680BC704780B582B000AF786099
:100820007B68013BB3F1807F01D301230FE00A4ACB
:100830007B68013B53600F214FF0FF30FFF790FFC3
:10084000054B00229A60044B07221A6000231846C9
:100850000837BD4680BD00BF10E000E080B582B023
:1008600000AF78607868FFF72DFF00BF0837BD46FE
:1008700080BD80B586B000AF0346B9607A60FB7377
:1008800000237B61FFF742FF78617A68B968786975
:10089000FFF790FF024697F90F3011461846FFF711
:1008A0005FFF00BF1837BD4680BD80B582B000AF86
:1008B0000346FB7197F907301846FFF735FF00BF75
:1008C0000837BD4680BD80B582B000AF78607868DB
:1008D000FFF7A2FF034618460837BD4680BD00005B
:1008E00080B48BB000AF7860396000237B62002356
:1008F0003B6269E101227B6A02FA03F3FB613B6818
:100900001B68FA691340BB61BA69FB699A4240F0FF
:1009100058813B685B689A4A93425ED0984A9342FA
:1009200075D8984A934258D0964A93426FD8964ABF
:10093000934252D0944A934269D8944A93424CD0FD
:10094000924A934263D8924A934246D0904A934245
:100950005DD8122B2AD8122B59D801A252F823F0B5
:10096000DB090008B5090008C7090008090A0008E2
:100970000F0A00080F0A00080F0A00080F0A0008F3
:100980000F0A00080F0A00080F0A00080F0A0008E3
:100990000F0A00080F0A00080F0A00080F0A0008D3
:1009A0000F0A0008BD090008D1090008794A9342DE
:1009B00013D02CE03B68DB683B6229E03B68DB68D6
:1009C00004333B6224E03B68DB6808333B621FE092
:1009D0003B68DB680C333B621AE03B689B68002B8A
:1009E00002D104233B6213E03B689B68012B05D1D5
:1009F00008233B627B68FA691A6109E008233B62BD
:100A00007B68FA695A6103E000233B6200E000BFA3
:100A1000BB69FF2B01D87B6801E07B6804337B61F5
:100A2000BB69FF2B02D87B6A9B0002E07B6A083B14
:100A30009B003B617B691A680F213B6901FA03F354
:100A4000DB431A40396A3B6901FA03F31A437B69B5
:100A50001A603B685B6803F08053002B00F0B180A4
:100A60004D4B9B694C4A43F0010393614A4B9B6990
:100A700003F00103BB60BB68484A7B6A9B080233F2
:100A800052F82330FB607B6A03F003039B000F22C4
:100A900002FA03F3DB43FA681340FB607B68404AC9
:100AA000934213D07B683F4A93420DD07B683E4A05
:100AB000934207D07B683D4A934201D1032306E06D
:100AC000042304E0022302E0012300E000237A6A09
:100AD00002F0030292009340FA681343FB602F492F
:100AE0007B6A9B080233FA6841F823203B685B6805
:100AF00003F48033002B06D02D4B1A682C49BB69B8
:100B000013430B6006E02A4B1A68BB69DB43284994
:100B100013400B603B685B6803F40033002B06D086
:100B2000234B5A682249BB6913434B6006E0204BB4
:100B30005A68BB69DB431E4913404B603B685B68E6
:100B400003F48013002B06D0194B9A681849BB692F
:100B500013438B6006E0164B9A68BB69DB4314496C
:100B600013408B603B685B6803F40013002B21D0BB
:100B70000F4BDA680E49BB691343CB6021E000BF1D
:100B8000000032100000311000002210000021107F
:100B9000000012100000111000100240000001407F
:100BA00000080140000C0140001001400014014009
:100BB000000401400B4BDA68BB69DB430949134071
:100BC000CB607B6A01337B623B681A687B6A22FADE
:100BD00003F3002B7FF48EAE00BF00BF2C37BD4661
:100BE00080BC70470004014080B586B000AF7860DB
:100BF0007B68002B01D101236CE27B681B6803F04A
:100C00000103002B00F08780924B5B6803F00C031C
:100C1000042B0CD08F4B5B6803F00C03082B12D114
:100C20008C4B5B6803F48033B3F5803F0BD1894B69
:100C30001B6803F40033002B6CD07B685B68002BCF
:100C400068D1012346E27B685B68B3F5803F06D13B
:100C5000804B1B687F4A43F4803313602EE07B682F
:100C60005B68002B0CD17B4B1B687A4A23F48033E2
:100C70001360784B1B68774A23F4802313601DE0D0
:100C80007B685B68B3F5A02F0CD1724B1B68714A6F
:100C900043F4802313606F4B1B686E4A43F4803328
:100CA00013600BE06B4B1B686A4A23F480331360BC
:100CB000684B1B68674A23F4802313607B685B687A
:100CC000002B13D0FFF7D0FC386108E0FFF7CCFC15
:100CD00002463B69D31A642B01D90323FAE15D4B29
:100CE0001B6803F40033002BF0D014E0FFF7BCFCCA
:100CF000386108E0FFF7B8FC02463B69D31A642B61
:100D000001D90323E6E1534B1B6803F40033002BA6
:100D1000F0D100E000BF7B681B6803F00203002BEA
:100D200063D04C4B5B6803F00C03002B0BD0494B9A
:100D30005B6803F00C03082B1CD1464B5B6803F483
:100D40008033002B16D1434B1B6803F00203002BAA
:100D500005D07B681B69012B01D00123BAE13D4B13
:100D60001B6823F0F8027B685B69DB003949134399
:100D70000B603AE07B681B69002B20D0364B0122C8
:100D80001A60FFF771FC386108E0FFF76DFC02465E
:100D90003B69D31A022B01D903239BE12D4B1B681E
:100DA00003F00203002BF0D02A4B1B6823F0F8025B
:100DB0007B685B69DB00274913430B6015E0264B1A
:100DC00000221A60FFF750FC386108E0FFF74CFC86
:100DD00002463B69D31A022B01D903237AE11D4B4A
:100DE0001B6803F00203002BF0D17B681B6803F043
:100DF0000803002B3AD07B689B69002B19D0174B56
:100E000001221A60FFF730FC386108E0FFF72CFC84
:100E100002463B69D31A022B01D903235AE10D4B39
:100E20005B6A03F00203002BF0D0012000F0AAFA65
:100E30001CE00A4B00221A60FFF716FC38610FE035
:100E4000FFF712FC02463B69D31A022B08D9032391
:100E500040E100BF001002400000424280044242D4
:100E60009E4B5B6A03F00203002BE9D17B681B6891
:100E700003F00403002B00F0A6800023FB75974BC2
:100E8000DB6903F08053002B0DD1944BDB69934A4F
:100E900043F08053D361914BDB6903F08053BB6017
:100EA000BB680123FB758E4B1B6803F48073002B1A
:100EB00018D18B4B1B688A4A43F480731360FFF789
:100EC000D3FB386108E0FFF7CFFB02463B69D31A3A
:100ED000642B01D90323FDE0814B1B6803F480736D
:100EE000002BF0D07B68DB68012B06D17B4B1B6AA3
:100EF0007A4A43F0010313622DE07B68DB68002B24
:100F00000CD1764B1B6A754A23F001031362734BB5
:100F10001B6A724A23F0040313621CE07B68DB68DF
:100F2000052B0CD16D4B1B6A6C4A43F00403136212
:100F30006A4B1B6A694A43F0010313620BE0674B7B
:100F40001B6A664A23F001031362644B1B6A634AFF
:100F500023F0040313627B68DB68002B15D0FFF7D6
:100F600083FB38610AE0FFF77FFB02463B69D31A37
:100F700041F28832934201D90323ABE0574B1B6AFD
:100F800003F00203002BEED014E0FFF76DFB386195
:100F90000AE0FFF769FB02463B69D31A41F2883247
:100FA000934201D9032395E04C4B1B6A03F00203E3
:100FB000002BEED1FB7D012B05D1484BDB69474A65
:100FC00023F08053D3617B68DB69002B00F08180C4
:100FD000424B5B6803F00C03082B61D07B68DB6934
:100FE000022B46D13F4B00221A60FFF73DFB3861D0
:100FF00008E0FFF739FB02463B69D31A022B01D9FF
:10100000032367E0354B1B6803F00073002BF0D11E
:101010007B681B6AB3F5803F08D1304BDB6A23F055
:101020000F027B689B682D491343CB622B4B5B6897
:1010300023F474127B68196A7B685B6A0B43274947
:1010400013434B60274B01221A60FFF70DFB3861F9
:1010500008E0FFF709FB02463B69D31A022B01D9CE
:10106000032337E01D4B1B6803F00073002BF0D007
:101070002FE01C4B00221A60FFF7F6FA386108E0F7
:10108000FFF7F2FA02463B69D31A022B01D9032378
:1010900020E0124B1B6803F00073002BF0D118E026
:1010A0007B68DB69012B01D1012313E00B4B5B68EB
:1010B000FB60FB6803F480327B681B6A9A4206D1AE
:1010C000FB6803F470127B685B6A9A4201D00123CB
:1010D00000E0002318461837BD4680BD00100240CE
:1010E000007000406000424280B584B000AF78607C
:1010F00039607B68002B01D10123A0E07B681B686D
:1011000003F00203002B20D07B681B6803F004036C
:10111000002B05D04C4B5B684B4A43F4E0635360B3
:101120007B681B6803F00803002B05D0464B5B6807
:10113000454A43F460535360434B5B6823F0F0022D
:101140007B689B68404913434B607B681B6803F0D6
:101150000103002B40D07B685B68012B07D13A4B21
:101160001B6803F40033002B15D1012367E07B6873
:101170005B68022B07D1344B1B6803F00073002B14
:1011800009D101235BE0304B1B6803F00203002B05
:1011900001D1012353E02C4B5B6823F003027B68F1
:1011A0005B68294913434B60FFF75EFAF8600AE079
:1011B000FFF75AFA0246FB68D31A41F2883293428B
:1011C00001D903233BE0204B5B6803F00C027B68F2
:1011D0005B689B009A42EBD17B681B6803F00403B9
:1011E000002B08D0184B5B6823F4E0627B68DB6857
:1011F000154913434B607B681B6803F00803002B01
:1012000009D0114B5B6823F460527B681B69DB00DB
:101210000D4913434B6000F01FF802460A4B5B6810
:101220001B0903F00F030949CB5C22FA03F3084AB8
:101230001360084B1B681846FFF7D4F900231846C3
:101240001037BD4680BD00BF00100240C436000804
:10125000000000200400002090B48EB000AF2B4BA3
:1012600007F114040FCB84E80F00294B3C1D0FCB72
:1012700084E80F000023FB620023BB6200237B6332
:1012800000237B6200233B63224B5B68FB62FB6AAB
:1012900003F00C03042B02D0082B03D02CE01E4BD0
:1012A0003B632CE0FB6A9B0C03F00F0307F1380251
:1012B000134413F8243C7B62FB6A03F48033002B55
:1012C00012D0144BDB6A03F00F0307F1380213440A
:1012D00013F8343CBB627B6A0F4A02FB03F2BB6A21
:1012E000B2FBF3F37B6304E07B6A0C4A02FB03F37B
:1012F0007B637B6B3B6302E0074B3B6300BF3B6B55
:1013000018463837BD4690BC704700BFA436000869
:10131000B43600080010024000127A0000093D00B7
:1013200080B400AF024B1B681846BD4680BC7047B6
:101330000000002080B500AFFFF7F2FF0246054B2A
:101340005B681B0A03F007030349CB5C22FA03F333
:10135000184680BD00100240D436000880B500AFAA
:10136000FFF7DEFF0246054B5B68DB0A03F007036D
:101370000349CB5C22FA03F3184680BD00100240FB
:10138000D436000880B485B000AF78600A4B1B6883
:101390000A4AA2FB03235B0A7A6802FB03F3FB60A1
:1013A00000BFFB685A1EFA60002BF9D100BF00BFD6
:1013B0001437BD4680BC704700000020D34D62103A
:1013C00080B582B000AF78607B68002B01D101232B
:1013D00041E07B6893F83D30DBB2002B06D17B689F
:1013E000002283F83C207868FEF7EAFF7B6802223F
:1013F00083F83D207B681A687B68043319461046E1
:1014000000F0E2F97B68012283F846207B68012224
:1014100083F83E207B68012283F83F207B6801220D
:1014200083F840207B68012283F841207B680122F9
:1014300083F842207B68012283F843207B680122E5
:1014400083F844207B68012283F845207B680122D1
:1014500083F83D20002318460837BD4680BD0000B4
:1014600080B485B000AF78607B6893F83D30DBB224
:10147000012B01D001233FE07B68022283F83D204D
:101480007B681B68DA687B681B6842F00102DA60DF
:101490007B681B681B4A934213D07B681B68B3F1BF
:1014A000804F0ED07B681B68174A934209D07B6837
:1014B0001B68164A934204D07B681B68144A934207
:1014C00011D17B681B689B6803F00703FB60FB6816
:1014D000062B10D07B681B681A687B681B6842F07B
:1014E00001021A6007E07B681B681A687B681B684A
:1014F00042F001021A60002318461437BD4680BC32
:10150000704700BF002C014000040040000800406C
:101510000040014080B483B000AF78607B681B68F6
:10152000DA687B681B6822F00102DA607B681B685E
:101530001A6A41F211131340002B0FD17B681B680C
:101540001A6A40F244431340002B07D17B681B68A2
:101550001A687B681B6822F001021A607B6801220E
:1015600083F83D20002318460C37BD4680BC7047E9
:1015700080B582B000AF78607B681B681B6903F0A0
:101580000203022B22D17B681B68DB6803F0020395
:10159000022B1BD17B681B686FF002021A617B680B
:1015A00001221A777B681B689B6903F00303002BF9
:1015B00003D0786800F0EDF805E0786800F0E0F816
:1015C000786800F0EFF87B6800221A777B681B6868
:1015D0001B6903F00403042B22D17B681B68DB68C2
:1015E00003F00403042B1BD17B681B686FF004021B
:1015F0001A617B6802221A777B681B689B6903F477
:101600004073002B03D0786800F0C3F805E07868D9
:1016100000F0B6F8786800F0C5F87B6800221A7709
:101620007B681B681B6903F00803082B22D17B68C9
:101630001B68DB6803F00803082B1BD17B681B6861
:101640006FF008021A617B6804221A777B681B68B6
:10165000DB6903F00303002B03D0786800F099F8EE
:1016600005E0786800F08CF8786800F09BF87B68FB
:1016700000221A777B681B681B6903F01003102B8C
:1016800022D17B681B68DB6803F01003102B1BD191
:101690007B681B686FF010021A617B6808221A775A
:1016A0007B681B68DB6903F44073002B03D0786808
:1016B00000F06FF805E0786800F062F8786800F0F4
:1016C00071F87B6800221A777B681B681B6903F03E
:1016D0000103012B0ED17B681B68DB6803F001035B
:1016E000012B07D17B681B686FF001021A617868D3
:1016F00001F0ACFA7B681B681B6903F08003802B48
:101700000ED17B681B68DB6803F08003802B07D158
:101710007B681B686FF080021A61786800F043F9FB
:101720007B681B681B6903F04003402B0ED17B686C
:101730001B68DB6803F04003402B07D17B681B6804
:101740006FF040021A61786800F035F87B681B681A
:101750001B6903F02003202B0ED17B681B68DB681C
:1017600003F02003202B07D17B681B686FF0200259
:101770001A61786800F00EF900BF0837BD4680BDD9
:1017800080B483B000AF786000BF0C37BD4680BC2A
:10179000704780B483B000AF786000BF0C37BD469F
:1017A00080BC704780B483B000AF786000BF0C3756
:1017B000BD4680BC704780B483B000AF786000BF86
:1017C0000C37BD4680BC704780B485B000AF7860F0
:1017D00039607B681B68FB607B68354A93420BD09D
:1017E0007B68B3F1804F07D07B68324A934203D0C5
:1017F0007B68314A934208D1FB6823F07003FB6099
:101800003B685B68FA681343FB607B68284A934235
:1018100017D07B68B3F1804F13D07B68254A934281
:101820000FD07B68244A93420BD07B68234A9342B3
:1018300007D07B68224A934203D07B68214A9342B7
:1018400008D1FB6823F44073FB603B68DB68FA68EF
:101850001343FB60FB6823F080023B685B69134322
:10186000FB607B68FA681A603B689A687B68DA629A
:101870003B681A687B689A627B680D4A93420BD07A
:101880007B680E4A934207D07B680D4A934203D08F
:101890007B680C4A934203D13B681A697B681A63E0
:1018A0007B6801225A6100BF1437BD4680BC704777
:1018B000002C0140000400400008004000400140AE
:1018C000004401400048014080B485B000AF78601A
:1018D00039607B6893F83C30012B01D102234BE047
:1018E0007B68012283F83C207B68022283F83D203C
:1018F0007B681B685B68FB607B681B689B68BB60E0
:10190000FB6823F07003FB603B681B68FA681343B5
:10191000FB607B681B68FA685A607B681B68194A21
:10192000934213D07B681B68B3F1804F0ED07B6865
:101930001B68154A934209D07B681B68134A93427F
:1019400004D07B681B68124A93420CD1BB6823F019
:101950008003BB603B685B68BA681343BB607B680D
:101960001B68BA689A607B68012283F83D207B6817
:10197000002283F83C20002318461437BD4680BC63
:10198000704700BF002C01400004004000080040E8
:101990000040014080B483B000AF786000BF0C37D6
:1019A000BD4680BC704780B483B000AF786000BF94
:1019B0000C37BD4680BC704780B582B000AF786000
:1019C0007B68002B01D101233FE07B6893F839301D
:1019D000DBB2002B06D17B68002283F838207868C0
:1019E000FEF714FD7B68242283F839207B681B688E
:1019F000DA687B681B6822F40052DA60786800F0CD
:101A000005F97B681B681A697B681B6822F49042A1
:101A10001A617B681B685A697B681B6822F02A027E
:101A20005A617B681B68DA687B681B6842F4005265
:101A3000DA607B680022DA637B68202283F8392031
:101A40007B68202283F83A20002318460837BD46D9
:101A500080BD80B58AB002AFF860B9603B601346C4
:101A6000FB8000237B61FB6893F83930DBB2202BCD
:101A70007CD1BB68002B02D0FB88002B01D1012355
:101A800075E0FB6893F83830012B01D102236EE03A
:101A9000FB68012283F83820FB680022DA63FB68C8
:101AA000212283F83920FEF7DFFD7861FB68FA8890
:101AB0009A84FB68FA88DA84FB689B68B3F5805FD8
:101AC00008D1FB681B69002B04D10023FB61BB68B4
:101AD000BB6103E0BB68FB610023BB61FB680022C4
:101AE00083F838202AE03B6800937B69002280213C
:101AF000F86800F040F80346002B01D0032336E0DD
:101B0000FB69002B0BD1BB691B881A46FB681B685D
:101B1000C2F308025A60BB690233BB6107E0FB698C
:101B20001A78FB681B685A60FB690133FB61FB682C
:101B3000DB8C9BB2013B9AB2FB68DA84FB68DB8CDE
:101B40009BB2002BCFD13B6800937B6900224021E0
:101B5000F86800F010F80346002B01D0032306E0DC
:101B6000FB68202283F83920002300E00223184676
:101B70002037BD4680BD80B584B000AFF860B96045
:101B80003B601346FB712CE0BB69B3F1FF3F28D0EB
:101B9000BB69002B07D0FEF767FD02463B68D31AEE
:101BA000BA699A421DD2FB681B68DA68FB681B6839
:101BB00022F4D072DA60FB681B685A69FB681B6804
:101BC00022F001025A61FB68202283F83920FB6869
:101BD000202283F83A20FB68002283F83820032370
:101BE0000FE0FB681B681A68BB681340BA689A422A
:101BF0000CBF01230023DBB21A46FB799A42C3D003
:101C0000002318461037BD4680BD000080B584B063
:101C100000AF78607B681B681B6923F440517B68C8
:101C2000DA687B681B680A431A617B689A687B687C
:101C30001B691A437B685B691A437B68DB69134342
:101C4000BB607B681B68DB6823F4164323F00C033E
:101C50007A681268B9680B43D3607B681B685B695C
:101C600023F440717B689A697B681B680A435A6158
:101C70007B681B68554A934203D1FFF76FFBF860FE
:101C800002E0FFF757FBF8607B68DB69B3F5004FB4
:101C90004CD1FA6813469B0013449A001A447B689F
:101CA0005B685B00B2FBF3F3494AA2FB03235B09C9
:101CB0001901FA6813469B0013449A001A447B6882
:101CC0005B685B00B2FBF3F2414BA3FB02035B09D1
:101CD000642000FB03F3D31ADB0032333C4AA2FB3F
:101CE00003235B095B0003F4F8731944FA68134695
:101CF0009B0013449A001A447B685B685B00B2FB4C
:101D0000F3F2334BA3FB02035B09642000FB03F3F4
:101D1000D31ADB0032332E4AA2FB03235B0903F004
:101D200007027B681B680A449A604AE0FA68134617
:101D30009B0013449A001A447B685B689B00B2FBCB
:101D4000F3F3234AA2FB03235B091901FA68134644
:101D50009B0013449A001A447B685B689B00B2FBAB
:101D6000F3F21B4BA3FB02035B09642000FB03F3AC
:101D7000D31A1B013233164AA2FB03235B0903F07B
:101D8000F0031944FA6813469B0013449A001A445E
:101D90007B685B689B00B2FBF3F20D4BA3FB020375
:101DA0005B09642000FB03F3D31A1B013233084A9A
:101DB000A2FB03235B0903F00F027B681B680A4444
:101DC0009A6000BF1037BD4680BD00BF003801409B
:101DD0001F85EB51024B0A461B680021184700BFC4
:101DE0000C0000206C22002101F01CB810B16C2105
:101DF000FFF7F0BF704700BF002330B4C0E90033E5
:101E000099B9164D164C174A174B8560C460174D8B
:101E1000174C02614361174A174BC0E9065430BCA6
:101E2000C0E90823816600207047144C144D154A00
:101E3000154BC46004F1475485600261134D436142
:101E4000134A144B04F5DA140A34C0E9065430BCC2
:101E5000C0E9082381660020704700BF67E6096A71
:101E600085AE67BB72F36E3C3AF54FA57F520E51BB
:101E70008C68059BABD9831F19CDE05B07D57C36F9
:101E8000D89E05C117DD703039590EF7310BC0FFF0
:101E9000A78FF964A44FFABE2DE9F04F06460C4611
:101EA000E5B09B4A1B9056F8080F24ABCDE90432ED
:101EB00091F800C019937168F3680192B2681CAD83
:101EC0000FC527796178607A6279237A94F80BE0FC
:101ED00002954FEA0C6CE57800904CEA014C3F0605
:101EE00094F807A094F8029094F806B094F80A8049
:101EF000306971694CEA050C47EA02474EEA036E05
:101F0000B269F369009D47EA0A074EEA054E4EEAB8
:101F1000082500950895029D4CEA09260FC5E27D2B
:101F200047EA0B270392627B009D94F82030CDE9AD
:101F3000246794F81F9010970092277F627C94F892
:101F40000F801A96267B207D94F818B0E17C94F8D7
:101F50001BE026950A93257C94F82330029249EAE7
:101F6000076994F815C0009F48EA066848EA0748E0
:101F7000029FCDF818C0039A94F819C041EA056190
:101F800041EA0741069FCDF81CC042EA006294F87E
:101F90001DC042EA0742079FA07ECDF824C04EEA4A
:101FA0000B6E94F821C04EEA074E099FA67DCDF82E
:101FB0002CC003900A9849EA07490B9F94F80EA099
:101FC00094F812C042EA0622A57F039E43EA00630A
:101FD00094F8220043EA074341EA0C2148EA0A2721
:101FE0004EEA062649EA052543EA0023CDE9277192
:101FF0000F970691119207960E951293CDE9292617
:10200000CDE92B5394F8253094F8261094F828A0A5
:10201000009394F82B3094F8249094F8272094F8A7
:102020003B7043EA0A63029194F8381094F82C60EC
:1020300094F8305094F82F8094F833E00393009B89
:1020400047EA016742EA096294F8391094F83400CB
:1020500094F83C9094F829A094F837C094F83FB0D5
:1020600048EA06684EEA056E94F82D6094F83150FF
:1020700042EA0342039B47EA01414CEA006C4BEA07
:10208000096B94F8350094F83D9043EA0A4348EA16
:10209000064694F82AA094F82E804EEA054594F856
:1020A00032E00091029943EA0A2342EA012294F8BD
:1020B0003A7000994CEA004094F836C0CDE92D23DF
:1020C00094F83E401693239B40EA0C2046EA0826EB
:1020D00045EA0E2541EA07214BEA094949EA042469
:1020E000CDE92F65CDE93101159514900393209D1D
:1020F000DDE92130DDF87C8002931C9B179213965A
:102100000A91099433940093DDE91DC302E000BFF6
:10211000DC360008059C0499029A266809684FEA93
:10212000F52E80EA02078EEAB51E8EEA756E3144FE
:102130002F40009E4740714439444FEA7639009F52
:1021400089EAB60989EAB759039F46EA0C0A0F449F
:10215000BE4606EA0C060AEA030A4AEA060A049E92
:102160006768D144766808EB0E01CE4485EA02091F
:10217000009A3E44029F4EEA020A09EA01094FEA28
:10218000F1284FEA7E3B89EA070906440EEA020776
:1021900088EAB118049A0AEA0C0A8BEABE0B4E448C
:1021A0004AEA070A8BEABE5B88EA7168A768B0440E
:1021B0000BEB0A00966800EB08094344029C81EA95
:1021C00005083E4408EA03084FEAF320344488EA4D
:1021D0000508009E80EAB3104EEA090A80EA73609F
:1021E0004FEA793BA04480440AEA060A05980EEAC1
:1021F00009068BEAB90B4AEA060A8BEAB95BC6689C
:102200000BEB0A04D06804EB0807C44481EA030816
:10221000304408EA0C084FEAFC24059E49EA070A04
:10222000054488EA010884EABC1409EA070084EA44
:102230007C644FEA773B0AEA0E0AA844A0444AEAC3
:10224000000A3469106916468BEAB70B009A8BEACC
:10225000B75B0BEB0A0542440092204405EB0802F1
:1022600001441046009C83EA0C0B0BEA040B8BEA3A
:10227000030B8B4401464FEAF4254FEA723A47EAD2
:102280000204009A04EA090485EAB215009A8AEA6F
:10229000B00A3840044385EA72658AEAB15A059A61
:1022A0005D440B910AEB040101EB05085469706968
:1022B00000990EEB05068CEA010E20440B9D0EEAF8
:1022C000060E03448EEA0C0E45EA080A9E444FEAC5
:1022D00078350B9B85EAB8054FEAF62103EA080B2F
:1022E00081EAB61185EAB853049D81EA76618E448D
:1022F0009469A969009D214409EB0E008C440AEA07
:10230000070A009985EA06094AEA0B0A09EA000960
:102310004FEAF025534489EA010985EAB015734470
:102320000B9CE14485EA7065A94448EA030AD56933
:102330000AEA040A144607EB0902374604994FEAF1
:10234000733EC9698EEAB30E2944154608EA030BA9
:102350004AEA0B0A8EEAB35CD4444740CC441740A7
:102360004FEAF2290292009A43EA0C0A0A440AEA66
:10237000080A03EA0C014AEA010A049989EAB51934
:102380002031774089EA75693A4404910B994A44AF
:102390004FEA7C3E11448EEABC0E0D468EEABC5ECE
:1023A00005492034F24452448C420396059400922D
:1023B0007FF4B0AE0A9912E01C3700080B99CDF8F3
:1023C00028E017910499CDF824A012910C99169148
:1023D0000D991391189915910599149171461A9CAC
:1023E000109AA146179C9346A1441446029F4FEAB7
:1023F000F14680EA070E4FEAB2474FEAF52A87EA2C
:10240000F217019A86EA71468AEAB51A0EEA050EB3
:102410008AEA756A86EA91268EEA000E116C4E44AD
:1024200087EAD407D644009CF7198E440099049794
:102430004FEA743941EA0C0689EAB1090499099C0A
:102440008E4400994FEAF44789EAB159169987EA10
:1024500074478B44039987EA94278A46F244D64608
:10246000089C00991E4001EA0C014FEAB44A0E4351
:102470008AEAF41AB1445F448AEAD40A029C08EB5F
:102480000E01CE4407EB0A0985EA04084C46566C57
:1024900008EA010A871902984FEAF1268AEA000A37
:1024A0004FEA7E3080EABE0080EABE5B1398274484
:1024B00086EAB116574486EA716682463E44049F16
:1024C0000B943C46009A089842EA0E090F9A09EAD2
:1024D0000C094FEAB24888EAF21888EAD208009A52
:1024E000824402EA0E0049EA00004FEAF74989EA0D
:1024F0007749584489EA94299C1983192646D0447F
:10250000C84440463246019F85EA010ABF6C0AEA88
:10251000040A029C4EEA03093C4408934FEAF6275A
:10252000069B26180C9000984FEAB34809EA000968
:102530000F988AEA050A88EAF318089B564487EA46
:10254000B2178246029287EA72671A464FEA7334DC
:1025500084EAB30484EAB35B159B06989A440B9B08
:102560000EEA020449EA04044FEAF349374488EAD0
:10257000D00889EA73495C443C44BC4489EA932905
:10258000029FD044C84481EA070A4746019E0D973E
:10259000F66C0AEA0C0A3544EF194FEA743585EAFD
:1025A000B40585EAB45B149D8AEA010A5744AA4639
:1025B00011984FEAFC264FEAB049069D86EABC1600
:1025C00089EAF01942EA040886EA7C6689EAD009B9
:1025D0000C983E4408EA0E08AA44019F02EA04054A
:1025E000009B48EA05054FEAF0483F6D88EA7048CD
:1025F0003344D14488EA9028029809EB08020093FA
:102600005D4439443544114480EA0C061046009A72
:102610004FEAF32888EAB21888EA72680A9A1E40DC
:102620009246079B029F4FEAB3497E4089EAF3191D
:10263000089F119B0D9A44EA050B0E449A4404EA44
:102640000501079B0BEA070B4BEA010B4FEAF2412E
:1026500089EAD30981EA7241B044D144019E4FEA2C
:10266000753781EA9221494487EAB507766D009B68
:1026700087EAB55705910299C6445F44B84472464B
:102680008CEA03070B46334407EA0E064FEAF227AB
:10269000059A86EA0C0613441E444FEA783383EA0F
:1026A000B80383EAB85B079BCDF80CE09A46039A1F
:1026B000099B45EA080987EAB217039A0E9909EAC5
:1026C00004099A4405EA080387EA726749EA0303A2
:1026D000089A4FEAF0494FEAB14E89EA704989EA0F
:1026E00090298EEAF11E18901046039A8EEAD10EB8
:1026F000D64492463744019E009AB66D5B443B44F3
:10270000384482EA0A07B444CE4407404FEAF02B2B
:102710000CEB0E0957408BEAB01B129A4F448BEA20
:10272000706C48EA030A4FEA733605990AEA050A0B
:10273000BC4486EAB30608EA03074AEA070764448A
:102740004FEAB24986EAB3563E4402940E9F059C76
:1027500089EAF2194FEAF14A89EAD2098AEA714A0A
:10276000B9448AEA942A019F049C0399FF6DA1440D
:10277000009A029CB44481EA0006CA443A4406EA3C
:1027800004074F4043EA0C0B52443A440BEA080B4F
:1027900003EA0C074FEAF4264BEA070B019F86EA8F
:1027A000B41686EA74662037049C32440197199E59
:1027B000179F346410970B99169F71640C990897B2
:1027C000B1640D99139FF16418990F973165159FA6
:1027D0000A99059C4FEA7C3906970791149F129934
:1027E00089EABC09C6E9154E89EABC59099C1197CA
:1027F0001A91019F1949CB440E94154406F1200407
:102800005A44B942C6F85CA0199400927FF4D6AD40
:102810001B9C2769D4E90216664403EB070C274684
:102820000A44A36961699646E469029A1D442244F8
:1028300014463A463B6A7F6A1844C2E907400020C2
:10284000039B41441F44C2E902E6C2E90515C2F8F0
:1028500010C0576265B0BDE8F08F00BF9C3700081C
:10286000002A38D02DE9F84305681446AA1807460F
:102870000E46026005F03F0502D343680133436012
:1028800075B93F2C02D828E03F2C20D93146384674
:10289000FFF702FB403C40360028F5D0BDE8F88346
:1028A000C5F140084445ECD307F1280931464246BA
:1028B00009EB050000F0A8FA49463846FFF7ECFAA4
:1028C0000028EBD12C44403C05464644DCE724B9C3
:1028D0000020BDE8F8830020704707F12800224659
:1028E0003146284400F090FAF2E700BF70B5044684
:1028F0008020226804F1280602F03F02A31801326A
:10290000382A83F828000D4606EB020061D8002122
:10291000C2F1380200F086FAD4E900315A0F42EAD7
:10292000C102DB001BBA12BA31462046C4E91823A3
:10293000FFF7B2FA00284BD1E37A2B7063896B70F2
:10294000A3681B0AAB70A368EB70E37B2B71E38970
:102950006B71E3681B0AAB71E368EB71E37C2B726C
:10296000638A6B7223691B0AAB722369EB72E37D86
:102970002B73E38A6B7363691B0AAB736369EB7335
:10298000E37E2B74638B6B74A3691B0AAB74A3691E
:10299000EB74E37F2B75E38B6B75E3691B0AAB75F7
:1029A000E369EB7594F823302B76638C6B76236A9E
:1029B0001B0AAB76236AEB76A36E4BB994F82730EB
:1029C0002B77E38C6B77636A1B0AAB77636AEB77D1
:1029D00070BD0021C2F1400200F024FA31462046C9
:1029E000FFF75AFA0028F3D101463822304600F0AA
:1029F00019FA91E7F0B51C469DB0054601A80E46B0
:102A00001746FFF7EFF9214601A8FFF7F5F904464D
:102A100028B101A8FFF7EAF920461DB0F0BD324603
:102A2000294601A8FFF71CFF04460028F1D13946CA
:102A300001A8FFF75BFF044601A8FFF7D7F920467E
:102A40001DB0F0BD134610B4044608462246194690
:102A500010BC0023FFF7CEBF38B54FF4807500F0EF
:102A600051F9154C00F0FAF800F010F9134A144926
:102A7000144800F029F9144800F026F9D4E90B2194
:102A8000124800F021F9D4E90923216A104800F026
:102A90001BF92A4600210F4800F0C4F92A460021FC
:102AA0000D4800F0BFF92A4600210C4800F0BAF9A1
:102AB000BDE8384000F014B838060020DC370008C4
:102AC0005C380008DC38000828390008383900086C
:102AD000603900089C0000209C0100209C0200201E
:102AE0002DE9F04FADF2244D4FF48062002308A889
:102AF00000F09AF800240025354FDFF8E4A0DFF855
:102B0000E480DFF8E490DFF8E4B02146404600F0CE
:102B1000DBF800F0A3F822462B4608A96846FFF729
:102B200091FF064600F0B2F82A4A3B681268591C29
:102B300039604AF82320002E47D19446002AB8BFB6
:102B400002F10F0C1146D9F8003058464FEA2C120A
:102B500000F0BAF854EA050331D000234FF4806244
:102B600024196D41AB4208BFA242CED200231A48BD
:102B70003B6000F03FF8194800F0A6F8002400255B
:102B80004FF480684FF00009DFF864B03B682146DD
:102B900003F1010C5AF823205846C7F800C000F092
:102BA00093F854EA05030DD024196D41A94508BFD7
:102BB000A045EBD230460DF2244DBDE8F08F08243D
:102BC0000025A2E708240025E0E76FF00306CDE723
:102BD0009C03002094000020B8390008C039000888
:102BE0009C0200208C390008980000209C390008C5
:102BF000D039000810B50146064B074A074800F0D7
:102C000063F8BDE8104006490648D1E90923096A7E
:102C100000F05AB8DC3700085C380008DC390008DE
:102C2000380600201C3A000830B414461D4654EA09
:102C3000050309D0411E0B461144C3F13000C218F0
:102C400003F8012F8B42FAD130BC7047024A136857
:102C500001331360704700BFA0030020002310B5AC
:102C6000074C084922680B605362FDF7FDFC0246E1
:102C7000054B2046BDE810401A60FEF7F1BB00BFCF
:102C8000EC050020A00300209800002038B50A4D74
:102C90000A4C2846FEF73EFC2B68094A5B6A12681C
:102CA00043EA02432360FDF7DFFC0346054A206840
:102CB00011685B1A136038BDEC05002094000020F9
:102CC000A0030020980000200FB410B582B004AA21
:102CD0000A4C52F8041B2046019200F0C1F820462D
:102CE000FDF796FA214682B264230548FEF7B1FE4D
:102CF00002B0BDE8104004B0704700BFA40300203C
:102D0000AC05002080B500AF34220021224800F03D
:102D100089F8214B4FF000621A601F4B1B681E4A56
:102D200053601E4A1C4B9A601D4A1B4B9A611D4AF8
:102D3000194BDA611C4A184BDA601C4A164B5A616F
:102D40001B4A154B1A61144B9A68134B5B68D31AD4
:102D5000114A1362104B5A690F4BDB68D31A0E4AA3
:102D600053620D4BDA690C4B9B69D31A0A4A936282
:102D7000094B5A6A084B9B6A1344074AD362064BB5
:102D80001A69054B5B6A1A44034B1B68D31A024A43
:102D9000136300BF80BD00BF38060020A4360008C2
:102DA000740000207C060020000000207400002039
:102DB000803A0008014B1868704700BF10000020DF
:102DC00070B500260C4D0D4C641BA410A64209D111
:102DD00000F05CFC00260A4D0A4C641BA410A642BD
:102DE00005D170BD55F8043B98470136EEE755F81C
:102DF000043B98470136F2E7783A0008783A000831
:102E0000783A00087C3A00080A44914200F1FF3306
:102E100000D1704710B511F8014B914203F8014FF2
:102E2000F9D110BD03460244934200D1704703F824
:102E3000011BF9E700B59BB0009104916FF00041D0
:102E40000591029105490391694600F06FF800224F
:102E5000009B1A701BB05DF804FB00BF0802FFFF67
:102E600013460A46014602480068FFF7E3BF00BF69
:102E7000100000202DE9F0478E6882469E420C46E5
:102E800090461F4638D88A8912F4906F32D0256850
:102E900009690133A5EB010965694B4405EB45055B
:102EA00005EBD5756D109D4238BF1D46530531D5D4
:102EB000294600F045FB064650B90C234FF0FF3081
:102EC000CAF80030A38943F04003A381BDE8F0872E
:102ED0004A462169FFF798FFA38923F4906343F0E2
:102EE0008003A38126614E4426603E466561A5EBC2
:102EF0000905A560BE4200D93E46324641462068DB
:102F000000F0B8FAA36822689B1B32440020A3603B
:102F10002260DBE72A4600F06DFB06460028E1D17F
:102F20005046216900F0C0FAC7E700002DE9F04FD4
:102F300098468B8907461B060D4614469DB00ED554
:102F40000B6963B9402100F0FBFA2860286120B9C1
:102F50000C233B604FF0FF30D1E040236B61002336
:102F6000099320238DF8293030234FF00109CDF843
:102F70000C80DFF8A4818DF82A3023469A4613F896
:102F8000012B0AB1252AF9D1BAEB040B0BD05B4611
:102F9000224629463846FFF76DFF013000F0AA802F
:102FA000099A5A4409929AF80030002B00F0A28046
:102FB00000234FF0FF32CDE905230AF1010A049303
:102FC00007938DF853301A935446052214F8011BC9
:102FD000514800F041FA049AD8B9D00644BF2023E2
:102FE0008DF85330110744BF2B238DF853309AF8D6
:102FF00000302A2B15D0544600204FF00A0C079AB7
:10300000214611F8013B303B092B4ED9B0B1079254
:1030100014E0A0EB080309FA03F31343A246049358
:10302000D2E7039B191D1B680391002BBBBF5B42BA
:1030300042F0020207930793B8BF049223782E2B25
:103040000CD163782A2B35D1039B02341A1D1B68DF
:103050000392002BB8BF4FF0FF330593DFF8C8A0F1
:1030600003225046217800F0F7F940B14023A0EB4D
:103070000A0003FA00F0049B01340343049314F89C
:10308000011B062225488DF8281000F0E5F90028DC
:1030900038D0234B1BBB039B073323F007030833B4
:1030A0000393099B3344099367E70C4601200CFB0B
:1030B0000232A5E700234FF00A0C194601340593AC
:1030C000204610F8012B303A092A03D9002BC5D02D
:1030D0000591C3E7044601230CFB0121F0E703AB94
:1030E00000932A4638460F4B04A9AFF30080421CD8
:1030F0000646D6D1AB895B063FF52CAF09981DB0CB
:10310000BDE8F08F03AB00932A463846054B04A96F
:1031100000F07CF8EBE700BF443A00084E3A0008A4
:1031200000000000752E00084A3A00082DE9F0471B
:10313000164699468A680B6907469342B8BF1346FC
:10314000336091F843200C46DDF820800AB101334A
:1031500033602368990642BF3368023333602568C1
:1031600015F0060506D104F1190AE36832689B1AC6
:10317000AB4228DC94F84320131E226818BF0123B9
:1031800092062DD44946384604F14302C047013027
:1031900020D02368E56803F00603042B18BF002540
:1031A00032684FF00006A36808BFAD1A226908BF55
:1031B00025EAE5759342C4BF9B1AED181A34B5424F
:1031C0001AD1002008E00123524649463846C0473C
:1031D000013003D14FF0FF30BDE8F0870135C4E77F
:1031E0003020E11881F843005A1C94F8451022441D
:1031F000023382F84310C5E7012322464946384688
:10320000C0470130E6D00136D9E700002DE9FF477D
:103210000C46277E9146782F80469A460C9904F1F9
:10322000430207D8622F0AD8002F00F0D980582F08
:1032300000F0A48004F1420684F842703AE0A7F15D
:103240006303152BF6D801A050F823F0A53200082F
:10325000B93200083532000835320008353200082E
:1032600035320008B932000835320008353200081E
:103270003532000835320008C7330008E93200084B
:10328000A93300083532000835320008E933000858
:1032900035320008E93200083532000835320008BE
:1032A000B13300080B6804F142061A1D1B680A605E
:1032B00084F842300123A4E0256808682E0600F156
:1032C00004030AD505680B60002D03DA2D236D4237
:1032D00084F843300A235E4819E015F0400F056872
:1032E0000B6018BF2DB2EFE70B682568181D08604A
:1032F000280601D51D6802E06906FBD51D886F2FE1
:103300000CBF08230A235248002184F84310666842
:10331000002EA8BF2168A660A4BF21F0040121608F
:103320000DB9002E4DD01646B5FBF3F103FB115736
:10333000C75D06F8017D2F46BB420D46F4D9082B28
:103340000BD12368DF0708D5236961689942DEBF86
:10335000302306F8013C06F1FF36921B22614B46F2
:1033600021464046CDF800A003AAFFF7DFFE01305A
:103370004CD14FF0FF3004B0BDE8F087344884F8FA
:1033800045700E68236856F8045B1F060E6014D55E
:10339000D90744BF43F0200323601DB9236823F0FD
:1033A000200323601023AFE7236843F0200323604A
:1033B0007823284884F84530E3E75E0648BFADB27D
:1033C000E6E71646BBE70B6826681D1D60690D60C1
:1033D00035061B6801D5186002E07106FBD5188020
:1033E000002316462361BAE70B681A1D0A601E689F
:1033F00000213046626800F02FF808B1801B606041
:1034000063682361002384F84330A8E732464946C5
:1034100040462369D0470130ABD023689B0713D4C3
:10342000E068039B9842B8BF1846A4E701233246E0
:1034300049464046D04701309BD00135E3680399A7
:103440005B1AAB42F2DCEBE7002504F11906F5E765
:10345000553A0008663A0008034610B5C9B202445E
:103460009342184601D1002003E0047801338C42D6
:10347000F6D110BD884210B501EB020402D9844296
:10348000234607D8431EA14208D011F8012B03F8A8
:10349000012FF8E7014602448A4200D110BD13F81B
:1034A000014D02F8014DF7E738B50546002943D034
:1034B00051F8043C0C1F002BB8BFE41800F0D0F802
:1034C0001E4A1368104633B9636014602846BDE88D
:1034D000384000F0CBB8A3420AD921686218934261
:1034E00001BF1A685B685218226063600460EDE7F0
:1034F0001A465B680BB1A342FAD911685018A04272
:103500000BD120680144501883421160DED1186845
:103510005B68014411605360D8E702D90C232B602B
:10352000D4E7206821188B4201BF19685B6809182D
:10353000216063605460C9E738BD00BFA405002066
:10354000F8B5CD1C25F0030508350C2D38BF0C252A
:10355000002D064601DBA94203D90C23336000206D
:10356000F8BD00F07DF821490A6814469CB9204F47
:103570003B6823B92146304600F062F8386029469E
:10358000304600F05DF8431C23D10C2330463360F5
:1035900000F06CF8E3E723685B1B17D40B2B03D90F
:1035A00023601C44256004E06368A2420CBF0B60EA
:1035B0005360304600F05AF804F10B00231D20F050
:1035C0000700C21ACCD01B1AA350C9E72246646870
:1035D000CCE7C41C24F00304A042E3D0211A3046F7
:1035E00000F02EF80130DDD1CFE700BFA4050020A8
:1035F000A8050020F8B5074614460E4621B9114625
:10360000BDE8F840FFF79CBF22B9FFF74DFF254604
:103610002846F8BD00F030F8A0420FD221463846C7
:10362000FFF78EFF05460028F2D031462246FFF70D
:10363000EBFB31463846FFF737FFE9E73546E7E76A
:1036400038B50023054D044608462B60FCF75CFFA7
:10365000431C02D12B6803B1236038BD6C060020E7
:10366000014800F011B800BF74060020014800F0C6
:103670000CB800BF7406002051F8043C181F002B42
:10368000BCBF0B58C018704770477047F8B500BFF3
:10369000F8BC08BC9E467047F8B500BFF8BC08BC33
:0436A0009E4670478B
:1036A40002030405060708090A0B0C0D0E0F10107F
:1036B4000102030405060708090A0B0C0D0E0F107E
:1036C40000000000000000000102030406070809CE
:1036D4000000000001020304982F8A4291443771CC
:1036E400CFFBC0B5A5DBB5E95BC25639F111F15981
:1036F400A4823F92D55E1CAB98AA07D8015B8312C3
:10370400BE853124C37D0C55745DBE72FEB1DE806E
:10371400A706DC9B74F19BC1C1699BE48647BEEF9D
:10372400C69DC10FCCA10C246F2CE92DAA84744A28
:10373400DCA9B05CDA88F97652513E986DC631A89E
:10374400C82703B0C77F59BFF30BE0C64791A7D57D
:103754005163CA0667292914850AB72738211B2E05
:10376400FC6D2C4D130D385354730A65BB0A6A76ED
:103774002EC9C281852C7292A1E8BFA24B661AA8F9
:10378400708B4BC2A3516CC719E892D1240699D609
:1037940085350EF470A06A1016C1A419086C371E82
:1037A4004C774827B5BCB034B30C1C394AAAD84E60
:1037B4004FCA9C5BF36F2E68EE828F746F63A5789B
:1037C4001478C8840802C78CFAFFBE90EB6C50A42E
:1037D400F7A3F9BEF27871C64C57435F414C474F8B
:1037E4005F484153485F5348413235365F4D425438
:1037F4004C53000000000000000000000000000026
:1038040000000000000000000000000000000000B4
:1038140000000000000000000000000000000000A4
:103824000000000000000000000000000000000094
:103834000000000000000000000000000000000084
:103844000000000000000000000000000000000074
:1038540000000000000000005465737420456E6190
:10386400626C6564000000000000000000000000BD
:103874000000000000000000000000000000000044
:103884000000000000000000000000000000000034
:103894000000000000000000000000000000000024
:1038A4000000000000000000000000000000000014
:1038B4000000000000000000000000000000000004
:1038C40000000000000000000000000000000000F4
:1038D40000000000000000000A0A0A0A5374617222
:1038E40074696E672E2E2E0A25730A4D6179202085
:1038F4003920323032312031343A33353A35380ACE
:103904004F7074696D697A6174696F6E3A204F669D
:103914006173740A416C676F726974686D3A20252B
:10392400730A00004D656D6F727920757361676568
:103934003A200000546F74616C20464C4153483A5D
:103944002025366C754220546F74616C2052414DB1
:103954003A2025366C7542200A00000053656374D2
:10396400696F6E733A20746578742025366C7542DD
:1039740020646174612025366C7542206273732063
:1039840025366C75420A00006D73675F6C656E3A8C
:103994002536642000000000686173683A253130E0
:1039A400642075733A253964206D733A2537642091
:1039B4000A000000484153480000000048415348B1
:1039C400546F745265733A2000000000682825641F
:1039D40029203D20256420002573202573204D6176
:1039E4007920203920323032312031343A33353A9B
:1039F4003538204F7074696D697A6174696F6E3AF5
:103A0400204F6661737420416C676F726974686DCE
:103A14003A2025732000000053656374696F6E7348
:103A24003A20746578742025366C7520646174615D
:103A34002025366C75206273732025366C75200042
:103A4400232D302B2000686C4C0065666745464783
:103A54000030313233343536373839414243444506
:103A64004600303132333435363738396162636475
:043A74006566000083
:043A7800F50100084C
:043A7C00D10100086C
:103A80000024F4001000000001000000252E0008B2
:103A900014000020000000000000000000000000F2
:103AA0000000000000000000000000000000000016
:103AB0000000000000000000000000000000000006
:103AC00000000000000000000000000000000000F6
:103AD00000000000000000000000000000000000E6
:103AE00000000000000000000000000000000000D6
:043AF00000000000D2
:040000050800058169
:00000001FF
