:020000040800F2
:100000000020002009070008190500081F05000846
:10001000250500082B050008310500080000000038
:10002000000000000000000000000000370500088C
:1000300043050008000000004F0500085B050008AC
:100040005107000851070008510700085107000830
:100050005107000851070008510700085107000820
:100060005107000851070008510700085107000810
:100070005107000851070008510700085107000800
:100080005107000851070008510700080000000050
:100090000000000000000000000000005107000800
:1000A00051070008510700085107000851070008D0
:1000B00051070008510700085107000851070008C0
:1000C0005107000800000000000000005107000870
:1000D00051070008510700085107000851070008A0
:1000E00051070008510700085107000800000000F0
:1000F0000000000000000000000000000000000000
:1001000000000000000000000000000000000000EF
:100110000000000000000000690500085107000809
:1001200000000000000000000000000000000000CF
:1001300000000000000000000000000000000000BF
:1001400000000000000000000000000000000000AF
:10015000000000000000000000000000000000009F
:10016000000000000000000000000000000000008F
:10017000000000000000000000000000000000007F
:10018000000000000000000000000000000000006F
:10019000000000000000000000000000000000005F
:1001A000000000000000000000000000000000004F
:1001B000000000000000000000000000000000003F
:1001C0000000000000000000000000005FF808F1DF
:1001D00010B5054C237833B9044B13B10448AFF381
:1001E00000800123237010BD70000020000000007B
:1001F0002C3E000808B5034B1BB103490348AFF37D
:10020000008008BD00000000740000202C3E0008A3
:10021000034613F8012B002AFBD1181A0138704746
:1002200080B485B000AF7860084B9A6907497B6855
:1002300013438B61054B9A697B681340FB60FB6835
:1002400000BF1437BD4680BC704700BF001002409D
:1002500080B500AF00F07DFA00F00EF800F0ACF8C9
:1002600000F04AF800F07EF802F0DCF9014800F0F6
:10027000C9FAF9E740420F0080B590B000AF07F12E
:10028000180328220021184602F070FC3B1D0022B2
:100290001A605A609A60DA601A610223BB61012316
:1002A000BB621023FB6202237B630023BB634FF41A
:1002B0000023FB6307F11803184600F059FD0346BD
:1002C000002B01D000F07FF80F237B600223BB607E
:1002D0000023FB6000233B6100237B613B1D002169
:1002E000184600F0C5FF0346002B01D000F06BF864
:1002F00000BF4037BD4680BD80B582B000AF3B46F1
:1003000000221A605A60154B154A1A60134B0022DE
:100310005A60124B00229A60104B4FF6FF72DA605F
:100320000E4B00229A610D4801F00EF90346002B96
:1003300001D000F048F800233B6000237B603B467F
:100340001946064801F084FB0346002B01D000F05B
:100350003AF800BF0837BD4680BD00BFE805002061
:100360000010004080B500AF114B124A1A60104BCC
:100370004FF4E1325A600E4B00229A600C4B00227F
:10038000DA600B4B00221A61094B0C225A61084BB0
:1003900000229A61064B0022DA61054801F0D0FB89
:1003A0000346002B01D000F00EF800BF80BD00BF57
:1003B000A80500200038014080B500AF0420FFF7F9
:1003C0002FFF00BF80BD80B400AF72B600BFFEE754
:1003D00080B485B000AF154B9B69144A43F001030C
:1003E0009361124B9B6903F00103BB60BB680F4B29
:1003F000DB690E4A43F08053D3610C4BDB6903F099
:1004000080537B607B680A4B5B68FB60FB6823F072
:10041000E063FB60FB6843F00073FB60044AFB6829
:10042000536000BF1437BD4680BC704700100240C7
:100430000000014080B584B000AF78607B681B6825
:100440000D4A934213D10D4BDB690C4A43F0100364
:10045000D3610A4BDB6903F01003FB60FB680022E9
:100460000021362000F0C9FA362000F0E2FA00BF81
:100470001037BD4680BD00BF001000400010024094
:1004800080B588B000AF786007F1100300221A60D1
:100490005A609A60DA607B681B681C4A934231D1CB
:1004A0001B4B9B691A4A43F480439361184B9B6929
:1004B00003F48043FB60FB68154B9B69144A43F0CF
:1004C00004039361124B9B6903F00403BB60BB6898
:1004D0004FF400733B6102237B610323FB6107F14F
:1004E000100319460B4800F0BFFA4FF480633B61DC
:1004F00000237B610023BB6107F110031946054807
:1005000000F0B2FA00BF2037BD4680BD0038014080
:10051000001002400008014080B400AFFEE780B444
:1005200000AFFEE780B400AFFEE780B400AFFEE7A7
:1005300080B400AFFEE780B400AF00BFBD4680BC12
:10054000704780B400AF00BFBD4680BC704780B428
:1005500000AF00BFBD4680BC704780B500AF00F063
:1005600035F900BF80BD000080B500AF024801F042
:10057000C3F800BF80BD00BFE805002080B400AF15
:1005800001231846BD4680BC704780B582B000AFDD
:100590007860396002F0A0FA034616221A604FF024
:1005A000FF3318460837BD4680BD80B582B000AF26
:1005B00078604FF0FF317868FFF7E7FFFEE780B51E
:1005C00086B000AFF860B9607A6000237B610AE012
:1005D000AFF300800146BB685A1CBA60CAB21A70F9
:1005E0007B6901337B617A697B689A42F0DB7B68C7
:1005F00018461837BD4680BD80B586B000AFF8609C
:10060000B9607A6000237B6109E0BB685A1CBA605C
:100610001B781846AFF300807B6901337B617A69F0
:100620007B689A42F1DB7B6818461837BD4680BD6F
:1006300080B483B000AF78604FF0FF3318460C37BA
:10064000BD4680BC704780B483B000AF786039602D
:100650003B684FF400525A60002318460C37BD46E1
:1006600080BC704780B483B000AF78600123184627
:100670000C37BD4680BC704780B485B000AFF860D1
:10068000B9607A60002318461437BD4680BC7047B5
:1006900080B586B000AF7860144A154BD31A7B61E1
:1006A0007B693B61134B1B68002B02D1114B124A33
:1006B0001A60104B1A687B6813443A699A4207D251
:1006C00002F00AFA03460C221A604FF0FF3309E0E9
:1006D000084B1B68FB60074B1A687B681344054A8C
:1006E0001360FB6818461837BD4680BD0020002007
:1006F000000400008C0000207806002080B400AFC9
:1007000000BFBD4680BC7047002103E00B4B5B5827
:10071000435004310A480B4B42189A42F6D30A4A16
:1007200002E0002342F8043B084B9A42F9D3FFF75A
:10073000E5FF02F0E9F9FFF78BFD7047F042000892
:1007400000000020700000207000002078060020CB
:10075000FEE780B500AF032000F044F9002000F070
:1007600005F8FFF735FE0023184680BD80B582B03E
:1007700000AF7860124B1A68124B1B7819464FF481
:100780007A73B3FBF1F3B2FBF3F3184600F05FF9B1
:100790000346002B01D001230EE07B680F2B0AD803
:1007A000002279684FF0FF3000F027F9064A7B6895
:1007B0001360002300E0012318460837BD4680BDC2
:1007C00000000020080000200400002080B400AFDA
:1007D000054B1B781A46054B1B681344034A1360EC
:1007E00000BFBD4680BC70470800002030060020D6
:1007F00080B400AF024B1B681846BD4680BC7047F2
:100800003006002080B584B000AF7860FFF7F0FFBD
:10081000B8607B68FB60FB68B3F1FF3F05D00A4B13
:100820001B781A46FB681344FB6000BFFFF7E0FF2C
:100830000246BB68D31AFA689A42F7D800BF00BFD5
:100840001037BD4680BD00BF0800002080B485B0D1
:1008500000AF78607B6803F00703FB600C4BDB683C
:10086000BB60BA684FF6FF031340BB60FB681A0217
:10087000BB68134343F0BF6343F40033BB60044AD7
:10088000BB68D36000BF1437BD4680BC704700BF53
:1008900000ED00E080B400AF044BDB681B0A03F0FE
:1008A00007031846BD4680BC704700BF00ED00E05E
:1008B00080B483B000AF0346FB7197F90730002B7B
:1008C0000BDBFB7903F01F02064997F907305B0940
:1008D000012000FA02F241F8232000BF0C37BD4688
:1008E00080BC704700E100E080B483B000AF0346F5
:1008F0003960FB7197F90730002B0ADB3B68DAB2ED
:100900000C4997F907301201D2B20B4483F8002347
:100910000AE03B68DAB20849FB7903F00F03043BB5
:100920001201D2B20B441A7600BF0C37BD4680BC10
:10093000704700BF00E100E000ED00E080B489B046
:1009400000AFF860B9607A60FB6803F00703FB61F1
:10095000FB69C3F10703042B28BF0423BB61FB69B8
:100960000433062B02D9FB69033B00E000237B61C3
:100970004FF0FF32BB6902FA03F3DA43BB681A4057
:100980007B699A404FF0FF317B6901FA03F3D94349
:100990007B680B40134318462437BD4680BC704724
:1009A00080B582B000AF78607B68013BB3F1807F97
:1009B00001D301230FE00A4A7B68013B53600F21FA
:1009C0004FF0FF30FFF790FF054B00229A60044B79
:1009D00007221A60002318460837BD4680BD00BFB5
:1009E00010E000E080B582B000AF78607868FFF773
:1009F0002DFF00BF0837BD4680BD80B586B000AF73
:100A00000346B9607A60FB7300237B61FFF742FF06
:100A100078617A68B9687869FFF790FF024697F9BC
:100A20000F3011461846FFF75FFF00BF1837BD466D
:100A300080BD80B582B000AF0346FB7197F90730E7
:100A40001846FFF735FF00BF0837BD4680BD80B5AB
:100A500082B000AF78607868FFF7A2FF03461846BF
:100A60000837BD4680BD000080B48BB000AF786011
:100A7000396000237B6200233B6269E101227B6ACB
:100A800002FA03F3FB613B681B68FA691340BB6120
:100A9000BA69FB699A4240F058813B685B689A4AA0
:100AA00093425ED0984A934275D8984A934258D060
:100AB000964A93426FD8964A934252D0944A9342B0
:100AC00069D8944A93424CD0924A934263D8924A4E
:100AD000934246D0904A93425DD8122B2AD8122BCB
:100AE00059D801A252F823F0630B00083D0B00080F
:100AF0004F0B0008910B0008970B0008970B00089C
:100B0000970B0008970B0008970B0008970B00083D
:100B1000970B0008970B0008970B0008970B00082D
:100B2000970B0008970B0008970B0008450B00086F
:100B3000590B0008794A934213D02CE03B68DB68DC
:100B40003B6229E03B68DB6804333B6224E03B689E
:100B5000DB6808333B621FE03B68DB680C333B62B9
:100B60001AE03B689B68002B02D104233B6213E030
:100B70003B689B68012B05D108233B627B68FA69BF
:100B80001A6109E008233B627B68FA695A6103E055
:100B900000233B6200E000BFBB69FF2B01D87B68EC
:100BA00001E07B6804337B61BB69FF2B02D87B6A61
:100BB0009B0002E07B6A083B9B003B617B691A68F3
:100BC0000F213B6901FA03F3DB431A40396A3B69A1
:100BD00001FA03F31A437B691A603B685B6803F010
:100BE0008053002B00F0B1804D4B9B694C4A43F081
:100BF000010393614A4B9B6903F00103BB60BB682F
:100C0000484A7B6A9B08023352F82330FB607B6AB8
:100C100003F003039B000F2202FA03F3DB43FA689D
:100C20001340FB607B68404A934213D07B683F4A85
:100C300093420DD07B683E4A934207D07B683D4A81
:100C4000934201D1032306E0042304E0022302E0DF
:100C5000012300E000237A6A02F00302920093402D
:100C6000FA681343FB602F497B6A9B080233FA68DA
:100C700041F823203B685B6803F48033002B06D0E7
:100C80002D4B1A682C49BB6913430B6006E02A4BB5
:100C90001A68BB69DB43284913400B603B685B68FB
:100CA00003F40033002B06D0234B5A682249BB695A
:100CB00013434B6006E0204B5A68BB69DB431E4977
:100CC00013404B603B685B6803F48013002B06D035
:100CD000194B9A681849BB6913438B6006E0164BA1
:100CE0009A68BB69DB43144913408B603B685B68BF
:100CF00003F40013002B21D00F4BDA680E49BB69B7
:100D00001343CB6021E000BF00003210000031101F
:100D1000000022100000211000001210000011102D
:100D2000001002400000014000080140000C01409A
:100D30000010014000140140000401400B4BDA6830
:100D4000BB69DB4309491340CB607B6A01337B629B
:100D50003B681A687B6A22FA03F3002B7FF48EAE9D
:100D600000BF00BF2C37BD4680BC70470004014067
:100D700080B586B000AF78607B68002B01D101237D
:100D80006CE27B681B6803F00103002B00F0878096
:100D9000924B5B6803F00C03042B0CD08F4B5B6809
:100DA00003F00C03082B12D18C4B5B6803F48033E7
:100DB000B3F5803F0BD1894B1B6803F40033002B44
:100DC0006CD07B685B68002B68D1012346E27B68AE
:100DD0005B68B3F5803F06D1804B1B687F4A43F4C4
:100DE000803313602EE07B685B68002B0CD17B4B5B
:100DF0001B687A4A23F480331360784B1B68774A68
:100E000023F4802313601DE07B685B68B3F5A02F9B
:100E10000CD1724B1B68714A43F4802313606F4BF3
:100E20001B686E4A43F4803313600BE06B4B1B6806
:100E30006A4A23F480331360684B1B68674A23F4C3
:100E4000802313607B685B68002B13D0FFF7D0FC16
:100E5000386108E0FFF7CCFC02463B69D31A642BEB
:100E600001D90323FAE15D4B1B6803F40033002B27
:100E7000F0D014E0FFF7BCFC386108E0FFF7B8FCE5
:100E800002463B69D31A642B01D90323E6E1534B95
:100E90001B6803F40033002BF0D100E000BF7B6837
:100EA0001B6803F00203002B63D04C4B5B6803F01C
:100EB0000C03002B0BD0494B5B6803F00C03082B91
:100EC0001CD1464B5B6803F48033002B16D1434B97
:100ED0001B6803F00203002B05D07B681B69012B04
:100EE00001D00123BAE13D4B1B6823F0F8027B6877
:100EF0005B69DB00394913430B603AE07B681B698F
:100F0000002B20D0364B01221A60FFF771FC3861AC
:100F100008E0FFF76DFC02463B69D31A022B01D9AA
:100F200003239BE12D4B1B6803F00203002BF0D041
:100F30002A4B1B6823F0F8027B685B69DB002749BA
:100F400013430B6015E0264B00221A60FFF750FC9C
:100F5000386108E0FFF74CFC02463B69D31A022BCC
:100F600001D903237AE11D4B1B6803F00203002B18
:100F7000F0D17B681B6803F00803002B3AD07B6834
:100F80009B69002B19D0174B01221A60FFF730FC28
:100F9000386108E0FFF72CFC02463B69D31A022BAC
:100FA00001D903235AE10D4B5B6A03F00203002BC6
:100FB000F0D0012000F0AAFA1CE00A4B00221A60CF
:100FC000FFF716FC38610FE0FFF712FC02463B69A1
:100FD000D31A022B08D9032340E100BF00100240BE
:100FE00000004242800442429E4B5B6A03F00203CF
:100FF000002BE9D17B681B6803F00403002B00F091
:10100000A6800023FB75974BDB6903F08053002B10
:101010000DD1944BDB69934A43F08053D361914BDC
:10102000DB6903F08053BB60BB680123FB758E4B0B
:101030001B6803F48073002B18D18B4B1B688A4A02
:1010400043F480731360FFF7D3FB386108E0FFF7C8
:10105000CFFB02463B69D31A642B01D90323FDE081
:10106000814B1B6803F48073002BF0D07B68DB6836
:10107000012B06D17B4B1B6A7A4A43F001031362B2
:101080002DE07B68DB68002B0CD1764B1B6A754A20
:1010900023F001031362734B1B6A724A23F00403AB
:1010A00013621CE07B68DB68052B0CD16D4B1B6A5F
:1010B0006C4A43F0040313626A4B1B6A694A43F0AB
:1010C000010313620BE0674B1B6A664A23F00103BE
:1010D0001362644B1B6A634A23F0040313627B6848
:1010E000DB68002B15D0FFF783FB38610AE0FFF7C0
:1010F0007FFB02463B69D31A41F28832934201D901
:101100000323ABE0574B1B6A03F00203002BEED026
:1011100014E0FFF76DFB38610AE0FFF769FB024658
:101120003B69D31A41F28832934201D9032395E0F7
:101130004C4B1B6A03F00203002BEED1FB7D012B0D
:1011400005D1484BDB69474A23F08053D3617B6864
:10115000DB69002B00F08180424B5B6803F00C03DD
:10116000082B61D07B68DB69022B46D13F4B002204
:101170001A60FFF73DFB386108E0FFF739FB0246D4
:101180003B69D31A022B01D9032367E0354B1B6857
:1011900003F00073002BF0D17B681B6AB3F5803F2E
:1011A00008D1304BDB6A23F00F027B689B682D4926
:1011B0001343CB622B4B5B6823F474127B68196A70
:1011C0007B685B6A0B43274913434B60274B012223
:1011D0001A60FFF70DFB386108E0FFF709FB0246D4
:1011E0003B69D31A022B01D9032337E01D4B1B683F
:1011F00003F00073002BF0D02FE01C4B00221A608C
:10120000FFF7F6FA386108E0FFF7F2FA02463B69A9
:10121000D31A022B01D9032320E0124B1B6803F0E1
:101220000073002BF0D118E07B68DB69012B01D142
:10123000012313E00B4B5B68FB60FB6803F4803217
:101240007B681B6A9A4206D1FB6803F470127B68C4
:101250005B6A9A4201D0012300E000231846183748
:10126000BD4680BD00100240007000406000424258
:1012700080B584B000AF786039607B68002B01D105
:101280000123A0E07B681B6803F00203002B20D041
:101290007B681B6803F00403002B05D04C4B5B6894
:1012A0004B4A43F4E06353607B681B6803F0080318
:1012B000002B05D0464B5B68454A43F460535360AE
:1012C000434B5B6823F0F0027B689B684049134303
:1012D0004B607B681B6803F00103002B40D07B68E8
:1012E0005B68012B07D13A4B1B6803F40033002BDA
:1012F00015D1012367E07B685B68022B07D1344B73
:101300001B6803F00073002B09D101235BE0304B15
:101310001B6803F00203002B01D1012353E02C4B87
:101320005B6823F003027B685B68294913434B60C9
:10133000FFF75EFAF8600AE0FFF75AFA0246FB6828
:10134000D31A41F28832934201D903233BE0204B68
:101350005B6803F00C027B685B689B009A42EBD1F0
:101360007B681B6803F00403002B08D0184B5B68F4
:1013700023F4E0627B68DB68154913434B607B68AC
:101380001B6803F00803002B09D0114B5B6823F4A2
:1013900060527B681B69DB000D4913434B6000F012
:1013A0001FF802460A4B5B681B0903F00F0309494B
:1013B000CB5C22FA03F3084A1360084B1B681846FB
:1013C000FFF7D4F9002318461037BD4680BD00BF93
:1013D00000100240D040000800000020040000205F
:1013E00090B48EB000AF2B4B07F114040FCB84E800
:1013F0000F00294B3C1D0FCB84E80F000023FB623C
:101400000023BB6200237B6300237B6200233B63DA
:10141000224B5B68FB62FB6A03F00C03042B02D0D7
:10142000082B03D02CE01E4B3B632CE0FB6A9B0C8B
:1014300003F00F0307F13802134413F8243C7B62D6
:10144000FB6A03F48033002B12D0144BDB6A03F0E9
:101450000F0307F13802134413F8343CBB627B6A74
:101460000F4A02FB03F2BB6AB2FBF3F37B6304E0B7
:101470007B6A0C4A02FB03F37B637B6B3B6302E0FA
:10148000074B3B6300BF3B6B18463837BD4690BCEB
:10149000704700BF443E0008543E00080010024060
:1014A00000127A0000093D0080B400AF024B1B68B7
:1014B0001846BD4680BC70470000002080B500AFD4
:1014C000FFF7F2FF0246054B5B681B0A03F00703B8
:1014D0000349CB5C22FA03F3184680BD001002409A
:1014E000E040000880B500AFFFF7DEFF0246054B85
:1014F0005B68DB0A03F007030349CB5C22FA03F3C2
:10150000184680BD00100240E040000880B485B05D
:1015100000AF78600A4B1B680A4AA2FB03235B0AF0
:101520007A6802FB03F3FB6000BFFB685A1EFA6097
:10153000002BF9D100BF00BF1437BD4680BC7047F7
:1015400000000020D34D621080B582B000AF7860FB
:101550007B68002B01D1012341E07B6893F83D308B
:10156000DBB2002B06D17B68002283F83C20786830
:10157000FEF760FF7B68022283F83D207B681A68D3
:101580007B6804331946104600F0E2F97B680122BB
:1015900083F846207B68012283F83E207B68012285
:1015A00083F83F207B68012283F840207B6801227A
:1015B00083F841207B68012283F842207B68012266
:1015C00083F843207B68012283F844207B68012252
:1015D00083F845207B68012283F83D2000231846CC
:1015E0000837BD4680BD000080B485B000AF78608C
:1015F0007B6893F83D30DBB2012B01D001233FE043
:101600007B68022283F83D207B681B68DA687B6870
:101610001B6842F00102DA607B681B681B4A934238
:1016200013D07B681B68B3F1804F0ED07B681B68BA
:10163000174A934209D07B681B68164A934204D02C
:101640007B681B68144A934211D17B681B689B68B6
:1016500003F00703FB60FB68062B10D07B681B6858
:101660001A687B681B6842F001021A6007E07B6819
:101670001B681A687B681B6842F001021A6000232D
:1016800018461437BD4680BC704700BF002C01408F
:1016900000040040000800400040014080B483B0D6
:1016A00000AF78607B681B68DA687B681B6822F093
:1016B0000102DA607B681B681A6A41F21113134059
:1016C000002B0FD17B681B681A6A40F24443134019
:1016D000002B07D17B681B681A687B681B6822F0A7
:1016E00001021A607B68012283F83D20002318461E
:1016F0000C37BD4680BC704780B582B000AF7860C3
:101700007B681B681B6903F00203022B22D17B68F4
:101710001B68DB6803F00203022B1BD17B681B688C
:101720006FF002021A617B6801221A777B681B68DE
:101730009B6903F00303002B03D0786800F0EDF8F9
:1017400005E0786800F0E0F8786800F0EFF87B6872
:1017500000221A777B681B681B6903F00403042BC3
:1017600022D17B681B68DB6803F00403042B1BD1C8
:101770007B681B686FF004021A617B6802221A778B
:101780007B681B689B6903F44073002B03D0786867
:1017900000F0C3F805E0786800F0B6F8786800F06B
:1017A000C5F87B6800221A777B681B681B6903F009
:1017B0000803082B22D17B681B68DB6803F0080351
:1017C000082B1BD17B681B686FF008021A617B68CD
:1017D00004221A777B681B68DB6903F00303002B84
:1017E00003D0786800F099F805E0786800F08CF88C
:1017F000786800F09BF87B6800221A777B681B688A
:101800001B6903F01003102B22D17B681B68DB6877
:1018100003F01003102B1BD17B681B686FF01002C4
:101820001A617B6808221A777B681B68DB6903F4FE
:101830004073002B03D0786800F06FF805E07868FB
:1018400000F062F8786800F071F87B6800221A777F
:101850007B681B681B6903F00103012B0ED17B68B9
:101860001B68DB6803F00103012B07D17B681B6851
:101870006FF001021A61786801F04AF87B681B6812
:101880001B6903F08003802B0ED17B681B68DB682B
:1018900003F08003802B07D17B681B686FF0800208
:1018A0001A61786800F043F97B681B681B6903F0D4
:1018B0004003402B0ED17B681B68DB6803F04003BC
:1018C000402B07D17B681B686FF040021A61786873
:1018D00000F035F87B681B681B6903F02003202BA0
:1018E0000ED17B681B68DB6803F02003202B07D137
:1018F0007B681B686FF020021A61786800F00EF9AF
:1019000000BF0837BD4680BD80B483B000AF7860AB
:1019100000BF0C37BD4680BC704780B483B000AFB9
:10192000786000BF0C37BD4680BC704780B483B080
:1019300000AF786000BF0C37BD4680BC704780B4F4
:1019400083B000AF786000BF0C37BD4680BC7047E5
:1019500080B485B000AF786039607B681B68FB603D
:101960007B68354A93420BD07B68B3F1804F07D038
:101970007B68324A934203D07B68314A934208D154
:10198000FB6823F07003FB603B685B68FA681343F5
:10199000FB607B68284A934217D07B68B3F1804F85
:1019A00013D07B68254A93420FD07B68244A934228
:1019B0000BD07B68234A934207D07B68224A93422C
:1019C00003D07B68214A934208D1FB6823F440731B
:1019D000FB603B68DB68FA681343FB60FB6823F03D
:1019E00080023B685B691343FB607B68FA681A609E
:1019F0003B689A687B68DA623B681A687B689A621F
:101A00007B680D4A93420BD07B680E4A934207D005
:101A10007B680D4A934203D07B680C4A934203D102
:101A20003B681A697B681A637B6801225A6100BFB0
:101A30001437BD4680BC7047002C014000040040B4
:101A400000080040004001400044014000480140BF
:101A500080B485B000AF786039607B6893F83C3023
:101A6000012B01D102234BE07B68012283F83C204B
:101A70007B68022283F83D207B681B685B68FB6003
:101A80007B681B689B68BB60FB6823F07003FB608E
:101A90003B681B68FA681343FB607B681B68FA6845
:101AA0005A607B681B68194A934213D07B681B6895
:101AB000B3F1804F0ED07B681B68154A934209D062
:101AC0007B681B68134A934204D07B681B68124AE8
:101AD00093420CD1BB6823F08003BB603B685B681A
:101AE000BA681343BB607B681B68BA689A607B68FE
:101AF000012283F83D207B68002283F83C200023EC
:101B000018461437BD4680BC704700BF002C01400A
:101B100000040040000800400040014080B483B051
:101B200000AF786000BF0C37BD4680BC704780B402
:101B300083B000AF786000BF0C37BD4680BC7047F3
:101B400080B582B000AF78607B68002B01D10123A3
:101B50003FE07B6893F83930DBB2002B06D17B681D
:101B6000002283F838207868FEF78AFC7B682422FC
:101B700083F839207B681B68DA687B681B6822F46D
:101B80000052DA60786800F005F97B681B681A6912
:101B90007B681B6822F490421A617B681B685A6953
:101BA0007B681B6822F02A025A617B681B68DA682E
:101BB0007B681B6842F40052DA607B680022DA63BB
:101BC0007B68202283F839207B68202283F83A2022
:101BD000002318460837BD4680BD80B58AB002AFE5
:101BE000F860B9603B601346FB8000237B61FB68B3
:101BF00093F83930DBB2202B7CD1BB68002B02D0AC
:101C0000FB88002B01D1012375E0FB6893F8383085
:101C1000012B01D102236EE0FB68012283F83820FA
:101C2000FB680022DA63FB68212283F83920FEF783
:101C3000DFFD7861FB68FA889A84FB68FA88DA84A9
:101C4000FB689B68B3F5805F08D1FB681B69002BBC
:101C500004D10023FB61BB68BB6103E0BB68FB618F
:101C60000023BB61FB68002283F838202AE03B6830
:101C700000937B6900228021F86800F040F8034659
:101C8000002B01D0032336E0FB69002B0BD1BB698D
:101C90001B881A46FB681B68C2F308025A60BB69BE
:101CA0000233BB6107E0FB691A78FB681B685A6066
:101CB000FB690133FB61FB68DB8C9BB2013B9AB291
:101CC000FB68DA84FB68DB8C9BB2002BCFD13B68CE
:101CD00000937B6900224021F86800F010F8034669
:101CE000002B01D0032306E0FB68202283F8392073
:101CF000002300E0022318462037BD4680BD80B592
:101D000084B000AFF860B9603B601346FB712CE013
:101D1000BB69B3F1FF3F28D0BB69002B07D0FEF7AA
:101D200067FD02463B68D31ABA699A421DD2FB6826
:101D30001B68DA68FB681B6822F4D072DA60FB6803
:101D40001B685A69FB681B6822F001025A61FB6834
:101D5000202283F83920FB68202283F83A20FB6890
:101D6000002283F8382003230FE0FB681B681A6801
:101D7000BB681340BA689A420CBF01230023DBB250
:101D80001A46FB799A42C3D0002318461037BD4645
:101D900080BD000080B584B000AF78607B681B68B0
:101DA0001B6923F440517B68DA687B681B680A432F
:101DB0001A617B689A687B681B691A437B685B6958
:101DC0001A437B68DB691343BB607B681B68DB6875
:101DD00023F4164323F00C037A681268B9680B43A6
:101DE000D3607B681B685B6923F440717B689A69E8
:101DF0007B681B680A435A617B681B68554A93429B
:101E000003D1FFF76FFBF86002E0FFF757FBF860C4
:101E10007B68DB69B3F5004F4CD1FA6813469B0031
:101E200013449A001A447B685B685B00B2FBF3F3CF
:101E3000494AA2FB03235B091901FA6813469B0078
:101E400013449A001A447B685B685B00B2FBF3F2B0
:101E5000414BA3FB02035B09642000FB03F3D31A8D
:101E6000DB0032333C4AA2FB03235B095B0003F433
:101E7000F8731944FA6813469B0013449A001A44F5
:101E80007B685B685B00B2FBF3F2334BA3FB02039E
:101E90005B09642000FB03F3D31ADB0032332E4AC4
:101EA000A2FB03235B0903F007027B681B680A445B
:101EB0009A604AE0FA6813469B0013449A001A4459
:101EC0007B685B689B00B2FBF3F3234AA2FB03230E
:101ED0005B091901FA6813469B0013449A001A44DF
:101EE0007B685B689B00B2FBF3F21B4BA3FB020316
:101EF0005B09642000FB03F3D31A1B013233164A3B
:101F0000A2FB03235B0903F0F0031944FA681346AC
:101F10009B0013449A001A447B685B689B00B2FBE9
:101F2000F3F20D4BA3FB02035B09642000FB03F3F8
:101F3000D31A1B013233084AA2FB03235B0903F0C7
:101F40000F027B681B680A449A6000BF1037BD46C9
:101F500080BD00BF003801401F85EB5180B48BB0BD
:101F600000AFF860B9607A60BB687B6100237B6278
:101F700000233B620023FB6113E0FB699B007A694D
:101F800013441B687A6A53407B62FB6901339B00F0
:101F90007A6913441B683A6A53403B62FB69023317
:101FA000FB61FB69032BE8DD7B6A1A047B6A534003
:101FB0004FEA33437B623B6A1A043B6A53404FEA61
:101FC00033433B620023BB61BB69FB612AE0BB6911
:101FD0005A1CBA619B007A6913441A683B6A5A40DA
:101FE000FB68F96953F8213082EA0301FB68FA695A
:101FF00043F82210BB695A1CBA619B007A691344EA
:102000001A687B6A5A40FB68F969083153F8213035
:1020100082EA0301FB68FA69083243F82210FB697F
:102020000133FB61FB69012BD1DD0223FB611AE067
:10203000FB68FA6953F822203B6A82EA0301FB68D5
:10204000FA6943F82210FB68FA69083253F8222033
:102050007B6A82EA0301FB68FA69083243F82210BE
:10206000FB690133FB617B68DA0F13445B101A468E
:10207000FB699342DCDB00BF00BF2C37BD4680BC50
:10208000704780B487B000AF786039607B68FB60D0
:1020900000233B613B697B6119E03B695A1C3A6153
:1020A0009B00FA6813443A68796952F821201A6053
:1020B0003B695A1C3A619B00FA6813443A68796993
:1020C000083152F821201A607B6901337B613B693A
:1020D000032BE2DD00BF00BF1C37BD4680BC70474C
:1020E00080B59CB000AFF860B960C7E9002307F184
:1020F000240340220021184600F038FD00237B61B4
:1021000007F1180300221A605A609A603B68BB66A8
:102110000023FB6612E0BA68FB6ED11807F12403B6
:1021200008221846FFF71AFF07F1240308220821A6
:10213000184600F065F9FB6E1033FB66BA6EFB6E55
:10214000D31A102BE7D8BA6EFB6ED31A7B66BA6827
:10215000FB6ED11807F114037A6E184600F0F8FCF4
:102160007B6E0F2B05D807F114027B6E134480227F
:102170001A7007F1140107F1240308221846FFF72B
:10218000EDFE7B6E0F2B04D83B6D83F080733B65B7
:1021900003E03B6D83F000733B6507F124030C22E1
:1021A0000821184600F02CF907F124031946F868B5
:1021B000FFF767FF07F1240308220821184600F003
:1021C0001FF9FB68103307F1240211461846FFF788
:1021D00058FF07F1240308220821184600F010F9DF
:1021E000FB68203307F1240211461846FFF749FF28
:1021F000002318467037BD4680BD80B489B000AF5B
:10220000786039603B68DA0F13445B107B617B6850
:102210003B617B682033FB600023BB610023FB61D3
:102220000AE0FB699B003A6913441B68BA69534092
:10223000BB61FB690133FB61FA697B699A42F0DBA0
:10224000BB691A04BB6953404FEA3343BB610023A7
:10225000FB6118E0FA697B6913449B00FA68134438
:102260001968FB699B00FA6813441A68BB695A40F5
:10227000F8697B6903449B00F86803444A401A608C
:10228000FB690133FB61FA697B699A42E2DB002357
:10229000BB610023FB610AE0FB699B00FA68134401
:1022A0001B68BA695340BB61FB690133FB61FA6982
:1022B0007B699A42F0DBBB691A04BB6953404FEA61
:1022C0003343BB610023FB6118E0FA697B69134467
:1022D0009B003A6913441968FB699B003A691344EF
:1022E0001A68BB695A40F8697B6903449B003869E6
:1022F00003444A401A60FB690133FB61FA697B6958
:102300009A42E2DB3B691B68BB610023FB611DE075
:10231000FA697B69134401339B003A691A44FB69EB
:102320009B0039690B4412681A60FB6901339B00FA
:102330003A691A44F9697B690B4401339B00396996
:102340000B4412681A60FB690133FB617B69013B36
:10235000FA699A42DCDB7B699B003A691A447B6923
:1023600003F18043013B9B0039690B4412681A60FA
:102370007B699B003A691344BA691A60FB681B6861
:10238000BB610023FB611DE0FA697B6913440133E3
:102390009B00FA681A44FB699B00F9680B441268B9
:1023A0001A60FB6901339B00FA681A44F9697B697A
:1023B0000B4401339B00F9680B4412681A60FB69F7
:1023C0000133FB617B69013BFA699A42DCDB7B6983
:1023D0009B00FA681A447B6903F18043013B9B0030
:1023E000F9680B4412681A607B699B00FA68134411
:1023F000BA691A6000BF2437BD4680BC7047000030
:1024000080B586B000AFF860B9607A60BB6803F051
:102410000103002B05D1BB68032B02DDBB68082B31
:1024200005DD7C4B7C4A6F217C4800F037FB0023A4
:102430007B61E5E0FB681A6A7B69594203F0070398
:1024400001F0070158BF4B42754951F823305A40FB
:10245000FB681A62FB685A6A7B695A40FB685A62D9
:1024600000233B61C0E0FB683A6953F82220FB6817
:102470003969083153F821304FEAF373D118FB68FA
:102480003A6943F82210FB683A69083253F822206F
:10249000FB68396953F821304FEA336382EA03015C
:1024A000FB683A69083243F82210FB683A6953F82E
:1024B00022205B493B6951F8233082EA0301FB6823
:1024C0003A6943F82210FB683A6953F82220FB6806
:1024D0003969083153F821304FEA7343D118FB684A
:1024E0003A6943F82210FB683A69083253F822200F
:1024F000FB68396953F821304FEA734382EA0301DC
:10250000FB683A69083243F82210FB683A6953F8CD
:10251000222043493B6951F8233082EA0301FB68DA
:102520003A6943F82210FB683A6953F82220FB68A5
:102530003969083153F82130D118FB683A6943F8FA
:102540002210FB683A69083253F82220FB68396987
:1025500053F821304FEAF37382EA0301FB683A69CA
:10256000083243F82210FB683A6953F822202C49BC
:102570003B6951F8233082EA0301FB683A6943F86A
:102580002210FB683A6953F82220FB683969083148
:1025900053F821304FEA3363D118FB683A6943F8A6
:1025A0002210FB683A69083253F82220FB68396927
:1025B00053F821304FEA334382EA0301FB683A695A
:1025C000083243F82210FB683A6953F82220144974
:1025D0003B6951F8233082EA0301FB683A6943F80A
:1025E00022103B6901333B613A69BB689A42FFF6AE
:1025F0003AAFB968F868FFF700FE7B6901337B6189
:102600007A697B689A42FFF615AF00BF00BF1837A2
:10261000BD4680BD643E0008084100089C3E00089D
:10262000E840000880B582B000AF00237B6000F076
:10263000DDF900F07DF900F095F9194A19491A48B9
:1026400000F0B2F9194800F0AFF9194B1B6B184AAA
:10265000D26A1946174800F0A7F9154B196A144BAE
:102660005A6A134B9B6A144800F09EF94FF480722B
:102670000021124800F07AFA4FF4807200211048CD
:1026800000F074FA4FF4807200210E4800F06EFAE8
:1026900000F01AF878607B6818460837BD4680BDA0
:1026A0001441000894410008703F0008B83F00083A
:1026B00034060020C83F0008F03F000898000020C2
:1026C00098010020980200202DE9B043ADF5896DF6
:1026D00000AF0023C7F8443407F130014FF48062A3
:1026E0004FF00003084600F0E9F84FF000024FF009
:1026F000000307F58761C1E9002351E0D7F83834BA
:102700001946544800F050F900F012F907F1300171
:10271000384607F58763D3E90023FFF7E1FCC7F8E4
:10272000440400F01FF94C4B1B685A1C4A490A60CC
:102730004A4A12684A4941F82320D7F84434002B0A
:1027400015D1464B1B681946444B1B68002B00DA19
:102750000F331B111A46434B1B68434800F024F902
:1027600007F58763D3E9002313430DD104E06FF02D
:102770000303C7F844341FE04FF004024FF0000396
:1027800007F58761C1E9002307F58763D3E90023D3
:1027900012EB020843EB030907F58763C3E90089DD
:1027A00007F58763D3E900234FF480604FF0000101
:1027B000994208BF9042A1D2274B00221A602B48B1
:1027C00000F05AF82A4800F0EFF84FF000024FF0FE
:1027D000000307F58661C1E9002326E0D7F830142D
:1027E0001D4B1B685A1C1C4802601D4A52F82330BE
:1027F0001A46204800F0D8F807F58663D3E900238D
:10280000134307D14FF004024FF0000307F5866130
:10281000C1E9002307F58663D3E90023941843EB4D
:10282000030507F58663C3E9004507F58663D3E929
:1028300000234FF480604FF00001994208BF90429E
:10284000CCD2D7F84434184607F58967BD46BDE8B1
:10285000B08300BF1C4000089803002090000020B7
:1028600098020020940000202C40000848400008F6
:10287000504000086040000880B582B000AF78602A
:10288000094B0A4A79680A4800F08EF8094B196A20
:10289000084B5A6A074B9B6A074800F085F800BF4F
:1028A0000837BD4680BD00BF1441000894410008B0
:1028B0006C40000834060020A8400008B0B487B07F
:1028C00000AFF860C7E900234FF000024FF00003AB
:1028D000C7E904230DE03A7C3B69F9680B443032C8
:1028E000D2B21A70D7E90423541C43F10005C7E99A
:1028F0000445D7E90401D7E90023994208BF904273
:10290000E9D300BF00BF1C37BD46B0BC7047000014
:1029100080B483B000AF7860044B1B680133034A76
:10292000136000BF0C37BD4680BC70479C0300207D
:1029300080B500AF084B00221A60084B1B680022CC
:102940005A62FDF755FF0346054A13600348FEF738
:102950004BFE00BF80BD00BF9C030020E8050020A7
:102960009400002080B500AF0B48FEF797FE0B4B9C
:102970001B681A04084B1B685B6A1343084A136000
:10298000FDF736FF0246074B1B68D31A054A136052
:10299000034B1B68184680BDE80500209C030020FF
:1029A00090000020940000200FB480B582B000AFEA
:1029B00007F114037B607A6839690A4800F0E2FB8A
:1029C0000848FDF725FC03469AB2642305490648EA
:1029D000FFF703F900BF0837BD46BDE8804004B0EB
:1029E000704700BFA0030020A805002080B500AFFD
:1029F00034220021224800F0B9F8214B4FF0006248
:102A00001A601F4B1B681E4A53601E4A1C4B9A607B
:102A10001D4A1B4B9A611D4A194BDA611C4A184B1F
:102A2000DA601C4A164B5A611B4A154B1A61144B4B
:102A30009A68134B5B68D31A114A1362104B5A6998
:102A40000F4BDB68D31A0E4A53620D4BDA690C4BFD
:102A50009B69D31A0A4A9362094B5A6A084B9B6ACC
:102A60001344074AD362064B1A69054B5B6A1A4442
:102A7000034B1B68D31A024A136300BF80BD00BF1B
:102A800034060020443E0008700000207806002034
:102A90000000002070000020F04200081FB514461E
:102AA0001A46094B05461B68D8684CB1074BCDE95F
:102AB000013400912B46064900F014F800F02CFC7C
:102AC000044B1C46F3E700BF0C0000201442000832
:102AD000214200084F420008014B1868704700BFB0
:102AE0000C0000200EB403B5014603AB054853F8B3
:102AF000042B0068019300F069F802B05DF804EB64
:102B000003B070470C00002070B500260C4D0D4C32
:102B1000641BA410A64209D101F088F900260A4DD1
:102B20000A4C641BA410A64205D170BD55F8043BA5
:102B300098470136EEE755F8043B98470136F2E72F
:102B4000E8420008E8420008E8420008EC420008B9
:102B50000A44914200F1FF3300D1704710B511F8DB
:102B6000014B914203F8014FF9D110BD03460244D5
:102B7000934200D1704703F8011BF9E7936810B442
:102B8000013B002B936007DA9469A34201DB0A2919
:102B900002D110BC00F000BB1368581C1060197003
:102BA000084610BC7047F8B506460F461446D518BF
:102BB000AC4201D1002007E03A46304614F8011B30
:102BC000FFF7DCFF431CF3D1F8BD00002DE9F04F07
:102BD0000D461446984606469DB018B183690BB958
:102BE00000F0BCFC894B9D421BD175686B6ED90708
:102BF00005D4AB899A0502D4A86D00F04DFDAB89D0
:102C00001B0701D52B69EBB92946304600F016FBAE
:102C1000C0B16B6EDC070ED54FF0FF301DB0BDE8C4
:102C2000F08F7B4B9D4201D1B568DFE7794B9D4228
:102C300008BFF568DAE7AB899805EDD4A86D00F018
:102C40002CFDE9E70023099320238DF82930302358
:102C50004FF00109CDF80C80DFF8BC818DF82A30E7
:102C600023469A4613F8012B0AB1252AF9D1BAEB6B
:102C7000040B0BD05B46224629463046FFF793FFF4
:102C8000013000F0AA80099A5A4409929AF800305B
:102C9000002B00F0A28000234FF0FF32CDE9052386
:102CA0000AF1010A049307938DF853301A9354469E
:102CB000052214F8011B584800F054FD049AD8B9B5
:102CC000D10644BF20238DF85330130744BF2B2374
:102CD0008DF853309AF800302A2B15D05446002036
:102CE0004FF00A0C079A214611F8013B303B092BA3
:102CF0004ED9B0B1079214E0A0EB080309FA03F330
:102D00001343A2460493D2E7039B191D1B6803914A
:102D1000002BBBBF5B4242F0020207930793B8BF90
:102D2000049223782E2B0CD163782A2B35D1039B68
:102D300002341A1D1B680392002BB8BF4FF0FF33FB
:102D40000593DFF8E4A003225046217800F00AFD45
:102D500040B14023A0EB0A0003FA00F0049B0134C9
:102D60000343049314F8011B06222C488DF8281005
:102D700000F0F8FC00283FD0294B1BBB039B073316
:102D800023F0070308330393099B3B44099367E748
:102D90000C4601200CFB0232A5E700234FF00A0C81
:102DA000194601340593204610F8012B303A092AC0
:102DB00003D9002BC5D00591C3E7044601230CFBC2
:102DC0000121F0E703AB00932A463046154B04A9D6
:102DD000AFF300800746781CD6D16B6ED90705D4B7
:102DE000AB899A0502D4A86D00F057FCAB895B064D
:102DF0003FF512AF099811E703AB00932A4630461E
:102E0000084B04A900F082F8E4E700BFA8420008DC
:102E1000C842000888420008544200085E42000888
:102E200000000000A72B00085A4200082DE9F047D7
:102E3000164699468A680B6907469342B8BF1346FF
:102E4000336091F843200C46DDF820800AB101334D
:102E500033602368990642BF3368023333602568C4
:102E600015F0060506D104F1190AE36832689B1AC9
:102E7000AB4228DC94F84320131E226818BF0123BC
:102E800092062DD44946384604F14302C04701302A
:102E900020D02368E56803F00603042B18BF002543
:102EA00032684FF00006A36808BFAD1A226908BF58
:102EB00025EAE5759342C4BF9B1AED181A34B54252
:102EC0001AD1002008E00123524649463846C0473F
:102ED000013003D14FF0FF30BDE8F0870135C4E782
:102EE0003020E11881F843005A1C94F84510224420
:102EF000023382F84310C5E701232246494638468B
:102F0000C0470130E6D00136D9E700002DE9FF4780
:102F10000C46277E9146782F80469A460C9904F1FC
:102F2000430207D8622F0AD8002F00F0D980582F0B
:102F300000F0A48004F1420684F842703AE0A7F160
:102F40006303152BF6D801A050F823F0A52F000835
:102F5000B92F0008352F0008352F0008352F00083D
:102F6000352F0008B92F0008352F0008352F00082D
:102F7000352F0008352F0008C7300008E92F00085A
:102F8000A9300008352F0008352F0008E930000867
:102F9000352F0008E92F0008352F0008352F0008CD
:102FA000B13000080B6804F142061A1D1B680A6064
:102FB00084F842300123A4E0256808682E0600F159
:102FC00004030AD505680B60002D03DA2D236D423A
:102FD00084F843300A235E4819E015F0400F056875
:102FE0000B6018BF2DB2EFE70B682568181D08604D
:102FF000280601D51D6802E06906FBD51D886F2FE4
:103000000CBF08230A235248002184F84310666845
:10301000002EA8BF2168A660A4BF21F00401216092
:103020000DB9002E4DD01646B5FBF3F103FB115739
:10303000C75D06F8017D2F46BB420D46F4D9082B2B
:103040000BD12368DF0708D5236961689942DEBF89
:10305000302306F8013C06F1FF36921B22614B46F5
:1030600021464046CDF800A003AAFFF7DFFE01305D
:103070004CD14FF0FF3004B0BDE8F087344884F8FD
:1030800045700E68236856F8045B1F060E6014D561
:10309000D90744BF43F0200323601DB9236823F000
:1030A000200323601023AFE7236843F0200323604D
:1030B0007823284884F84530E3E75E0648BFADB280
:1030C000E6E71646BBE70B6826681D1D60690D60C4
:1030D00035061B6801D5186002E07106FBD5188023
:1030E000002316462361BAE70B681A1D0A601E68A2
:1030F00000213046626800F035FB08B1801B60603B
:1031000063682361002384F84330A8E732464946C8
:1031100040462369D0470130ABD023689B0713D4C6
:10312000E068039B9842B8BF1846A4E701233246E3
:1031300049464046D04701309BD00135E3680399AA
:103140005B1AAB42F2DCEBE7002504F11906F5E768
:10315000654200087642000800B59BB000910491DA
:103160006FF000410591029105490391694600F015
:1031700049FC0022009B1A701BB05DF804FB00BFE5
:103180000802FFFF13460A46014602480068FFF79F
:10319000E3BF00BF0C000020F8B50E4614460546FC
:1031A00018B183690BB900F0D9F9214B9C422BD19E
:1031B0006C68A369A360A3891A072FD523696BB331
:1031C00023692068F6B2C01A63693746834204DC7B
:1031D0002146284600F02EF930BBA3680130013BA0
:1031E000A36023685A1C22601E706369834204D066
:1031F000A389DB0706D50A2E04D12146284600F014
:1032000019F988B93846F8BD0A4B9C4201D1AC681F
:10321000CFE7094B9C4208BFEC68CAE72146284625
:1032200000F00CF80028CBD04FF0FF37EAE700BFE2
:10323000A8420008C842000888420008324B70B516
:103240001D6806460C4625B1AB6913B9284600F047
:1032500085F92E4B9C420FD16C68A389B4F90C20E0
:1032600019072CD4DD0611D40923336042F0400342
:103270004FF0FF30A3813EE0254B9C4201D1AC686A
:10328000EBE7244B9C4208BFEC68E6E7580712D5F1
:10329000616B41B104F14403994202D0304600F021
:1032A00089FA00236363A38923F02403A381002305
:1032B000636023692360A38943F00803A381236922
:1032C0004BB9A38903F42073B3F5007F03D02146E3
:1032D000304600F007FAA089B4F90C2010F0010381
:1032E0000AD00023A36063695B42A361236943B9E9
:1032F00010F08000BAD170BD810758BF6369A36028
:10330000F4E70020F7E700BF0C000020A842000807
:10331000C842000888420008062008B500F0AAFC50
:103320000120FDF742F900008A892DE9F0410546A8
:1033300010070C4658D44B68002B05DC0B6C002B97
:1033400002DC0020BDE8F081E66A002EF9D00023FF
:1033500012F480522F682B6032D0606DA3895A0717
:1033600005D56368C01A636B0BB1236CC01A0023C8
:103370000246E66A2846216AB047431CA38906D163
:1033800029681D292CD82A4ACA40D60728D50022E8
:1033900062602269D904226004D5421C01D12B68E5
:1033A00003B96065616B2F600029CAD004F1440342
:1033B000994202D0284600F0FDF900206063C1E781
:1033C000216A01232846B047411CC7D12B68002B36
:1033D000C4D01D2B01D0162B01D12F60B1E7A389DA
:1033E00043F04003A381ADE70F69002FA9D09307F5
:1033F00018BF00230E6808BF4B69A6EB07080F60D3
:103400008B60B8F1000F9CDD43463A462846216A9E
:10341000A66AB047002806DCA3894FF0FF3043F0CE
:103420004003A3818EE70744A8EB0008E9E700BF4B
:103430000100402038B50B6905460C4613B900253C
:10344000284638BD18B183690BB900F087F8144BD2
:103450009C421BD16C68B4F90C30002BEFD0626E2B
:10346000D00704D4990502D4A06D00F015F92846C0
:103470002146FFF759FF636E0546DA07E0D4A389BA
:103480009B05DDD4A06D00F008F9D9E7054B9C42FF
:1034900001D1AC68DFE7044B9C4208BFEC68DAE777
:1034A000A8420008C842000888420008002310B55E
:1034B0000446C0E90033C0E9043383608181436678
:1034C000C2818361194608225C30FFF74FFB054B30
:1034D00024626362044BA362044BE362044B2363E4
:1034E00010BD00BFAD3C0008CF3C0008073D000800
:1034F0002B3D0008014900F0AFB800BF353400088B
:1035000070B568254A1E55430E4605F1740100F05A
:103510009DF9044640B10021C0E900160C30A060BE
:1035200005F16802FFF722FB204670BD014800F05C
:10353000B3B800BF70060020014800F0AEB800BF6D
:1035400070060020014800F0A7B800BF6B060020FD
:10355000014800F0A2B800BF6B06002010B5044679
:10356000FFF7F0FFA3691BB1BDE81040FFF7F0BF04
:10357000C4E912332365134B134A1B68A262A342AA
:1035800008BF0123204608BFA36100F01FF8606058
:10359000204600F01BF8A060204600F017F800223B
:1035A0000421E0606068FFF781FF01220921A06823
:1035B000FFF77CFF02221221E068FFF777FF01236B
:1035C000A361D1E750420008F5340008F8B507467A
:1035D000FFF7ACFF1E4B1E68B36913B93046FFF707
:1035E000BDFF4836D6E90134013B03D533680BB340
:1035F0003668F7E7B4F90C50D5B9164B04F158000A
:10360000E360656600F047F8FFF796FF0822294659
:10361000C4E90155C4E904552560A56104F15C00C5
:10362000FFF7A4FAC4E90D55C4E912552046F8BDC8
:103630006834D9E704213846FFF762FF044630605A
:103640000028D5D1FFF778FF0C233B60EEE700BFE1
:10365000504200080100FFFF2DE9F8430646884666
:10366000002700F14804D4E90195B9F1010905D515
:103670002468002CF7D13846BDE8F883AB89012BCC
:1036800007D9B5F90E30013303D029463046C0477B
:1036900007436835E9E770477047704770B50E46D5
:1036A000B1F90E10144600291D4696B007DA002322
:1036B0002B60B3891A0610D44FF480630EE06A467B
:1036C00000F05AFB0028F2DB019A02F47042A2F5E6
:1036D00000535A425A412A60EEE7402300202360FB
:1036E00016B070BD8B8973B59D0706460C4607D58D
:1036F00004F14703236023610123636102B070BDBD
:103700006A4601ABFFF7CAFF00990546304600F054
:103710009DF848B9B4F90C309A05EFD423F00303AF
:1037200043F00203A381E3E70D4BB362A38920605A
:1037300043F08003A381009B20616361019B5BB127
:103740003046B4F90E1000F029FB28B1A38923F00C
:10375000030343F00103A381A0890543A581CDE7BD
:10376000F5340008034610B5C9B202449342184626
:1037700001D1002003E0047801338C42F6D110BD62
:10378000884210B501EB020402D98442234607D8CF
:10379000431EA14208D011F8012B03F8012FF8E7CE
:1037A000014602448A4200D110BD13F8014D02F8CF
:1037B000014DF7E738B50546002943D051F8043CE0
:1037C0000C1F002BB8BFE41800F00AFB1E4A136858
:1037D000104633B9636014602846BDE8384000F0F5
:1037E00005BBA3420AD921686218934201BF1A6837
:1037F0005B685218226063600460EDE71A465B68FC
:103800000BB1A342FAD911685018A0420BD120681D
:103810000144501883421160DED118685B6801448E
:1038200011605360D8E702D90C232B60D4E72068DD
:1038300021188B4201BF19685B6809182160636019
:103840005460C9E738BD00BFA0050020F8B5CD1C05
:1038500025F0030508350C2D38BF0C25002D064634
:1038600001DBA94203D90C2333600020F8BD00F02E
:10387000B7FA21490A6814469CB9204F3B6823B91E
:103880002146304600F0BEF938602946304600F047
:10389000B9F9431C23D10C233046336000F0A6FA5B
:1038A000E3E723685B1B17D40B2B03D923601C446D
:1038B000256004E06368A2420CBF0B605360304691
:1038C00000F094FA04F10B00231D20F00700C21A47
:1038D000CCD01B1AA350C9E722466468CCE7C41CAD
:1038E00024F00304A042E3D0211A304600F08AF904
:1038F0000130DDD1CFE700BFA0050020A4050020E6
:10390000F8B5074614460E4621B91146BDE8F84001
:10391000FFF79CBF22B9FFF74DFF25462846F8BDAB
:1039200000F06AFAA0420FD221463846FFF78EFF18
:1039300005460028F2D031462246FFF709F9314604
:103940003846FFF737FFE9E73546E7E72DE9F04767
:103950008E6882469E420C4690461F4638D88A8919
:1039600012F4906F32D0256809690133A5EB010983
:1039700065694B4405EB450505EBD5756D109D421A
:1039800038BF1D46530531D52946FFF75FFF064670
:1039900050B90C234FF0FF30CAF80030A38943F030
:1039A0004003A381BDE8F0874A462169FFF7D0F8BC
:1039B000A38923F4906343F08003A38126614E44DE
:1039C00026603E466561A5EB0905A560BE4200D9AB
:1039D0003E46324641462068FFF7D2FEA368226881
:1039E0009B1B32440020A3602260DBE72A46FFF7DE
:1039F00087FF06460028E1D150462169FFF7DAFE2D
:103A0000C7E700002DE9F04F98468B8907461B0653
:103A10000D4614469DB00ED50B6963B94021FFF7E2
:103A200015FF2860286120B90C233B604FF0FF3060
:103A3000D1E040236B610023099320238DF82930C6
:103A400030234FF00109CDF80C80DFF8A4818DF808
:103A50002A3023469A4613F8012B0AB1252AF9D1B8
:103A6000BAEB040B0BD05B46224629463846FFF7DB
:103A70006DFF013000F0AA80099A5A4409929AF821
:103A80000030002B00F0A28000234FF0FF32CDE980
:103A900005230AF1010A049307938DF853301A9312
:103AA0005446052214F8011B5148FFF75BFE049AA7
:103AB000D8B9D00644BF20238DF85330110744BF36
:103AC0002B238DF853309AF800302A2B15D054460A
:103AD00000204FF00A0C079A214611F8013B303BB9
:103AE000092B4ED9B0B1079214E0A0EB080309FAF4
:103AF00003F31343A2460493D2E7039B191D1B68EB
:103B00000391002BBBBF5B4242F002020793079375
:103B1000B8BF049223782E2B0CD163782A2B35D191
:103B2000039B02341A1D1B680392002BB8BF4FF091
:103B3000FF330593DFF8C8A0032250462178FFF732
:103B400011FE40B14023A0EB0A0003FA00F0049BF1
:103B500001340343049314F8011B062225488DF811
:103B60002810FFF7FFFD002838D0234B1BBB039B19
:103B7000073323F0070308330393099B3344099366
:103B800067E70C4601200CFB0232A5E700234FF04B
:103B90000A0C194601340593204610F8012B303ADF
:103BA000092A03D9002BC5D00591C3E70446012398
:103BB0000CFB0121F0E703AB00932A4638460F4B7C
:103BC00004A9AFF30080421C0646D6D1AB895B0640
:103BD0003FF52CAF09981DB0BDE8F08F03AB009303
:103BE0002A463846054B04A9FFF790F9EBE700BFDA
:103BF000544200085E420008000000004D390008F1
:103C00005A42000838B50023054D044608462B608B
:103C1000FCF73EFD431C02D12B6803B1236038BD85
:103C2000740600201F2938B504460D4604D9162312
:103C300003604FF0FF3038BD426C12B152F82130B2
:103C40004BB9204600F030F82A4601462046BDE830
:103C5000384000F017B8012B0AD0591C03D11623A5
:103C600003600120E7E70024284642F825409847F2
:103C70000020E0E7024B01461868FFF7D3BF00BF02
:103C80000C00002038B50023064D044608461146B6
:103C90002B60FCF77AFC431C02D12B6803B1236034
:103CA00038BD00BF74060020FCF768BC10B50C4698
:103CB000B1F90E1000F0A8F80028ABBF636DA3891E
:103CC0001B1823F48053ACBF6365A38110BD2DE99D
:103CD000F0411F468B890546DB050C46164605D587
:103CE00002230022B1F90E1000F068F8A3893246D1
:103CF00023F48053A38128463B46B4F90E10BDE857
:103D0000F04100F017B810B50C46B1F90E1000F0F4
:103D100055F8431CA38915BF606523F4805343F411
:103D20008053A38118BFA38110BDB1F90E1000F01C
:103D300013B8000038B50446084611460022054D68
:103D40002A601A46FCF758FC431C02D12B6803B1C9
:103D5000236038BD7406002038B50023054D0446A5
:103D600008462B60FCF764FC431C02D12B6803B1AE
:103D7000236038BD7406002038B50023064D044684
:103D8000084611462B60FCF75EFC431C02D12B68F1
:103D900003B1236038BD00BF7406002038B500238E
:103DA000054D044608462B60FCF75CFC431C02D121
:103DB0002B6803B1236038BD7406002038B5044673
:103DC000084611460022054D2A601A46FCF754FCAD
:103DD000431C02D12B6803B1236038BD7406002058
:103DE0000148FFF759BC00BF6C0600200148FFF7EF
:103DF00054BC00BF6C06002051F8043C181F002B77
:103E0000BCBF0B58C018704738B504460846114669
:103E10000022054D2A601A46FCF7D1FB431C02D153
:103E20002B6803B1236038BD74060020F8B500BFCD
:103E3000F8BC08BC9E467047F8B500BFF8BC08BC8B
:043E40009E467047E3
:103E440002030405060708090A0B0C0D0E0F1010D7
:103E54000102030405060708090A0B0C0D0E0F10D6
:103E640028286E622026203129203D3D203029203B
:103E7400262620286E62203E3D2034292026262036
:103E8400286E62203C3D204D41585F4252414E43D2
:103E94004845532900000000433A2F557365727357
:103EA4002F766173696C69692F4465736B746F70E5
:103EB4002F6D645F6C6573736F6E732F64617461CF
:103EC4005F6E65745F7365632F6E6973745F6C777F
:103ED400635F62656E63686D61726B2F616C676F9F
:103EE400732F737061726B6C652F496D706C656DA7
:103EF400656E746174696F6E732F63727970746F19
:103F04005F686173682F6573636833383476312F63
:103F14007265662F737061726B6C655F7265662E75
:103F2400630000002825303278253032782530327D
:103F34007825303278202530327825303278253093
:103F44003278253032782900696E7075743A000031
:103F5400737061726B6C653A00000000737061727B
:103F64006B6C6520696E763A000000000A0A0A0A42
:103F74005374617274696E672E2E2E0A25730A4D6E
:103F8400617920203120323032312031363A3432D6
:103F94003A31390A4F7074696D697A6174696F6E68
:103FA4003A204F300A416C676F726974686D3A2029
:103FB40025730A004D656D6F7279207573616765AD
:103FC4003A200000546F74616C20464C4153483AC7
:103FD4002025366C754220546F74616C2052414D1B
:103FE4003A2025366C7542200A000000536563743C
:103FF400696F6E733A20746578742025366C754247
:1040040020646174612025366C75422062737320CC
:1040140025366C75420A00006D73675F6C656E3AF5
:104024002536642000000000686173683A25313049
:10403400642075733A253964206D733A25376420FA
:104044000A0000004841534800000000484153481A
:10405400546F745265733A20000000006828256488
:1040640029203D20256420002573202573204D61DF
:104074007920203120323032312031363A34323A0C
:104084003139204F7074696D697A6174696F6E3A61
:10409400204F3020416C676F726974686D3A202537
:1040A4007320000053656374696F6E733A207465FE
:1040B40078742025366C7520646174612025366C13
:1040C40075206273732025366C7520000000000093
:1040D40000000000010203040607080900000000B4
:1040E400010203046251E1B7805871BF56DAB43853
:1040F40038774E32EB8511BB577B7C4FC8A1BFCFBD
:104104003D29B3C2737061726B6C655F7265660042
:104114004C57435F414C474F5F484153485F5350AE
:1041240041524B4C455F4553434833383456310074
:10413400000000000000000000000000000000007B
:10414400000000000000000000000000000000006B
:10415400000000000000000000000000000000005B
:10416400000000000000000000000000000000004B
:10417400000000000000000000000000000000003B
:10418400000000000000000000000000000000002B
:104194005465737420456E61626C656400000000B0
:1041A400000000000000000000000000000000000B
:1041B40000000000000000000000000000000000FB
:1041C40000000000000000000000000000000000EB
:1041D40000000000000000000000000000000000DB
:1041E40000000000000000000000000000000000CB
:1041F40000000000000000000000000000000000BB
:1042040000000000000000000000000000000000AA
:104214002C2066756E6374696F6E3A200061737347
:10422400657274696F6E2022257322206661696C41
:1042340065643A2066696C6520222573222C206C03
:10424400696E65202564257325730A00100000201B
:10425400232D302B2000686C4C006566674546476B
:1042640000303132333435363738394142434445EE
:10427400460030313233343536373839616263645D
:10428400656600000000000000000000000000005F
:10429400000000000000000000000000000000001A
:1042A400000000000000000000000000000000000A
:1042B40000000000000000000000000000000000FA
:1042C40000000000000000000000000000000000EA
:1042D40000000000000000000000000000000000DA
:0442E40000000000D6
:0442E800F5010008D4
:0442EC00D1010008F4
:1042F0000024F40010000000010000001000002065
:1043000000000000A8420008C842000888420008D7
:10431000000000000000000000000000000000009D
:10432000000000000000000000000000000000008D
:10433000000000000000000000000000000000007D
:10434000000000000000000000000000000000006D
:10435000000000000000000000000000000000005D
:0400000508000709DF
:00000001FF
