:020000040800F2
:100000000020002095060008A5040008AB040008A5
:10001000B1040008B7040008BD0400080000000097
:10002000000000000000000000000000C304000801
:10003000CF04000800000000DB040008E70400080B
:10004000DD060008DD060008DD060008DD06000804
:10005000DD060008DD060008DD060008DD060008F4
:10006000DD060008DD060008DD060008DD060008E4
:10007000DD060008DD060008DD060008DD060008D4
:10008000DD060008DD060008DD06000800000000AF
:10009000000000000000000000000000DD06000875
:1000A000DD060008DD060008DD060008DD060008A4
:1000B000DD060008DD060008DD060008DD06000894
:1000C000DD0600080000000000000000DD0600085A
:1000D000DD060008DD060008DD060008DD06000874
:1000E000DD060008DD060008DD060008000000004F
:1000F0000000000000000000000000000000000000
:1001000000000000000000000000000000000000EF
:100110000000000000000000F5040008DD060008F3
:1001200000000000000000000000000000000000CF
:1001300000000000000000000000000000000000BF
:1001400000000000000000000000000000000000AF
:10015000000000000000000000000000000000009F
:10016000000000000000000000000000000000008F
:10017000000000000000000000000000000000007F
:10018000000000000000000000000000000000006F
:10019000000000000000000000000000000000005F
:1001A000000000000000000000000000000000004F
:1001B000000000000000000000000000000000003F
:1001C0000000000000000000000000005FF808F1DF
:1001D00010B5054C237833B9044B13B10448AFF381
:1001E00000800123237010BD70000020000000007B
:1001F000CC3F000808B5034B1BB103490348AFF3DC
:10020000008008BD0000000074000020CC3F000802
:10021000034613F8012B002AFBD1181A0138704746
:1002200080B485B000AF7860084B9A6907497B6855
:1002300013438B61054B9A697B681340FB60FB6835
:1002400000BF1437BD4680BC704700BF001002409D
:1002500008B500F044FA00F00FF800F079F800F06B
:1002600039F800F05BF8034C02F01EFB204600F06A
:100270008FFAF9E740420F0030B500230222012433
:1002800010254FF4002191B006A8CDE90833CDE93F
:100290000133CDE90333CDE90A45079300930E936B
:1002A0000C9306920D920F9100F028FD78B901464B
:1002B0000F240225002200236846CDE90045CDE940
:1002C0000223049100F09AFF08B911B030BD00F08C
:1002D00043F800BF00234FF6FF7210B50D4C0E49D6
:1002E00082B02046CDE90033C4E90133A361216027
:1002F000E26001F0EFF850B9002200236946204681
:10030000CDE9002301F06AFB08B902B010BD00F08E
:1003100023F800BFE80500200010004010B50023BE
:100320004FF4E1340C2208480849C0E90233C0E91F
:100330000014C0E906334261036101F0C7FB00B954
:1003400010BD00F009F800BFA805002000380140EA
:100350000420FFF765BF00BF72B6FEE780B485B02A
:1003600000AF154B9B69144A43F001039361124B94
:100370009B6903F00103BB60BB680F4BDB690E4A4E
:1003800043F08053D3610C4BDB6903F080537B60F7
:100390007B680A4B5B68FB60FB6823F0E063FB60F3
:1003A000FB6843F00073FB60044AFB68536000BFC6
:1003B0001437BD4680BC7047001002400000014069
:1003C00080B584B000AF78607B681B680D4A9342AB
:1003D00013D10D4BDB690C4A43F01003D3610A4B78
:1003E000DB6903F01003FB60FB680022002136206C
:1003F00000F0C9FA362000F0E2FA00BF1037BD461F
:1004000080BD00BF001000400010024080B588B0E1
:1004100000AF786007F1100300221A605A609A60FA
:10042000DA607B681B681C4A934231D11B4B9B6985
:100430001A4A43F480439361184B9B6903F4804349
:10044000FB60FB68154B9B69144A43F004039361FE
:10045000124B9B6903F00403BB60BB684FF400734D
:100460003B6102237B610323FB6107F11003194603
:100470000B4800F0BFFA4FF480633B6100237B61BF
:100480000023BB6107F110031946054800F0B2FADA
:1004900000BF2037BD4680BD00380140001002403B
:1004A0000008014080B400AFFEE780B400AFFEE773
:1004B00080B400AFFEE780B400AFFEE780B400AFC9
:1004C000FEE780B400AF00BFBD4680BC704780B47B
:1004D00000AF00BFBD4680BC704780B400AF00BF16
:1004E000BD4680BC704780B500AF00F035F900BF55
:1004F00080BD000080B500AF024801F0C3F800BF26
:1005000080BD00BFE805002080B400AF012318467D
:10051000BD4680BC704780B582B000AF786039605E
:1005200002F0AAFB034616221A604FF0FF3318466A
:100530000837BD4680BD80B582B000AF78604FF00F
:10054000FF317868FFF7E7FFFEE780B586B000AFC0
:10055000F860B9607A6000237B610AE0AFF3008045
:100560000146BB685A1CBA60CAB21A707B69013373
:100570007B617A697B689A42F0DB7B6818461837A2
:10058000BD4680BD80B586B000AFF860B9607A60C6
:1005900000237B6109E0BB685A1CBA601B781846CF
:1005A000AFF300807B6901337B617A697B689A4293
:1005B000F1DB7B6818461837BD4680BD80B483B038
:1005C00000AF78604FF0FF3318460C37BD4680BC53
:1005D000704780B483B000AF786039603B684FF4F7
:1005E00000525A60002318460C37BD4680BC704745
:1005F00080B483B000AF7860012318460C37BD4645
:1006000080BC704780B485B000AFF860B9607A6094
:10061000002318461437BD4680BC704780B586B0AD
:1006200000AF7860144A154BD31A7B617B693B613C
:10063000134B1B68002B02D1114B124A1A60104B4E
:100640001A687B6813443A699A4207D202F014FB95
:1006500003460C221A604FF0FF3309E0084B1B6879
:10066000FB60074B1A687B681344054A1360FB68FC
:1006700018461837BD4680BD002000200004000049
:100680008C0000207806002080B400AF00BFBD467B
:1006900080BC7047002103E00B4B5B584350043192
:1006A0000A480B4B42189A42F6D30A4A02E000234A
:1006B00042F8043B084B9A42F9D3FFF7E5FF02F0FA
:1006C000F3FAFFF7C5FD70479445000800000020CD
:1006D000700000207000002078060020FEE780B542
:1006E00000AF032000F044F9002000F005F8FFF708
:1006F00035FE0023184680BD80B582B000AF78601B
:10070000124B1A68124B1B7819464FF47A73B3FBDD
:10071000F1F3B2FBF3F3184600F05FF90346002B48
:1007200001D001230EE07B680F2B0AD800227968E4
:100730004FF0FF3000F027F9064A7B681360002372
:1007400000E0012318460837BD4680BD00000020A8
:10075000080000200400002080B400AF054B1B7887
:100760001A46054B1B681344034A136000BFBD467D
:1007700080BC7047080000203006002080B400AF25
:10078000024B1B681846BD4680BC704730060020EF
:1007900080B584B000AF7860FFF7F0FFB8607B6889
:1007A000FB60FB68B3F1FF3F05D00A4B1B781A468C
:1007B000FB681344FB6000BFFFF7E0FF0246BB6825
:1007C000D31AFA689A42F7D800BF00BF1037BD4667
:1007D00080BD00BF0800002080B485B000AF786005
:1007E0007B6803F00703FB600C4BDB68BB60BA68F7
:1007F0004FF6FF031340BB60FB681A02BB6813434C
:1008000043F0BF6343F40033BB60044ABB68D3606A
:1008100000BF1437BD4680BC704700BF00ED00E04C
:1008200080B400AF044BDB681B0A03F007031846D3
:10083000BD4680BC704700BF00ED00E080B483B0CF
:1008400000AF0346FB7197F90730002B0BDBFB79F8
:1008500003F01F02064997F907305B09012000FAEF
:1008600002F241F8232000BF0C37BD4680BC704720
:1008700000E100E080B483B000AF03463960FB7153
:1008800097F90730002B0ADB3B68DAB20C4997F97D
:1008900007301201D2B20B4483F800230AE03B6810
:1008A000DAB20849FB7903F00F03043B1201D2B21C
:1008B0000B441A7600BF0C37BD4680BC704700BFA2
:1008C00000E100E000ED00E080B489B000AFF86026
:1008D000B9607A60FB6803F00703FB61FB69C3F151
:1008E0000703042B28BF0423BB61FB690433062BD9
:1008F00002D9FB69033B00E000237B614FF0FF322C
:10090000BB6902FA03F3DA43BB681A407B699A4079
:100910004FF0FF317B6901FA03F3D9437B680B4049
:10092000134318462437BD4680BC704780B582B05B
:1009300000AF78607B68013BB3F1807F01D3012376
:100940000FE00A4A7B68013B53600F214FF0FF30F4
:10095000FFF790FF054B00229A60044B07221A60B4
:10096000002318460837BD4680BD00BF10E000E0F8
:1009700080B582B000AF78607868FFF72DFF00BFC8
:100980000837BD4680BD80B586B000AF0346B9606C
:100990007A60FB7300237B61FFF742FF78617A681E
:1009A000B9687869FFF790FF024697F90F30114652
:1009B0001846FFF75FFF00BF1837BD4680BD80B502
:1009C00082B000AF0346FB7197F907301846FFF776
:1009D00035FF00BF0837BD4680BD80B582B000AF8F
:1009E00078607868FFF7A2FF034618460837BD46CF
:1009F00080BD000080B48BB000AF78603960002308
:100A00007B6200233B6269E101227B6A02FA03F305
:100A1000FB613B681B68FA691340BB61BA69FB69FB
:100A20009A4240F058813B685B689A4A93425ED094
:100A3000984A934275D8984A934258D0964A93421E
:100A40006FD8964A934252D0944A934269D8944AB6
:100A500093424CD0924A934263D8924A934246D0F2
:100A6000904A93425DD8122B2AD8122B59D801A252
:100A700052F823F0EF0A0008C90A0008DB0A000850
:100A80001D0B0008230B0008230B0008230B000894
:100A9000230B0008230B0008230B0008230B00087E
:100AA000230B0008230B0008230B0008230B00086E
:100AB000230B0008230B0008D10A0008E50A0008F0
:100AC000794A934213D02CE03B68DB683B6229E013
:100AD0003B68DB6804333B6224E03B68DB68083337
:100AE0003B621FE03B68DB680C333B621AE03B680B
:100AF0009B68002B02D104233B6213E03B689B6898
:100B0000012B05D108233B627B68FA691A6109E071
:100B100008233B627B68FA695A6103E000233B6269
:100B200000E000BFBB69FF2B01D87B6801E07B6858
:100B300004337B61BB69FF2B02D87B6A9B0002E018
:100B40007B6A083B9B003B617B691A680F213B690C
:100B500001FA03F3DB431A40396A3B6901FA03F3F4
:100B60001A437B691A603B685B6803F08053002B73
:100B700000F0B1804D4B9B694C4A43F001039361F7
:100B80004A4B9B6903F00103BB60BB68484A7B6A20
:100B90009B08023352F82330FB607B6A03F00303A7
:100BA0009B000F2202FA03F3DB43FA681340FB6059
:100BB0007B68404A934213D07B683F4A93420DD0F2
:100BC0007B683E4A934207D07B683D4A934201D1FD
:100BD000032306E0042304E0022302E0012300E0F3
:100BE00000237A6A02F0030292009340FA681343EA
:100BF000FB602F497B6A9B080233FA6841F8232087
:100C00003B685B6803F48033002B06D02D4B1A68D9
:100C10002C49BB6913430B6006E02A4B1A68BB6979
:100C2000DB43284913400B603B685B6803F40033E7
:100C3000002B06D0234B5A682249BB6913434B60F3
:100C400006E0204B5A68BB69DB431E4913404B60EA
:100C50003B685B6803F48013002B06D0194B9A683D
:100C60001849BB6913438B6006E0164B9A68BB6951
:100C7000DB43144913408B603B685B6803F400134B
:100C8000002B21D00F4BDA680E49BB691343CB60B0
:100C900021E000BF000032100000311000002210DF
:100CA000000021100000121000001110001002407E
:100CB0000000014000080140000C0140001001400C
:100CC00000140140000401400B4BDA68BB69DB43B0
:100CD00009491340CB607B6A01337B623B681A6829
:100CE0007B6A22FA03F3002B7FF48EAE00BF00BFB5
:100CF0002C37BD4680BC70470004014080B586B0EB
:100D000000AF78607B68002B01D101236CE27B6827
:100D10001B6803F00103002B00F08780924B5B6897
:100D200003F00C03042B0CD08F4B5B6803F00C0317
:100D3000082B12D18C4B5B6803F48033B3F5803FF2
:100D40000BD1894B1B6803F40033002B6CD07B68FC
:100D50005B68002B68D1012346E27B685B68B3F5D2
:100D6000803F06D1804B1B687F4A43F48033136079
:100D70002EE07B685B68002B0CD17B4B1B687A4AAA
:100D800023F480331360784B1B68774A23F4802365
:100D900013601DE07B685B68B3F5A02F0CD1724B2C
:100DA0001B68714A43F4802313606F4B1B686E4AC3
:100DB00043F4803313600BE06B4B1B686A4A23F4E7
:100DC00080331360684B1B68674A23F480231360E9
:100DD0007B685B68002B13D0FFF7D0FC386108E01C
:100DE000FFF7CCFC02463B69D31A642B01D90323DD
:100DF000FAE15D4B1B6803F40033002BF0D014E0E4
:100E0000FFF7BCFC386108E0FFF7B8FC02463B691D
:100E1000D31A642B01D90323E6E1534B1B6803F477
:100E20000033002BF0D100E000BF7B681B6803F0AB
:100E30000203002B63D04C4B5B6803F00C03002BC8
:100E40000BD0494B5B6803F00C03082B1CD1464BBD
:100E50005B6803F48033002B16D1434B1B6803F00F
:100E60000203002B05D07B681B69012B01D00123F5
:100E7000BAE13D4B1B6823F0F8027B685B69DB003D
:100E8000394913430B603AE07B681B69002B20D083
:100E9000364B01221A60FFF771FC386108E0FFF75A
:100EA0006DFC02463B69D31A022B01D903239BE157
:100EB0002D4B1B6803F00203002BF0D02A4B1B685C
:100EC00023F0F8027B685B69DB00274913430B6062
:100ED00015E0264B00221A60FFF750FC386108E04D
:100EE000FFF74CFC02463B69D31A022B01D90323BE
:100EF0007AE11D4B1B6803F00203002BF0D17B68E5
:100F00001B6803F00803002B3AD07B689B69002B19
:100F100019D0174B01221A60FFF730FC386108E046
:100F2000FFF72CFC02463B69D31A022B01D903239D
:100F30005AE10D4B5B6A03F00203002BF0D0012055
:100F400000F0AAFA1CE00A4B00221A60FFF716FC18
:100F500038610FE0FFF712FC02463B69D31A022BFF
:100F600008D9032340E100BF0010024000004242C4
:100F7000800442429E4B5B6A03F00203002BE9D1DE
:100F80007B681B6803F00403002B00F0A68000239D
:100F9000FB75974BDB6903F08053002B0DD1944B0D
:100FA000DB69934A43F08053D361914BDB6903F0D3
:100FB0008053BB60BB680123FB758E4B1B6803F439
:100FC0008073002B18D18B4B1B688A4A43F48073C3
:100FD0001360FFF7D3FB386108E0FFF7CFFB024651
:100FE0003B69D31A642B01D90323FDE0814B1B68B5
:100FF00003F48073002BF0D07B68DB68012B06D1F3
:101000007B4B1B6A7A4A43F0010313622DE07B6835
:10101000DB68002B0CD1764B1B6A754A23F0010369
:101020001362734B1B6A724A23F0040313621CE0C1
:101030007B68DB68052B0CD16D4B1B6A6C4A43F057
:10104000040313626A4B1B6A694A43F0010313628B
:101050000BE0674B1B6A664A23F001031362644B83
:101060001B6A634A23F0040313627B68DB68002B6E
:1010700015D0FFF783FB38610AE0FFF77FFB0246DC
:101080003B69D31A41F28832934201D90323ABE082
:10109000574B1B6A03F00203002BEED014E0FFF75E
:1010A0006DFB38610AE0FFF769FB02463B69D31A22
:1010B00041F28832934201D9032395E04C4B1B6ADD
:1010C00003F00203002BEED1FB7D012B05D1484B31
:1010D000DB69474A23F08053D3617B68DB69002BCF
:1010E00000F08180424B5B6803F00C03082B61D059
:1010F0007B68DB69022B46D13F4B00221A60FFF769
:101100003DFB386108E0FFF739FB02463B69D31A23
:10111000022B01D9032367E0354B1B6803F00073F2
:10112000002BF0D17B681B6AB3F5803F08D1304BB0
:10113000DB6A23F00F027B689B682D491343CB6267
:101140002B4B5B6823F474127B68196A7B685B6ABB
:101150000B43274913434B60274B01221A60FFF7CB
:101160000DFB386108E0FFF709FB02463B69D31A23
:10117000022B01D9032337E01D4B1B6803F00073DA
:10118000002BF0D02FE01C4B00221A60FFF7F6FA7C
:10119000386108E0FFF7F2FA02463B69D31A022BE6
:1011A00001D9032320E0124B1B6803F00073002BCE
:1011B000F0D118E07B68DB69012B01D1012313E03A
:1011C0000B4B5B68FB60FB6803F480327B681B6A37
:1011D0009A4206D1FB6803F470127B685B6A9A42FC
:1011E00001D0012300E0002318461837BD4680BD1A
:1011F00000100240007000406000424280B584B0A0
:1012000000AF786039607B68002B01D10123A0E03A
:101210007B681B6803F00203002B20D07B681B68EF
:1012200003F00403002B05D04C4B5B684B4A43F49E
:10123000E06353607B681B6803F00803002B05D054
:10124000464B5B68454A43F460535360434B5B68CD
:1012500023F0F0027B689B68404913434B607B6836
:101260001B6803F00103002B40D07B685B68012BF7
:1012700007D13A4B1B6803F40033002B15D101232F
:1012800067E07B685B68022B07D1344B1B6803F077
:101290000073002B09D101235BE0304B1B6803F086
:1012A0000203002B01D1012353E02C4B5B6823F098
:1012B00003027B685B68294913434B60FFF75EFAC2
:1012C000F8600AE0FFF75AFA0246FB68D31A41F2C7
:1012D0008832934201D903233BE0204B5B6803F043
:1012E0000C027B685B689B009A42EBD17B681B68B1
:1012F00003F00403002B08D0184B5B6823F4E06272
:101300007B68DB68154913434B607B681B6803F0FF
:101310000803002B09D0114B5B6823F460527B68F3
:101320001B69DB000D4913434B6000F01FF80246B8
:101330000A4B5B681B0903F00F030949CB5C22FAD7
:1013400003F3084A1360084B1B681846FFF7D4F9EB
:10135000002318461037BD4680BD00BF0010024074
:1013600004400008000000200400002090B48EB06B
:1013700000AF2B4B07F114040FCB84E80F00294B6F
:101380003C1D0FCB84E80F000023FB620023BB62EF
:1013900000237B6300237B6200233B63224B5B685B
:1013A000FB62FB6A03F00C03042B02D0082B03D072
:1013B0002CE01E4B3B632CE0FB6A9B0C03F00F03FD
:1013C00007F13802134413F8243C7B62FB6A03F4F0
:1013D0008033002B12D0144BDB6A03F00F0307F1AC
:1013E0003802134413F8343CBB627B6A0F4A02FB99
:1013F00003F2BB6AB2FBF3F37B6304E07B6A0C4A43
:1014000002FB03F37B637B6B3B6302E0074B3B63B5
:1014100000BF3B6B18463837BD4690BC704700BFD5
:10142000E43F0008F43F00080010024000127A0078
:1014300000093D0080B400AF024B1B681846BD4652
:1014400080BC70470000002080B500AFFFF7F2FFBE
:101450000246054B5B681B0A03F007030349CB5C9C
:1014600022FA03F3184680BD001002401440000821
:1014700080B500AFFFF7DEFF0246054B5B68DB0A75
:1014800003F007030349CB5C22FA03F3184680BD3F
:10149000001002401440000880B485B000AF7860AE
:1014A0000A4B1B680A4AA2FB03235B0A7A6802FB09
:1014B00003F3FB6000BFFB685A1EFA60002BF9D1F2
:1014C00000BF00BF1437BD4680BC7047000000203D
:1014D000D34D621080B582B000AF78607B68002B7E
:1014E00001D1012341E07B6893F83D30DBB2002B52
:1014F00006D17B68002283F83C207868FEF760FF05
:101500007B68022283F83D207B681A687B6804337D
:101510001946104600F0E2F97B68012283F8462064
:101520007B68012283F83E207B68012283F83F20FC
:101530007B68012283F840207B68012283F84120E8
:101540007B68012283F842207B68012283F84320D4
:101550007B68012283F844207B68012283F84520C0
:101560007B68012283F83D20002318460837BD46DA
:1015700080BD000080B485B000AF78607B6893F8D0
:101580003D30DBB2012B01D001233FE07B6802221A
:1015900083F83D207B681B68DA687B681B6842F033
:1015A0000102DA607B681B681B4A934213D07B6898
:1015B0001B68B3F1804F0ED07B681B68174A9342BB
:1015C00009D07B681B68164A934204D07B681B686D
:1015D000144A934211D17B681B689B6803F0070390
:1015E000FB60FB68062B10D07B681B681A687B6861
:1015F0001B6842F001021A6007E07B681B681A68EA
:101600007B681B6842F001021A60002318461437F9
:10161000BD4680BC704700BF002C01400004004064
:10162000000800400040014080B483B000AF786003
:101630007B681B68DA687B681B6822F00102DA604D
:101640007B681B681A6A41F211131340002B0FD1FB
:101650007B681B681A6A40F244431340002B07D191
:101660007B681B681A687B681B6822F001021A609D
:101670007B68012283F83D20002318460C37BD46C5
:1016800080BC704780B582B000AF78607B681B6813
:101690001B6903F00203022B22D17B681B68DB6805
:1016A00003F00203022B1BD17B681B686FF0020260
:1016B0001A617B6801221A777B681B689B6903F0BB
:1016C0000303002B03D0786800F0EDF805E078689C
:1016D00000F0E0F8786800F0EFF87B6800221A77F5
:1016E0007B681B681B6903F00403042B22D17B6811
:1016F0001B68DB6803F00403042B1BD17B681B68A9
:101700006FF004021A617B6802221A777B681B68FB
:101710009B6903F44073002B03D0786800F0C3F892
:1017200005E0786800F0B6F8786800F0C5F87B68E6
:1017300000221A777B681B681B6903F00803082BDB
:1017400022D17B681B68DB6803F00803082B1BD1E0
:101750007B681B686FF008021A617B6804221A77A5
:101760007B681B68DB6903F00303002B03D07868F8
:1017700000F099F805E0786800F08CF8786800F0DF
:101780009BF87B6800221A777B681B681B6903F053
:101790001003102B22D17B681B68DB6803F0100359
:1017A000102B1BD17B681B686FF010021A617B68DD
:1017B00008221A777B681B68DB6903F44073002BEF
:1017C00003D0786800F06FF805E0786800F062F800
:1017D000786800F071F87B6800221A777B681B68D4
:1017E0001B6903F00103012B0ED17B681B68DB68CA
:1017F00003F00103012B07D17B681B686FF0010226
:101800001A61786801F054F97B681B681B6903F062
:101810008003802B0ED17B681B68DB6803F080039C
:10182000802B07D17B681B686FF080021A61786893
:1018300000F043F97B681B681B6903F04003402BF1
:101840000ED17B681B68DB6803F04003402B07D197
:101850007B681B686FF040021A61786800F035F809
:101860007B681B681B6903F02003202B0ED17B686B
:101870001B68DB6803F02003202B07D17B681B6803
:101880006FF020021A61786800F00EF900BF083787
:10189000BD4680BD80B483B000AF786000BF0C3718
:1018A000BD4680BC704780B483B000AF786000BF95
:1018B0000C37BD4680BC704780B483B000AF786001
:1018C00000BF0C37BD4680BC704780B483B000AF0A
:1018D000786000BF0C37BD4680BC704780B485B0CF
:1018E00000AF786039607B681B68FB607B68354AB5
:1018F00093420BD07B68B3F1804F07D07B68324AAC
:10190000934203D07B68314A934208D1FB6823F0AD
:101910007003FB603B685B68FA681343FB607B689D
:10192000284A934217D07B68B3F1804F13D07B686D
:10193000254A93420FD07B68244A93420BD07B68A0
:10194000234A934207D07B68224A934203D07B68A4
:10195000214A934208D1FB6823F44073FB603B6843
:10196000DB68FA681343FB60FB6823F080023B6886
:101970005B691343FB607B68FA681A603B689A688E
:101980007B68DA623B681A687B689A627B680D4AFA
:1019900093420BD07B680E4A934207D07B680D4A76
:1019A000934203D07B680C4A934203D13B681A6987
:1019B0007B681A637B6801225A6100BF1437BD46F9
:1019C00080BC7047002C014000040040000800402B
:1019D00000400140004401400048014080B485B00F
:1019E00000AF786039607B6893F83C30012B01D1FF
:1019F00002234BE07B68012283F83C207B680222B3
:101A000083F83D207B681B685B68FB607B681B6814
:101A10009B68BB60FB6823F07003FB603B681B683E
:101A2000FA681343FB607B681B68FA685A607B683E
:101A30001B68194A934213D07B681B68B3F1804F2F
:101A40000ED07B681B68154A934209D07B681B68DF
:101A5000134A934204D07B681B68124A93420CD10C
:101A6000BB6823F08003BB603B685B68BA681343C4
:101A7000BB607B681B68BA689A607B68012283F848
:101A80003D207B68002283F83C2000231846143751
:101A9000BD4680BC704700BF002C014000040040E0
:101AA000000800400040014080B483B000AF78607F
:101AB00000BF0C37BD4680BC704780B483B000AF18
:101AC000786000BF0C37BD4680BC704780B582B0DF
:101AD00000AF78607B68002B01D101233FE07B6879
:101AE00093F83930DBB2002B06D17B68002283F8F3
:101AF00038207868FEF78AFC7B68242283F8392036
:101B00007B681B68DA687B681B6822F40052DA6025
:101B1000786800F005F97B681B681A697B681B68A8
:101B200022F490421A617B681B685A697B681B68C3
:101B300022F02A025A617B681B68DA687B681B689E
:101B400042F40052DA607B680022DA637B6820226C
:101B500083F839207B68202283F83A200023184636
:101B60000837BD4680BD80B58AB002AFF860B96065
:101B70003B601346FB8000237B61FB6893F83930A0
:101B8000DBB2202B7CD1BB68002B02D0FB88002B62
:101B900001D1012375E0FB6893F83830012B01D1A6
:101BA00002236EE0FB68012283F83820FB680022E4
:101BB000DA63FB68212283F83920FEF7DFFD7861C4
:101BC000FB68FA889A84FB68FA88DA84FB689B6869
:101BD000B3F5805F08D1FB681B69002B04D100239B
:101BE000FB61BB68BB6103E0BB68FB610023BB61B9
:101BF000FB68002283F838202AE03B6800937B6969
:101C000000228021F86800F040F80346002B01D044
:101C1000032336E0FB69002B0BD1BB691B881A46F6
:101C2000FB681B68C2F308025A60BB690233BB61E0
:101C300007E0FB691A78FB681B685A60FB6901338F
:101C4000FB61FB68DB8C9BB2013B9AB2FB68DA84D8
:101C5000FB68DB8C9BB2002BCFD13B6800937B6988
:101C600000224021F86800F010F80346002B01D054
:101C7000032306E0FB68202283F83920002300E0DC
:101C8000022318462037BD4680BD80B584B000AF22
:101C9000F860B9603B601346FB712CE0BB69B3F19F
:101CA000FF3F28D0BB69002B07D0FEF767FD024637
:101CB0003B68D31ABA699A421DD2FB681B68DA687E
:101CC000FB681B6822F4D072DA60FB681B685A69F3
:101CD000FB681B6822F001025A61FB68202283F82E
:101CE0003920FB68202283F83A20FB68002283F821
:101CF000382003230FE0FB681B681A68BB68134099
:101D0000BA689A420CBF01230023DBB21A46FB7962
:101D10009A42C3D0002318461037BD4680BD00004C
:101D200080B584B000AF78607B681B681B6923F4C2
:101D300040517B68DA687B681B680A431A617B68DC
:101D40009A687B681B691A437B685B691A437B68E6
:101D5000DB691343BB607B681B68DB6823F41643B5
:101D600023F00C037A681268B9680B43D3607B6870
:101D70001B685B6923F440717B689A697B681B6808
:101D80000A435A617B681B68554A934203D1FFF7A7
:101D90006FFBF86002E0FFF757FBF8607B68DB69D8
:101DA000B3F5004F4CD1FA6813469B0013449A00D8
:101DB0001A447B685B685B00B2FBF3F3494AA2FB01
:101DC00003235B091901FA6813469B0013449A0028
:101DD0001A447B685B685B00B2FBF3F2414BA3FBE8
:101DE00002035B09642000FB03F3D31ADB003233E8
:101DF0003C4AA2FB03235B095B0003F4F87319441C
:101E0000FA6813469B0013449A001A447B685B6887
:101E10005B00B2FBF3F2334BA3FB02035B096420CC
:101E200000FB03F3D31ADB0032332E4AA2FB032359
:101E30005B0903F007027B681B680A449A604AE06A
:101E4000FA6813469B0013449A001A447B685B6847
:101E50009B00B2FBF3F3234AA2FB03235B091901A6
:101E6000FA6813469B0013449A001A447B685B6827
:101E70009B00B2FBF3F21B4BA3FB02035B09642044
:101E800000FB03F3D31A1B013233164AA2FB0323D0
:101E90005B0903F0F0031944FA6813469B001344EE
:101EA0009A001A447B685B689B00B2FBF3F20D4B0F
:101EB000A3FB02035B09642000FB03F3D31A1B019D
:101EC0003233084AA2FB03235B0903F00F027B684D
:101ED0001B680A449A6000BF1037BD4680BD00BF32
:101EE000003801401F85EB51704700BF30220021B0
:101EF00000F00CBF2F2A08B503D8835C59408154E9
:101F000008BD2721024B034A034800F097FE00BF9B
:101F10001C4000082C410008404000082F2AF8B55A
:101F200048D816461A44302A4AD8A3B3321D024470
:101F300084190D1DAC4238BF91422DD35A1E042A7C
:101F40002AD90F46224623F0030EA64454F8045B18
:101F500057F804CB744585EA0C0542F8045BF5D1CB
:101F60009C0723F0030216D0B71810F807C08C5C4A
:101F7000551C84EA0C04AB42C4550CD977194C5D4E
:101F8000C55D02326C409342C45504D916448B5C43
:101F9000825D53408355F8BD013E4A1E30441344D0
:101FA00012F8014F10F8011F9A4281EA04010170F2
:101FB000F6D1F8BD3121054B054A064800F03EFE3A
:101FC0003221054B024A034800F038FE1C4000084D
:101FD0003C41000840400008D04000082F2A38B596
:101FE00014460AD81A46E318302B0CD80546084682
:101FF0002919BDE8384000F07BBE4C21054B064A4C
:10200000064800F01BFE4D21054B034A034800F033
:1020100015FE00BF1C4000084C410008404000086D
:10202000D0400008002303600A7810B402604C78A6
:1020300042EA042202608C7842EA04420260CC78D0
:10204000436042EA046202600A7942604C7942EAE3
:10205000042242608C7942EA04424260CC79836077
:1020600042EA046242600A7A82604C7A42EA0422BE
:1020700082608C7A42EA04428260CC7AC36042EA8F
:10208000046282600A7BC2604C7B42EA0422C26026
:102090008C7B42EA0442C260CC7B036142EA046268
:1020A000C2600A7C02614C7C42EA042202618C7CA0
:1020B00042EA04420261CC7C436142EA046202616A
:1020C0000A7D42614C7D42EA042242618C7D42EAF3
:1020D00004424261CC7D836142EA046242610A7E2D
:1020E00082614C7E42EA042282618C7E42EA044292
:1020F0008261CC7EC36142EA046282610A7FC2616E
:102100004C7F42EA0422C2618C7F42EA0442C261EF
:10211000CC7F036242EA0462C26191F8202002622D
:1021200091F8214042EA0422026291F8224042EAF8
:102130000442026291F82340436242EA046202626E
:1021400091F82420426291F8254042EA042242623A
:1021500091F8264042EA0442426291F827408362A5
:1021600042EA0462426291F82820826291F8294092
:1021700042EA0422826291F82A4042EA04428262E0
:1021800091F82B40C36242EA0462826291F82C30DB
:1021900010BCC36291F82D2043EA0223C36291F878
:1021A0002E2043EA0243C36291F82F2043EA0263E0
:1021B000C36270470B6803700B681B0A43704B883F
:1021C0008370CB78C3704B6803714B681B0A4371F3
:1021D000CB888371CB79C3718B6803728B681B0AC0
:1021E00043724B898372CB7AC372CB680373CB681B
:1021F0001B0A4373CB898373CB7BC3730B69037453
:102200000B691B0A43744B8A8374CB7CC3744B6980
:1022100003754B691B0A4375CB8A8375CB7DC375E8
:102220008B6903768B691B0A43764B8B8376CB7E57
:10223000C376CB690377CB691B0A4377CB8B837754
:10224000CB7FC3770B6A80F820300B6A1B0A80F8BB
:1022500021304B8C80F8223091F8233080F82330E5
:102260004B6A80F824304B6A1B0A80F82530CB8CEF
:1022700080F8263091F8273080F827308B6A80F874
:1022800028308B6A1B0A80F829304B8D80F82A3061
:1022900091F82B3080F82B30CB6A80F82C30CB6A49
:1022A0001B0A80F82D30CB8D80F82E3091F82F301E
:1022B00080F82F30704700BF2DE9F04F044600F141
:1022C0001003203043EA0002224399B012F00702C3
:1022D0000391029240F09B81226A25696169554011
:1022E0002668626A75405140A66AA26904956568CD
:1022F00056406940E269E56A0591A1686A40E5686F
:1023000071406A40069107920799069A2343DDE9D6
:10231000046518434FEAB1484FEAB2434FEAB64E5C
:102320004FEAB54C83EAF26288EAF1688EEAF66E0B
:102330008CEAF56C4307CDE9088ECDE90AC240F07E
:102340002B81D4E90076D4E90450D4E908138EEA4D
:1023500000008EEA06068EEA030EA36888EA0707E5
:102360008CEA0309E368276082EA030AA369E76944
:102370008CEA030BE36A57405A4060610190734650
:1023800010466660A66A88EA01018CEA0606C4E97E
:10239000081EC4E9029AC4E906B7C4E90A6288EAD9
:1023A00005052561009525464FEA70524FEA7151A7
:1023B0004FEA7353CDE914132068E36861681792FC
:1023C000A2680DF13009C846A9E80F00009B4FEA4A
:1023D00076561193019B0DF1600A1696CDF84CB01C
:1023E0001097129346460FCE564528606960AA6042
:1023F000EB6008F1100805F11005F3D12168039B8B
:102400004B4019462360029B002B40F08780D4E9A3
:1024100004E36668626A256A26EA02005840119061
:1024200022EA030023EA060370405340A768D4F869
:1024300028C00D90159321EA050025EA0E03A26934
:102440004B4080EA0E002EEA0101E66869401090D8
:10245000E56A27EA0C0050400C931491E3692CEADA
:1024600002017940129026EA0500584022EA07024C
:102470000E9125EA030123EA060382EA0C02714069
:102480006B40169213900F91179326460CAF0DF1E7
:10249000600C3D460FCD654530607160B260F36001
:1024A00007F1100706F11006F3D125462068616890
:1024B000A268E3680CAE2769B4460FC6D4E90501EB
:1024C000E2694FEAF7734FEAF1764FEAF277E16A91
:1024D000A26A10934FEA32684FEA3161D4E90823C7
:1024E0004FEA32624FEA3363CDE91267CDE91481D6
:1024F000CDE916234FEAF0700DF1600E119064469D
:102500000FCC744528606960AA60EB600CF1100C78
:1025100005F11005F3D119B0BDE8F08F2769266ADF
:10252000606926EA0703D4F804C04B40656A21EAD3
:1025300006020C9327EA01037A407340A768A66A53
:1025400020EA0C01694010921493A2692CEA050359
:102550004340159127EA06015140119325EA0003F3
:1025600083EA0C03E568E06A129126EA02017940E9
:102570000D9322EA0702E36972400E9125EA0001F9
:102580005940169220EA030223EA05036A404340B9
:1025900013910F92179378E7236926680093606977
:1025A00086EA0807009E019086EA08060096019ECA
:1025B000A0686568636A86EA0E0685EA0E05D4F8A7
:1025C00018B0019683EA0E03A66A80EA0C0EE06852
:1025D0008BEA0C0B86EA0C0680EA020C0098216A52
:1025E00027602061E769E06A6560019D81EA080172
:1025F00057405040216265616362C4F808E0C4F846
:1026000018B0A662C4F80CC0E761E062CBE62169AD
:10261000256A626981EA05062568616A62E600BF8B
:1026200070B50C468CB0014606466846FFF7FAFCCA
:10263000C4F10C010B290BD8084D8C00043C2C4430
:102640002C3554F8041F6846FFF736FEAC42F8D12B
:1026500069463046FFF7AEFD0CB070BDFC40000887
:102660000C21FFF7DDBF00BF70B5044615461E46BE
:1026700013460022FFF752FC2A4620460121FFF7AD
:1026800039FC636B2F22012B08BF06F0010631468F
:102690002046FFF72FFC0123236370BD2DE9F04195
:1026A000476B0446012F0D46164603D019462F22CC
:1026B000FFF720FC2046FFF7D3FF022233462263B8
:1026C00029462046BDE8F0410022FFF787BC00BF45
:1026D0002DE9F84306460D46144699469DF820809C
:1026E00014E000234C451A4619463046274628BFB9
:1026F0004F46FFF7D3FF294643463A463046FFF799
:10270000B3FFE41B3D4409D04FF00008326B022AAE
:10271000E7D14C45274628BF4F46ECE7BDE8F88394
:102720002DE9F04FD0F834A08FB0BAF1010F189E08
:1027300034D197192B2F154636D89B464FF00209F6
:102740004FF02C0818230446C0E90D98C36312B952
:102750000FB0BDE8F08F03A800F0CAFA03AB581918
:102760003246594600F0C4FA0EAAD5194346CDF8B0
:102770000090204603A97A1C05F82C6CFFF7A8FFEF
:102780001A9B002BE4D00022534600922046DDE93C
:102790001912FFF79DFF0FB0BDE8F08F6A21054BBE
:1027A000054A064800F04AFA6B21054B024A0348E5
:1027B00000F044FA604100083442000884410008F7
:1027C0000C420008F8B5C56B1446954228BF154663
:1027D0000E462A4607462E44FFF760FF651B12D0BF
:1027E000002338461A461946FFF73EFFFC6B314678
:1027F000AC4228BF2C46002322463846FFF74EFF46
:102800002D1B2644ECD1F8BD2DE9F0470446DDE947
:1028100008890E4615461F46DDF828A0FFF764FB21
:102820002046FFF763FB022101221023C4E90C12AA
:10283000C4E90E330DB9BDE8F0873B462A46314660
:102840002046CDE9099ACDF82080BDE8F047FFF792
:1028500067BF00BF10B5032482B0836B0094FFF7FD
:1028600037FF02B010BD00BF4023FFF7ABBF00BF72
:10287000F0B500240E461746054695B0234622467D
:10288000214604A8CDE901440094FFF7BDFF3A4674
:10289000314604A8FFF7DEFF04A829462022FFF7EF
:1028A000E3FF204615B0F0BD38B54FF4807500F059
:1028B0006DF9154C00F004F900F01AF9134A1449A7
:1028C000144800F033F9144800F030F9D4E90B2132
:1028D000124800F02BF9D4E90923216A104800F0CE
:1028E00025F92A4600210F4800F010FA2A46002157
:1028F0000D4800F00BFA2A4600210C4800F006FAB9
:10290000BDE8384000F014B8340600204842000802
:10291000C84200084843000894430008A443000844
:10292000CC43000898000020980100209802002065
:102930002DE9F04FADF2244D4FF48062002308A83A
:1029400000F0A4F800240025394FDFF8F8A0DFF8E4
:10295000F880DFF8F890DFF8F8B02146404600F044
:10296000E5F800F0ADF822462B4608A96846FFF7C7
:102970007FFF064600F0BCF82E4A3B681268591CDF
:1029800039604AF82320002E4ED19446002AB8BF61
:1029900002F10F0CD9F80030114658464FEA2C12BC
:1029A00000F0C4F82021684600F0DEF8224800F06C
:1029B000BDF854EA050331D000234FF48062241996
:1029C0006D41AB4208BFA242C7D200231B483B6007
:1029D00000F042F81A4800F0A9F8002400254FF44E
:1029E00080684FF00009DFF86CB03B68214603F1C6
:1029F000010C5AF823205846C7F800C000F096F89A
:102A000054EA05030DD024196D41A94508BFA0451E
:102A1000EBD230460DF2244DBDE8F08F082400259E
:102A20009BE708240025E0E76FF00306CDE700BF31
:102A30009803002090000020C843000824440008A8
:102A40002C44000898020020F8430008940000205D
:102A5000084400083C44000810B50146064B074AEC
:102A6000074800F063F8BDE8104006490648D1E980
:102A70000923096A00F05AB848420008C842000811
:102A800048440008340600208844000830B4144646
:102A90001D4654EA050309D0411E0B461144C3F1FB
:102AA0003000C21803F8012F8B42FAD130BC7047B6
:102AB000024A136801331360704700BF9C03002073
:102AC000002310B5074C084922680B605362FDF7DC
:102AD00055FE0246054B2046BDE810401A60FEF741
:102AE00049BD00BFE80500209C03002094000020A1
:102AF00038B50A4D0A4C2846FEF796FD2B68094A60
:102B00005B6A126843EA02432360FDF737FE03461F
:102B1000054A206811685B1A136038BDE80500207B
:102B2000900000209C030020940000200FB410B5FA
:102B300082B004AA0A4C52F8041B2046019200F00D
:102B4000F1FB2046FDF764FB214682B26423054871
:102B5000FFF709F802B0BDE8104004B0704700BFAD
:102B6000A0030020A805002061B170B50139064E10
:102B70004518441E14F8011F3046FFF7D7FFAC423A
:102B8000F8D170BD704700BFB044000880B500AFF9
:102B900034220021224800F0B9F8214B4FF00062A6
:102BA0001A601F4B1B681E4A53601E4A1C4B9A60DA
:102BB0001D4A1B4B9A611D4A194BDA611C4A184B7E
:102BC000DA601C4A164B5A611B4A154B1A61144BAA
:102BD0009A68134B5B68D31A114A1362104B5A69F7
:102BE0000F4BDB68D31A0E4A53620D4BDA690C4B5C
:102BF0009B69D31A0A4A9362094B5A6A084B9B6A2B
:102C00001344074AD362064B1A69054B5B6A1A44A0
:102C1000034B1B68D31A024A136300BF80BD00BF79
:102C200034060020E43F00087000002078060020F1
:102C30000000002070000020944500081FB51446D5
:102C40001A46094B05461B68D8684CB1074BCDE9BD
:102C5000013400912B46064900F014F800F02CFCDA
:102C6000044B1C46F3E700BF0C000020B5440008ED
:102C7000C2440008F0440008014B1868704700BFC8
:102C80000C0000200EB403B5014603AB054853F811
:102C9000042B0068019300F069F802B05DF804EBC2
:102CA00003B070470C00002070B500260C4D0D4C91
:102CB000641BA410A64209D101F088F900260A4D30
:102CC0000A4C641BA410A64205D170BD55F8043B04
:102CD00098470136EEE755F8043B98470136F2E78E
:102CE0008C4500088C4500088C450008904500087C
:102CF0000A44914200F1FF3300D1704710B511F83A
:102D0000014B914203F8014FF9D110BD0346024433
:102D1000934200D1704703F8011BF9E7936810B4A0
:102D2000013B002B936007DA9469A34201DB0A2977
:102D300002D110BC00F000BB1368581C1060197061
:102D4000084610BC7047F8B506460F461446D5181D
:102D5000AC4201D1002007E03A46304614F8011B8E
:102D6000FFF7DCFF431CF3D1F8BD00002DE9F04F65
:102D70000D461446984606469DB018B183690BB9B6
:102D800000F0BCFC894B9D421BD175686B6ED90766
:102D900005D4AB899A0502D4A86D00F04DFDAB892E
:102DA0001B0701D52B69EBB92946304600F016FB0D
:102DB000C0B16B6EDC070ED54FF0FF301DB0BDE823
:102DC000F08F7B4B9D4201D1B568DFE7794B9D4287
:102DD00008BFF568DAE7AB899805EDD4A86D00F077
:102DE0002CFDE9E70023099320238DF829303023B7
:102DF0004FF00109CDF80C80DFF8BC818DF82A3046
:102E000023469A4613F8012B0AB1252AF9D1BAEBC9
:102E1000040B0BD05B46224629463046FFF793FF52
:102E2000013000F0AA80099A5A4409929AF80030B9
:102E3000002B00F0A28000234FF0FF32CDE90523E4
:102E40000AF1010A049307938DF853301A935446FC
:102E5000052214F8011B584800F054FD049AD8B913
:102E6000D10644BF20238DF85330130744BF2B23D2
:102E70008DF853309AF800302A2B15D05446002094
:102E80004FF00A0C079A214611F8013B303B092B01
:102E90004ED9B0B1079214E0A0EB080309FA03F38E
:102EA0001343A2460493D2E7039B191D1B680391A9
:102EB000002BBBBF5B4242F0020207930793B8BFEF
:102EC000049223782E2B0CD163782A2B35D1039BC7
:102ED00002341A1D1B680392002BB8BF4FF0FF335A
:102EE0000593DFF8E4A003225046217800F00AFDA4
:102EF00040B14023A0EB0A0003FA00F0049B013428
:102F00000343049314F8011B06222C488DF8281063
:102F100000F0F8FC00283FD0294B1BBB039B073374
:102F200023F0070308330393099B3B44099367E7A6
:102F30000C4601200CFB0232A5E700234FF00A0CDF
:102F4000194601340593204610F8012B303A092A1E
:102F500003D9002BC5D00591C3E7044601230CFB20
:102F60000121F0E703AB00932A463046154B04A934
:102F7000AFF300800746781CD6D16B6ED90705D415
:102F8000AB899A0502D4A86D00F057FCAB895B06AB
:102F90003FF512AF099811E703AB00932A4630467C
:102FA000084B04A900F082F8E4E700BF4C45000894
:102FB0006C4500082C450008F8440008024500084C
:102FC00000000000472D0008FE4400082DE9F047EE
:102FD000164699468A680B6907469342B8BF13465E
:102FE000336091F843200C46DDF820800AB10133AC
:102FF00033602368990642BF336802333360256823
:1030000015F0060506D104F1190AE36832689B1A27
:10301000AB4228DC94F84320131E226818BF01231A
:1030200092062DD44946384604F14302C047013088
:1030300020D02368E56803F00603042B18BF0025A1
:1030400032684FF00006A36808BFAD1A226908BFB6
:1030500025EAE5759342C4BF9B1AED181A34B542B0
:103060001AD1002008E00123524649463846C0479D
:10307000013003D14FF0FF30BDE8F0870135C4E7E0
:103080003020E11881F843005A1C94F8451022447E
:10309000023382F84310C5E70123224649463846E9
:1030A000C0470130E6D00136D9E700002DE9FF47DF
:1030B0000C46277E9146782F80469A460C9904F15B
:1030C000430207D8622F0AD8002F00F0D980582F6A
:1030D00000F0A48004F1420684F842703AE0A7F1BF
:1030E0006303152BF6D801A050F823F045310008F2
:1030F00059310008D5300008D5300008D530000817
:10310000D530000859310008D5300008D530000806
:10311000D5300008D5300008673200088931000832
:1031200049320008D5300008D5300008893200083F
:10313000D530000889310008D5300008D5300008A6
:10314000513200080B6804F142061A1D1B680A6020
:1031500084F842300123A4E0256808682E0600F1B7
:1031600004030AD505680B60002D03DA2D236D4298
:1031700084F843300A235E4819E015F0400F0568D3
:103180000B6018BF2DB2EFE70B682568181D0860AB
:10319000280601D51D6802E06906FBD51D886F2F42
:1031A0000CBF08230A235248002184F843106668A4
:1031B000002EA8BF2168A660A4BF21F004012160F1
:1031C0000DB9002E4DD01646B5FBF3F103FB115798
:1031D000C75D06F8017D2F46BB420D46F4D9082B8A
:1031E0000BD12368DF0708D5236961689942DEBFE8
:1031F000302306F8013C06F1FF36921B22614B4654
:1032000021464046CDF800A003AAFFF7DFFE0130BB
:103210004CD14FF0FF3004B0BDE8F087344884F85B
:1032200045700E68236856F8045B1F060E6014D5BF
:10323000D90744BF43F0200323601DB9236823F05E
:10324000200323601023AFE7236843F020032360AB
:103250007823284884F84530E3E75E0648BFADB2DE
:10326000E6E71646BBE70B6826681D1D60690D6022
:1032700035061B6801D5186002E07106FBD5188081
:10328000002316462361BAE70B681A1D0A601E6800
:1032900000213046626800F035FB08B1801B606099
:1032A00063682361002384F84330A8E73246494627
:1032B00040462369D0470130ABD023689B0713D425
:1032C000E068039B9842B8BF1846A4E70123324642
:1032D00049464046D04701309BD00135E368039909
:1032E0005B1AAB42F2DCEBE7002504F11906F5E7C7
:1032F000094500081A45000800B59BB000910491EB
:103300006FF000410591029105490391694600F073
:1033100049FC0022009B1A701BB05DF804FB00BF43
:103320000802FFFF13460A46014602480068FFF7FD
:10333000E3BF00BF0C000020F8B50E46144605465A
:1033400018B183690BB900F0D9F9214B9C422BD1FC
:103350006C68A369A360A3891A072FD523696BB38F
:1033600023692068F6B2C01A63693746834204DCD9
:103370002146284600F02EF930BBA3680130013BFE
:10338000A36023685A1C22601E706369834204D0C4
:10339000A389DB0706D50A2E04D12146284600F072
:1033A00019F988B93846F8BD0A4B9C4201D1AC687E
:1033B000CFE7094B9C4208BFEC68CAE72146284684
:1033C00000F00CF80028CBD04FF0FF37EAE700BF41
:1033D0004C4500086C4500082C450008324B70B580
:1033E0001D6806460C4625B1AB6913B9284600F0A6
:1033F00085F92E4B9C420FD16C68A389B4F90C203F
:1034000019072CD4DD0611D40923336042F04003A0
:103410004FF0FF30A3813EE0254B9C4201D1AC68C8
:10342000EBE7244B9C4208BFEC68E6E7580712D54F
:10343000616B41B104F14403994202D0304600F07F
:1034400089FA00236363A38923F02403A381002363
:10345000636023692360A38943F00803A381236980
:103460004BB9A38903F42073B3F5007F03D0214641
:10347000304600F007FAA089B4F90C2010F00103DF
:103480000AD00023A36063695B42A361236943B947
:1034900010F08000BAD170BD810758BF6369A36086
:1034A000F4E70020F7E700BF0C0000204C450008BF
:1034B0006C4500082C450008062008B500F0AAFC61
:1034C0000120FDF738F800008A892DE9F041054612
:1034D00010070C4658D44B68002B05DC0B6C002BF6
:1034E00002DC0020BDE8F081E66A002EF9D000235E
:1034F00012F480522F682B6032D0606DA3895A0776
:1035000005D56368C01A636B0BB1236CC01A002326
:103510000246E66A2846216AB047431CA38906D1C1
:1035200029681D292CD82A4ACA40D60728D5002246
:1035300062602269D904226004D5421C01D12B6843
:1035400003B96065616B2F600029CAD004F14403A0
:10355000994202D0284600F0FDF900206063C1E7DF
:10356000216A01232846B047411CC7D12B68002B94
:10357000C4D01D2B01D0162B01D12F60B1E7A38938
:1035800043F04003A381ADE70F69002FA9D0930753
:1035900018BF00230E6808BF4B69A6EB07080F6031
:1035A0008B60B8F1000F9CDD43463A462846216AFD
:1035B000A66AB047002806DCA3894FF0FF3043F02D
:1035C0004003A3818EE70744A8EB0008E9E700BFAA
:1035D0000100402038B50B6905460C4613B900259B
:1035E000284638BD18B183690BB900F087F8144B31
:1035F0009C421BD16C68B4F90C30002BEFD0626E8A
:10360000D00704D4990502D4A06D00F015F928461E
:103610002146FFF759FF636E0546DA07E0D4A38918
:103620009B05DDD4A06D00F008F9D9E7054B9C425D
:1036300001D1AC68DFE7044B9C4208BFEC68DAE7D5
:103640004C4500086C4500082C450008002310B5C7
:103650000446C0E90033C0E90433836081814366D6
:10366000C2818361194608225C30FFF74FFB054B8E
:1036700024626362044BA362044BE362044B236342
:1036800010BD00BF4D3E00086F3E0008A73E000879
:10369000CB3E0008014900F0AFB800BFD5350008A7
:1036A00070B568254A1E55430E4605F1740100F0B9
:1036B0009DF9044640B10021C0E900160C30A0601D
:1036C00005F16802FFF722FB204670BD014800F0BB
:1036D000B3B800BF70060020014800F0AEB800BFCC
:1036E00070060020014800F0A7B800BF6B0600205C
:1036F000014800F0A2B800BF6B06002010B50446D8
:10370000FFF7F0FFA3691BB1BDE81040FFF7F0BF62
:10371000C4E912332365134B134A1B68A262A34208
:1037200008BF0123204608BFA36100F01FF86060B6
:10373000204600F01BF8A060204600F017F8002299
:103740000421E0606068FFF781FF01220921A06881
:10375000FFF77CFF02221221E068FFF777FF0123C9
:10376000A361D1E7F444000895360008F8B5074690
:10377000FFF7ACFF1E4B1E68B36913B93046FFF765
:10378000BDFF4836D6E90134013B03D533680BB39E
:103790003668F7E7B4F90C50D5B9164B04F1580068
:1037A000E360656600F047F8FFF796FF08222946B8
:1037B000C4E90155C4E904552560A56104F15C0024
:1037C000FFF7A4FAC4E90D55C4E912552046F8BD27
:1037D0006834D9E704213846FFF762FF04463060B9
:1037E0000028D5D1FFF778FF0C233B60EEE700BF40
:1037F000F44400080100FFFF2DE9F843064688461F
:10380000002700F14804D4E90195B9F1010905D573
:103810002468002CF7D13846BDE8F883AB89012B2A
:1038200007D9B5F90E30013303D029463046C047D9
:1038300007436835E9E770477047704770B50E4633
:10384000B1F90E10144600291D4696B007DA002380
:103850002B60B3891A0610D44FF480630EE06A46D9
:1038600000F05AFB0028F2DB019A02F47042A2F544
:1038700000535A425A412A60EEE740230020236059
:1038800016B070BD8B8973B59D0706460C4607D5EB
:1038900004F14703236023610123636102B070BD1B
:1038A0006A4601ABFFF7CAFF00990546304600F0B3
:1038B0009DF848B9B4F90C309A05EFD423F003030E
:1038C00043F00203A381E3E70D4BB362A3892060B9
:1038D00043F08003A381009B20616361019B5BB186
:1038E0003046B4F90E1000F029FB28B1A38923F06B
:1038F000030343F00103A381A0890543A581CDE71C
:1039000095360008034610B5C9B2024493421846E2
:1039100001D1002003E0047801338C42F6D110BDC0
:10392000884210B501EB020402D98442234607D82D
:10393000431EA14208D011F8012B03F8012FF8E72C
:10394000014602448A4200D110BD13F8014D02F82D
:10395000014DF7E738B50546002943D051F8043C3E
:103960000C1F002BB8BFE41800F00AFB1E4A1368B6
:10397000104633B9636014602846BDE8384000F053
:1039800005BBA3420AD921686218934201BF1A6895
:103990005B685218226063600460EDE71A465B685A
:1039A0000BB1A342FAD911685018A0420BD120687C
:1039B0000144501883421160DED118685B680144ED
:1039C00011605360D8E702D90C232B60D4E720683C
:1039D00021188B4201BF19685B6809182160636078
:1039E0005460C9E738BD00BFA0050020F8B5CD1C64
:1039F00025F0030508350C2D38BF0C25002D064693
:103A000001DBA94203D90C2333600020F8BD00F08C
:103A1000B7FA21490A6814469CB9204F3B6823B97C
:103A20002146304600F0BEF938602946304600F0A5
:103A3000B9F9431C23D10C233046336000F0A6FAB9
:103A4000E3E723685B1B17D40B2B03D923601C44CB
:103A5000256004E06368A2420CBF0B6053603046EF
:103A600000F094FA04F10B00231D20F00700C21AA5
:103A7000CCD01B1AA350C9E722466468CCE7C41C0B
:103A800024F00304A042E3D0211A304600F08AF962
:103A90000130DDD1CFE700BFA0050020A405002044
:103AA000F8B5074614460E4621B91146BDE8F84060
:103AB000FFF79CBF22B9FFF74DFF25462846F8BD0A
:103AC00000F06AFAA0420FD221463846FFF78EFF77
:103AD00005460028F2D031462246FFF709F9314663
:103AE0003846FFF737FFE9E73546E7E72DE9F047C6
:103AF0008E6882469E420C4690461F4638D88A8978
:103B000012F4906F32D0256809690133A5EB0109E1
:103B100065694B4405EB450505EBD5756D109D4278
:103B200038BF1D46530531D52946FFF75FFF0646CE
:103B300050B90C234FF0FF30CAF80030A38943F08E
:103B40004003A381BDE8F0874A462169FFF7D0F81A
:103B5000A38923F4906343F08003A38126614E443C
:103B600026603E466561A5EB0905A560BE4200D909
:103B70003E46324641462068FFF7D2FEA3682268DF
:103B80009B1B32440020A3602260DBE72A46FFF73C
:103B900087FF06460028E1D150462169FFF7DAFE8B
:103BA000C7E700002DE9F04F98468B8907461B06B2
:103BB0000D4614469DB00ED50B6963B94021FFF741
:103BC00015FF2860286120B90C233B604FF0FF30BF
:103BD000D1E040236B610023099320238DF8293025
:103BE00030234FF00109CDF80C80DFF8A4818DF867
:103BF0002A3023469A4613F8012B0AB1252AF9D117
:103C0000BAEB040B0BD05B46224629463846FFF739
:103C10006DFF013000F0AA80099A5A4409929AF87F
:103C20000030002B00F0A28000234FF0FF32CDE9DE
:103C300005230AF1010A049307938DF853301A9370
:103C40005446052214F8011B5148FFF75BFE049A05
:103C5000D8B9D00644BF20238DF85330110744BF94
:103C60002B238DF853309AF800302A2B15D0544668
:103C700000204FF00A0C079A214611F8013B303B17
:103C8000092B4ED9B0B1079214E0A0EB080309FA52
:103C900003F31343A2460493D2E7039B191D1B6849
:103CA0000391002BBBBF5B4242F0020207930793D4
:103CB000B8BF049223782E2B0CD163782A2B35D1F0
:103CC000039B02341A1D1B680392002BB8BF4FF0F0
:103CD000FF330593DFF8C8A0032250462178FFF791
:103CE00011FE40B14023A0EB0A0003FA00F0049B50
:103CF00001340343049314F8011B062225488DF870
:103D00002810FFF7FFFD002838D0234B1BBB039B77
:103D1000073323F0070308330393099B33440993C4
:103D200067E70C4601200CFB0232A5E700234FF0A9
:103D30000A0C194601340593204610F8012B303A3D
:103D4000092A03D9002BC5D00591C3E704460123F6
:103D50000CFB0121F0E703AB00932A4638460F4BDA
:103D600004A9AFF30080421C0646D6D1AB895B069E
:103D70003FF52CAF09981DB0BDE8F08F03AB009361
:103D80002A463846054B04A9FFF790F9EBE700BF38
:103D9000F84400080245000800000000ED3A000861
:103DA000FE44000838B50023054D044608462B6044
:103DB000FCF734FC431C02D12B6803B1236038BDEF
:103DC000740600201F2938B504460D4604D9162371
:103DD00003604FF0FF3038BD426C12B152F8213011
:103DE0004BB9204600F030F82A4601462046BDE88F
:103DF000384000F017B8012B0AD0591C03D1162304
:103E000003600120E7E70024284642F82540984750
:103E10000020E0E7024B01461868FFF7D3BF00BF60
:103E20000C00002038B50023064D04460846114614
:103E30002B60FCF770FB431C02D12B6803B123609D
:103E400038BD00BF74060020FCF75EBB10B50C4601
:103E5000B1F90E1000F0A8F80028ABBF636DA3897C
:103E60001B1823F48053ACBF6365A38110BD2DE9FB
:103E7000F0411F468B890546DB050C46164605D5E5
:103E800002230022B1F90E1000F068F8A38932462F
:103E900023F48053A38128463B46B4F90E10BDE8B5
:103EA000F04100F017B810B50C46B1F90E1000F053
:103EB00055F8431CA38915BF606523F4805343F470
:103EC0008053A38118BFA38110BDB1F90E1000F07B
:103ED00013B8000038B50446084611460022054DC7
:103EE0002A601A46FCF74EFB431C02D12B6803B133
:103EF000236038BD7406002038B50023054D044604
:103F000008462B60FCF75AFB431C02D12B6803B117
:103F1000236038BD7406002038B50023064D0446E2
:103F2000084611462B60FCF754FB431C02D12B685A
:103F300003B1236038BD00BF7406002038B50023EC
:103F4000054D044608462B60FCF752FB431C02D18A
:103F50002B6803B1236038BD7406002038B50446D1
:103F6000084611460022054D2A601A46FCF74AFB16
:103F7000431C02D12B6803B1236038BD74060020B6
:103F80000148FFF759BC00BF6C0600200148FFF74D
:103F900054BC00BF6C06002051F8043C181F002BD5
:103FA000BCBF0B58C018704738B5044608461146C8
:103FB0000022054D2A601A46FCF7C7FA431C02D1BD
:103FC0002B6803B1236038BD74060020F8B500BF2C
:103FD000F8BC08BC9E467047F8B500BFF8BC08BCEA
:043FE0009E46704742
:103FE40002030405060708090A0B0C0D0E0F101036
:103FF4000102030405060708090A0B0C0D0E0F1035
:104004000000000000000000010203040607080984
:1040140000000000010203046F6666736574203CAF
:10402400204E4C414E45532A73697A656F66287455
:10403400586F6F646F6F4C616E652900433A2F555A
:10404400736572732F766173696C69692F44657344
:104054006B746F702F6D645F6C6573736F6E732F09
:10406400646174615F6E65745F7365632F6E6973F9
:10407400745F6C77635F62656E63686D61726B2FEA
:10408400616C676F732F786F6F6479616B2F496D03
:10409400706C656D656E746174696F6E732F637295
:1040A4007970746F5F686173682F786F6F6479617A
:1040B4006B76312F7265662F586F6F646F6F2D7238
:1040C40065666572656E63652E6300006F66667370
:1040D40065742B6C656E677468203C3D204E4C41C2
:1040E4004E45532A73697A656F662874586F6F64F6
:1040F4006F6F4C616E6529005800000038000000A5
:10410400C0030000D00000002001000014000000E3
:10411400600000002C00000080030000F00000009C
:10412400A001000012000000586F6F646F6F5F41C0
:104134006464427974650000586F6F646F6F5F4107
:104144006464427974657300586F6F646F6F5F4580
:10415400787472616374427974657300696E737400
:10416400616E63652D3E6D6F6465203D3D2043792E
:10417400636C6973745F4D6F6465486173680000B4
:10418400433A2F55736572732F766173696C69694D
:104194002F4465736B746F702F6D645F6C657373FC
:1041A4006F6E732F646174615F6E65745F736563B2
:1041B4002F6E6973745F6C77635F62656E63686D9D
:1041C40061726B2F616C676F732F786F6F647961A5
:1041D4006B2F496D706C656D656E746174696F6E7B
:1041E400732F63727970746F5F686173682F786F6F
:1041F4006F6479616B76312F7265662F4379636CD6
:104204006973742E696E6300284B4C656E202B20F5
:1042140049444C656E29203C3D20284379636C69F0
:1042240073745F526B696E202D20312900000000E9
:10423400586F6F6479616B5F4162736F72624B6533
:10424400790000004C57435F414C474F5F4841534E
:10425400485F584F4F4459414B563100000000000D
:10426400000000000000000000000000000000004A
:10427400000000000000000000000000000000003A
:10428400000000000000000000000000000000002A
:10429400000000000000000000000000000000001A
:1042A400000000000000000000000000000000000A
:1042B40000000000000000000000000000000000FA
:1042C400000000005465737420456E61626C65647F
:1042D40000000000000000000000000000000000DA
:1042E40000000000000000000000000000000000CA
:1042F40000000000000000000000000000000000BA
:1043040000000000000000000000000000000000A9
:104314000000000000000000000000000000000099
:104324000000000000000000000000000000000089
:104334000000000000000000000000000000000079
:10434400000000000A0A0A0A5374617274696E67F5
:104354002E2E2E0A25730A4D6179203233203230F5
:1043640032312031353A34383A31380A4F70746971
:104374006D697A6174696F6E3A204F666173740A6D
:10438400416C676F726974686D3A2025730A000086
:104394004D656D6F72792075736167653A20000011
:1043A400546F74616C20464C4153483A2025366C56
:1043B400754220546F74616C2052414D3A20253669
:1043C4006C7542200A00000053656374696F6E7354
:1043D4003A20746578742025366C754220646174C3
:1043E400612025366C7542206273732025366C7506
:1043F400420A00006D73675F6C656E3A253664206F
:1044040000000000686173683A25313064207573D8
:104414003A253964206D733A253764200000000082
:10442400484153480000000048415348546F7452B7
:1044340065733A20000000006828256429203D2087
:10444400256420002573202573204D6179203233A3
:1044540020323032312031353A34383A3138204F35
:104464007074696D697A6174696F6E3A204F666120
:10447400737420416C676F726974686D3A20257398
:104484002000000053656374696F6E733A2074658D
:1044940078742025366C7520646174612025366C2F
:1044A40075206273732025366C75200025303258D0
:1044B400002C2066756E6374696F6E3A2000617318
:1044C40073657274696F6E20222573222066616998
:1044D4006C65643A2066696C6520222573222C2061
:1044E4006C696E65202564257325730A000000003D
:1044F40010000020232D302B2000686C4C006566D2
:104504006745464700303132333435363738394120
:104514004243444546003031323334353637383936
:104524006162636465660000000000000000000032
:104534000000000000000000000000000000000077
:104544000000000000000000000000000000000067
:104554000000000000000000000000000000000057
:104564000000000000000000000000000000000047
:104574000000000000000000000000000000000037
:0845840000000000000000002F
:04458C00F50100082D
:04459000D10100084D
:104594000024F400100000000100000010000020BE
:1045A400000000004C4500086C4500082C4500083C
:1045B40000000000000000000000000000000000F7
:1045C40000000000000000000000000000000000E7
:1045D40000000000000000000000000000000000D7
:1045E40000000000000000000000000000000000C7
:1045F40000000000000000000000000000000000B7
:040000050800069554
:00000001FF
