:020000040800F2
:1000000000A00020050600080D05000813050008E3
:10001000190500081F05000825050008000000005C
:100020000000000000000000000000002B05000898
:1000300039050008000000004705000855050008C4
:100040005506000855060008550600085506000824
:100050005506000855060008550600085506000814
:100060005506000855060008550600085506000804
:1000700055060008550600085506000855060008F4
:1000800055060008550600085506000855060008E4
:1000900055060008550600085506000855060008D4
:1000A00055060008550600085506000855060008C4
:1000B00055060008550600085506000855060008B4
:1000C00055060008550600085506000855060008A4
:1000D0005506000855060008550600085506000894
:1000E0005506000855060008550600085506000884
:1000F0005506000855060008550600085506000874
:10010000000000000000000000000000550600088C
:100110005506000855060008610500085506000848
:100120005506000855060008550600085506000843
:1001300055060008550600080000000000000000F9
:100140005506000855060008550600080000000086
:10015000000000000000000000000000000000009F
:1001600000000000000000005506000855060008C9
:10017000550600080000000000000000000000001C
:08018000000000005506000814
:1001900010B5054C237833B9044B13B10448AFF3C1
:1001A00000800123237010BD7400002000000000B7
:1001B000744A000808B5034B1BB103490348AFF369
:1001C000008008BD0000000078000020744A00088C
:1001D000034613F8012B002AFBD1181A0138704787
:1001E00001F0FF01102A2BDB10F0070F08D010F8E8
:1001F000013B013A8B422DD010F0070F42B3F6D1EC
:10020000F0B441EA012141EA014122F007047FF004
:1002100000070023F0E80256083C85EA010586EA5B
:10022000010685FA47F5A3FA87F586FA47F6A5FA97
:1002300087F68EB9EED1F0BC01F0FF0102F00702A3
:1002400032B110F8013B013A83EA010313B1F8D14E
:100250000020704701387047002D06BF354603382F
:10026000073815F0010F07D1013015F4807F02BF68
:10027000013015F4C03F0130F0BC0138704700BFB9
:1002800080B485B000AF7860084B5A6907497B6835
:1002900013434B61054B5A697B681340FB60FB6855
:1002A00000BF1437BD465DF8047B70470010024064
:1002B00008B500F0D1F900F00FF800F08BF800F06D
:1002C00049F800F06BF8034C03F0C6FD204600F03F
:1002D00029FAF9E740420F002DE930430024A1B08C
:1002E0003C22214611A8CDE90744CDE90044CDE9DF
:1002F000024409940C9404944FF0010803F092FF17
:100300004FF0100902234FF4002206A8CDE90A8914
:100310000E9406930D930F9200F0B4FCC0B9014601
:100320000023002268460F240225CDE90223CDE9EF
:100330000045049101F0AEFB034648B9012211A823
:100340001393119201F0DCFD10B921B0BDE83083A8
:1003500000F04CF810B50F4C0F4B236084B0002315
:100360004FF6FF722046CDE90233E26063600193ED
:10037000A360A36101F074FF48B9034601A92046B8
:100380000193039302F034FA08B904B010BD00F0F1
:100390002DF800BF30060020001000400B4808B5C3
:1003A0000B4B03604FF4E13100230C22C0E9023310
:1003B000C0E90633C0E9083341604261036102F0DD
:1003C000B5FA00B908BD00F011F800BFAC05002077
:1003D0000038014008B54FF40020FFF751FFBDE899
:1003E00008404FF40030FFF74BBF00BF72B6FEE786
:1003F00080B483B000AF0F4B9B690E4A43F00103FA
:1004000093610C4B9B6903F001037B607B68094B94
:10041000DB69084A43F08053D361064BDB6903F084
:1004200080533B603B6800BF0C37BD465DF8047BE2
:10043000704700BF0010024080B584B000AF786004
:100440007B681B680D4A934213D10D4BDB690C4A44
:1004500043F01003D3610A4BDB6903F01003FB6028
:10046000FB6800220021362000F05BFA362000F005
:1004700074FA00BF1037BD4680BD00BF00100040B9
:100480000010024080B58AB000AF786007F1140315
:1004900000221A605A609A60DA601A617B681B68F1
:1004A000174A934227D1174B9B69164A43F480435E
:1004B0009361144B9B6903F480433B613B69114B8F
:1004C0005B69104A43F4002353610E4B5B6903F4EC
:1004D0000023FB60FB6830237B610223BB610023A8
:1004E000FB6103233B6207237B6207F11403194678
:1004F000054800F04DFA00BF2837BD4680BD00BF5B
:1005000000380140001002400008004880B400AFED
:10051000FEE780B400AFFEE780B400AFFEE780B432
:1005200000AFFEE780B400AFFEE780B400AF00BFCD
:10053000BD465DF8047B704780B400AF00BFBD4688
:100540005DF8047B704780B400AF00BFBD465DF826
:10055000047B704780B500AF00F0C4F800BF80BDD9
:1005600080B500AF024801F06CFF00BF80BD00BF46
:100570003006002080B586B000AF7860144A154B75
:10058000D31A7B617B693B61134B1B68002B02D143
:10059000114B124A1A60104B1A687B6813443A696F
:1005A0009A4207D203F006FE03460C221A604FF06F
:1005B000FF3309E0084B1B68FB60074B1A687B6838
:1005C0001344054A1360FB6818461837BD4680BDC2
:1005D00000A000200004000090000020C8060020B9
:1005E00080B400AF064BD3F88830054A43F470035B
:1005F000C2F8883000BFBD465DF8047B704700BF7D
:1006000000ED00E0DFF834D00D480E490E4A00231B
:1006100002E0D458C4500433C4188C42F9D30B4AB6
:100620000B4C002301E013600432A242FBD3FFF71E
:10063000D7FF03F0C5FDFFF73BFEFEE700A000205B
:100640000000002074000020684E000874000020A4
:10065000C4060020FEE7000080B500AF084B1B6811
:10066000074A43F010031360032000F04FF9002005
:1006700000F008F8FFF7BCFE0023184680BD00BF5D
:100680000020024080B582B000AF7860124B1A683B
:10069000124B1B7819464FF47A73B3FBF1F3B2FB9C
:1006A000F3F3184600F067F90346002B01D001234D
:1006B0000EE07B680F2B0AD8002279684FF0FF30DC
:1006C00000F02FF9064A7B681360002300E0012345
:1006D00018460837BD4680BD0000002008000020F5
:1006E0000400002080B400AF064B1B781A46064B6E
:1006F0001B681344044A136000BFBD465DF8047BC9
:10070000704700BF080000207C06002080B400AFC6
:10071000034B1B681846BD465DF8047B704700BF5D
:100720007C06002080B584B000AF7860FFF7EEFF54
:10073000B8607B68FB60FB68B3F1FF3F05D00A4BF4
:100740001B781A46FB681344FB6000BFFFF7DEFF0F
:100750000246BB68D31AFA689A42F7D800BF00BFB6
:100760001037BD4680BD00BF0800002080B485B0B2
:1007700000AF78607B6803F00703FB600C4BDB681D
:10078000BB60BA684FF6FF031340BB60FB681A02F8
:10079000BB68134343F0BF6343F40033BB60044AB8
:1007A000BB68D36000BF1437BD465DF8047B70475B
:1007B00000ED00E080B400AF044BDB681B0A03F0DF
:1007C00007031846BD465DF8047B704700ED00E066
:1007D00080B483B000AF0346FB7197F90730002B5C
:1007E0000BDBFB7903F01F02074997F907305B0920
:1007F000012000FA02F241F8232000BF0C37BD4669
:100800005DF8047B704700BF00E100E080B483B076
:1008100000AF03463960FB7197F90730002B0ADB04
:100820003B68DAB20C4997F907301201D2B20B4497
:1008300083F800230AE03B68DAB20849FB7903F049
:100840000F03043B1201D2B20B441A7600BF0C37DF
:10085000BD465DF8047B704700E100E000ED00E07C
:1008600080B489B000AFF860B9607A60FB6803F0CB
:100870000703FB61FB69C3F10703042B28BF0423B3
:10088000BB61FB690433062B02D9FB69033B00E023
:1008900000237B614FF0FF32BB6902FA03F3DA43B6
:1008A000BB681A407B699A404FF0FF317B6901FABF
:1008B00003F3D9437B680B40134318462437BD46E6
:1008C0005DF8047B7047000080B582B000AF7860AF
:1008D0007B68013BB3F1807F01D301230FE00A4A1B
:1008E0007B68013B53600F214FF0FF30FFF78EFF15
:1008F000054B00229A60044B07221A600023184619
:100900000837BD4680BD00BF10E000E080B582B072
:1009100000AF78607868FFF729FF00BF0837BD4651
:1009200080BD80B586B000AF0346B9607A60FB73C6
:1009300000237B61FFF73EFF78617A68B9687869C8
:10094000FFF78EFF024697F90F3011461846FFF762
:100950005DFF00BF1837BD4680BD80B582B000AFD7
:100960000346FB7197F907301846FFF731FF00BFC8
:100970000837BD4680BD80B582B000AF786078682A
:10098000FFF7A2FF034618460837BD4680BD0000AA
:1009900080B487B000AF7860396000237B6154E198
:1009A0003B681A6801217B6901FA03F31340FB607D
:1009B000FB68002B00F046813B685B68012B0BD085
:1009C0003B685B68022B07D03B685B68112B03D048
:1009D0003B685B68122B30D17B689B683B617B690D
:1009E0005B00032202FA03F3DB433A6913403B61E5
:1009F0003B68DA687B695B0002FA03F33A691343E8
:100A00003B617B683A699A607B685B683B61012265
:100A10007B6902FA03F3DB433A6913403B613B68AD
:100A20005B681B0903F001027B6902FA03F33A6970
:100A300013433B617B683A695A607B68DB683B61C2
:100A40007B695B00032202FA03F3DB433A6913403C
:100A50003B613B689A687B695B0002FA03F33A6981
:100A600013433B617B683A69DA603B685B68022B41
:100A700003D03B685B68122B23D17B69DA087B6863
:100A8000083253F822303B617B6903F007039B0077
:100A90000F2202FA03F3DB433A6913403B613B68E0
:100AA0001A697B6903F007039B0002FA03F33A69B2
:100AB00013433B617B69DA087B680832396943F884
:100AC00022107B681B683B617B695B00032202FA92
:100AD00003F3DB433A6913403B613B685B6803F017
:100AE00003027B695B0002FA03F33A6913433B613B
:100AF0007B683A691A603B685B6803F08053002B9F
:100B000000F0A080584B9B69574A43F00103936162
:100B1000554B9B6903F00103BB60BB68534A7B697B
:100B20009B08023352F823303B617B6903F00303D7
:100B30009B000F2202FA03F3DB433A6913403B6147
:100B40007B68B3F1904F19D07B68494A934213D028
:100B50007B68484A93420DD07B68474A934207D04E
:100B60007B68464A934201D1042308E0052306E04E
:100B7000032304E0022302E0012300E000237A695A
:100B800002F00302920093403A6913433B613749F4
:100B90007B699B0802333A6941F82320384B1B6874
:100BA0003B61FB68DB433A6913403B613B685B6830
:100BB00003F48033002B03D03A69FB6813433B6195
:100BC0002F4A3B6913602E4B5B683B61FB68DB433C
:100BD0003A6913403B613B685B6803F40033002BC8
:100BE00003D03A69FB6813433B61254A3B69536074
:100BF000234B9B683B61FB68DB433A6913403B61D5
:100C00003B685B6803F48013002B03D03A69FB68F0
:100C100013433B611A4A3B699360194BDB683B61A4
:100C2000FB68DB433A6913403B613B685B6803F454
:100C30000013002B03D03A69FB6813433B61104A51
:100C40003B69D3607B6901337B613B681A687B69D0
:100C500022FA03F3002B7FF4A3AE00BF00BF1C37C2
:100C6000BD465DF8047B7047001002400000014063
:100C70000004004800080048000C0048001000482C
:100C80000004014080B5ADF5007D00AF3B1D18604C
:100C90003B1D1B68002B02D1012300F0F4BE3B1D5D
:100CA0001B681B6803F00103002B00F06A81B34B43
:100CB0005B6803F00C03042B0CD0B04B5B6803F0B3
:100CC0000C03082B59D1AD4B5B6803F48033B3F5AB
:100CD000803F52D14FF40033C7F8F031D7F8F031EC
:100CE00093FAA3F3C7F8EC31D7F8EC31B3FA83F3F6
:100CF000DBB25B09DBB243F00103DBB2012B02D1B3
:100D00009E4B1B6815E04FF40033C7F8E831D7F865
:100D1000E83193FAA3F3C7F8E4314FF40033C7F88E
:100D2000E031D7F8E03193FAA3F3C7F8DC31934B05
:100D30005B6A4FF40032C7F8D821D7F8D82192FA6D
:100D4000A2F2C7F8D421D7F8D421B2FA82F2D2B2F3
:100D500042F02002D2B202F01F02012101FA02F297
:100D60001340002B00F00C813B1D1B685B68002BBF
:100D700040F00681012300F086BE3B1D1B685B68C6
:100D8000B3F5803F06D17D4B1B687C4A43F480332A
:100D9000136030E03B1D1B685B68002B0CD1774B68
:100DA0001B68764A23F480331360744B1B68734AC4
:100DB00023F4802313601EE03B1D1B685B68B3F5C2
:100DC000A02F0CD16D4B1B686C4A43F48023136039
:100DD0006A4B1B68694A43F4803313600BE0674B2E
:100DE0001B68664A23F480331360644B1B68634AB4
:100DF00023F480231360614BDB6A23F00F023B1D59
:100E00001B689B685D491343CB623B1D1B685B6895
:100E1000002B59D0FFF77AFCC7F8F8010AE0FFF77A
:100E200075FC0246D7F8F831D31A642B02D9032394
:100E300000F029BE4FF40033C7F8D031D7F8D031D5
:100E400093FAA3F3C7F8CC31D7F8CC31B3FA83F3D4
:100E5000DBB25B09DBB243F00103DBB2012B02D151
:100E6000464B1B6815E04FF40033C7F8C831D7F87C
:100E7000C83193FAA3F3C7F8C4314FF40033C7F86D
:100E8000C031D7F8C03193FAA3F3C7F8BC313B4B5C
:100E90005B6A4FF40032C7F8B821D7F8B82192FA4C
:100EA000A2F2C7F8B421D7F8B421B2FA82F2D2B2D2
:100EB00042F02002D2B202F01F02012101FA02F236
:100EC0001340002BABD05CE0FFF720FCC7F8F80123
:100ED0000AE0FFF71BFC0246D7F8F831D31A642B5F
:100EE00002D9032300F0CFBD4FF40033C7F8B0316F
:100EF000D7F8B03193FAA3F3C7F8AC31D7F8AC31D7
:100F0000B3FA83F3DBB25B09DBB243F00103DBB27C
:100F1000012B02D1194B1B6815E04FF40033C7F8C1
:100F2000A831D7F8A83193FAA3F3C7F8A4314FF446
:100F30000033C7F8A031D7F8A03193FAA3F3C7F86C
:100F40009C310E4B5B6A4FF40032C7F89821D7F8FA
:100F5000982192FAA2F2C7F89421D7F89421B2FA14
:100F600082F2D2B242F02002D2B202F01F0201217C
:100F700001FA02F21340002BABD102E00010024054
:100F800000BF3B1D1B681B6803F00203002B00F031
:100F90006F81D04B5B6803F00C03002B0BD0CD4B63
:100FA0005B6803F00C03082B6CD1CA4B5B6803F43D
:100FB0008033002B66D10223C7F89031D7F89031E7
:100FC00093FAA3F3C7F88C31D7F88C31B3FA83F3D3
:100FD000DBB25B09DBB243F00103DBB2012B02D1D0
:100FE000BC4B1B6813E00223C7F88831D7F888315F
:100FF00093FAA3F3C7F884310223C7F88031D7F8F6
:10100000803193FAA3F3C7F87C31B24B5B6A0222BA
:10101000C7F87821D7F8782192FAA2F2C7F874219C
:10102000D7F87421B2FA82F2D2B242F02002D2B2E0
:1010300002F01F02012101FA02F21340002B07D037
:101040003B1D1B681B69012B02D0012300F01BBD57
:10105000A04B1B6823F0F8023B1D1B685B69F8215D
:10106000C7F87011D7F8701191FAA1F1C7F86C1197
:10107000D7F86C11B1FA81F1C9B28B40954913438D
:101080000B60F5E03B1D1B681B69002B00F08580A1
:101090000123C7F86831D7F8683193FAA3F3C7F88A
:1010A0006431D7F86431B3FA83F3DBB203F18453CC
:1010B00003F584139B001A4601231360FFF726FBF8
:1010C000C7F8F8010AE0FFF721FB0246D7F8F8312C
:1010D000D31A022B02D9032300F0D5BC0223C7F890
:1010E0006031D7F8603193FAA3F3C7F85C31D7F8D1
:1010F0005C31B3FA83F3DBB25B09DBB243F001038B
:10110000DBB2012B02D1734B1B6813E00223C7F83B
:101110005831D7F8583193FAA3F3C7F85431022362
:10112000C7F85031D7F8503193FAA3F3C7F84C31D0
:10113000684B5B6A0222C7F84821D7F8482192FA27
:10114000A2F2C7F84421D7F84421B2FA82F2D2B20F
:1011500042F02002D2B202F01F02012101FA02F293
:101160001340002BAFD05B4B1B6823F0F8023B1DF4
:101170001B685B69F821C7F84011D7F8401191FA54
:10118000A1F1C7F83C11D7F83C11B1FA81F1C9B20D
:101190008B40504913430B606AE00123C7F8383194
:1011A000D7F8383193FAA3F3C7F83431D7F834318C
:1011B000B3FA83F3DBB203F1845303F584139B008A
:1011C0001A4600231360FFF7A1FAC7F8F8010AE0F6
:1011D000FFF79CFA0246D7F8F831D31A022B02D94E
:1011E000032300F050BC0223C7F83031D7F8303168
:1011F00093FAA3F3C7F82C31D7F82C31B3FA83F361
:10120000DBB25B09DBB243F00103DBB2012B02D19D
:10121000304B1B6813E00223C7F82831D7F8283178
:1012200093FAA3F3C7F824310223C7F82031D7F883
:10123000203193FAA3F3C7F81C31264B5B6A0222D4
:10124000C7F81821D7F8182192FAA2F2C7F814218A
:10125000D7F81421B2FA82F2D2B242F02002D2B20E
:1012600002F01F02012101FA02F21340002BAFD15C
:101270003B1D1B681B6803F00803002B00F0DA809D
:101280003B1D1B689B69002B69D00123C7F81031F7
:10129000D7F8103193FAA3F3C7F80C31D7F80C3113
:1012A000B3FA83F3DBB21A460B4B13449B001A4686
:1012B00001231360FFF72AFAC7F8F8010EE0FFF7E1
:1012C00025FA0246D7F8F831D31A022B06D90323A0
:1012D000D9E300BF00100240208190100223C7F81C
:1012E0000831D7F8083193FAA3F3C7F8043107F5AA
:1012F000807302221A6007F580731B6893FAA3F2C9
:1013000007F1FC031A6007F1F80302221A6007F1E3
:10131000F8031B6893FAA3F207F1F4031A60A54BD4
:101320005A6A07F1F0030221196007F1F0031B6804
:1013300093FAA3F107F1EC03196007F1EC031B68C2
:10134000B3FA83F3DBB243F06003DBB203F01F03B5
:10135000012101FA03F31340002BB0D06AE007F13A
:10136000E80301221A6007F1E8031B6893FAA3F26D
:1013700007F1E4031A6007F1E4031B68B3FA83F38F
:10138000DBB21A468C4B13449B001A4600231360B1
:10139000FFF7BCF9C7F8F80109E0FFF7B7F9024613
:1013A000D7F8F831D31A022B01D903236BE307F1E5
:1013B000E00302221A6007F1E0031B6893FAA3F22C
:1013C00007F1DC031A6007F1D80302221A6007F163
:1013D000D8031B6893FAA3F207F1D4031A6007F14C
:1013E000D00302221A6007F1D0031B6893FAA3F21C
:1013F00007F1CC031A606F4B5A6A07F1C803022148
:10140000196007F1C8031B6893FAA3F107F1C4033D
:10141000196007F1C4031B68B3FA83F3DBB243F02E
:101420006003DBB203F01F03012101FA03F3134051
:10143000002BB2D13B1D1B681B6803F00403002B7B
:1014400000F05881002387F8FF315A4BDB6903F025
:101450008053002B12D1574BDB69564A43F080531F
:10146000D361544BDB6903F0805207F108031A6023
:1014700007F108031B68012387F8FF314F4B1B68F6
:1014800003F48073002B1AD14C4B1B684B4A43F476
:1014900080731360FFF73AF9C7F8F80109E0FFF726
:1014A00035F90246D7F8F831D31A642B01D9032352
:1014B000E9E2424B1B6803F48073002BEFD03B1D25
:1014C0001B68DB68012B06D13A4B1B6A394A43F093
:1014D000010313622FE03B1D1B68DB68002B0CD15E
:1014E000344B1B6A334A23F001031362314B1B6AEE
:1014F000304A23F0040313621DE03B1D1B68DB68C8
:10150000052B0CD12B4B1B6A2A4A43F004031362B0
:10151000284B1B6A274A43F0010313620BE0254B5B
:101520001B6A244A23F001031362224B1B6A214ADF
:1015300023F0040313623B1D1B68DB68002B6BD098
:10154000FFF7E4F8C7F8F8010BE0FFF7DFF8024611
:10155000D7F8F831D31A41F28832934201D90323E4
:1015600091E207F1C00302221A6007F1C0031B6871
:1015700093FAA3F207F1BC031A6007F1B803022241
:101580001A6007F1B8031B6893FAA3F207F1B403DA
:101590001A6007F1B4031B68B3FA83F3DBB25B098B
:1015A000DBB243F00203DBB2022B09D1014B1B6A11
:1015B00014E000BF00100240208190100070004035
:1015C00007F1B00302221A6007F1B0031B6893FA17
:1015D000A3F207F1AC031A60BB4B5B6A07F1A802E8
:1015E0000221116007F1A802126892FAA2F107F134
:1015F000A402116007F1A4021268B2FA82F2D2B218
:1016000042F04002D2B202F01F02012101FA02F2BE
:101610001340002B99D063E0FFF778F8C7F8F80182
:101620000BE0FFF773F80246D7F8F831D31A41F20E
:101630008832934201D9032325E207F1A003022255
:101640001A6007F1A0031B6893FAA3F207F19C0349
:101650001A6007F1980302221A6007F198031B68C9
:1016600093FAA3F207F194031A6007F194031B683D
:10167000B3FA83F3DBB25B09DBB243F00203DBB204
:10168000022B02D1904B1B6A0DE007F1900302225E
:101690001A6007F190031B6893FAA3F207F18C0319
:1016A0001A60894B5B6A07F188020221116007F119
:1016B0008802126892FAA2F107F18402116007F120
:1016C00084021268B2FA82F2D2B242F04002D2B27E
:1016D00002F01F02012101FA02F21340002BA0D1F7
:1016E00097F8FF31012B05D1774BDB69764A23F060
:1016F0008053D3613B1D1B68DB69002B00F0C28166
:10170000714B5B6803F00C03082B00F09C813B1DC0
:101710001B68DB69022B40F0148107F180034FF056
:1017200080721A6007F180031B6893FAA3F207F135
:101730007C031A6007F17C031B68B3FA83F3DBB206
:1017400003F1845303F584139B001A4600231360AE
:10175000FEF7DCFFC7F8F80109E0FEF7D7FF024605
:10176000D7F8F831D31A022B01D903238BE107F103
:1017700078034FF000721A6007F178031B6893FA40
:10178000A3F207F174031A6007F174031B68B3FA3C
:1017900083F3DBB25B09DBB243F00103DBB2012B65
:1017A00002D1494B1B681BE007F170034FF0007238
:1017B0001A6007F170031B6893FAA3F207F16C0338
:1017C0001A6007F168034FF000721A6007F16803AE
:1017D0001B6893FAA3F207F164031A603A4B5B6A41
:1017E00007F160024FF00071116007F160021268AA
:1017F00092FAA2F107F15C02116007F15C02126833
:10180000B2FA82F2D2B242F02002D2B202F01F0249
:10181000012101FA02F21340002B9ED12A4B5B6892
:1018200023F474123B1D1B68596A3B1D1B681B6A1D
:101830000B43254913434B6007F158034FF0807267
:101840001A6007F158031B6893FAA3F207F15403D7
:101850001A6007F154031B68B3FA83F3DBB203F198
:10186000845303F584139B001A4601231360FEF78B
:101870004DFFC7F8F80109E0FEF748FF0246D7F828
:10188000F831D31A022B01D90323FCE007F15003EE
:101890004FF000721A6007F150031B6893FAA3F22D
:1018A00007F14C031A6007F14C031B68B3FA83F38A
:1018B000DBB25B09DBB243F00103DBB2012B05D1E4
:1018C000014B1B681EE000BF0010024007F14803F7
:1018D0004FF000721A6007F148031B6893FAA3F2F5
:1018E00007F144031A6007F140034FF000721A60D9
:1018F00007F140031B6893FAA3F207F13C031A6057
:10190000634B5B6A07F138024FF00071116007F119
:101910003802126892FAA2F107F13402116007F15D
:1019200034021268B2FA82F2D2B242F02002D2B28B
:1019300002F01F02012101FA02F21340002B9BD09A
:10194000A0E007F130034FF080721A6007F1300316
:101950001B6893FAA3F207F12C031A6007F12C031A
:101960001B68B3FA83F3DBB203F1845303F58413EA
:101970009B001A4600231360FEF7C8FEC7F8F80163
:1019800009E0FEF7C3FE0246D7F8F831D31A022B5E
:1019900001D9032377E007F128034FF000721A60A2
:1019A00007F128031B6893FAA3F207F124031A60D6
:1019B00007F124031B68B3FA83F3DBB25B09DBB2E4
:1019C00043F00103DBB2012B02D1314B1B681BE05A
:1019D00007F120034FF000721A6007F120031B6823
:1019E00093FAA3F207F11C031A6007F118034FF0F2
:1019F00000721A6007F118031B6893FAA3F207F14B
:101A000014031A60224B5B6A07F110024FF0007159
:101A1000116007F11002126892FAA2F107F10C02AC
:101A2000116007F10C021268B2FA82F2D2B242F0EF
:101A30002002D2B202F01F02012101FA02F2134089
:101A4000002B9ED11EE03B1D1B68DB69012B01D1E1
:101A5000012318E00E4B5B68C7F8F431D7F8F43176
:101A600003F480323B1D1B681B6A9A4208D1D7F8E9
:101A7000F43103F470123B1D1B685B6A9A4201D07B
:101A8000012300E00023184607F50077BD4680BD1E
:101A90000010024080B59EB000AF7860396000232E
:101AA0007B677B68002B01D1012362E1904B1B68AF
:101AB00003F007033A689A4210D98D4B1B6823F054
:101AC00007028B493B6813430B60894B1B6803F08B
:101AD00007033A689A4201D001234AE17B681B68F8
:101AE00003F00203002B08D0824B5B6823F0F00266
:101AF0007B689B687F4913434B607B681B6803F0DE
:101B00000103002B00F0DC807B685B68012B3CD17B
:101B10004FF400333B673B6F93FAA3F3FB66FB6E16
:101B2000B3FA83F3DBB25B09DBB243F00103DBB250
:101B3000012B02D16F4B1B680FE04FF40033BB66E3
:101B4000BB6E93FAA3F37B664FF400333B663B6EA8
:101B500093FAA3F3FB65674B5B6A4FF40032BA65F7
:101B6000BA6D92FAA2F27A657A6DB2FA82F2D2B2C4
:101B700042F02002D2B202F01F02012101FA02F269
:101B80001340002B7BD10123F3E07B685B68022BC1
:101B90003CD14FF000733B653B6D93FAA3F3FB64BC
:101BA000FB6CB3FA83F3DBB25B09DBB243F00103F6
:101BB000DBB2012B02D14F4B1B680FE04FF00073DB
:101BC000BB64BB6C93FAA3F37B644FF000733B647C
:101BD0003B6C93FAA3F3FB63464B5B6A4FF00072D6
:101BE000BA63BA6B92FAA2F27A637A6BB2FA82F2B1
:101BF000D2B242F02002D2B202F01F02012101FA59
:101C000002F21340002B3AD10123B2E002233B63DE
:101C10003B6B93FAA3F3FB62FB6AB3FA83F3DBB289
:101C20005B09DBB243F00103DBB2012B02D1314B84
:101C30001B680DE00223BB62BB6A93FAA3F37B62CD
:101C400002233B623B6A93FAA3F3FB61294B5B6A75
:101C50000222BA61BA6992FAA2F27A617A69B2FA98
:101C600082F2D2B242F02002D2B202F01F0201216F
:101C700001FA02F21340002B01D1012379E01D4B40
:101C80005B6823F003027B685B681A4913434B606F
:101C9000FEF73CFD78670AE0FEF738FD02467B6FF1
:101CA000D31A41F28832934201D9032361E0114BE8
:101CB0005B6803F00C027B685B689B009A42EBD187
:101CC0000B4B1B6803F007033A689A4214D2084B87
:101CD0001B6823F0070206493B6813430B60044B63
:101CE0001B6803F007033A689A4205D0012340E0DD
:101CF00000200240001002407B681B6803F00403D0
:101D0000002B08D01D4B5B6823F4E0627B68DB6826
:101D10001A4913434B607B681B6803F00803002BD0
:101D200009D0164B5B6823F460527B681B69DB00AB
:101D3000124913434B6000F029F801460F4B5B68D2
:101D400003F0F003F0223A613A6992FAA2F2FA60E3
:101D5000FA68B2FA82F2D2B2D340094AD35C21FACD
:101D600003F3084A1360084B1B681846FEF78AFC09
:101D7000002318467837BD4680BD00BF00100240E2
:101D80008C4A0008000000200400002080B48BB0C2
:101D900000AF0023FB610023BB6100237B620023B3
:101DA0007B6100233B62294B5B68FB61FB6903F0AD
:101DB0000C03042B02D0082B03D03CE0244B3B62E5
:101DC0003CE0FB6903F470134FF47012BA60BA6818
:101DD00092FAA2F27A607A68B2FA82F2D2B2D34070
:101DE0001C4AD35C7B61194BDB6A03F00F030F22A3
:101DF0003A613A6992FAA2F2FA60FA68B2FA82F2A9
:101E0000D2B2D340144AD35CBB61FB6903F4803384
:101E1000002B08D00E4ABB69B2FBF3F27B6902FBD0
:101E200003F37B6204E07B690C4A02FB03F37B62F1
:101E30007B6A3B6202E0064B3B6200BF3B6A18468E
:101E40002C37BD465DF8047B704700BF0010024090
:101E500000127A00A44A0008B44A000800093D00B4
:101E600080B400AF034B1B681846BD465DF8047B89
:101E7000704700BF0000002080B582B000AFFFF7C0
:101E8000EFFF01460B4B5B6803F4E0634FF4E06245
:101E90007A607A6892FAA2F23A603A68B2FA82F20A
:101EA000D2B2D340044AD35C21FA03F31846083770
:101EB000BD4680BD001002409C4A000880B582B03B
:101EC00000AFFFF7CDFF01460B4B5B6803F4605397
:101ED0004FF460527A607A6892FAA2F23A603A68F5
:101EE000B2FA82F2D2B2D340044AD35C21FA03F3AD
:101EF00018460837BD4680BD001002409C4A0008C5
:101F000080B592B000AF786000233B640023FB6390
:101F1000002387F847307B681B6803F48033002B6D
:101F200000F0D4804E4BDB6903F08053002B0ED1C0
:101F30004B4BDB694A4A43F08053D361484BDB6922
:101F400003F08053BB60BB68012387F84730454BE3
:101F50001B6803F48073002B18D1424B1B68414A65
:101F600043F480731360FEF7D1FB386408E0FEF79A
:101F7000CDFB02463B6CD31A642B01D9032369E1E4
:101F8000384B1B6803F48073002BF0D0344B1B6A72
:101F900003F44073FB63FB6B002B00F084807B68D1
:101FA0005B6803F44073FA6B9A427CD02C4B1B6A3B
:101FB00023F44073FB634FF480333B633B6B93FA32
:101FC000A3F3FB62FB6AB3FA83F3DBB21A46264B38
:101FD00013449B001A46012313604FF48033BB6304
:101FE000BB6B93FAA3F37B637B6BB3FA83F3DBB234
:101FF0001A461D4B13449B001A4600231360184ACF
:10200000FB6B1362FB6B03F00103002B4BD0FEF75D
:102010007DFB38640AE0FEF779FB02463B6CD31A7D
:1020200041F28832934201D9032313E10223BB62B8
:10203000BB6A93FAA3F37B6202233B623B6A93FA87
:10204000A3F3FB61FB69B3FA83F3DBB25B09DBB299
:1020500043F00203DBB2022B08D1014B1B6A0DE0F7
:102060000010024000700040008190100223BB610C
:10207000BB6993FAA3F37B61784B5B6A02223A61F6
:102080003A6992FAA2F2FA60FA68B2FA82F2D2B22D
:1020900042F04002D2B202F01F02012101FA02F224
:1020A0001340002BB7D06D4B1B6A23F440727B6842
:1020B0005B686A4913430B6297F84730012B05D1DF
:1020C000664BDB69654A23F08053D3617B681B68EC
:1020D00003F00103002B08D0604B1B6B23F00302BD
:1020E0007B689B685D4913430B637B681B6803F047
:1020F0000203002B08D0594B1B6B23F440327B6842
:10210000DB68564913430B637B681B6803F00403C9
:10211000002B08D0514B1B6B23F440227B681B69BA
:102120004E4913430B637B681B6803F02003002BAD
:1021300008D04A4B1B6B23F010027B68DB694749D0
:1021400013430B637B681B6803F40033002B08D038
:10215000424B5B6823F480027B689B6B3F491343CF
:102160004B607B681B6803F04003002B08D03B4B9F
:102170001B6B23F020027B681B6A384913430B63F7
:102180007B681B6803F00803002B08D0334B1B6BE4
:1021900023F440127B685B69304913430B637B680F
:1021A0001B6803F01003002B08D02C4B1B6B23F48F
:1021B00040027B689B69294913430B637B681B685A
:1021C00003F40073002B08D0244B5B6823F4000257
:1021D0007B68DB6A214913434B607B681B6803F013
:1021E0008003002B08D01D4BDB6A23F4F8727B6858
:1021F0005B6A1A491343CB627B681B6803F48073E4
:10220000002B08D0154BDB6A23F478527B689B6A5D
:1022100012491343CB627B681B6803F48053002B85
:1022200008D00E4B1B6B23F480727B681B6B0B4931
:1022300013430B637B681B6803F40053002B08D027
:10224000064B1B6B23F400727B685B6B03491343E3
:102250000B63002318464837BD4680BD001002407E
:1022600080B582B000AF78607B68002B01D101237C
:1022700049E07B6893F83D30DBB2002B06D17B68E8
:10228000002283F83C207868FEF7D6F87B680222AB
:1022900083F83D207B681A687B6804331946104632
:1022A00000F016FA7B68012283F848207B6801223F
:1022B00083F83E207B68012283F83F207B6801225F
:1022C00083F840207B68012283F841207B6801224B
:1022D00083F842207B68012283F843207B68012237
:1022E00083F844207B68012283F845207B68012223
:1022F00083F846207B68012283F847207B6801220F
:1023000083F83D20002318460837BD4680BD0000F5
:1023100080B485B000AF78607B6893F83D30DBB265
:10232000012B01D001234AE07B68022283F83D2083
:102330007B681B68DA687B681B6842F00102DA6020
:102340007B681B68214A934218D07B681B68B3F1F5
:10235000804F13D07B681B681D4A93420ED07B6868
:102360001B681C4A934209D07B681B681A4A934237
:1023700004D07B681B68194A934215D17B681B689F
:102380009A68174B1340FB60FB68062B15D0FB685F
:10239000B3F5803F11D07B681B681A687B681B68A7
:1023A00042F001021A6008E07B681B681A687B68CB
:1023B0001B6842F001021A6000E000BF00231846CB
:1023C0001437BD465DF8047B704700BF002C014008
:1023D000000400400008004000340140004001407B
:1023E0000700010080B483B000AF78607B681B6891
:1023F000DA687B681B6822F00102DA607B681B6880
:102400001A6A41F211131340002B0FD17B681B682D
:102410001A6A40F244431340002B07D17B681B68C3
:102420001A687B681B6822F001021A607B6801222F
:1024300083F83D20002318460C37BD465DF8047B29
:10244000704780B582B000AF78607B681B681B69FD
:1024500003F00203022B22D17B681B68DB6803F0C8
:102460000203022B1BD17B681B686FF002021A610A
:102470007B6801221A777B681B689B6903F0030362
:10248000002B03D0786800F005F905E0786800F0CB
:10249000F7F8786800F008F97B6800221A777B6803
:1024A0001B681B6903F00403042B22D17B681B68A3
:1024B000DB6803F00403042B1BD17B681B686FF0FF
:1024C00004021A617B6802221A777B681B689B6989
:1024D00003F44073002B03D0786800F0DBF805E0CC
:1024E000786800F0CDF8786800F0DEF87B680022AC
:1024F0001A777B681B681B6903F00803082B22D13D
:102500007B681B68DB6803F00803082B1BD17B6822
:102510001B686FF008021A617B6804221A777B68D7
:102520001B68DB6903F00303002B03D0786800F01D
:10253000B1F805E0786800F0A3F8786800F0B4F826
:102540007B6800221A777B681B681B6903F0100305
:10255000102B22D17B681B68DB6803F01003102B63
:102560001BD17B681B686FF010021A617B68082220
:102570001A777B681B68DB6903F44073002B03D078
:10258000786800F087F805E0786800F079F87868F6
:1025900000F08AF87B6800221A777B681B681B6949
:1025A00003F00103012B0ED17B681B68DB6803F08D
:1025B0000103012B07D17B681B686FF001021A61D0
:1025C000786801F043FD7B681B681B6903F080039A
:1025D000802B0ED17B681B68DB6803F08003802BA7
:1025E00007D17B681B686FF080021A61786800F081
:1025F00089F97B681B681B6903F48073B3F5807FDE
:102600000ED17B681B68DB6803F08003802B07D149
:102610007B681B686FF480721A61786800F07CF93F
:102620007B681B681B6903F04003402B0ED17B685D
:102630001B68DB6803F04003402B07D17B681B68F5
:102640006FF040021A61786800F038F87B681B6808
:102650001B6903F02003202B0ED17B681B68DB680D
:1026600003F02003202B07D17B681B686FF020024A
:102670001A61786800F03CF900BF0837BD4680BD9C
:1026800080B483B000AF786000BF0C37BD465DF802
:10269000047B704780B483B000AF786000BF0C3714
:1026A000BD465DF8047B704780B483B000AF7860AE
:1026B00000BF0C37BD465DF8047B704780B483B023
:1026C00000AF786000BF0C37BD465DF8047B7047F3
:1026D00080B485B000AF786039607B681B68FB60B0
:1026E0007B683C4A93420FD07B68B3F1804F0BD09C
:1026F0007B68394A934207D07B68384A934203D0BB
:102700007B68374A934208D1FB6823F07003FB6073
:102710003B685B68FA681343FB607B682D4A934211
:102720001BD07B68B3F1804F17D07B682A4A934255
:1027300013D07B68294A93420FD07B68284A934282
:102740000BD07B68274A934207D07B68264A934286
:1027500003D07B68254A934208D1FB6823F4407379
:10276000FB603B68DB68FA681343FB60FB6823F09F
:1027700080023B685B691343FB607B68FA681A6000
:102780003B689A687B68DA623B681A687B689A6281
:102790007B68104A93420FD07B68114A93420BD05A
:1027A0007B68104A934207D07B680F4A934203D05C
:1027B0007B680E4A934203D13B681A697B681A63AF
:1027C0007B6801225A6100BF1437BD465DF8047B67
:1027D000704700BF002C014000040040000800408A
:1027E00000340140004001400044014000480140E5
:1027F00080B485B000AF786039607B6893F83C3076
:10280000012B01D1022363E07B68012283F83C2085
:102810007B68022283F83D207B681B685B68FB6055
:102820007B681B689B68BB607B681B682B4A934274
:1028300004D07B681B682A4A934208D1FB6823F4C2
:102840007003FB603B685B68FA681343FB60FB68DE
:1028500023F07003FB603B681B68FA681343FB605E
:102860007B681B68FA685A607B681B681B4A934246
:1028700018D07B681B68B3F1804F13D07B681B684E
:10288000184A93420ED07B681B68174A934209D0BE
:102890007B681B68124A934204D07B681B68134A0A
:1028A00093420CD1BB6823F08003BB603B689B68FC
:1028B000BA681343BB607B681B68BA689A607B6820
:1028C000012283F83D207B68002283F83C2000230E
:1028D00018461437BD465DF8047B7047002C014054
:1028E0000034014000040040000800400040014066
:1028F00080B483B000AF786000BF0C37BD465DF890
:10290000047B704780B483B000AF786000BF0C37A1
:10291000BD465DF8047B704780B483B000AF78603B
:1029200000BF0C37BD465DF8047B704780B582B0B0
:1029300000AF78607B68002B01D1012340E07B6809
:102940009B6F002B06D17B68002283F87420786887
:10295000FDF798FD7B6824229A677B681B681A68DC
:102960007B681B6822F001021A60786800F0C0F8EA
:102970000346012B01D1012322E07B685B6A002B17
:1029800002D0786800F088FA7B681B685A687B6818
:102990001B6822F490425A607B681B689A687B68C7
:1029A0001B6822F02A029A607B681B681A687B68A1
:1029B0001B6842F001021A60786800F00FFB0346C2
:1029C00018460837BD4680BD80B58AB002AFF860B2
:1029D000B9603B601346FB80FB689B6F202B40F087
:1029E0008280BB68002B02D0FB88002B01D1012321
:1029F0007AE0FB6893F87430012B01D1022373E075
:102A0000FB68012283F87420FB680022C3F8802051
:102A1000FB6821229A67FDF779FE7861FB68FA88E6
:102A2000A3F85020FB68FA88A3F85220FB689B6843
:102A3000B3F5805F08D1FB681B69002B04D100232C
:102A4000FB61BB68BB6103E0BB68FB610023BB614A
:102A5000FB68002283F874202DE03B6800937B69BB
:102A600000228021F86800F002FB0346002B01D011
:102A7000032339E0FB69002B0BD1BB691A88FB6883
:102A80001B68C2F3080292B21A85BB690233BB61AC
:102A900008E0FB691A78FB681B6892B21A85FB692B
:102AA0000133FB61FB68B3F852309BB2013B9AB231
:102AB000FB68A3F85220FB68B3F852309BB2002B9E
:102AC000CBD13B6800937B6900224021F86800F07D
:102AD000CEFA0346002B01D0032305E0FB68202239
:102AE0009A67002300E0022318462037BD4680BDC8
:102AF00080B588B000AF78600023BB777B689A68A8
:102B00007B681B691A437B685B691A437B68DB69D6
:102B100013437B617B681B681B6823F4164323F017
:102B20000C037A68126879690B4313607B681B6831
:102B30005B6823F440517B68DA687B681B680A4352
:102B40005A607B689B697B617B681B6A7A69134367
:102B50007B617B681B689B6823F430617B681B6822
:102B60007A690A439A607B681B68AE4A934220D117
:102B7000AD4B1B6B03F00303032B17D801A252F8D4
:102B800023F000BF952B0008A12B0008A72B0008FD
:102B90009B2B00080123FB77B5E00223FB77B2E013
:102BA0000423FB77AFE00823FB77ACE01023FB772F
:102BB000A9E07B681B689D4A934224D19A4B1B6B0A
:102BC00003F44033B3F5403F11D0B3F5403F17D87D
:102BD000B3F5003F11D0B3F5003F11D8002B03D05F
:102BE000B3F5803F06D00BE00023FB778BE0022398
:102BF000FB7788E00423FB7785E00823FB7782E0FE
:102C00001023FB777FE07B681B68894A934224D1BD
:102C1000854B1B6B03F44023B3F5402F11D0B3F564
:102C2000402F17D8B3F5002F11D0B3F5002F11D8CE
:102C3000002B03D0B3F5802F06D00BE00023FB77E9
:102C400061E00223FB775EE00423FB775BE008236F
:102C5000FB7758E01023FB7755E07B681B68754ACB
:102C6000934224D1704B1B6B03F44013B3F5401F08
:102C700011D0B3F5401F17D8B3F5001F11D0B3F52D
:102C8000001F11D8002B03D0B3F5801F06D00BE036
:102C90000023FB7737E00223FB7734E00423FB7744
:102CA00031E00823FB772EE01023FB772BE07B68D5
:102CB0001B68614A934224D15B4B1B6B03F44003B6
:102CC000B3F5400F11D0B3F5400F17D8B3F5000F8F
:102CD00011D0B3F5000F11D8002B03D0B3F5800F3E
:102CE00006D00BE00023FB770DE00223FB770AE020
:102CF0000423FB7707E00823FB7704E01023FB772E
:102D000001E01023FB777B68DB69B3F5004F5CD1F2
:102D1000FB7F082B27D801A252F823F0412D000891
:102D2000492D0008512D0008672D0008572D000877
:102D3000672D0008672D0008672D00085F2D00082B
:102D4000FFF79AF8B86113E0FFF7B8F8B8610FE041
:102D50003A4BBB610CE0FFF719F8B86108E04FF49B
:102D60000043BB6104E00023BB610123BB7700BFCC
:102D7000BB69002B00F08580BB695A007B685B68EB
:102D80005B081A447B685B68B2FBF3F39BB23B6160
:102D90003B690F2B16D93B69B3F5803F12D23B69D3
:102DA0009BB223F00F03FB813B695B089BB203F0EE
:102DB00007039AB2FB891343FB817B681B68FA897E
:102DC000DA605EE00123BB775BE0FB7F082B37D83E
:102DD00001A252F823F000BFFD2D0008052E0008C7
:102DE0000D2E0008412E0008132E0008412E000869
:102DF000412E0008412E00081B2E0008FFF73CF86A
:102E0000B86122E0FFF75AF8B8611EE00B4BBB61D6
:102E10001BE0FEF7BBFFB86117E04FF40043BB6156
:102E200013E000BF003801400010024000440040A1
:102E300000480040004C00400050004000127A0062
:102E40000023BB610123BB7700BFBB69002B18D0F7
:102E50007B685B685A08BB691A447B685B68B2FB95
:102E6000F3F39BB23B613B690F2B08D93B69B3F588
:102E7000803F04D27B681B683A69DA6001E0012375
:102E8000BB777B6800225A667B6800229A66BB7F0C
:102E900018462037BD4680BD80B483B000AF78604F
:102EA0007B685B6A03F00103002B0AD07B681B6818
:102EB0005B6823F400317B689A6A7B681B680A436D
:102EC0005A607B685B6A03F00203002B0AD07B68C0
:102ED0001B685B6823F480317B68DA6A7B681B6857
:102EE0000A435A607B685B6A03F00403002B0AD034
:102EF0007B681B685B6823F480217B681A6B7B68A6
:102F00001B680A435A607B685B6A03F00803002B66
:102F10000AD07B681B685B6823F400417B685A6BAE
:102F20007B681B680A435A607B685B6A03F0100386
:102F3000002B0AD07B681B689B6823F480517B6858
:102F40009A6B7B681B680A439A607B685B6A03F034
:102F50002003002B0AD07B681B689B6823F4005178
:102F60007B68DA6B7B681B680A439A607B685B6AE4
:102F700003F04003002B1AD07B681B685B6823F4C6
:102F800080117B681A6C7B681B680A435A607B68F7
:102F90001B6CB3F5801F0AD17B681B685B6823F448
:102FA000C0017B685A6C7B681B680A435A607B6867
:102FB0005B6A03F08003002B0AD07B681B685B68A8
:102FC00023F400217B689A6C7B681B680A435A6073
:102FD00000BF0C37BD465DF8047B704780B586B0F6
:102FE00002AF78607B680022C3F88020FDF78EFB7B
:102FF000F8607B681B681B6803F00803082B0ED180
:103000006FF07E430093FB6800224FF40011786854
:1030100000F02DF80346002B01D0032323E07B684A
:103020001B681B6803F00403042B0ED16FF07E4372
:103030000093FB6800224FF48001786800F017F8D5
:103040000346002B01D003230DE07B6820229A6702
:103050007B682022DA677B6800221A667B68002280
:1030600083F87420002318461037BD4680BD80B514
:1030700084B000AFF860B9603B601346FB715EE05E
:10308000BB69B3F1FF3F5AD0FDF740FB02463B68F6
:10309000D31ABA699A4202D3BB69002B1BD1FB68D1
:1030A0001B681A68FB681B6822F4D0721A60FB6800
:1030B0001B689A68FB681B6822F001029A60FB6833
:1030C00020229A67FB682022DA67FB68002283F8D7
:1030D0007420032343E0FB681B681B6803F00403B0
:1030E000002B2CD0FB681B68DB6903F40063B3F58D
:1030F000006F24D1FB681B684FF400621A62FB6802
:103100001B681A68FB681B6822F4D0721A60FB689F
:103110001B689A68FB681B6822F001029A60FB68D2
:1031200020229A67FB682022DA67FB682022C3F816
:103130008020FB68002283F8742003230FE0FB68E3
:103140001B68DA69BB681340BA689A420CBF012356
:103150000023DBB21A46FB799A4291D0002318462D
:103160001037BD4680BD0000024B0A461B68002197
:10317000184700BF0C0000206C22002101F052B85B
:1031800010B16C21FFF7F0BF704700BF002330B4CF
:10319000C0E9003399B9164D164C174A174B856094
:1031A000C460174D174C02614361174A174B816683
:1031B000C0E90654C0E9082330BC00207047144C15
:1031C000144D154A154BC46004F1475485600261E3
:1031D000134D4361134A144B816604F5DA140A3423
:1031E000C0E90654C0E9082330BC0020704700BF86
:1031F00067E6096A85AE67BB72F36E3C3AF54FA588
:103200007F520E518C68059BABD9831F19CDE05BB3
:1032100007D57C36D89E05C117DD703039590EF7B9
:10322000310BC0FFA78FF964A44FFABE2DE9F04F10
:103230000C46E7B006462779059727461D9056F8B5
:10324000080F94F8088097F809B094F800C094F833
:1032500001A094F8059094F80BE0A84B0194E47851
:103260007168B26802930394F368FC79CDF820B0DA
:1032700097F802B00694CDF810B03C7B97F806B0F2
:10328000CDF81CB01EAD0FC597F80AB009944FEAEF
:103290000C6C059B039C30697169B2694CEA0A4A5F
:1032A0001F064AEA040A069CF36947EA094949EA03
:1032B0000409089C4EEA086E4EEA044E049C4AEA51
:1032C0000426079C1C9649EA0427019C11970FC508
:1032D0004EEA0B2C94F8233094F8109094F8148054
:1032E00094F818E0E57CE07DE17EE27FCDF83CC01B
:1032F000CDE92667CDF8A0C094F8207094F81CC0E2
:10330000E67B0C93234694F80DA094F811B0647DED
:1033100005945C7E07945C7F089493F821400D949B
:103320009C7B03949C7C04949C7D06949C7E0A94D4
:103330009C7F0B94099C0C9B46EA0466019C43EA23
:10334000076394F824700C9741EA0E6194F8277093
:1033500094F825E0CDF838E042EA0C6294F822C0F7
:10336000059C40EA086040EA0440079C41EA0441A9
:10337000089C42EA04420D9C43EA0443039C46EA4B
:103380000A4646EA042E45EA0965049E019CCDF8EA
:1033900020E045EA0B4545EA0625069E94F828A05C
:1033A00094F82C9094F8308094F834B0109540EA5A
:1033B00006200A9E129041EA06210B9E099142EADC
:1033C000062243EA0C26CDE92D261B9294F82620EE
:1033D00094F83CC01396CDE929E594F82B6094F855
:1033E00038E094F82F500392CDE92B0194F83B205C
:1033F00094F8330094F8371094F83F3094F829404B
:103400000594019C94F82D4006940C9C47EA0467AF
:1034100046EA0A64019E049496F831A00E9CCDF809
:103420001CA096F835A0CDF828A047EA044A059CD0
:1034300040EA0860274696F83980049CCDF82C8035
:1034400096F83D80CDF8308045EA096596F82E80E3
:1034500096F82A9042EA0E6296F832E044EA07466D
:103460000496069E019C45EA0645079E94F83A702C
:1034700040EA06400A9E41EA0B6141EA06410B9E82
:1034800043EA0C6342EA064294F836C094F83E40A0
:103490000C9E43EA0643039E4AEA06261696049EBD
:1034A00043EA042446EA092A249B039345EA0825B3
:1034B00040EA0E2041EA0C2142EA07221E9B169E9A
:1034C0001990CDE930A5DDE91FCECDE93201CDE976
:1034D000342418910B920A94259A019326AC219BCF
:1034E00022982399DFF81490CDF854A017952F96C1
:1034F00005940C920493A34602E000BFC44A00085E
:10350000019B039AD9F80060DBF80050D9F8044019
:103510004FEAF0282E4488EAB01882EA01054FEA03
:10352000733788EA7068054087EAB307B0445540AE
:1035300043EA0C0687EAB3570C9B45441D44019BA4
:1035400006EA0E0603EA0C0846EA0808049BDBF8C4
:103550000460474407EB05082B44A51980EA0107DE
:103560002A441F404FEAF3261446019A4F4086EA48
:10357000B31648EA020586EA73663C444FEA783798
:10358000344405EA0C0508EA020687EAB80787EA28
:10359000B8572E433E4426440EEB0407DBF8085090
:1035A000D9F8084083EA000A04EB050E0AEA070A84
:1035B0004FEAF7258AEA000A85EAB7158E4448EAF9
:1035C0000604D64485EA77614FEA763A0EEB0105A8
:1035D000144008EA06018AEAB60A8AEAB65A214382
:1035E0005144AC442944DBF80C40D9F80C5083EA30
:1035F000070A0AEA0C0A2C444FEAFC258AEA030A65
:1036000085EABC15044446EA010E544485EA7C6010
:103610004FEA713A25180EEA080E06EA01008AEA16
:10362000B10A8AEAB15A4EEA000050442A442844BA
:10363000DBF81040D9F81050019087EA0C0A2C44AE
:103640000AEA020A4FEAF2258AEA070A234485EACF
:10365000B21541EA000E534485EA72654FEA703AAA
:103660000EEA060E1D448AEAB00A01EA00038AEA5D
:10367000B05A4EEA0303534408EB05045D19049560
:10368000DBF81400D9F814500C948CEA0208284492
:10369000864608EA0408049888EA0C08BE442346D3
:1036A0004FEAF42AC644019C4FEA7038054688EA7E
:1036B000B0088AEAB31788EAB0582543044601984F
:1036C00087EA736777440D4000EA040E45EA0E0E60
:1036D000D9F81840DBF81850F019C64482EA0306FE
:1036E00004EB0508049C0390BE444FEAF02A019FB6
:1036F0000640E04444EA0E0556408AEAB01C8CEAD3
:10370000706C05EA070A08EB06074FEA7E36BC44F0
:1037100086EABE0604EA0E074AEA070586EABE56AE
:10372000D9F81C402E44DBF81C506144B44483EAB1
:10373000000625440E40049C4FEAF1282A445E40CE
:103740004EEA0C0A4FEA7C3788EAB118019B0AEA74
:10375000040A87EABC0732440EEA0C0588EA71685D
:1037600042444AEA050A87EABC571344BA44184659
:1037700002EB0A030193054B09F1200999450BF16E
:10378000200B7FF4BDAE0B9B11E000BF044B000883
:103790000D9B1693069B13930E9B15931A9B1793E1
:1037A000149B1993079B18930B970A963B46039A11
:1037B0001C9E119C82EA010505404FEAF028B246A2
:1037C0005540169E029A4FEAF34788EAB0184FEA2E
:1037D000B449B24488EA7068166C87EA734789EA8C
:1037E000F41989EAD40987EA93270A9C019B454486
:1037F00057443544019E4FEA733807EB09034FEAFB
:10380000F44746EA0C0988EAB60887EA7447264670
:10381000119C0693A246159CA2440C9C1D44019B3E
:10382000A3460F9C09EA0E0987EA962703EA0C06CD
:1038300049EA06064FEAB44988EAB35889EAF41916
:10384000059BB04489EAD409566C039CAB445D46A1
:103850009B463419069BCBF840300394049B089C8C
:10386000019E57442B444F4445444FEAB44A039CBD
:103870002A463D4680EA01082C4408EA030746EA46
:10388000020B0D952646089D4FEA72344F4084EA9C
:10389000B20484EAB2593E44179C0F9F4FEAF328C2
:1038A0008AEAF51A88EAB3188AEAD50A019DE71967
:1038B00088EA73681446B0440BEA0C0B2C40029E55
:1038C000069DB66C04924BEA0404BA444FEAF54BE9
:1038D000069F4C4444448BEA754B03948BEA972B28
:1038E0000E440EEB080711460AEB0B0E039ACDF8B7
:1038F00038E041EA020B0E99059D109C0E44019997
:10390000A9460BEA010B0D9DC9F844504FEA7231EC
:1039100080EA030981EAB20181EAB25A09EA070999
:103920000899049A89EA00094E44894619998944FC
:1039300003994FEAF72E8EEAB71E11404FEAB448BA
:103940008EEA776E4BEA01014FEAF54BB64488EAFE
:10395000F418029E8BEA754B059DF66C88EAD40834
:103960000E9CAC6451440D9D7144C8448BEA952B68
:1039700006444FEA7130F44483EA070A08EB0B0E61
:1039800080EAB100744680EAB15B0AEA0C0A189832
:10399000039D08918AEA030A2644564482461098F9
:1039A0001A9482444FEAFC29039845EA010889EAFF
:1039B000BC19129D89EA7C6908400E99B14408EA55
:1039C0000208029E4FEAB54E8EEAF51E48EA000054
:1039D0004FEAF148366D8EEAD50E88EA7148059DAA
:1039E000019A88EA91285844D64448444A44C64437
:1039F00087EA0C097446334409EA020623447E40F0
:103A0000AB461E444FEA70331A9DCBF84C5083EA04
:103A1000B00383EAB05B0B9B089914949A46129BFF
:103A2000039C9A44089B41EA000E0EEA040E0340F0
:103A30004EEA03034FEAF54E09992C468EEA754E7D
:103A4000059D4FEAF2295B444FEAB148AB4689EA4B
:103A5000B219149DCBF8505088EAF11889EA7269BE
:103A6000049DB14488EAD108029E1B99766DD0442A
:103A70008EEA942E4D44994408EB0E0307934C466E
:103A800037448CEA0209079E04944FEAF52E2B4630
:103A900009EA05098EEAB51E089D0C9340EA040B5D
:103AA00037444FEAB14889EA0C063E440BEA050B5D
:103AB00088EAF1180D46DDE909174FEA743989EAF9
:103AC000B40901EB070A89EAB45900EA0407149C17
:103AD0004BEA070B8EEA736E4FEAF447059BB64438
:103AE00087EA7447029E294688EAD50887EA942720
:103AF000079D039CB66D5D650C9D7444D944CE440E
:103B0000039482EA0509664409EA04094FEAF42CA1
:103B1000039C049DD0448CEAB41C139C47443E444F
:103B200089EA02094FEAB448B14488EAF418039ECE
:103B30009F6588EAD408079C45EA0E0B8CEA766CF0
:103B40004FEA7E3ACC4405EA0E060BEA000B4FEA38
:103B5000F4498AEABE0A0C9D4BEA060B89EA7449CD
:103B600088441C460899039B029E8AEABE5ADA449E
:103B70006144D44485EA030A0AEA010A079BF66D08
:103B80008AEA050A049D4EEA0C0B89EA93290BEA9E
:103B9000050B069B169D1195159D0F959844179D35
:103BA00008953244199D029B109508EB0906189D53
:103BB000129532440B9D099552440EEA0C0A4BEAC9
:103BC0000A0B254603F1200AE6654FEAF1290A9C13
:103BD000CDF808A04FEA7C381B9489EAB119139CF0
:103BE0001C9488EABC081C4C89EA716988EABC58B4
:103BF0004A44C344203502EB0B0354450595104459
:103C000001937FF4C5AD1D9B019AD3E902763A4436
:103C10001F46D3E904549B690193FB690293049BFB
:103C2000BA602344019C3A6A04922044029C7A6A56
:103C30007B6166442144FE60DDE90364264434462A
:103C40000C9E3C62C7E906017544324400203D6188
:103C50007A6267B0BDE8F08F844B0008002A38D044
:103C60002DE9F84305681446AA1807460E46026077
:103C700005F03F0502D343680133436075B93F2C1B
:103C800002D828E03F2C20D931463846FFF7CEFA3B
:103C9000403C40360028F5D0BDE8F883C5F1400827
:103CA0004445ECD307F12809314609EB05004246AB
:103CB00000F0AAFA49463846FFF7B8FA0028EBD1D7
:103CC0002C44403C46440546DCE724B90020BDE8CE
:103CD000F8830020704707F1280028442246314627
:103CE00000F092FAF2E700BF026802F03F0270B5FE
:103CF000831804460132802004F12806382A83F80C
:103D000028000D4606EB020061D8C2F138020021FE
:103D100000F088FAD4E900315A0F42EAC102DB0010
:103D20001BBA12BAC4E9182331462046FFF77EFABF
:103D300000284BD1E37A2B7063896B70A3681B0A50
:103D4000AB70A368EB70E37B2B71E3896B71E36865
:103D50001B0AAB71E368EB71E37C2B72638A6B72B5
:103D600023691B0AAB722369EB72E37D2B73E38A31
:103D70006B7363691B0AAB736369EB73E37E2B742C
:103D8000638B6B74A3691B0AAB74A369EB74E37F49
:103D90002B75E38B6B75E3691B0AAB75E369EB75F8
:103DA00094F823302B76638C6B76236A1B0AAB76F0
:103DB000236AEB76A36E4BB994F827302B77E38C0C
:103DC0006B77636A1B0AAB77636AEB7770BD002180
:103DD000C2F1400200F026FA31462046FFF726FAEB
:103DE0000028F3D101463822304600F01BFA91E753
:103DF000F0B59DB01C46054601A80E461746FFF7D4
:103E0000BBF9214601A8FFF7C1F9044628B101A872
:103E1000FFF7B6F920461DB0F0BD3246294601A88D
:103E2000FFF71CFF04460028F1D1394601A8FFF72F
:103E30005BFF044601A8FFF7A3F920461DB0F0BDC3
:103E4000134610B40446224608465DF8044B194652
:103E50000023FFF7CDBF00BF38B500F053F9164C73
:103E600000F0FCF800F012F9144A1549154800F06A
:103E70002BF9154800F028F9D4E90B21134800F07C
:103E800023F94FF48075D4E90923216A104800F022
:103E90001BF92A4600210F4800F0C4F92A460021E8
:103EA0000D4800F0BFF92A460C48002100F0BAF98D
:103EB000BDE8384000F014B880060020C44B00086C
:103EC000444C0008C44C0008104D0008204D000868
:103ED000484D00089C0000209C0100209C0200200E
:103EE0002DE9F04FADF2244D08A84FF48062002375
:103EF00000F09AF8364FDFF8E8A0DFF8E880DFF846
:103F0000E8B0DFF8E890002400252146404600F0A4
:103F1000DBF800F0A3F822462B4608A96846FFF715
:103F20008FFF064600F0B2F82A4A3B6812684AF84A
:103F3000232001331146484694463B60002E43D16E
:103F4000002AB8BF02F10F0CDBF800304FEA2C1248
:103F500000F0BAF854EA05014FF480624FF0000314
:103F60002CD024196D41AB4208BFA242CDD2002310
:103F700019483B6000F03EF81848DFF874B000F0D4
:103F8000A3F8002400254FF480684FF000093B6837
:103F9000581C5AF8232038602146584600F094F8FF
:103FA00054EA05030DD024196D41A94508BFA04569
:103FB000EDD230460DF2244DBDE8F08F08240025E7
:103FC000A3E708240025E2E76FF00306CFE700BF70
:103FD0009C03002094000020A04D0008A84D00087C
:103FE0009C020020744D000898000020844D0008B9
:103FF000B84D000810B50146064B074A074800F0C7
:1040000063F807490748D1E90923BDE81040096A68
:1040100000F05AB8C44B0008444C0008C44D0008D6
:1040200080060020044E000830B414461D4654EAB1
:10403000050309D0411E0B46C3F130001144C218DC
:1040400003F8012F8B42FAD130BC7047024A136843
:1040500001331360704700BFA003002010B5084C67
:10406000084A216800234B621360FCF74FFB064BA4
:1040700002462046BDE810401A60FEF749B900BF6D
:1040800030060020A00300209800002038B50A4D1B
:104090000A4C2846FEF7A6F92B68094A5B6A1268A3
:1040A00043EA02432360FCF731FB064A11680346EA
:1040B0005B1A2068136038BD300600209400002091
:1040C000A0030020980000200FB410B582B004AA0D
:1040D0000A4C52F8041B0192204600F0C1F8204619
:1040E000FCF776F8214682B264230548FEF76CFCA3
:1040F00002B0BDE8104004B0704700BFA403002028
:10410000AC05002080B500AF34220021224800F029
:1041100089F8214B4FF000621A601F4B1B681E4A42
:1041200053601E4A1C4B9A601D4A1B4B9A611D4AE4
:10413000194BDA611C4A184BDA601C4A164B5A615B
:104140001B4A154B1A61144B9A68134B5B68D31AC0
:10415000114A1362104B5A690F4BDB68D31A0E4A8F
:1041600053620D4BDA690C4B9B69D31A0A4A93626E
:10417000094B5A6A084B9B6A1344074AD362064BA1
:104180001A69054B5B6A1A44034B1B68D31A024A2F
:10419000136300BF80BD00BF800600208C4A00086A
:1041A00074000020C40600200000002074000020DD
:1041B000684E0008014B1868704700BF10000020CF
:1041C00070B50D4D0D4C641BA4100026A64209D1FC
:1041D0000B4D0C4C00F04EFC641BA4100026A642B4
:1041E00005D170BD55F8043B98470136EEE755F808
:1041F000043B98470136F2E7604E0008604E000825
:10420000604E0008644E00080A44914200F1FF33FA
:1042100000D1704710B511F8014B03F8014F9142DE
:10422000F9D110BD02440346934200D1704703F810
:10423000011BF9E700B59BB0009104916FF00041BC
:104240000591029105490391694600F06FF8009BC2
:1042500000221A701BB05DF804FB00BF0802FFFFCC
:1042600013460A46014602480068FFF7E3BF00BF55
:10427000100000202DE9F0478E689E4282460C46D1
:1042800090461F4638D88A8912F4906F32D025683C
:104290000969A5EB0109656905EB450505EBD575D0
:1042A00001334B446D109D4238BF1D46530531D537
:1042B000294600F039FB064650B90C23CAF80030F5
:1042C000A38943F04003A3814FF0FF30BDE8F0879E
:1042D00021694A46FFF798FFA38923F4906343F0CE
:1042E0008003A381266165614E44A5EB0905266024
:1042F000A5603E46BE4200D93E4632462068414651
:1043000000F0A8FAA36822689B1B3244A3602260D5
:104310000020DBE72A4600F061FB06460028E1D1D9
:104320002169504600F0B0FAC7E700002DE9F04FD0
:1043300098468B891B069DB007460D4614460ED540
:104340000B6963B9402100F0EFFA2860286120B9B9
:104350000C233B604FF0FF30D1E040236B61002322
:10436000099320238DF82930CDF80C803023DFF815
:10437000A8818DF82A304FF0010923469A4613F898
:10438000012B0AB1252AF9D1BAEB040B0BD05B46FD
:10439000224629463846FFF76DFF013000F0AA801B
:1043A000099A5A4409929AF80030002B00F0A28032
:1043B00000234FF0FF32CDE905230AF1010A0493EF
:1043C00007938DF853301A935446052214F8011BB5
:1043D0005148FBF705FF049AD8B9D00644BF202303
:1043E0008DF85330110744BF2B238DF853309AF8C2
:1043F00000302A2B15D0079A544600204FF00A0CA3
:10440000214611F8013B303B092B4ED9B0B1079240
:1044100014E0A0EB080309FA03F313430493A24644
:10442000D2E7039B191D1B680391002BBBBF5B42A6
:1044300042F0020207930793B8BF049223782E2B11
:104440000CD163782A2B35D1039B1A1D1B6803926C
:10445000002BB8BF4FF0FF3302340593DFF8C8A03C
:10446000217803225046FBF7BBFE40B14023A0EB6E
:104470000A0003FA00F0049B03430134049314F888
:10448000011B26488DF828100622FBF7A9FE0028FC
:1044900038D0234B1BBB039B073323F007030833A0
:1044A0000393099B3344099367E70CFB02320C46E4
:1044B0000120A5E700230134059319464FF00A0CAB
:1044C000204610F8012B303A092A03D9002BC5D019
:1044D0000591C3E70CFB012104460123F0E703AB80
:1044E00000932A460F4B04A93846AFF30080421CC4
:1044F0000646D6D1AB895B063FF52CAF09981DB0B7
:10450000BDE8F08F03AB00932A46064B04A938465A
:1045100000F07AF8EBE700BF2C4E0008364E00089A
:104520000000000075420008324E00082DE9F047F7
:10453000164699468A680B69DDF820809342B8BF19
:104540001346336091F8432007460C460AB1013305
:1045500033602368990642BF3368023333602568AD
:1045600015F0060506D104F1190AE36832689B1AB2
:10457000AB4226DC94F84320131E226818BF0123A7
:1045800092062BD404F1430249463846C047013015
:104590001ED02368E568326803F00603042B08BFC9
:1045A000AD1AA36822690CBF25EAE5750025934280
:1045B000C4BF9B1AED1800261A34B5421AD1002048
:1045C00008E00123524649463846C047013003D12E
:1045D0004FF0FF30BDE8F0870135C6E7E1185A1CFF
:1045E000302081F84300224494F8451082F84310AB
:1045F0000233C7E70123224649463846C047013007
:10460000E6D00136D9E700002DE9FF470C46914678
:10461000277E0C99782F80469A4604F1430207D8EA
:10462000622F0AD8002F00F0D880582F00F0A38006
:1046300004F1420684F842703AE0A7F16303152BB7
:10464000F6D801A050F823F0A1460008B5460008AE
:10465000314600083146000831460008314600085E
:10466000B5460008314600083146000831460008CA
:1046700031460008C1470008E5460008A347000886
:104680003146000831460008E3470008314600087B
:10469000E54600083146000831460008AB470008EF
:1046A0000B681A1D1B680A6004F1420684F8423048
:1046B0000123A3E0256808682E0600F104030AD54B
:1046C00005680B60002D03DA2D236D4284F843301A
:1046D0005E480A2319E015F0400F05680B6018BF0B
:1046E0002DB2EFE70B682568181D0860280601D574
:1046F0001D6802E06906FBD51D8854486F2F0CBF6A
:1047000008230A23002184F843106668A660002E5F
:10471000A2BF216821F0040121600DB9002E4DD007
:104720001646B5FBF3F103FB1157C75D06F8017D93
:104730002F46BB420D46F4D9082B0BD12368DF0767
:1047400008D5236961689942DEBF302306F8013C31
:1047500006F1FF36921B2261CDF800A04B4603AA5A
:1047600021464046FFF7E2FE01304CD14FF0FF30CA
:1047700004B0BDE8F087354884F8457023680E68BA
:104780001F0656F8045B0E6014D5D90744BF43F0EA
:10479000200323601DB9236823F020032360102326
:1047A000B0E7236843F0200323607823284884F887
:1047B0004530E3E75E0648BFADB2E6E71646BBE725
:1047C0000B68266860691D1D0D6035061B6801D5E4
:1047D000186002E07106FBD518800023236116469D
:1047E000BAE70B681A1D0A601E686268002130462D
:1047F000FBF7F6FC08B1801B60606368236100234F
:1048000084F84330A8E72369324649464046D047FA
:104810000130ABD023689B0713D4E068039B984218
:10482000B8BF1846A4E70123324649464046D04760
:1048300001309BD00135E36803995B1AAB42F2DC8F
:10484000EBE7002504F11906F5E700BF3D4E00082F
:104850004E4E0008884210B501EB020402D9844292
:10486000234607D8431EA14208D011F8012B03F8B4
:10487000012FF8E7024401468A4200D110BD13F827
:10488000014D02F8014DF7E737B5002948D051F83E
:10489000043C0190002BA1F10404B8BFE41800F01F
:1048A000D3F8204A01981368154633B96360146041
:1048B00003B0BDE8304000F0CDB8A3420BD9216869
:1048C0006218934204BF1A685B68636004BF5218A1
:1048D00022602C60ECE71A465B680BB1A342FAD960
:1048E00011685518A5420BD1246821445418A342DD
:1048F0001160DDD11C685B68536021441160D7E70B
:1049000002D90C230360D3E7256861198B4204BFE9
:1049100019685B68636004BF491921605460C7E788
:1049200003B030BDA4050020F8B5CD1C25F003056B
:1049300008350C2D38BF0C25002D064601DBA94299
:1049400003D90C2333600020F8BD00F07DF8214925
:104950000A6814469CB9204F3B6823B9214630466B
:1049600000F062F838602946304600F05DF8431CDC
:1049700023D10C233360304600F06CF8E3E7236862
:104980005B1B17D40B2B03D923601C44256004E068
:104990006368A2420CBF0B605360304600F05AF8C7
:1049A00004F10B00231D20F00700C21ACCD01B1A03
:1049B000A350C9E722466468CCE7C41C24F0030472
:1049C000A042E3D0211A304600F02EF80130DDD1AC
:1049D000CFE700BFA4050020A8050020F8B50746D2
:1049E00014460E4621B9BDE8F8401146FFF79CBFBA
:1049F00022B9FFF749FF25462846F8BD00F030F8F8
:104A0000A0420FD221463846FFF78EFF0546002808
:104A1000F2D031462246FFF7F7FB31463846FFF722
:104A200033FFE9E73546E7E738B5064D002304468E
:104A300008462B60FBF79EFD431C02D12B6803B197
:104A4000236038BDB4060020014800F011B800BF53
:104A5000BC060020014800F00CB800BFBC060020D6
:104A600051F8043C181F002BBCBF0B58C0187047EE
:104A700070477047F8B500BFF8BC08BC9E46704749
:0C4A8000F8B500BFF8BC08BC9E467047AB
:104A8C0000000000000000000102030406070809F2
:104A9C0000000000010203040203040506070809D4
:104AAC000A0B0C0D0E0F101001020304050607086B
:104ABC00090A0B0C0D0E0F10982F8A429144377176
:104ACC00CFFBC0B5A5DBB5E95BC25639F111F15985
:104ADC00A4823F92D55E1CAB98AA07D8015B8312C7
:104AEC00BE853124C37D0C55745DBE72FEB1DE8073
:104AFC00A706DC9B74F19BC1C1699BE48647BEEFA2
:104B0C00C69DC10FCCA10C246F2CE92DAA84744A2C
:104B1C00DCA9B05CDA88F97652513E986DC631A8A2
:104B2C00C82703B0C77F59BFF30BE0C64791A7D581
:104B3C005163CA0667292914850AB72738211B2E09
:104B4C00FC6D2C4D130D385354730A65BB0A6A76F1
:104B5C002EC9C281852C7292A1E8BFA24B661AA8FD
:104B6C00708B4BC2A3516CC719E892D1240699D60D
:104B7C0085350EF470A06A1016C1A419086C371E86
:104B8C004C774827B5BCB034B30C1C394AAAD84E64
:104B9C004FCA9C5BF36F2E68EE828F746F63A5789F
:104BAC001478C8840802C78CFAFFBE90EB6C50A432
:104BBC00F7A3F9BEF27871C64C57435F414C474F8F
:104BCC005F484153485F5348413235365F4D42543C
:104BDC004C5300000000000000000000000000002A
:104BEC0000000000000000000000000000000000B9
:104BFC0000000000000000000000000000000000A9
:104C0C000000000000000000000000000000000098
:104C1C000000000000000000000000000000000088
:104C2C000000000000000000000000000000000078
:104C3C0000000000000000005465737420456E6194
:104C4C00626C6564000000000000000000000000C1
:104C5C000000000000000000000000000000000048
:104C6C000000000000000000000000000000000038
:104C7C000000000000000000000000000000000028
:104C8C000000000000000000000000000000000018
:104C9C000000000000000000000000000000000008
:104CAC0000000000000000000000000000000000F8
:104CBC0000000000000000000A0A0A0A5374617226
:104CCC0074696E672E2E2E0A25730A4D6179202089
:104CDC003920323032312031363A31383A30310ADB
:104CEC004F7074696D697A6174696F6E3A204F66A2
:104CFC006173740A416C676F726974686D3A202530
:104D0C00730A00004D656D6F72792075736167656C
:104D1C003A200000546F74616C20464C4153483A61
:104D2C002025366C754220546F74616C2052414DB5
:104D3C003A2025366C7542200A00000053656374D6
:104D4C00696F6E733A20746578742025366C7542E1
:104D5C0020646174612025366C7542206273732067
:104D6C0025366C75420A00006D73675F6C656E3A90
:104D7C002536642000000000686173683A253130E4
:104D8C00642075733A253964206D733A2537642095
:104D9C000A000000484153480000000048415348B5
:104DAC00546F745265733A20000000006828256423
:104DBC0029203D20256420002573202573204D617A
:104DCC007920203920323032312031363A31383A9C
:104DDC003031204F7074696D697A6174696F6E3A05
:104DEC00204F6661737420416C676F726974686DD3
:104DFC003A2025732000000053656374696F6E734D
:104E0C003A20746578742025366C75206461746161
:104E1C002025366C75206273732025366C75200046
:104E2C00232D302B2000686C4C0065666745464787
:104E3C00003031323334353637383941424344450A
:104E4C004600303132333435363738396162636479
:044E5C006566000087
:044E6000B501000890
:044E640091010008B0
:104E680000127A001000000001000000254200082E
:104E780014000020000000000000000000000000F6
:104E8800000000000000000000000000000000001A
:104E9800000000000000000000000000000000000A
:104EA80000000000000000000000000000000000FA
:104EB80000000000000000000000000000000000EA
:104EC80000000000000000000000000000000000DA
:044ED80000000000D6
:0400000508000605E4
:00000001FF
