:020000040800F2
:1000000000A00020A9070008910500089705000836
:100010009D050008A3050008A905000800000000D0
:10002000000000000000000000000000AF05000814
:10003000BD05000800000000CB050008D905000838
:10004000F9070008F9070008F9070008F907000890
:10005000F9070008F9070008F9070008F907000880
:10006000F9070008F9070008F9070008F907000870
:10007000F9070008F9070008F9070008F907000860
:10008000F9070008F9070008F9070008F907000850
:10009000F9070008F9070008F9070008F907000840
:1000A000F9070008F9070008F9070008F907000830
:1000B000F9070008F9070008F9070008F907000820
:1000C000F9070008F9070008F9070008F907000810
:1000D000F9070008F9070008F9070008F907000800
:1000E000F9070008F9070008F9070008F9070008F0
:1000F000F9070008F9070008F9070008F9070008E0
:10010000000000000000000000000000F9070008E7
:10011000F9070008F9070008E5050008F9070008D5
:10012000F9070008F9070008F9070008F9070008AF
:10013000F9070008F90700080000000000000000AF
:10014000F9070008F9070008F90700080000000097
:10015000000000000000000000000000000000009F
:100160000000000000000000F9070008F90700087F
:10017000F907000800000000000000000000000077
:0801800000000000F90700086F
:1001900010B5054C237833B9044B13B10448AFF3C1
:1001A00000800123237010BD7000002000000000BB
:1001B0004058000808B5034B1BB103490348AFF38F
:1001C000008008BD000000007400002040580008B6
:1001D000034613F8012B002AFBD1181A0138704787
:1001E00001F0FF01102A2BDB10F0070F08D010F8E8
:1001F000013B013A8B422DD010F0070F42B3F6D1EC
:10020000F0B441EA012141EA014122F007047FF004
:1002100000070023F0E80256083C85EA010586EA5B
:10022000010685FA47F5A3FA87F586FA47F6A5FA97
:1002300087F68EB9EED1F0BC01F0FF0102F00702A3
:1002400032B110F8013B013A83EA010313B1F8D14E
:100250000020704701387047002D06BF354603382F
:10026000073815F0010F07D1013015F4807F02BF68
:10027000013015F4C03F0130F0BC0138704700BFB9
:1002800080B485B000AF7860084B5A6907497B6835
:1002900013434B61054B5A697B681340FB60FB6855
:1002A00000BF1437BD465DF8047B70470010024064
:1002B00080B500AF00F0A2FA00F00EF800F0C8F828
:1002C00000F060F800F094F803F006FE014800F03A
:1002D000FBFAF9E740420F0080B59EB000AF07F18E
:1002E000500328220021184604F054F907F13C037A
:1002F00000221A605A609A60DA601A613B463C221A
:100300000021184604F046F902233B6501233B66B1
:1003100010237B660223FB6600233B674FF4002318
:100320007B6707F15003184600F07EFD0346002B63
:1003300001D000F099F80F23FB6302233B640023F4
:100340007B640023BB640023FB6407F13C030021B2
:10035000184601F071FC0346002B01D000F084F830
:1003600001233B600023BB603B46184601F09AFE28
:100370000346002B01D000F077F800BF7837BD4668
:1003800080BD000080B584B000AF3B1D00221A6024
:100390005A609A60144B154A1A60134B00225A6037
:1003A000114B00229A60104B4FF6FF72DA600E4B31
:1003B00000229A610C4802F025F80346002B01D078
:1003C00000F052F800237B600023FB603B1D1946C0
:1003D000054802F0DFFA0346002B01D000F044F894
:1003E00000BF1037BD4680BD2C0600200010004025
:1003F00080B500AF144B154A1A60134B4FF4E1322D
:100400005A60114B00229A600F4B0022DA600E4BAB
:1004100000221A610C4B0C225A610B4B00229A618C
:10042000094B0022DA61084B00221A62064B0022B7
:100430005A62054802F04CFB0346002B01D000F045
:1004400013F800BF80BD00BFA805002000380140A0
:1004500080B500AF4FF40020FFF712FF4FF40030DB
:10046000FFF70EFF00BF80BD80B400AF72B600BFC3
:10047000FEE7000080B483B000AF0F4B9B690E4ACB
:1004800043F0010393610C4B9B6903F001037B6014
:100490007B68094BDB69084A43F08053D361064B04
:1004A000DB6903F080533B603B6800BF0C37BD46FF
:1004B0005DF8047B704700BF0010024080B584B037
:1004C00000AF78607B681B680D4A934213D10D4BD7
:1004D000DB690C4A43F01003D3610A4BDB6903F07C
:1004E0001003FB60FB6800220021362000F0EBFACD
:1004F000362000F004FB00BF1037BD4680BD00BFB2
:10050000001000400010024080B58AB000AF786053
:1005100007F1140300221A605A609A60DA601A61C7
:100520007B681B68174A934227D1174B9B69164A71
:1005300043F480439361144B9B6903F480433B6114
:100540003B69114B5B69104A43F4002353610E4B26
:100550005B6903F40023FB60FB6830237B610223AB
:10056000BB610023FB6103233B6207237B6207F12E
:1005700014031946054800F0DDFA00BF2837BD46D0
:1005800080BD00BF00380140001002400008004854
:1005900080B400AFFEE780B400AFFEE780B400AFE8
:1005A000FEE780B400AFFEE780B400AFFEE780B4A2
:1005B00000AF00BFBD465DF8047B704780B400AF5C
:1005C00000BFBD465DF8047B704780B400AF00BF3C
:1005D000BD465DF8047B704780B500AF00F054F96C
:1005E00000BF80BD80B500AF024801F0FCFF00BF36
:1005F00080BD00BF2C06002080B400AF0123184648
:10060000BD465DF8047B704780B582B000AF78606E
:10061000396003F067FF034616221A604FF0FF337C
:1006200018460837BD4680BD80B582B000AF7860FF
:100630004FF0FF317868FFF7E7FFFEE780B586B03F
:1006400000AFF860B9607A6000237B610AE0AFF325
:1006500000800146BB685A1CBA60CAB21A707B6936
:1006600001337B617A697B689A42F0DB7B681846CC
:100670001837BD4680BD80B586B000AFF860B96060
:100680007A6000237B6109E0BB685A1CBA601B7862
:100690001846AFF300807B6901337B617A697B6820
:1006A0009A42F1DB7B6818461837BD4680BD80B49E
:1006B00083B000AF78604FF0FF3318460C37BD466B
:1006C0005DF8047B704780B483B000AF7860396018
:1006D0003B684FF400525A60002318460C37BD4661
:1006E0005DF8047B704780B483B000AF786001236D
:1006F00018460C37BD465DF8047B704780B485B062
:1007000000AFF860B9607A60002318461437BD4620
:100710005DF8047B7047000080B586B000AF78605C
:10072000144A154BD31A7B617B693B61134B1B68E1
:10073000002B02D1114B124A1A60104B1A687B68C9
:1007400013443A699A4207D203F0CCFE03460C22C6
:100750001A604FF0FF3309E0084B1B68FB60074B42
:100760001A687B681344054A1360FB6818461837FB
:10077000BD4680BD00A00020000400008C000020C9
:10078000C006002080B400AF064BD3F88830054A7D
:1007900043F47003C2F8883000BFBD465DF8047BA7
:1007A000704700BF00ED00E0DFF834D00D480E497F
:1007B0000E4A002302E0D458C4500433C4188C42BB
:1007C000F9D30B4A0B4C002301E013600432A24220
:1007D000FBD3FFF7D7FF03F09DFEFFF769FDFEE7B0
:1007E00000A000200000002070000020E85E00084B
:1007F00070000020C0060020FEE7000080B500AFBA
:10080000084B1B68074A43F010031360032000F0F5
:100810004FF9002000F008F8FFF72CFE00231846DF
:1008200080BD00BF0020024080B582B000AF78607C
:10083000124B1A68124B1B7819464FF47A73B3FBAC
:10084000F1F3B2FBF3F3184600F067F90346002B0F
:1008500001D001230EE07B680F2B0AD800227968B3
:100860004FF0FF3000F02FF9064A7B681360002339
:1008700000E0012318460837BD4680BD0000002077
:10088000080000200400002080B400AF064B1B7855
:100890001A46064B1B681344044A136000BFBD464A
:1008A0005DF8047B704700BF080000207806002038
:1008B00080B400AF034B1B681846BD465DF8047B4F
:1008C000704700BF7806002080B584B000AF786024
:1008D000FFF7EEFFB8607B68FB60FB68B3F1FF3F9A
:1008E00005D00A4B1B781A46FB681344FB6000BF17
:1008F000FFF7DEFF0246BB68D31AFA689A42F7D8C0
:1009000000BF00BF1037BD4680BD00BF08000020FB
:1009100080B485B000AF78607B6803F00703FB60AC
:100920000C4BDB68BB60BA684FF6FF031340BB603B
:10093000FB681A02BB68134343F0BF6343F4003300
:10094000BB60044ABB68D36000BF1437BD465DF886
:10095000047B704700ED00E080B400AF044BDB681F
:100960001B0A03F007031846BD465DF8047B704779
:1009700000ED00E080B483B000AF0346FB7197F94F
:100980000730002B0BDBFB7903F01F02074997F9B7
:1009900007305B09012000FA02F241F8232000BF72
:1009A0000C37BD465DF8047B704700BF00E100E0F6
:1009B00080B483B000AF03463960FB7197F907300C
:1009C000002B0ADB3B68DAB20C4997F907301201B9
:1009D000D2B20B4483F800230AE03B68DAB208493C
:1009E000FB7903F00F03043B1201D2B20B441A76D9
:1009F00000BF0C37BD465DF8047B704700E100E0A6
:100A000000ED00E080B489B000AFF860B9607A60B2
:100A1000FB6803F00703FB61FB69C3F10703042BC9
:100A200028BF0423BB61FB690433062B02D9FB6991
:100A3000033B00E000237B614FF0FF32BB6902FA09
:100A400003F3DA43BB681A407B699A404FF0FF31E9
:100A50007B6901FA03F3D9437B680B4013431846C3
:100A60002437BD465DF8047B7047000080B582B036
:100A700000AF78607B68013BB3F1807F01D3012335
:100A80000FE00A4A7B68013B53600F214FF0FF30B3
:100A9000FFF78EFF054B00229A60044B07221A6075
:100AA000002318460837BD4680BD00BF10E000E0B7
:100AB00080B582B000AF78607868FFF729FF00BF8B
:100AC0000837BD4680BD80B586B000AF0346B9602B
:100AD0007A60FB7300237B61FFF73EFF78617A68E1
:100AE000B9687869FFF78EFF024697F90F30114613
:100AF0001846FFF75DFF00BF1837BD4680BD80B5C3
:100B000082B000AF0346FB7197F907301846FFF734
:100B100031FF00BF0837BD4680BD80B582B000AF51
:100B200078607868FFF7A2FF034618460837BD468D
:100B300080BD000080B487B000AF786039600023CA
:100B40007B6154E13B681A6801217B6901FA03F378
:100B50001340FB60FB68002B00F046813B685B683C
:100B6000012B0BD03B685B68022B07D03B685B68AE
:100B7000112B03D03B685B68122B30D17B689B68DC
:100B80003B617B695B00032202FA03F3DB433A69B2
:100B900013403B613B68DA687B695B0002FA03F350
:100BA0003A6913433B617B683A699A607B685B688A
:100BB0003B6101227B6902FA03F3DB433A6913408C
:100BC0003B613B685B681B0903F001027B6902FA29
:100BD00003F33A6913433B617B683A695A607B6867
:100BE000DB683B617B695B00032202FA03F3DB43B2
:100BF0003A6913403B613B689A687B695B0002FA83
:100C000003F33A6913433B617B683A69DA603B68F6
:100C10005B68022B03D03B685B68122B23D17B6996
:100C2000DA087B68083253F822303B617B6903F0B5
:100C300007039B000F2202FA03F3DB433A691340D8
:100C40003B613B681A697B6903F007039B0002FA6A
:100C500003F33A6913433B617B69DA087B68083226
:100C6000396943F822107B681B683B617B695B0034
:100C7000032202FA03F3DB433A6913403B613B680A
:100C80005B6803F003027B695B0002FA03F33A69D5
:100C900013433B617B683A691A603B685B6803F009
:100CA0008053002B00F0A080584B9B69574A43F0BB
:100CB00001039361554B9B6903F00103BB60BB6863
:100CC000534A7B699B08023352F823303B617B69AE
:100CD00003F003039B000F2202FA03F3DB433A699C
:100CE00013403B617B68B3F1904F19D07B68494A50
:100CF000934213D07B68484A93420DD07B68474AA1
:100D0000934207D07B68464A934201D1042308E00E
:100D1000052306E0032304E0022302E0012300E0B0
:100D200000237A6902F00302920093403A69134368
:100D30003B6137497B699B0802333A6941F82320BC
:100D4000384B1B683B61FB68DB433A6913403B61EE
:100D50003B685B6803F48033002B03D03A69FB687F
:100D600013433B612F4A3B6913602E4B5B683B6129
:100D7000FB68DB433A6913403B613B685B6803F403
:100D80000033002B03D03A69FB6813433B61254ACB
:100D90003B695360234B9B683B61FB68DB433A69CB
:100DA00013403B613B685B6803F48013002B03D066
:100DB0003A69FB6813433B611A4A3B699360194BDC
:100DC000DB683B61FB68DB433A6913403B613B688E
:100DD0005B6803F40013002B03D03A69FB681343EC
:100DE0003B61104A3B69D3607B6901337B613B689F
:100DF0001A687B6922FA03F3002B7FF4A3AE00BFCD
:100E000000BF1C37BD465DF8047B704700100240F0
:100E1000000001400004004800080048000C0048A1
:100E2000001000480004014080B5ADF5007D00AF22
:100E30003B1D18603B1D1B68002B02D1012300F0F5
:100E4000F4BE3B1D1B681B6803F00103002B00F080
:100E50006A81B34B5B6803F00C03042B0CD0B04BDE
:100E60005B6803F00C03082B59D1AD4B5B6803F4AE
:100E70008033B3F5803F52D14FF40033C7F8F031DF
:100E8000D7F8F03193FAA3F3C7F8EC31D7F8EC3187
:100E9000B3FA83F3DBB25B09DBB243F00103DBB2ED
:100EA000012B02D19E4B1B6815E04FF40033C7F8AD
:100EB000E831D7F8E83193FAA3F3C7F8E4314FF4F7
:100EC0000033C7F8E031D7F8E03193FAA3F3C7F85D
:100ED000DC31934B5B6A4FF40032C7F8D821D7F866
:100EE000D82192FAA2F2C7F8D421D7F8D421B2FAC5
:100EF00082F2D2B242F02002D2B202F01F020121ED
:100F000001FA02F21340002B00F00C813B1D1B681C
:100F10005B68002B40F00681012300F086BE3B1D7C
:100F20001B685B68B3F5803F06D17D4B1B687C4A2C
:100F300043F48033136030E03B1D1B685B68002B7B
:100F40000CD1774B1B68764A23F480331360744BC3
:100F50001B68734A23F4802313601EE03B1D1B684B
:100F60005B68B3F5A02F0CD16D4B1B686C4A43F442
:100F7000802313606A4B1B68694A43F48033136013
:100F80000BE0674B1B68664A23F480331360644BA5
:100F90001B68634A23F480231360614BDB6A23F0F0
:100FA0000F023B1D1B689B685D491343CB623B1DD1
:100FB0001B685B68002B59D0FFF77AFCC7F8F80173
:100FC0000AE0FFF775FC0246D7F8F831D31A642B14
:100FD00002D9032300F029BE4FF40033C7F8D03103
:100FE000D7F8D03193FAA3F3C7F8CC31D7F8CC3186
:100FF000B3FA83F3DBB25B09DBB243F00103DBB28C
:10100000012B02D1464B1B6815E04FF40033C7F8A3
:10101000C831D7F8C83193FAA3F3C7F8C4314FF4F5
:101020000033C7F8C031D7F8C03193FAA3F3C7F83B
:10103000BC313B4B5B6A4FF40032C7F8B821D7F89C
:10104000B82192FAA2F2C7F8B421D7F8B421B2FAC3
:1010500082F2D2B242F02002D2B202F01F0201218B
:1010600001FA02F21340002BABD05CE0FFF720FC4A
:10107000C7F8F8010AE0FFF71BFC0246D7F8F83181
:10108000D31A642B02D9032300F0CFBD4FF40033F1
:10109000C7F8B031D7F8B03193FAA3F3C7F8AC3141
:1010A000D7F8AC31B3FA83F3DBB25B09DBB243F0C0
:1010B0000103DBB2012B02D1194B1B6815E04FF481
:1010C0000033C7F8A831D7F8A83193FAA3F3C7F8CB
:1010D000A4314FF40033C7F8A031D7F8A03193FA08
:1010E000A3F3C7F89C310E4B5B6A4FF40032C7F88C
:1010F0009821D7F8982192FAA2F2C7F89421D7F84C
:101100009421B2FA82F2D2B242F02002D2B202F0BC
:101110001F02012101FA02F21340002BABD102E0C1
:101120000010024000BF3B1D1B681B6803F0020358
:10113000002B00F06F81D04B5B6803F00C03002B99
:101140000BD0CD4B5B6803F00C03082B6CD1CA4B62
:101150005B6803F48033002B66D10223C7F890311B
:10116000D7F8903193FAA3F3C7F88C31D7F88C31C4
:10117000B3FA83F3DBB25B09DBB243F00103DBB20A
:10118000012B02D1BC4B1B6813E00223C7F8883146
:10119000D7F8883193FAA3F3C7F884310223C7F84C
:1011A0008031D7F8803193FAA3F3C7F87C31B24B82
:1011B0005B6A0222C7F87821D7F8782192FAA2F266
:1011C000C7F87421D7F87421B2FA82F2D2B242F091
:1011D0002002D2B202F01F02012101FA02F21340F2
:1011E000002B07D03B1D1B681B69012B02D001237C
:1011F00000F01BBDA04B1B6823F0F8023B1D1B68D1
:101200005B69F821C7F87011D7F8701191FAA1F154
:10121000C7F86C11D7F86C11B1FA81F1C9B28B40E3
:10122000954913430B60F5E03B1D1B681B69002BC0
:1012300000F085800123C7F86831D7F8683193FA48
:10124000A3F3C7F86431D7F86431B3FA83F3DBB2A0
:1012500003F1845303F584139B001A4601231360A2
:10126000FFF726FBC7F8F8010AE0FFF721FB02466B
:10127000D7F8F831D31A022B02D9032300F0D5BCDA
:101280000223C7F86031D7F8603193FAA3F3C7F8A7
:101290005C31D7F85C31B3FA83F3DBB25B09DBB2C4
:1012A00043F00103DBB2012B02D1734B1B6813E047
:1012B0000223C7F85831D7F8583193FAA3F3C7F887
:1012C00054310223C7F85031D7F8503193FAA3F3C1
:1012D000C7F84C31684B5B6A0222C7F84821D7F83F
:1012E000482192FAA2F2C7F84421D7F84421B2FA71
:1012F00082F2D2B242F02002D2B202F01F020121E9
:1013000001FA02F21340002BAFD05B4B1B6823F0B5
:10131000F8023B1D1B685B69F821C7F84011D7F83C
:10132000401191FAA1F1C7F83C11D7F83C11B1FA7C
:1013300081F1C9B28B40504913430B606AE001232D
:10134000C7F83831D7F8383193FAA3F3C7F83431F6
:10135000D7F83431B3FA83F3DBB203F1845303F5E6
:1013600084139B001A4600231360FFF7A1FAC7F805
:10137000F8010AE0FFF79CFA0246D7F8F831D31AD1
:10138000022B02D9032300F050BC0223C7F83031EE
:10139000D7F8303193FAA3F3C7F82C31D7F82C31B2
:1013A000B3FA83F3DBB25B09DBB243F00103DBB2D8
:1013B000012B02D1304B1B6813E00223C7F8283100
:1013C000D7F8283193FAA3F3C7F824310223C7F8DA
:1013D0002031D7F8203193FAA3F3C7F81C31264BFC
:1013E0005B6A0222C7F81821D7F8182192FAA2F2F4
:1013F000C7F81421D7F81421B2FA82F2D2B242F01F
:101400002002D2B202F01F02012101FA02F21340BF
:10141000002BAFD13B1D1B681B6803F00803002B9A
:1014200000F0DA803B1D1B689B69002B69D001230B
:10143000C7F81031D7F8103193FAA3F3C7F80C317D
:10144000D7F80C31B3FA83F3DBB21A460B4B1344D3
:101450009B001A4601231360FFF72AFAC7F8F80128
:101460000EE0FFF725FA0246D7F8F831D31A022B1F
:1014700006D90323D9E300BF001002402081901059
:101480000223C7F80831D7F8083193FAA3F3C7F855
:10149000043107F5807302221A6007F580731B6818
:1014A00093FAA3F207F1FC031A6007F1F803022292
:1014B0001A6007F1F8031B6893FAA3F207F1F4032B
:1014C0001A60A54B5A6A07F1F0030221196007F16F
:1014D000F0031B6893FAA3F107F1EC03196007F11D
:1014E000EC031B68B3FA83F3DBB243F06003DBB2B7
:1014F00003F01F03012101FA03F31340002BB0D0C6
:101500006AE007F1E80301221A6007F1E8031B68AB
:1015100093FAA3F207F1E4031A6007F1E4031B68EE
:10152000B3FA83F3DBB21A468C4B13449B001A4682
:1015300000231360FFF7BCF9C7F8F80109E0FFF7D3
:10154000B7F90246D7F8F831D31A022B01D9032391
:101550006BE307F1E00302221A6007F1E0031B6866
:1015600093FAA3F207F1DC031A6007F1D803022211
:101570001A6007F1D8031B6893FAA3F207F1D403AA
:101580001A6007F1D00302221A6007F1D0031B682A
:1015900093FAA3F207F1CC031A606F4B5A6A07F172
:1015A000C8030221196007F1C8031B6893FAA3F16D
:1015B00007F1C403196007F1C4031B68B3FA83F38E
:1015C000DBB243F06003DBB203F01F03012101FA39
:1015D00003F31340002BB2D13B1D1B681B6803F0C3
:1015E0000403002B00F05881002387F8FF315A4B89
:1015F000DB6903F08053002B12D1574BDB69564A4D
:1016000043F08053D361544BDB6903F0805207F100
:1016100008031A6007F108031B68012387F8FF31EC
:101620004F4B1B6803F48073002B1AD14C4B1B6883
:101630004B4A43F480731360FFF73AF9C7F8F80197
:1016400009E0FFF735F90246D7F8F831D31A642BD1
:1016500001D90323E9E2424B1B6803F48073002B9A
:10166000EFD03B1D1B68DB68012B06D13A4B1B6A90
:10167000394A43F0010313622FE03B1D1B68DB680E
:10168000002B0CD1344B1B6A334A23F00103136245
:10169000314B1B6A304A23F0040313621DE03B1DEB
:1016A0001B68DB68052B0CD12B4B1B6A2A4A43F0C5
:1016B00004031362284B1B6A274A43F00103136299
:1016C0000BE0254B1B6A244A23F001031362224BD3
:1016D0001B6A214A23F0040313623B1D1B68DB686D
:1016E000002B6BD0FFF7E4F8C7F8F8010BE0FFF729
:1016F000DFF80246D7F8F831D31A41F28832934224
:1017000001D9032391E207F1C00302221A6007F115
:10171000C0031B6893FAA3F207F1BC031A6007F138
:10172000B80302221A6007F1B8031B6893FAA3F208
:1017300007F1B4031A6007F1B4031B68B3FA83F32B
:10174000DBB25B09DBB243F00203DBB2022B09D14F
:10175000014B1B6A14E000BF001002402081901072
:101760000070004007F1B00302221A6007F1B003D5
:101770001B6893FAA3F207F1AC031A60BB4B5B6AD8
:1017800007F1A8020221116007F1A802126892FA7B
:10179000A2F107F1A402116007F1A4021268B2FAE3
:1017A00082F2D2B242F04002D2B202F01F02012114
:1017B00001FA02F21340002B99D063E0FFF778F8AA
:1017C000C7F8F8010BE0FFF773F80246D7F8F831D5
:1017D000D31A41F28832934201D9032325E207F15B
:1017E000A00302221A6007F1A0031B6893FAA3F278
:1017F00007F19C031A6007F1980302221A6007F1AF
:1018000098031B6893FAA3F207F194031A6007F197
:1018100094031B68B3FA83F3DBB25B09DBB243F0DA
:101820000203DBB2022B02D1904B1B6A0DE007F1E1
:10183000900302221A6007F190031B6893FAA3F247
:1018400007F18C031A60894B5B6A07F18802022159
:10185000116007F18802126892FAA2F107F184027E
:10186000116007F184021268B2FA82F2D2B242F039
:101870004002D2B202F01F02012101FA02F213402B
:10188000002BA0D197F8FF31012B05D1774BDB69F5
:10189000764A23F08053D3613B1D1B68DB69002B24
:1018A00000F0C281714B5B6803F00C03082B00F061
:1018B0009C813B1D1B68DB69022B40F0148107F102
:1018C00080034FF080721A6007F180031B6893FA5F
:1018D000A3F207F17C031A6007F17C031B68B3FADB
:1018E00083F3DBB203F1845303F584139B001A46A0
:1018F00000231360FEF7DCFFC7F8F80109E0FEF7EC
:10190000D7FF0246D7F8F831D31A022B01D90323A7
:101910008BE107F178034FF000721A6007F178034A
:101920001B6893FAA3F207F174031A6007F17403BA
:101930001B68B3FA83F3DBB25B09DBB243F001034C
:10194000DBB2012B02D1494B1B681BE007F170038E
:101950004FF000721A6007F170031B6893FAA3F24C
:1019600007F16C031A6007F168034FF000721A6008
:1019700007F168031B6893FAA3F207F164031A6086
:101980003A4B5B6A07F160024FF00071116007F19A
:101990006002126892FAA2F107F15C02116007F18D
:1019A0005C021268B2FA82F2D2B242F02002D2B2E3
:1019B00002F01F02012101FA02F21340002B9ED116
:1019C0002A4B5B6823F474123B1D1B68596A3B1D4C
:1019D0001B681B6A0B43254913434B6007F15803EF
:1019E0004FF080721A6007F158031B6893FAA3F254
:1019F00007F154031A6007F154031B68B3FA83F329
:101A0000DBB203F1845303F584139B001A460123D0
:101A10001360FEF74DFFC7F8F80109E0FEF748FF35
:101A20000246D7F8F831D31A022B01D90323FCE080
:101A300007F150034FF000721A6007F150031B6862
:101A400093FAA3F207F14C031A6007F14C031B68E9
:101A5000B3FA83F3DBB25B09DBB243F00103DBB221
:101A6000012B05D1014B1B681EE000BF0010024096
:101A700007F148034FF000721A6007F148031B6832
:101A800093FAA3F207F144031A6007F140034FF001
:101A900000721A6007F140031B6893FAA3F207F182
:101AA0003C031A60634B5B6A07F138024FF0007128
:101AB000116007F13802126892FAA2F107F13402BC
:101AC000116007F134021268B2FA82F2D2B242F027
:101AD0002002D2B202F01F02012101FA02F21340E9
:101AE000002B9BD0A0E007F130034FF080721A600A
:101AF00007F130031B6893FAA3F207F12C031A6075
:101B000007F12C031B68B3FA83F3DBB203F18453B0
:101B100003F584139B001A4600231360FEF7C8FEEA
:101B2000C7F8F80109E0FEF7C3FE0246D7F8F8311E
:101B3000D31A022B01D9032377E007F128034FF0D2
:101B400000721A6007F128031B6893FAA3F207F1E9
:101B500024031A6007F124031B68B3FA83F3DBB292
:101B60005B09DBB243F00103DBB2012B02D1314B45
:101B70001B681BE007F120034FF000721A6007F1A9
:101B800020031B6893FAA3F207F11C031A6007F104
:101B900018034FF000721A6007F118031B6893FADC
:101BA000A3F207F114031A60224B5B6A07F11002DB
:101BB0004FF00071116007F11002126892FAA2F161
:101BC00007F10C02116007F10C021268B2FA82F2FE
:101BD000D2B242F02002D2B202F01F02012101FA79
:101BE00002F21340002B9ED11EE03B1D1B68DB69F7
:101BF000012B01D1012318E00E4B5B68C7F8F431CB
:101C0000D7F8F43103F480323B1D1B681B6A9A42FB
:101C100008D1D7F8F43103F470123B1D1B685B6ADE
:101C20009A4201D0012300E00023184607F500770F
:101C3000BD4680BD0010024080B59EB000AF786008
:101C4000396000237B677B68002B01D1012362E1AF
:101C5000904B1B6803F007033A689A4210D98D4BEA
:101C60001B6823F007028B493B6813430B60894BC9
:101C70001B6803F007033A689A4201D001234AE146
:101C80007B681B6803F00203002B08D0824B5B6863
:101C900023F0F0027B689B687F4913434B607B68AD
:101CA0001B6803F00103002B00F0DC807B685B689D
:101CB000012B3CD14FF400333B673B6F93FAA3F306
:101CC000FB66FB6EB3FA83F3DBB25B09DBB243F076
:101CD0000103DBB2012B02D16F4B1B680FE04FF405
:101CE0000033BB66BB6E93FAA3F37B664FF40033FD
:101CF0003B663B6E93FAA3F3FB65674B5B6A4FF45D
:101D00000032BA65BA6D92FAA2F27A657A6DB2FAC9
:101D100082F2D2B242F02002D2B202F01F020121BE
:101D200001FA02F21340002B7BD10123F3E07B6820
:101D30005B68022B3CD14FF000733B653B6D93FA1F
:101D4000A3F3FB64FB6CB3FA83F3DBB25B09DBB296
:101D500043F00103DBB2012B02D14F4B1B680FE0B4
:101D60004FF00073BB64BB6C93FAA3F37B644FF03A
:101D700000733B643B6C93FAA3F3FB63464B5B6AD3
:101D80004FF00072BA63BA6B92FAA2F27A637A6B7E
:101D9000B2FA82F2D2B242F02002D2B202F01F02B4
:101DA000012101FA02F21340002B3AD10123B2E0E3
:101DB00002233B633B6B93FAA3F3FB62FB6AB3FA28
:101DC00083F3DBB25B09DBB243F00103DBB2012B2F
:101DD00002D1314B1B680DE00223BB62BB6A93FA50
:101DE000A3F37B6202233B623B6A93FAA3F3FB619A
:101DF000294B5B6A0222BA61BA6992FAA2F27A614D
:101E00007A69B2FA82F2D2B242F02002D2B202F081
:101E10001F02012101FA02F21340002B01D101231C
:101E200079E01D4B5B6823F003027B685B681A490D
:101E300013434B60FEF73CFD78670AE0FEF738FD80
:101E400002467B6FD31A41F28832934201D90323B1
:101E500061E0114B5B6803F00C027B685B689B00E0
:101E60009A42EBD10B4B1B6803F007033A689A4286
:101E700014D2084B1B6823F0070206493B68134342
:101E80000B60044B1B6803F007033A689A4205D0C5
:101E9000012340E000200240001002407B681B68E4
:101EA00003F00403002B08D01D4B5B6823F4E062B1
:101EB0007B68DB681A4913434B607B681B6803F03F
:101EC0000803002B09D0164B5B6823F460527B6833
:101ED0001B69DB00124913434B6000F029F80146EF
:101EE0000F4B5B6803F0F003F0223A613A6992FA13
:101EF000A2F2FA60FA68B2FA82F2D2B2D340094A88
:101F0000D35C21FA03F3084A1360084B1B68184698
:101F1000FEF78AFC002318467837BD4680BD00BF17
:101F200000100240205C0008000000200400002097
:101F300080B48BB000AF0023FB610023BB610023A2
:101F40007B6200237B6100233B62294B5B68FB6162
:101F5000FB6903F00C03042B02D0082B03D03CE0F8
:101F6000244B3B623CE0FB6903F470134FF47012A6
:101F7000BA60BA6892FAA2F27A607A68B2FA82F229
:101F8000D2B2D3401C4AD35C7B61194BDB6A03F0AD
:101F90000F030F223A613A6992FAA2F2FA60FA68E4
:101FA000B2FA82F2D2B2D340144AD35CBB61FB696D
:101FB00003F48033002B08D00E4ABB69B2FBF3F266
:101FC0007B6902FB03F37B6204E07B690C4A02FB42
:101FD00003F37B627B6A3B6202E0064B3B6200BF1D
:101FE0003B6A18462C37BD465DF8047B704700BF3E
:101FF0000010024000127A00385C0008485C0008BB
:1020000000093D0080B400AF034B1B681846BD4675
:102010005DF8047B704700BF0000002080B582B0EF
:1020200000AFFFF7EFFF01460B4B5B6803F4E06383
:102030004FF4E0627A607A6892FAA2F23A603A6803
:10204000B2FA82F2D2B2D340044AD35C21FA03F34B
:1020500018460837BD4680BD00100240305C0008BD
:1020600080B582B000AFFFF7CDFF01460B4B5B6838
:1020700003F460534FF460527A607A6892FAA2F2E5
:102080003A603A68B2FA82F2D2B2D340044AD35CE0
:1020900021FA03F318460837BD4680BD0010024000
:1020A000305C000880B592B000AF786000233B64DC
:1020B0000023FB63002387F847307B681B6803F429
:1020C0008033002B00F0D4804E4BDB6903F080534B
:1020D000002B0ED14B4BDB694A4A43F08053D3614E
:1020E000484BDB6903F08053BB60BB68012387F872
:1020F0004730454B1B6803F48073002B18D1424BCB
:102100001B68414A43F480731360FEF7D1FB3864C7
:1021100008E0FEF7CDFB02463B6CD31A642B01D9D5
:10212000032369E1384B1B6803F48073002BF0D064
:10213000344B1B6A03F44073FB63FB6B002B00F012
:1021400084807B685B6803F44073FA6B9A427CD0AE
:102150002C4B1B6A23F44073FB634FF480333B63C7
:102160003B6B93FAA3F3FB62FB6AB3FA83F3DBB234
:102170001A46264B13449B001A46012313604FF462
:102180008033BB63BB6B93FAA3F37B637B6BB3FAC4
:1021900083F3DBB21A461D4B13449B001A460023FF
:1021A0001360184AFB6B1362FB6B03F00103002BF7
:1021B0004BD0FEF77DFB38640AE0FEF779FB024660
:1021C0003B6CD31A41F28832934201D9032313E1C5
:1021D0000223BB62BB6A93FAA3F37B6202233B62D6
:1021E0003B6A93FAA3F3FB61FB69B3FA83F3DBB2B7
:1021F0005B09DBB243F00203DBB2022B08D1014BD7
:102200001B6A0DE000100240007000400081901039
:102210000223BB61BB6993FAA3F37B61784B5B6AD2
:1022200002223A613A6992FAA2F2FA60FA68B2FAC4
:1022300082F2D2B242F04002D2B202F01F02012179
:1022400001FA02F21340002BB7D06D4B1B6A23F446
:1022500040727B685B686A4913430B6297F84730AA
:10226000012B05D1664BDB69654A23F08053D361AE
:102270007B681B6803F00103002B08D0604B1B6BCD
:1022800023F003027B689B685D4913430B637B6803
:102290001B6803F00203002B08D0594B1B6B23F47F
:1022A00040327B68DB68564913430B637B681B68CD
:1022B00003F00403002B08D0514B1B6B23F4402286
:1022C0007B681B694E4913430B637B681B6803F0F3
:1022D0002003002B08D04A4B1B6B23F010027B68B5
:1022E000DB69474913430B637B681B6803F40033C6
:1022F000002B08D0424B5B6823F480027B689B6B09
:102300003F4913434B607B681B6803F04003002B7D
:1023100008D03B4B1B6B23F020027B681B6A3849BB
:1023200013430B637B681B6803F00803002B08D082
:10233000334B1B6B23F440127B685B6930491343BA
:102340000B637B681B6803F01003002B08D02C4B39
:102350001B6B23F440027B689B69294913430B6381
:102360007B681B6803F40073002B08D0244B5B6868
:1023700023F400027B68DB6A214913434B607B68CE
:102380001B6803F08003002B08D01D4BDB6A23F48D
:10239000F8727B685B6A1A491343CB627B681B68DF
:1023A00003F48073002B08D0154BDB6A23F47852BA
:1023B0007B689B6A12491343CB627B681B6803F4FA
:1023C0008053002B08D00E4B1B6B23F480727B686C
:1023D0001B6B0B4913430B637B681B6803F40053AF
:1023E000002B08D0064B1B6B23F400727B685B6BE1
:1023F000034913430B63002318464837BD4680BD8D
:102400000010024080B582B000AF78607B68002B7E
:1024100001D1012349E07B6893F83D30DBB2002B0A
:1024200006D17B68002283F83C207868FEF746F8E6
:102430007B68022283F83D207B681A687B6804333E
:102440001946104600F016FA7B68012283F84820EE
:102450007B68012283F83E207B68012283F83F20BD
:102460007B68012283F840207B68012283F84120A9
:102470007B68012283F842207B68012283F8432095
:102480007B68012283F844207B68012283F8452081
:102490007B68012283F846207B68012283F847206D
:1024A0007B68012283F83D20002318460837BD468B
:1024B00080BD000080B485B000AF78607B6893F881
:1024C0003D30DBB2012B01D001234AE07B680222C0
:1024D00083F83D207B681B68DA687B681B6842F0E4
:1024E0000102DA607B681B68214A934218D07B683E
:1024F0001B68B3F1804F13D07B681B681D4A934261
:102500000ED07B681B681C4A934209D07B681B680D
:102510001A4A934204D07B681B68194A934215D12A
:102520007B681B689A68174B1340FB60FB68062B9F
:1025300015D0FB68B3F5803F11D07B681B681A6823
:102540007B681B6842F001021A6008E07B681B6828
:102550001A687B681B6842F001021A6000E000BF45
:10256000002318461437BD465DF8047B704700BF52
:10257000002C0140000400400008004000340140ED
:10258000004001400700010080B483B000AF7860D4
:102590007B681B68DA687B681B6822F00102DA60DE
:1025A0007B681B681A6A41F211131340002B0FD18C
:1025B0007B681B681A6A40F244431340002B07D122
:1025C0007B681B681A687B681B6822F001021A602E
:1025D0007B68012283F83D20002318460C37BD4656
:1025E0005DF8047B704780B582B000AF78607B688F
:1025F0001B681B6903F00203022B22D17B681B6856
:10260000DB6803F00203022B1BD17B681B686FF0B1
:1026100002021A617B6801221A777B681B689B693A
:1026200003F00303002B03D0786800F005F905E000
:10263000786800F0F7F8786800F008F97B68002205
:102640001A777B681B681B6903F00403042B22D1F3
:102650007B681B68DB6803F00403042B1BD17B68D9
:102660001B686FF004021A617B6802221A777B688C
:102670001B689B6903F44073002B03D0786800F05B
:10268000DBF805E0786800F0CDF8786800F0DEF857
:102690007B6800221A777B681B681B6903F00803BC
:1026A000082B22D17B681B68DB6803F00803082B2A
:1026B0001BD17B681B686FF008021A617B680422DB
:1026C0001A777B681B68DB6903F00303002B03D0D8
:1026D000786800F0B1F805E0786800F0A3F8786851
:1026E00000F0B4F87B6800221A777B681B681B69CE
:1026F00003F01003102B22D17B681B68DB6803F00A
:102700001003102B1BD17B681B686FF010021A613D
:102710007B6808221A777B681B68DB6903F44073C7
:10272000002B03D0786800F087F805E0786800F0A7
:1027300079F8786800F08AF87B6800221A777B685D
:102740001B681B6903F00103012B0ED17B681B681A
:10275000DB6803F00103012B07D17B681B686FF076
:1027600001021A61786801F0D7FD7B681B681B695C
:1027700003F08003802B0ED17B681B68DB6803F0BD
:102780008003802B07D17B681B686FF080021A6181
:10279000786800F089F97B681B681B6903F4807313
:1027A000B3F5807F0ED17B681B68DB6803F0800384
:1027B000802B07D17B681B686FF480721A61786880
:1027C00000F07CF97B681B681B6903F04003402B19
:1027D0000ED17B681B68DB6803F04003402B07D1F8
:1027E0007B681B686FF040021A61786800F038F867
:1027F0007B681B681B6903F02003202B0ED17B68CC
:102800001B68DB6803F02003202B07D17B681B6863
:102810006FF020021A61786800F03CF900BF0837B9
:10282000BD4680BD80B483B000AF786000BF0C3778
:10283000BD465DF8047B704780B483B000AF78601C
:1028400000BF0C37BD465DF8047B704780B483B091
:1028500000AF786000BF0C37BD465DF8047B704761
:1028600080B483B000AF786000BF0C37BD465DF820
:10287000047B704780B485B000AF786039607B68B6
:102880001B68FB607B683C4A93420FD07B68B3F1C6
:10289000804F0BD07B68394A934207D07B68384A17
:1028A000934203D07B68374A934208D1FB6823F0F8
:1028B0007003FB603B685B68FA681343FB607B68EE
:1028C0002D4A93421BD07B68B3F1804F17D07B68B1
:1028D0002A4A934213D07B68294A93420FD07B68DF
:1028E000284A93420BD07B68274A934207D07B68E3
:1028F000264A934203D07B68254A934208D1FB685D
:1029000023F44073FB603B68DB68FA681343FB60A9
:10291000FB6823F080023B685B691343FB607B68C4
:10292000FA681A603B689A687B68DA623B681A68E2
:102930007B689A627B68104A93420FD07B68114A89
:1029400093420BD07B68104A934207D07B680F4AB2
:10295000934203D07B680E4A934203D13B681A69C5
:102960007B681A637B6801225A6100BF1437BD4639
:102970005DF8047B704700BF002C0140000400405C
:102980000008004000340140004001400044014084
:102990000048014080B485B000AF786039607B6842
:1029A00093F83C30012B01D1022363E07B680122C4
:1029B00083F83C207B68022283F83D207B681B68FB
:1029C0005B68FB607B681B689B68BB607B681B68FF
:1029D0002B4A934204D07B681B682A4A934208D151
:1029E000FB6823F47003FB603B685B68FA68134381
:1029F000FB60FB6823F07003FB603B681B68FA68B0
:102A00001343FB607B681B68FA685A607B681B682D
:102A10001B4A934218D07B681B68B3F1804F13D0D8
:102A20007B681B68184A93420ED07B681B68174A64
:102A3000934209D07B681B68124A934204D07B689A
:102A40001B68134A93420CD1BB6823F08003BB6020
:102A50003B689B68BA681343BB607B681B68BA68B5
:102A60009A607B68012283F83D207B68002283F80E
:102A70003C20002318461437BD465DF8047B7047A0
:102A8000002C0140003401400004004000080040D8
:102A90000040014080B483B000AF786000BF0C37C5
:102AA000BD465DF8047B704780B483B000AF7860AA
:102AB00000BF0C37BD465DF8047B704780B483B01F
:102AC00000AF786000BF0C37BD465DF8047B7047EF
:102AD00080B582B000AF78607B68002B01D1012304
:102AE00040E07B689B6F002B06D17B68002283F857
:102AF00074207868FDF708FD7B6824229A677B685C
:102B00001B681A687B681B6822F001021A607868EB
:102B100000F0C0F80346012B01D1012322E07B68BD
:102B20005B6A002B02D0786800F088FA7B681B682B
:102B30005A687B681B6822F490425A607B681B6865
:102B40009A687B681B6822F02A029A607B681B687F
:102B50001A687B681B6842F001021A60786800F00E
:102B60000FFB034618460837BD4680BD80B58AB0C6
:102B700002AFF860B9603B601346FB80FB689B6F57
:102B8000202B40F08280BB68002B02D0FB88002BFA
:102B900001D101237AE0FB6893F87430012B01D155
:102BA000022373E0FB68012283F87420FB68002293
:102BB000C3F88020FB6821229A67FDF779FE7861CF
:102BC000FB68FA88A3F85020FB68FA88A3F8522023
:102BD000FB689B68B3F5805F08D1FB681B69002B1D
:102BE00004D10023FB61BB68BB6103E0BB68FB61F0
:102BF0000023BB61FB68002283F874202DE03B6852
:102C000000937B6900228021F86800F002FB0346F4
:102C1000002B01D0032339E0FB69002B0BD1BB69EA
:102C20001A88FB681B68C2F3080292B21A85BB6956
:102C30000233BB6108E0FB691A78FB681B6892B23B
:102C40001A85FB690133FB61FB68B3F852309BB214
:102C5000013B9AB2FB68A3F85220FB68B3F85230EC
:102C60009BB2002BCBD13B6800937B6900224021B3
:102C7000F86800F0CEFA0346002B01D0032305E0EC
:102C8000FB6820229A67002300E0022318462037C1
:102C9000BD4680BD80B588B000AF78600023BB77AB
:102CA0007B689A687B681B691A437B685B691A4377
:102CB0007B68DB6913437B617B681B681B6823F4BB
:102CC000164323F00C037A68126879690B4313608A
:102CD0007B681B685B6823F440517B68DA687B681B
:102CE0001B680A435A607B689B697B617B681B6A2F
:102CF0007A6913437B617B681B689B6823F43061AE
:102D00007B681B687A690A439A607B681B68AE4AD5
:102D1000934220D1AD4B1B6B03F00303032B17D859
:102D200001A252F823F000BF392D0008452D0008FC
:102D30004B2D00083F2D00080123FB77B5E002234F
:102D4000FB77B2E00423FB77AFE00823FB77ACE02E
:102D50001023FB77A9E07B681B689D4A934224D12E
:102D60009A4B1B6B03F44033B3F5403F11D0B3F5DE
:102D7000403F17D8B3F5003F11D0B3F5003F11D84D
:102D8000002B03D0B3F5803F06D00BE00023FB7788
:102D90008BE00223FB7788E00423FB7785E00823A0
:102DA000FB7782E01023FB777FE07B681B68894A12
:102DB000934224D1854B1B6B03F44023B3F5402F82
:102DC00011D0B3F5402F17D8B3F5002F11D0B3F5BC
:102DD000002F11D8002B03D0B3F5802F06D00BE0C5
:102DE0000023FB7761E00223FB775EE00423FB779F
:102DF0005BE00823FB7758E01023FB7755E07B6806
:102E00001B68754A934224D1704B1B6B03F440132B
:102E1000B3F5401F11D0B3F5401F17D8B3F5001F0D
:102E200011D0B3F5001F11D8002B03D0B3F5801FCC
:102E300006D00BE00023FB7737E00223FB7734E07A
:102E40000423FB7731E00823FB772EE01023FB7788
:102E50002BE07B681B68614A934224D15B4B1B6B60
:102E600003F44003B3F5400F11D0B3F5400F17D86A
:102E7000B3F5000F11D0B3F5000F11D8002B03D01C
:102E8000B3F5800F06D00BE00023FB770DE00223A3
:102E9000FB770AE00423FB7707E00823FB7704E0D5
:102EA0001023FB7701E01023FB777B68DB69B3F528
:102EB000004F5CD1FB7F082B27D801A252F823F0EA
:102EC000E52E0008ED2E0008F52E00080B2F000857
:102ED000FB2E00080B2F00080B2F00080B2F0008FB
:102EE000032F0008FFF79AF8B86113E0FFF7B8F86E
:102EF000B8610FE03A4BBB610CE0FFF719F8B8611D
:102F000008E04FF40043BB6104E00023BB610123F0
:102F1000BB7700BFBB69002B00F08580BB695A00FE
:102F20007B685B685B081A447B685B68B2FBF3F301
:102F30009BB23B613B690F2B16D93B69B3F5803FD0
:102F400012D23B699BB223F00F03FB813B695B0804
:102F50009BB203F007039AB2FB891343FB817B68A2
:102F60001B68FA89DA605EE00123BB775BE0FB7FD8
:102F7000082B37D801A252F823F000BFA12F000878
:102F8000A92F0008B12F0008E52F0008B72F00086F
:102F9000E52F0008E52F0008E52F0008BF2F0008E7
:102FA000FFF73CF8B86122E0FFF75AF8B8611EE07D
:102FB0000B4BBB611BE0FEF7BBFFB86117E04FF4A2
:102FC0000043BB6113E000BF003801400010024025
:102FD0000044004000480040004C004000500040C9
:102FE00000127A000023BB610123BB7700BFBB69DD
:102FF000002B18D07B685B685A08BB691A447B6851
:103000005B68B2FBF3F39BB23B613B690F2B08D9C2
:103010003B69B3F5803F04D27B681B683A69DA608C
:1030200001E00123BB777B6800225A667B6800229F
:103030009A66BB7F18462037BD4680BD80B483B0FA
:1030400000AF78607B685B6A03F00103002B0AD055
:103050007B681B685B6823F400317B689A6A7B6835
:103060001B680A435A607B685B6A03F00203002B0B
:103070000AD07B681B685B6823F480317B68DA6A5E
:103080007B681B680A435A607B685B6A03F0040331
:10309000002B0AD07B681B685B6823F480217B6867
:1030A0001A6B7B681B680A435A607B685B6A03F093
:1030B0000803002B0AD07B681B685B6823F400417F
:1030C0007B685A6B7B681B680A435A607B685B6A43
:1030D00003F01003002B0AD07B681B689B6823F465
:1030E00080517B689A6B7B681B680A439A607B6897
:1030F0005B6A03F02003002B0AD07B681B689B6887
:1031000023F400517B68DA6B7B681B680A439A6082
:103110007B685B6A03F04003002B1AD07B681B6856
:103120005B6823F480117B681A6C7B681B680A4318
:103130005A607B681B6CB3F5801F0AD17B681B68E3
:103140005B6823F4C0017B685A6C7B681B680A4388
:103150005A607B685B6A03F08003002B0AD07B68AF
:103160001B685B6823F400217B689A6C7B681B6892
:103170000A435A6000BF0C37BD465DF8047B7047B8
:1031800080B586B002AF78607B680022C3F88020EB
:10319000FDF78EFBF8607B681B681B6803F0080373
:1031A000082B0ED16FF07E430093FB6800224FF492
:1031B0000011786800F02DF80346002B01D003239E
:1031C00023E07B681B681B6803F00403042B0ED10B
:1031D0006FF07E430093FB6800224FF48001786813
:1031E00000F017F80346002B01D003230DE07B68A5
:1031F00020229A677B682022DA677B6800221A66A1
:103200007B68002283F87420002318461037BD46DF
:1032100080BD80B584B000AFF860B9603B601346F4
:10322000FB715EE0BB69B3F1FF3F5AD0FDF740FB95
:1032300002463B68D31ABA699A4202D3BB69002B93
:103240001BD1FB681B681A68FB681B6822F4D072EC
:103250001A60FB681B689A68FB681B6822F0010211
:103260009A60FB6820229A67FB682022DA67FB6875
:10327000002283F87420032343E0FB681B681B686B
:1032800003F00403002B2CD0FB681B68DB6903F4FC
:103290000063B3F5006F24D1FB681B684FF4006234
:1032A0001A62FB681B681A68FB681B6822F4D072FC
:1032B0001A60FB681B689A68FB681B6822F00102B1
:1032C0009A60FB6820229A67FB682022DA67FB6815
:1032D0002022C3F88020FB68002283F87420032397
:1032E0000FE0FB681B68DA69BB681340BA689A4252
:1032F0000CBF01230023DBB21A46FB799A4291D01E
:10330000002318461037BD4680BD80B400AF00BF13
:10331000BD465DF8047B704780B582B000AF786031
:1033200030220021786801F035F900BF0837BD462A
:1033300080BD000080B584B000AFF8600B467A60B5
:10334000FB727B682F2B05D90A4B0B4A27210B48B0
:1033500001F0AAF8FA687B6813441978FA687B6868
:103360001344FA7A4A40D2B21A7000BF1037BD46F1
:1033700080BD00BF58580008885C00087C580008D1
:1033800080B586B000AFF860B9607A603B607B685A
:103390002F2B05D9184B194A3121194801F084F80F
:1033A0007A683B681344302B05D9164B134A3221F7
:1033B000134801F079F800237B6114E07A687B6997
:1033C0001344FA6813441978BA687B6913441A786D
:1033D00078687B690344F86803444A40D2B21A70A3
:1033E0007B6901337B617A693B689A42E6D300BF0F
:1033F00000BF1837BD4680BD58580008985C0008CB
:103400007C5800080C59000880B584B000AFF86003
:10341000B9607A603B607B682F2B05D90E4B0F4A51
:103420004C210F4801F040F87A683B681344302B78
:1034300005D90C4B094A4D21094801F035F8FA68C5
:103440007B6813443A681946B86801F095F800BFE4
:103450001037BD4680BD00BF58580008A85C000862
:103460007C5800080C59000880B586B000AFF860A1
:10347000B9607A603B603B682F2B05D9174B184A1F
:103480005721184801F010F83A683B6A1344302B72
:1034900005D9154B124A5821124801F005F80023AE
:1034A0007B6112E0BA687B69134419783A687B69DA
:1034B0001344FA6813441A7878687B6903444A40D5
:1034C000D2B21A707B6901337B617A693B6A9A4296
:1034D000E8D300BF00BF1837BD4680BD585800086C
:1034E000BC5C00087C5800080C59000880B485B00A
:1034F00000AF786039600023FB6027E0FB689B0029
:103500007A68134400221A600023BB6018E0FB684D
:103510009B007A6813441968FB689A00BB681344DF
:103520003A6813441B781A46BB68DB009A40FB6874
:103530009B00786803440A431A60BB680133BB6090
:10354000BB68032BE3D9FB680133FB60FB680B2BE3
:10355000D4D900BF00BF1437BD465DF8047B704767
:1035600080B485B000AF786039600023FB601CE058
:103570000023BB6013E0FB689B003A6813441A68A1
:10358000BB68DB0022FA03F1FB689A00BB681344B6
:103590007A681344CAB21A70BB680133BB60BB6857
:1035A000032BE8D9FB680133FB60FB680B2BDFD9E9
:1035B00000BF00BF1437BD465DF8047B70470000B4
:1035C00090B599B000AF786039600023FB6522E0C8
:1035D000FB6D03F003039B007A6813441A68FB6DCC
:1035E00003F0030304339B0079680B441B685A40C3
:1035F000FB6D03F0030308339B0079680B441B68E1
:103600005A40FB6D9B0007F160010B4443F8482CC6
:10361000FB6D0133FB65FB6D032BD9D90023FB65E3
:1036200022E0FB6D013B03F003039B0007F1600206
:10363000134453F8483C4FEAF362FB6D013B03F03F
:1036400003039B0007F160010B4453F8483C4FEA29
:10365000B3435A40FB6D9B0007F160010B4443F8F4
:10366000582CFB6D0133FB65FB6D032BD9D900236F
:10367000FB652EE00023BB6525E0B96D984BA3FBED
:1036800001235B081A4652001A448B1A9900FA6DFE
:1036900002F003020A44920079680A441168FA6D44
:1036A000920007F16000024452F8582C9800FB6D1C
:1036B00003F0030303449B00786803444A401A6004
:1036C000BB6D0133BB65BB6D022BD6D9FB6D0133DE
:1036D000FB65FB6D032BCDD90023FB6539E0FB6D4A
:1036E00003F003039B007A681A44FB6D03F00303A5
:1036F00012689B0007F160010B4443F8382CFB6D06
:10370000013B03F0030304339B007A681A44FB6D0A
:1037100003F00303043312689B0007F160010B44BC
:1037200043F8382CFB6D03F0030308339B007A68E1
:1037300013441A68FB6D03F0030308334FEA725217
:103740009B0007F160010B4443F8382CFB6D0133FB
:10375000FB65FB6D032BC2D907F128033022194604
:10376000786800F009FF7B681A683B685A407B68FC
:103770001A600023FB655BE00023BB6552E0B96D76
:10378000574BA3FB01235A0813465B001344CA1A84
:103790009200FB6D03F0030313449B007A6813440B
:1037A0001C68BB6D591C4E4BA3FB01235A081346E2
:1037B0005B001344CA1A9200FB6D03F00303134429
:1037C0009B007A6813441B68D843BB6D991C444B1B
:1037D000A3FB01235A0813465B001344CA1A920044
:1037E000FB6D03F0030313449B007A6813441B68CA
:1037F0001840B96D3A4BA3FB01235A0813465B00EE
:103800001344CA1A9200FB6D03F00303134484EAC5
:1038100000029B0007F160010B4443F8382CBB6D9C
:103820000133BB65BB6D022BA9D9FB6D0133FB6571
:10383000FB6D032BA0D907F12803302219467868C5
:1038400000F09AFE0023FB653BE0FB6D03F00303F1
:103850009B007A681A44FB6D03F0030312689B0017
:1038600007F160010B4443F8382CFB6D03F00303B0
:1038700004339B007A6813441A68FB6D03F003035A
:1038800004334FEAF2729B0007F160010B4443F8E6
:10389000382CFB6D023303F0030308339B007A6876
:1038A00013441A68FB6D03F0030308334FEA3262D6
:1038B0009B0007F160010B4443F8382CFB6D01338A
:1038C000FB65FB6D032BC0D907F128033022194695
:1038D000786800F051FE00BF6437BD4690BD00BF60
:1038E000ABAAAAAA80B590B000AF7860396007F1A2
:1038F0000C0379681846FFF7F9FD3B68C3F10C0328
:10390000FB630CE00C4AFB6B52F8232007F10C031D
:1039100011461846FFF754FEFB6B0133FB63FB6B4C
:103920000B2BEFD907F10C0319467868FFF718FE47
:1039300000BF4037BD4680BD585C000880B582B0EE
:1039400000AF78600C217868FFF7CCFF00BF083724
:10395000BD4680BD80B584B000AFF860B9607A60C4
:10396000FB70F8687B680022B968FFF709FDFB6807
:103970007A6801211846FFF7DDFCF868FB685B6B8D
:10398000012B04D1FB7803F00103DBB200E0FB78EC
:103990002F221946FFF7CEFCFB6801221A6300BFF5
:1039A0001037BD4680BD80B584B000AFF860B96007
:1039B0007A60FB70FB685B6B012B05D0FB68F978C4
:1039C0002F221846FFF7B6FCFB681846FFF7B6FF34
:1039D000FB6802221A63F8687B680022B968FFF767
:1039E00013FD00BF1037BD4680BD80B586B000AF67
:1039F000F860B9607A603B60FB681B6B022B05D0F6
:103A0000002300220021F868FFF7CDFF3A687B68A9
:103A1000934228BF13467B6197F820307A69B968D2
:103A2000F868FFF797FF002387F82030BA687B69B2
:103A30001344BB607A687B69D31A7B607B68002B78
:103A4000DAD100BF00BF1837BD4680BD80B592B047
:103A500002AFF860B9607A603B60FB685B6B012B7A
:103A600005D0294B294A6A21294800F01DFD7A68B2
:103A7000BB6C13442B2B05D9264B244A6B212448BD
:103A800000F012FDFB6802225A63FB682C229A6345
:103A9000FB681822DA637B68002B31D007F114032E
:103AA0007A68B968184600F067FD07F114027B6870
:103AB0001344BA6C3968184600F05EFD7A68BB6C36
:103AC0001344BA6CD2B207F140010B4403F82C2C1A
:103AD0007A68BB6C13445A1CFB689B6B07F114019A
:103AE00002200090F868FFF780FF3B6D002B07D0A5
:103AF0000023009301233A6DF96CF868FFF775FF16
:103B000000BF4037BD4680BD60590008D85C000842
:103B1000845900080C5A000880B586B000AFF860E0
:103B2000B9607A60FB70FB68DB6B7A68934228BFF0
:103B300013467B61FB787A69B968F868FFF733FF51
:103B4000BA687B691344BB607A687B69D31A7B606F
:103B50001AE0002300220021F868FFF7FBFEFB6853
:103B6000DB6B7A68934228BF13467B6100237A6936
:103B7000B968F868FFF717FFBA687B691344BB6040
:103B80007A687B69D31A7B607B68002BE1D100BF28
:103B900000BF1837BD4680BD80B58EB002AFF8605B
:103BA000B9607A603B60802387F82F303B68182B20
:103BB00028BF1823BB62BB6B002B15D097F82F30A2
:103BC00000220021F868FFF7EEFEF868BB6A009358
:103BD00000237A68B968FFF747FC0023BA6A79685E
:103BE000F868FFF7B7FE1CE007F11003BA6AB9687E
:103BF000184600F0C1FC97F82F3000220021F86829
:103C0000FFF7D1FEF868BB6A009300237A68B968B1
:103C1000FFF72AFC07F110010023BA6AF868FFF7E2
:103C200099FE002387F82F30BA68BB6A1344BB6043
:103C30007A68BB6A13447B603A68BB6AD31A3B60FC
:103C40003B68002BB2D100BF00BF3037BD4680BDFE
:103C500080B588B004AFF860B9607A603B60FFF768
:103C600054FBFB681846FFF757FBFB6802221A63F8
:103C7000FB6801225A63FB6810229A63FB681022DA
:103C8000DA637B68002B0BD03B6A0293FB690193DC
:103C9000BB6900933B687A68B968F868FFF7D6FE9D
:103CA00000BF1037BD4680BD80B586B002AFF8605A
:103CB000B9607A60FB689B6B032200927A68B968EE
:103CC000F868FFF792FE00BF1037BD4680BD0000C8
:103CD00080B586B002AFF860B9607A603B60FB687F
:103CE0005B6B022B05D0094B094AC021094800F043
:103CF000DBFB002300933B687A68B968F868FFF73C
:103D00004BFF00BF1037BD4680BD00BF345A0008CE
:103D1000EC5C00088459000880B586B002AFF860FA
:103D2000B9607A603B60FB685B6B022B05D0094B86
:103D3000094AC621094800F0B7FB012300933B68FC
:103D40007A68B968F868FFF727FF00BF1037BD46EB
:103D500080BD00BF345A0008FC5C0008845900088C
:103D600080B584B000AFF860B9607A6040237A68AB
:103D7000B968F868FFF7D0FE00BF1037BD4680BDB8
:103D8000B0B598B004AFF860B9607A6007F1100080
:103D900000230293002301930023009300231022A9
:103DA000D7F88010FFF754FF07F110031022F96FC6
:103DB0001846FFF779FF3A6F07F11003B96E1846FE
:103DC000FFF772FF3B6E07F11000FA687968FFF7A2
:103DD0007FFF3B6EFA68D11807F1100310221846D6
:103DE000FFF7BEFFD7E9182312F1100443F10005D5
:103DF000BB68C3E90045002318465037BD46B0BD37
:103E0000B0B59EB004AFF860B9607A603B60B96845
:103E10004FF000024FF00003C1E90023D7E91E2351
:103E2000002B08BF102A02D24FF0FF3350E0D7E931
:103E30001E23B2F1100443F1FF35C7E9184507F11D
:103E4000200000230293002301930023009300230A
:103E50001022D7F89410FFF7FBFE07F12003102281
:103E6000D7F890101846FFF71FFFD7F8882007F102
:103E70002003D7F880101846FFF716FF3B6E07F1B6
:103E80002000FA683968FFF747FF07F1100107F1D2
:103E9000200310221846FFF763FF3B6E3A68D118E3
:103EA00007F110031022184600F058FB0346002BC0
:103EB00008D03B6E1A460021F86800F06BFB4FF00B
:103EC000FF3305E0B968D7E91823C1E900230023CF
:103ED00018466837BD46B0BD80B582B000AF00233C
:103EE0007B6000F089FA00F029FA00F041FA1D4ADF
:103EF0001D491E4800F05EFA1D4800F05BFA1D4B9C
:103F00001B6B1C4AD26A19461B4800F053FA194B26
:103F1000196A184B5A6A174B9B6A184800F04AFAFC
:103F20004FF480720021164800F034FB4FF4807289
:103F30000021144800F02EFB4FF48072002112483B
:103F400000F028FB00F024F878607B68002B03D099
:103F500079680E4800F02EFA7B6818460837BD468F
:103F600080BD00BF0C5D00088C5D0008585A000839
:103F7000A05A00087C060020B05A0008D85A000851
:103F8000980000209801002098020020045B00089F
:103F90002DE9F04FC9B00AAF0023C7F8CC30002399
:103FA000C7F8F43007F1BC014FF010024FF00003E6
:103FB000084600F087F907F1AC014FF010024FF00E
:103FC0000003084600F07EF907F18C014FF0200253
:103FD0004FF00003084600F075F907F14C014FF06F
:103FE00020024FF00003084600F06CF9974B0022C6
:103FF0001A604FF000024FF00003C7E93A23BBE01C
:104000004FF000024FF00003C7E93823A1E0D7F8D2
:10401000E830D7F8E02019468D4800F0CBF900F0E1
:104020008DF907F18C0407F1100107F11C0007F16D
:10403000BC03089307F1AC03079300230693D7E969
:104040003823CDE9042307F14C030293D7E93A233F
:10405000CDE900232246FFF793FEC7F8CC0000F01D
:1040600087F97C4B19687B4B1B681A097A4B1B68D4
:104070007A4800F09FF9754B1B68764A12687849B8
:1040800041F82320D7F8CC30002B04D06FF0030385
:10409000C7F8F43064E000F051F9D7E9040107F102
:1040A0001C0E07F1080C07F16C0407F1BC03079321
:1040B00007F1AC030693D7E93823CDE9042307F1D0
:1040C0004C030293CDE9000173460022614620466D
:1040D000FFF796FEC7F8CC0000F04AF95D4B19686F
:1040E0005C4B1B681A095C4B1B685E4800F062F968
:1040F000564B1B68574A12685B4941F82320D7F892
:10410000CC30002B13D1D7E90223D7E93A019942E9
:1041100008BF90420BD1D7F8E82007F16C0107F1F6
:104120008C03184600F01AFA0346002B04D06FF0F7
:104130000303C7F8F43013E0444B1B680133434AD0
:104140001360D7E9382312F1080543F10006C7E9E7
:104150003856D7E93823002B08BF212AFFF457AF80
:10416000D7E93A2312F10801396043F100037B607B
:10417000D7E90034C7E93A34D7E93A23002B08BF1E
:10418000212A04D2D7F8F430002B3FF439AFD7F806
:10419000F430002B02D0354800F00CF92B4B0022F4
:1041A0001A60334800F06CF8324800F003F94FF021
:1041B00000024FF00003C7E9362339E04FF0000258
:1041C0004FF00003C7E9342324E0D7F8D810D7F81C
:1041D000D0201E4B1B68224850F82330264800F0A0
:1041E000E9F8D7F8D810D7F8D020184B1B681E482C
:1041F00050F82330214800F0DDF8144B1B680133E0
:10420000124A1360D7E9342312F1080843F1000978
:10421000C7E93489D7E93423002B08BF212AD4D336
:10422000D7E9362312F1080A43F1000BC7E936AB90
:10423000D7E93623002B08BF212ABFD3D7F8F430A3
:104240001846FC37BD46BDE8F08F00BF980300203C
:10425000185B00089000002094000020345B0008E8
:1042600098000020505B0008980100206C5B00085B
:104270007C5B0008845B0008945B0008A85B000876
:1042800080B582B000AF7860094B0A4A79680A4865
:1042900000F090F8094B196A084B5A6A074B9B6A61
:1042A000074800F087F800BF0837BD4680BD00BF53
:1042B0000C5D00088C5D0008BC5B00087C060020DB
:1042C000F85B0008B0B487B000AFF860C7E900231E
:1042D0004FF000024FF00003C7E904230DE03A7CE1
:1042E0003B69F9680B443032D2B21A70D7E9042323
:1042F000541C43F10005C7E90445D7E90401D7E997
:104300000023994208BF9042E9D300BF00BF1C3789
:10431000BD46B0BC7047000080B483B000AF786089
:10432000054B1B680133044A136000BF0C37BD46C0
:104330005DF8047B704700BF9C03002080B500AF90
:10434000084B00221A60084B1B6800225A62FCF7D7
:10435000AFFA0346054A13600348FEF7ABF800BF07
:1043600080BD00BF9C0300202C060020940000208C
:1043700080B500AF0B48FEF707F90B4B1B681A041A
:10438000084B1B685B6A1343084A1360FCF790FAFA
:104390000246074B1B68D31A054A1360034B1B6880
:1043A000184680BD2C0600209C03002090000020B1
:1043B000940000200FB480B582B000AF07F1140361
:1043C0007B607A6839690A4800F0F0FB0848FBF71F
:1043D000FFFE03469AB2642305490648FEF7C6FB72
:1043E00000BF0837BD46BDE8804004B0704700BF3D
:1043F000A0030020A805002080B500AF34220021D2
:10440000224800F0C7F8214B4FF000621A601F4BA2
:104410001B681E4A53601E4A1C4B9A601D4A1B4B68
:104420009A611D4A194BDA611C4A184BDA601C4A22
:10443000164B5A611B4A154B1A61144B9A68134B61
:104440005B68D31A114A1362104B5A690F4BDB6831
:10445000D31A0E4A53620D4BDA690C4B9B69D31A7F
:104460000A4A9362094B5A6A084B9B6A1344074AEB
:10447000D362064B1A69054B5B6A1A44034B1B68EF
:10448000D31A024A136300BF80BD00BF7C06002020
:104490005858000870000020C006002000000020CE
:1044A00070000020E85E00081FB514461A46094B4C
:1044B0001B680546D8684CB1074B0091CDE9013423
:1044C00006492B4600F014F800F03AFC044B1C4659
:1044D000F3E700BF0C0000200C5E0008195E000826
:1044E000475E0008014B1868704700BF0C000020B1
:1044F0000EB403B5014603AB054853F8042B00681E
:10450000019300F079F802B05DF804EB03B0704756
:104510000C00002070B50D4D0D4C641BA41000263E
:10452000A64209D10B4D0C4C01F08AF9641BA41072
:104530000026A64205D170BD55F8043B98470136C8
:10454000EEE755F8043B98470136F2E7E05E0008D5
:10455000E05E0008E05E0008E45E000830B5013966
:104560000024A24201D1002005E0035D01340D5D6D
:10457000AB42F6D0581B30BD0A44914200F1FF33E4
:1045800000D1704710B511F8014B03F8014F91426B
:10459000F9D110BD02440346934200D1704703F89D
:1045A000011BF9E79368013B002B10B4936008DA14
:1045B0009469A34201DB0A2903D15DF8044B00F0A2
:1045C000FFBA1368581C1060197008465DF8044B58
:1045D0007047F8B506460F461446D518AC4201D1CF
:1045E000002007E014F8011B3A463046FFF7DAFFD7
:1045F000431CF3D1F8BD00002DE9F04F0D469DB0EE
:1046000014469846064618B183690BB900F0BAFC07
:10461000894B9D421BD175686B6ED90705D4AB8958
:104620009A0502D4A86D00F04BFDAB891B0701D59C
:104630002B69EBB92946304600F014FBC0B16B6E14
:10464000DC070ED54FF0FF301DB0BDE8F08F7B4B7F
:104650009D4201D1B568DFE7794B9D4208BFF568FF
:10466000DAE7AB899805EDD4A86D00F02AFDE9E7FB
:104670000023099320238DF82930CDF80C803023B6
:10468000DFF8C0818DF82A304FF0010923469A46A1
:1046900013F8012B0AB1252AF9D1BAEB040B0BD080
:1046A0005B46224629463046FFF793FF013000F073
:1046B000AA80099A5A4409929AF80030002B00F017
:1046C000A28000234FF0FF32CDE905230AF1010A51
:1046D000049307938DF853301A935446052214F827
:1046E000011B5848FBF77CFD049AD8B9D10644BF9A
:1046F00020238DF85330130744BF2B238DF85330FC
:104700009AF800302A2B15D0079A544600204FF013
:104710000A0C214611F8013B303B092B4ED9B0B1B0
:10472000079214E0A0EB080309FA03F31343049380
:10473000A246D2E7039B191D1B680391002BBBBF48
:104740005B4242F0020207930793B8BF04922378BA
:104750002E2B0CD163782A2B35D1039B1A1D1B6895
:104760000392002BB8BF4FF0FF3302340593DFF8FC
:10477000E4A0217803225046FBF732FD40B14023EC
:10478000A0EB0A0003FA00F0049B034301340493F6
:1047900014F8011B2C488DF828100622FBF720FD89
:1047A00000283FD0294B1BBB039B073323F0070393
:1047B00008330393099B3B44099367E70CFB0232E0
:1047C0000C460120A5E700230134059319464FF05C
:1047D0000A0C204610F8012B303A092A03D9002B85
:1047E000C5D00591C3E70CFB012104460123F0E786
:1047F00003AB00932A46164B04A93046AFF3008062
:104800000746781CD6D16B6ED90705D4AB899A05BB
:1048100002D4A86D00F055FCAB895B063FF512AFE2
:10482000099811E703AB00932A46094B04A93046C7
:1048300000F080F8E4E700BFA05E0008C05E00085A
:10484000805E00084C5E0008565E00080000000014
:10485000D3450008525E00082DE9F04716469946F8
:104860008A680B69DDF820809342B8BF1346336035
:1048700091F8432007460C460AB1013333602368A0
:10488000990642BF336802333360256815F0060588
:1048900006D104F1190AE36832689B1AAB4226DCA0
:1048A00094F84320131E226818BF012392062BD4CC
:1048B00004F1430249463846C04701301ED0236800
:1048C000E568326803F00603042B08BFAD1AA3683D
:1048D00022690CBF25EAE57500259342C4BF9B1AE7
:1048E000ED1800261A34B5421AD1002008E0012341
:1048F000524649463846C047013003D14FF0FF3099
:10490000BDE8F0870135C6E7E1185A1C302081F870
:104910004300224494F8451082F843100233C7E75D
:104920000123224649463846C0470130E6D00136C9
:10493000D9E700002DE9FF470C469146277E0C99E8
:10494000782F80469A4604F1430207D8622F0AD88E
:10495000002F00F0D880582F00F0A38004F1420609
:1049600084F842703AE0A7F16303152BF6D801A052
:1049700050F823F0CD490008E14900085D490008DE
:104980005D4900085D4900085D490008E1490008EB
:104990005D4900085D4900085D4900085D4900085F
:1049A000ED4A0008114A0008CF4A00085D49000896
:1049B0005D4900080F4B00085D490008114A0008D6
:1049C0005D4900085D490008D74A00080B681A1DB8
:1049D0001B680A6004F1420684F842300123A3E018
:1049E000256808682E0600F104030AD505680B60E7
:1049F000002D03DA2D236D4284F843305E480A23EC
:104A000019E015F0400F05680B6018BF2DB2EFE7F5
:104A10000B682568181D0860280601D51D6802E08E
:104A20006906FBD51D8854486F2F0CBF08230A2345
:104A3000002184F843106668A660002EA2BF21689A
:104A400021F0040121600DB9002E4DD01646B5FBB2
:104A5000F3F103FB1157C75D06F8017D2F46BB42FA
:104A60000D46F4D9082B0BD12368DF0708D523693D
:104A700061689942DEBF302306F8013C06F1FF363B
:104A8000921B2261CDF800A04B4603AA2146404666
:104A9000FFF7E2FE01304CD14FF0FF3004B0BDE82B
:104AA000F087354884F8457023680E681F0656F86D
:104AB000045B0E6014D5D90744BF43F02003236084
:104AC0001DB9236823F0200323601023B0E7236877
:104AD00043F0200323607823284884F84530E3E737
:104AE0005E0648BFADB2E6E71646BBE70B68266830
:104AF00060691D1D0D6035061B6801D5186002E058
:104B00007106FBD51880002323611646BAE70B68AF
:104B10001A1D0A601E68626800213046FBF760FBC0
:104B200008B1801B606063682361002384F8433010
:104B3000A8E72369324649464046D0470130ABD00A
:104B400023689B0713D4E068039B9842B8BF1846BC
:104B5000A4E70123324649464046D04701309BD066
:104B60000135E36803995B1AAB42F2DCEBE7002501
:104B700004F11906F5E700BF5D5E00086E5E0008EF
:104B800000B59BB0009104916FF000410591029136
:104B900005490391694600F03FFC009B00221A7012
:104BA0001BB05DF804FB00BF0802FFFF13460A4676
:104BB000014602480068FFF7E3BF00BF0C00002079
:104BC000F8B50E461446054618B183690BB900F0D6
:104BD000D9F9214B9C422BD16C68A369A360A389AE
:104BE0001A072FD523696BB323692068C01A63693C
:104BF000F6B28342374604DC2146284600F02EF9FF
:104C000030BBA368013BA36023685A1C22601E705E
:104C100063690130834204D0A389DB0706D50A2EDD
:104C200004D12146284600F019F988B93846F8BD64
:104C30000A4B9C4201D1AC68CFE7094B9C4208BFAC
:104C4000EC68CAE72146284600F00CF80028CBD0D3
:104C50004FF0FF37EAE700BFA05E0008C05E000823
:104C6000805E0008324B70B51D6806460C4625B1C3
:104C7000AB6913B9284600F085F92E4B9C420FD141
:104C80006C68A389B4F90C2019072CD4DD0611D463
:104C90000923336042F04003A3814FF0FF303EE030
:104CA000254B9C4201D1AC68EBE7244B9C4208BFEA
:104CB000EC68E6E7580712D5616B41B104F1440393
:104CC000994202D0304600F07BFA00236363A38947
:104CD00023F02403A3810023636023692360A38955
:104CE00043F00803A38123694BB9A38903F420731C
:104CF000B3F5007F03D02146304600F007FAA089C3
:104D0000B4F90C2010F001030AD00023A3606369FA
:104D10005B42A361236943B910F08000BAD170BD32
:104D2000810758BF6369A360F4E70020F7E700BF7D
:104D30000C000020A05E0008C05E0008805E000835
:104D400008B5062000F0A0FC0120FBF76DFC000078
:104D50008A892DE9F041054610070C4658D44B6866
:104D6000002B05DC0B6C002B02DC0020BDE8F08181
:104D7000E66A002EF9D0002312F480522F682B60CF
:104D800032D0606DA3895A0705D56368C01A636B7A
:104D90000BB1236CC01A00230246E66A216A28463A
:104DA000B047431CA38906D129681D292CD82A4A5B
:104DB000CA40D60728D500226260D9042269226041
:104DC00004D5421C01D12B6803B96065616B2F606B
:104DD0000029CAD004F14403994202D0284600F0C9
:104DE000EFF900206063C1E7216A01232846B0473C
:104DF000411CC7D12B68002BC4D01D2B01D0162B12
:104E000001D12F60B1E7A38943F04003A381ADE74F
:104E10000F69002FA9D093070E6808BF4B690F6078
:104E200018BF0023A6EB07088B60B8F1000F9CDDCC
:104E3000216AA66A43463A462846B047002806DC5F
:104E4000A38943F04003A3814FF0FF308EE707446E
:104E5000A8EB0008E9E700BF0100402038B50B6966
:104E600005460C4613B90025284638BD18B183699C
:104E70000BB900F087F8144B9C421BD16C68B4F955
:104E80000C30002BEFD0626ED00704D4990502D409
:104E9000A06D00F015F928462146FFF759FF636E13
:104EA000DA070546E0D4A3899B05DDD4A06D00F0A8
:104EB00008F9D9E7054B9C4201D1AC68DFE7044B08
:104EC0009C4208BFEC68DAE7A05E0008C05E0008FC
:104ED000805E0008002310B50446C0E90033C0E935
:104EE0000433836081814366C2818361194608224D
:104EF0005C30FFF74FFB054B6362054BA362054B2C
:104F0000E362054B2462236310BD00BFC156000855
:104F1000E35600081B5700083F570008014900F0FE
:104F2000AFB800BF5D4E000870B54A1E68255543F6
:104F30000E4605F1740100F093F9044640B10021DA
:104F4000C0E900160C30A06005F16802FFF722FBF3
:104F5000204670BD014800F0B3B800BFB80600207D
:104F6000014800F0AEB800BFB8060020014800F0CC
:104F7000A7B800BFB3060020014800F0A2B800BFE8
:104F8000B306002010B50446FFF7F0FFA3691BB17C
:104F9000BDE81040FFF7F0BFC4E912332365134B9F
:104FA000134A1B68A262A34204BF0123A3612046E7
:104FB00000F020F86060204600F01CF8A060204659
:104FC00000F018F80022E06004216068FFF782FF1B
:104FD000A06801220921FFF77DFFE068022212216B
:104FE000FFF778FF0123A361D2E700BF485E000806
:104FF0001D4F0008F8B50746FFF7ACFF1E4B1E68B3
:10500000B36913B93046FFF7BDFF4836D6E901341E
:10501000013B03D533680BB33668F7E7B4F90C509E
:10502000D5B9164BE36004F15800656600F047F807
:10503000FFF796FFC4E90155C4E904552560A56151
:105040000822294604F15C00FFF7A4FAC4E90D55D3
:10505000C4E912552046F8BD6834D9E70421384622
:10506000FFF762FF044630600028D5D1FFF778FFD4
:105070000C233B60EEE700BF485E00080100FFFF25
:105080002DE9F8430646884600F148040027D4E994
:105090000195B9F1010905D52468002CF7D13846EE
:1050A000BDE8F883AB89012B07D9B5F90E30013380
:1050B00003D029463046C04707436835E9E77047C3
:1050C0007047704770B50E46B1F90E10002996B0C2
:1050D00014461D4607DA00232B60B3891A0610D444
:1050E0004FF480630EE06A4600F050FB0028F2DBCC
:1050F000019A02F47042A2F500535A425A412A60C2
:10510000EEE740230020236016B070BD8B8973B595
:105110009D0706460C4607D504F14703236023612B
:105120000123636102B070BD01AB6A46FFF7CAFF9D
:1051300000990546304600F093F848B9B4F90C30B0
:105140009A05EFD423F0030343F00203A381E3E7BE
:105150000D4BB362A389206043F08003A381009BC1
:105160006361019B20615BB1B4F90E10304600F021
:105170001FFB28B1A38923F0030343F00103A3819C
:10518000A0890543A581CDE71D4F0008884210B5D1
:1051900001EB020402D98442234607D8431EA142F0
:1051A00008D011F8012B03F8012FF8E7024401465B
:1051B0008A4200D110BD13F8014D02F8014DF7E706
:1051C00037B5002948D051F8043C0190002BA1F1DB
:1051D0000404B8BFE41800F00DFB204A01981368DE
:1051E000154633B96360146003B0BDE8304000F089
:1051F00007BBA3420BD921686218934204BF1A6807
:105200005B68636004BF521822602C60ECE71A46AA
:105210005B680BB1A342FAD911685518A5420BD1AE
:10522000246821445418A3421160DDD11C685B68D6
:10523000536021441160D7E702D90C230360D3E700
:10524000256861198B4204BF19685B68636004BFFD
:10525000491921605460C7E703B030BDA0050020A4
:10526000F8B5CD1C25F0030508350C2D38BF0C25ED
:10527000002D064601DBA94203D90C233360002030
:10528000F8BD00F0B7FA21490A6814469CB9204FCE
:105290003B6823B92146304600F0BEF93860294604
:1052A000304600F0B9F9431C23D10C23336030465B
:1052B00000F0A6FAE3E723685B1B17D40B2B03D996
:1052C00023601C44256004E06368A2420CBF0B60AD
:1052D0005360304600F094FA04F10B00231D20F0D7
:1052E0000700C21ACCD01B1AA350C9E72246646833
:1052F000CCE7C41C24F00304A042E3D0211A3046BA
:1053000000F08AF90130DDD1CFE700BFA005002011
:10531000A4050020F8B5074614460E4621B9BDE89D
:10532000F8401146FFF79CBF22B9FFF749FF254619
:105330002846F8BD00F06AFAA0420FD2214638464E
:10534000FFF78EFF05460028F2D031462246FFF7D0
:1053500013F931463846FFF733FFE9E73546E7E70B
:105360002DE9F0478E689E4282460C4690461F46C5
:1053700038D88A8912F4906F32D025680969A5EB74
:105380000109656905EB450505EBD57501334B440E
:105390006D109D4238BF1D46530531D52946FFF794
:1053A0005FFF064650B90C23CAF80030A38943F0CA
:1053B0004003A3814FF0FF30BDE8F08721694A46E2
:1053C000FFF7DAF8A38923F4906343F08003A38105
:1053D000266165614E44A5EB09052660A5603E4641
:1053E000BE4200D93E46324620684146FFF7CEFE17
:1053F000A36822689B1B3244A36022600020DBE785
:105400002A46FFF787FF06460028E1D1216950466A
:10541000FFF7D6FEC7E700002DE9F04F98468B89CD
:105420001B069DB007460D4614460ED50B6963B9A1
:105430004021FFF715FF2860286120B90C233B604D
:105440004FF0FF30D1E040236B610023099320230C
:105450008DF82930CDF80C803023DFF8A8818DF845
:105460002A304FF0010923469A4613F8012B0AB15E
:10547000252AF9D1BAEB040B0BD05B46224629460C
:105480003846FFF76DFF013000F0AA80099A5A44B0
:1054900009929AF80030002B00F0A28000234FF010
:1054A000FF32CDE905230AF1010A049307938DF831
:1054B00053301A935446052214F8011B5148FAF749
:1054C0008FFE049AD8B9D00644BF20238DF85330FC
:1054D000110744BF2B238DF853309AF800302A2B44
:1054E00015D0079A544600204FF00A0C214611F8B7
:1054F000013B303B092B4ED9B0B1079214E0A0EB31
:10550000080309FA03F313430493A246D2E7039B6B
:10551000191D1B680391002BBBBF5B4242F00202C6
:1055200007930793B8BF049223782E2B0CD163788E
:105530002A2B35D1039B1A1D1B680392002BB8BF81
:105540004FF0FF3302340593DFF8C8A0217803221F
:105550005046FAF745FE40B14023A0EB0A0003FA9B
:1055600000F0049B03430134049314F8011B264804
:105570008DF828100622FAF733FE002838D0234B86
:105580001BBB039B073323F0070308330393099BDB
:105590003344099367E70CFB02320C460120A5E770
:1055A00000230134059319464FF00A0C204610F8E9
:1055B000012B303A092A03D9002BC5D00591C3E746
:1055C0000CFB012104460123F0E703AB00932A46BC
:1055D0000F4B04A93846AFF30080421C0646D6D1D3
:1055E000AB895B063FF52CAF09981DB0BDE8F08F85
:1055F00003AB00932A46064B04A93846FFF79AF9F5
:10560000EBE700BF4C5E0008565E0008000000009B
:1056100061530008525E000838B5064D0023044669
:1056200008462B60FBF778F8431C02D12B6803B1C6
:10563000236038BDBC0600201F2938B504460D463E
:1056400004D9162303604FF0FF3038BD426C12B10D
:1056500052F821304BB9204600F030F82A46014676
:105660002046BDE8384000F017B8012B0AD0591C7D
:1056700003D1162303600120E7E7002442F8254008
:10568000284698470020E0E7024B01461868FFF7DC
:10569000D3BF00BF0C00002038B5074D00230446DF
:1056A000084611462B60FAF7AFFF431C02D12B6866
:1056B00003B1236038BD00BFBC060020FAF79CBFD1
:1056C00010B50C46B1F90E1000F0A8F80028ABBFD9
:1056D000636DA3891B1823F48053ACBF6365A3815A
:1056E00010BD2DE9F0411F468B89DB0505460C46B0
:1056F000164605D5B1F90E100223002200F068F815
:10570000A389B4F90E1023F48053A38132463B469B
:105710002846BDE8F04100F017B810B50C46B1F9C5
:105720000E1000F055F8431CA38915BF606523F4E3
:10573000805343F48053A38118BFA38110BDB1F9F6
:105740000E1000F013B8000038B5074D04460846A7
:10575000114600222A601A46FAF78DFF431C02D137
:105760002B6803B1236038BDBC06002038B5064D58
:105770000023044608462B60FAF799FF431C02D128
:105780002B6803B1236038BDBC06002038B5074D37
:1057900000230446084611462B60FAF794FF431C89
:1057A00002D12B6803B1236038BD00BFBC060020C6
:1057B00038B5064D0023044608462B60FAF793FFE0
:1057C000431C02D12B6803B1236038BDBC06002006
:1057D00038B5074D04460846114600222A601A468D
:1057E000FAF78CFF431C02D12B6803B1236038BD4C
:1057F000BC0600200148FFF763BC00BFB4060020D0
:105800000148FFF75EBC00BFB406002051F8043C1D
:10581000181F002BBCBF0B58C018704738B5074D78
:1058200004460846114600222A601A46FAF706FF87
:10583000431C02D12B6803B1236038BDBC06002095
:10584000F8B500BFF8BC08BC9E467047F8B500BF6D
:08585000F8BC08BC9E4670473D
:105858006F6666736574203C204E4C414E45532A52
:1058680073697A656F662874586F6F646F6F4C61DF
:105878006E652900433A2F55736572732F766173ED
:10588800696C69692F4465736B746F702F6D645F01
:105898006C6573736F6E732F646174615F6E65748A
:1058A8005F7365632F6E6973745F6C77635F62659E
:1058B8006E63686D61726B2F616C676F732F786FA1
:1058C8006F6479616B2F496D706C656D656E74617D
:1058D80074696F6E732F63727970746F5F6165613D
:1058E800642F786F6F6479616B76312F7265662FDC
:1058F800586F6F646F6F2D7265666572656E63654C
:105908002E6300006F66667365742B6C656E677432
:1059180068203C3D204E4C414E45532A73697A65B8
:105928006F662874586F6F646F6F4C616E652900DD
:1059380062797465436F756E74203C3D204E4C410E
:105948004E45532A73697A656F662874586F6F6479
:105958006F6F4C616E652900696E7374616E636563
:105968002D3E6D6F6465203D3D204379636C6973FE
:10597800745F4D6F6465486173680000433A2F5542
:10598800736572732F766173696C69692F446573E7
:105998006B746F702F6D645F6C6573736F6E732FAC
:1059A800646174615F6E65745F7365632F6E69739C
:1059B800745F6C77635F62656E63686D61726B2F8D
:1059C800616C676F732F786F6F6479616B2F496DA6
:1059D800706C656D656E746174696F6E732F637238
:1059E8007970746F5F616561642F786F6F64796136
:1059F8006B76312F7265662F4379636C6973742EE9
:105A0800696E6300284B4C656E202B2049444C6519
:105A18006E29203C3D20284379636C6973745F527A
:105A28006B696E202D20312900000000696E7374A7
:105A3800616E63652D3E6D6F6465203D3D20437941
:105A4800636C6973745F4D6F64654B657965640059
:105A58000A0A0A0A5374617274696E672E2E2E0A36
:105A680025730A4D617920203120323032312031BE
:105A7800323A30313A31300A4F7074696D697A615F
:105A880074696F6E3A204F300A416C676F7269749F
:105A9800686D3A2025730A004D656D6F727920751F
:105AA800736167653A200000546F74616C20464C3E
:105AB8004153483A2025366C754220546F74616C06
:105AC8002052414D3A2025366C7542200A000000CC
