:020000040800F2
:1000000000800120F50A00089D080008A3080008E8
:10001000A9080008AF080008B508000800000000A3
:10002000000000000000000000000000BB08000805
:10003000C908000800000000D7080008E50800080B
:10004000450B0008450B0008450B0008450B000850
:10005000450B0008450B0008450B0008450B000840
:10006000450B0008450B0008450B0008450B000830
:10007000450B0008450B0008450B0008450B000820
:10008000450B0008450B0008450B0008450B000810
:10009000450B0008450B0008450B0008450B000800
:1000A000450B0008450B0008450B0008450B0008F0
:1000B000450B0008450B0008450B0008450B0008E0
:1000C000450B0008450B0008450B0008450B0008D0
:1000D000450B0008450B0008450B0008450B0008C0
:1000E000450B0008450B0008450B0008450B0008B0
:1000F000450B0008450B0008450B0008450B0008A0
:10010000450B0008450B0008450B0008450B00088F
:10011000450B0008450B0008F1080008450B0008D6
:10012000450B0008450B0008450B0008450B00086F
:10013000450B0008450B0008450B0008450B00085F
:10014000450B0008450B0008450B0008450B00084F
:10015000450B0008450B0008450B0008450B00083F
:10016000450B0008450B0008450B0008450B00082F
:10017000450B0008450B0008450B00080000000077
:08018000450B0008450B0008C7
:1001900010B5054C237833B9044B13B10448AFF3C1
:1001A00000800123237010BD7000002000000000BB
:1001B0007057000808B5034B1BB103490348AFF360
:1001C000008008BD00000000740000207057000887
:1001D000034613F8012B002AFBD1181A0138704787
:1001E00001F0FF01102A2BDB10F0070F08D010F8E8
:1001F000013B013A8B422DD010F0070F42B3F6D1EC
:10020000F0B441EA012141EA014122F007047FF004
:1002100000070023F0E80256083C85EA010586EA5B
:10022000010685FA47F5A3FA87F586FA47F6A5FA97
:1002300087F68EB9EED1F0BC01F0FF0102F00702A3
:1002400032B110F8013B013A83EA010313B1F8D14E
:100250000020704701387047002D06BF354603382F
:10026000073815F0010F07D1013015F4807F02BF68
:10027000013015F4C03F0130F0BC0138704700BFB9
:1002800053B94AB9002908BF00281CBF4FF0FF31FD
:100290004FF0FF3000F06EB9ADF1080C6DE904CEFF
:1002A00000F006F8DDF804E0DDE9022304B0704751
:1002B0002DE9F047089D04468C46002B40F08380D2
:1002C0008A42174647D9B2FA82F242B1C2F12000FF
:1002D00024FA00F09140974040EA010C94404FEA24
:1002E0001748230CBCFBF8F61FFA87FE08FB16C163
:1002F00043EA014306FB0EF1994209D9FB1806F1C6
:10030000FF3080F01981994240F21681023E3B4451
:100310005B1AA4B2B3FBF8F008FB103344EA0344C1
:1003200000FB0EFEA64509D93C1900F1FF3380F011
:100330000581A64540F2028102383C4440EA06406D
:10034000A4EB0E0400261DB1D4400023C5E90043F0
:100350003146BDE8F08702B9FFDEB2FA82F2002A28
:1003600050D1CB1B4FEA174E1FFA87F80126B3FB7B
:10037000FEFC210C0EFB1C3341EA034108FB0CF38D
:100380008B4207D979180CF1FF3002D28B4200F270
:10039000E9808446C91AA3B2B1FBFEF00EFB10112E
:1003A00043EA014408FB00F8A04507D93C1900F1D5
:1003B000FF3302D2A04500F2D9801846A4EB08040E
:1003C00040EA0C40BFE78B4209D9002D00F0B18014
:1003D0000026C5E9000130463146BDE8F087B3FA92
:1003E00083F6002E4AD18B4202D3824200F2B880BB
:1003F000841A61EB030101208C46002DA8D0C5E9C9
:10040000004CA5E7C2F1200320FA03F6974001FA59
:1004100002F04FEA174ED9403043030CB1FBFEF611
:100420001FFA87F80EFB161143EA014306FB08F199
:10043000994204FA02F409D9FB1806F1FF3C80F056
:100440008D80994240F28A80023E3B445B1A81B221
:10045000B3FBFEF00EFB103341EA034100FB08F34F
:100460008B4207D9791800F1FF3C73D28B4271D9C6
:1004700002383944CB1A40EA064678E7C6F1200C28
:1004800003FA06F422FA0CF31C4320FA0CF701FAE3
:1004900006F34FEA144E21FA0CF11F433B0CB1FB5B
:1004A000FEF91FFA84F80EFB191143EA014109FB1A
:1004B00008FA8A4502FA06F200FA06F308D961182A
:1004C00009F1FF3048D28A4546D9A9F102092144F1
:1004D000A1EB0A01BFB2B1FBFEF00EFB101147EA1F
:1004E000014700FB08F8B84507D9E71900F1FF31CB
:1004F0002ED2B8452CD90238274440EA0940A7EB50
:100500000807A0FB02894F45C64649461AD317D0B3
:100510005DB1B3EB0E0267EB010707FA0CFCF2408A
:100520004CEA0202F740C5E9002700263146BDE843
:10053000F0872E4628460BE70646E9E61846FDE614
:100540004345E5D2B8EB020E69EB04010138DFE761
:100550000846D2E760468DE78146B9E7664675E70B
:1005600030464AE7ACF1020C394413E702383C4408
:1005700024E700BF704700BF80B485B000AF78604B
:10058000084BDA6C07497B681343CB64054BDA6C84
:100590007B681340FB60FB6800BF1437BD465DF805
:1005A000047B70470010024080B500AF00F0CBFA2A
:1005B00000F00EF800F0D8F800F070F800F0A4F8A1
:1005C00003F0DAFC014800F033FBF9E740420F008A
:1005D00080B5B8B000AF07F19C0344220021184653
:1005E00003F070FF07F1880300221A605A609A60D6
:1005F000DA601A613B4688220021184603F062FF48
:100600001023C7F89C300123C7F8B4300023C7F883
:10061000B8308023C7F8BC300023C7F8C43007F1D6
:100620009C03184600F048FE0346002B01D000F062
:10063000A2F80F23C7F888300023C7F88C300023B6
:10064000C7F890300023C7F894300023C7F89830DB
:1006500007F188030021184601F014FA0346002B25
:1006600001D000F088F801233B600023BB633B46C8
:10067000184601F00DFC0346002B01D000F07BF87A
:100680004FF4007000F0C2FD0346002B01D000F0D3
:1006900072F800BFE037BD4680BD000080B584B071
:1006A00000AF3B1D00221A605A609A60144B154A35
:1006B0001A60134B00225A60114B00229A60104BB3
:1006C0004FF6FF72DA600E4B00229A610C4802F07E
:1006D0009BF80346002B01D000F04DF800237B600F
:1006E0000023FB603B1D1946054802F065FB0346ED
:1006F000002B01D000F03FF800BF1037BD4680BD91
:100700002C0600200010004080B500AF144B154AA5
:100710001A60134B4FF4E1325A60114B00229A6079
:100720000F4B0022DA600E4B00221A610C4B0C2298
:100730005A610B4B00229A61094B0022DA61084B87
:1007400000221A62064B00225A62054802F0DAFBC8
:100750000346002B01D000F00EF800BF80BD00BFA3
:10076000A80500200038014080B500AF0120FFF748
:1007700003FF00BF80BD80B400AF72B600BFFEE7CC
:1007800080B483B000AF0F4B1B6E0E4A43F00103E1
:1007900013660C4B1B6E03F001037B607B68094BF7
:1007A0009B6D084A43F080539365064B9B6D03F0A5
:1007B00080533B603B6800BF0C37BD465DF8047B4F
:1007C000704700BF0010024080B584B000AF786071
:1007D0007B681B680D4A934213D10D4B9B6D0C4AED
:1007E00043F0100393650A4B9B6D03F01003FB600D
:1007F000FB6800220021362000F019FB362000F0B3
:1008000032FB00BF1037BD4680BD00BF0010004066
:100810000010024080B58AB000AF786007F1140381
:1008200000221A605A609A60DA601A617B681B685D
:10083000184A934229D1184B1B6E174A43F4804340
:100840001366154B1B6E03F480433B613B69124BEF
:10085000DB6C114A43F00103D3640F4BDB6C03F0F4
:100860000103FB60FB684FF4C0637B610223BB6143
:100870000023FB6103233B6207237B6207F1140320
:1008800019464FF0904000F009FB00BF2837BD46E5
:1008900080BD00BF003801400010024080B400AFAE
:1008A000FEE780B400AFFEE780B400AFFEE780B49F
:1008B00000AFFEE780B400AFFEE780B400AF00BF3A
:1008C000BD465DF8047B704780B400AF00BFBD46F5
:1008D0005DF8047B704780B400AF00BFBD465DF893
:1008E000047B704780B500AF00F082F900BF80BD87
:1008F00080B500AF024802F07EF800BF80BD00BFA7
:100900002C06002080B400AF01231846BD465DF8D8
:10091000047B704780B582B000AF7860396003F027
:1009200087FD034616221A604FF0FF33184608373A
:10093000BD4680BD80B582B000AF78604FF0FF311A
:100940007868FFF7E7FFFEE780B586B000AFF86094
:10095000B9607A6000237B610AE0AFF30080014652
:10096000BB685A1CBA60CAB21A707B6901337B61DA
:100970007A697B689A42F0DB7B6818461837BD4677
:1009800080BD80B586B000AFF860B9607A600023A2
:100990007B6109E0BB685A1CBA601B781846AFF34C
:1009A00000807B6901337B617A697B689A42F1DB65
:1009B0007B6818461837BD4680BD80B483B000AF51
:1009C00078604FF0FF3318460C37BD465DF8047B66
:1009D000704780B483B000AF786039603B684FF4F3
:1009E00000525A60002318460C37BD465DF8047B60
:1009F000704780B483B000AF7860012318460C378D
:100A0000BD465DF8047B704780B485B000AFF860E8
:100A1000B9607A60002318461437BD465DF8047B40
:100A20007047000080B586B000AF7860144A154B5F
:100A3000D31A7B617B693B61134B1B68002B02D18E
:100A4000114B124A1A60104B1A687B6813443A69BA
:100A50009A4207D203F0ECFC03460C221A604FF0D6
:100A6000FF3309E0084B1B68FB60074B1A687B6883
:100A70001344054A1360FB6818461837BD4680BD0D
:100A800000800120000400008C000020C00600202F
:100A900080B400AF154BD3F88830144A43F4700388
:100AA000C2F88830124B1B68114A43F001031360EF
:100AB0000F4B00229A600E4B1B680D4A23F0A8537F
:100AC00023F4102313600A4B4FF48052DA60084B72
:100AD0001B68074A23F480231360054B00229A61A8
:100AE00000BFBD465DF8047B704700BF00ED00E02D
:100AF00000100240DFF834D0FFF7CAFF002103E006
:100B00000B4B5B58435004310A480B4B42189A4236
:100B1000F6D30A4A02E0002342F8043B084B9A420B
:100B2000F9D303F09DFCFFF73FFDFEE700800120B5
:100B30004C5C0008000000207000002070000020C5
:100B4000C0060020FEE780B582B000AF0023FB7135
:100B5000032000F061F9002000F00EF80346002B9E
:100B600002D00123FB7101E0FFF70AFEFB79184672
:100B70000837BD4680BD000080B584B000AF786006
:100B80000023FB73174B1B78002B23D0164B1A68DE
:100B9000144B1B7819464FF47A73B3FBF1F3B2FB95
:100BA000F3F3184600F06DF90346002B0FD17B6874
:100BB0000F2B09D8002279684FF0FF3000F037F989
:100BC0000A4A7B68136007E00123FB7304E00123FA
:100BD000FB7301E00123FB73FB7B18461037BD4616
:100BE00080BD00BF0800002000000020040000209D
:100BF00080B400AF064B1B781A46064B1B681344A3
:100C0000044A136000BFBD465DF8047B704700BF17
:100C1000080000207806002080B400AF034B1B685A
:100C20001846BD465DF8047B704700BF780600207B
:100C300080B584B000AF7860FFF7EEFFB8607B68E6
:100C4000FB60FB68B3F1FF3F05D00A4B1B781A46E7
:100C5000FB681344FB6000BFFFF7DEFF0246BB6882
:100C6000D31AFA689A42F7D800BF00BF1037BD46C2
:100C700080BD00BF0800002080B485B000AF786060
:100C80007B6803F00703FB600C4BDB68BB60BA6852
:100C90004FF6FF031340BB60FB681A02BB681343A7
:100CA00043F0BF6343F40033BB60044ABB68D360C6
:100CB00000BF1437BD465DF8047B704700ED00E0CF
:100CC00080B400AF044BDB681B0A03F0070318462F
:100CD000BD465DF8047B704700ED00E080B483B052
:100CE00000AF0346FB7197F90730002B0BDBFB7954
:100CF00003F01F02074997F907305B09012000FA4A
:100D000002F241F8232000BF0C37BD465DF8047B9A
:100D1000704700BF00E100E080B483B000AF03463D
:100D20003960FB7197F90730002B0ADB3B68DAB2B8
:100D30000C4997F907301201D2B20B4483F8002313
:100D40000AE03B68DAB20849FB7903F00F03043B81
:100D50001201D2B20B441A7600BF0C37BD465DF8C3
:100D6000047B704700E100E000ED00E080B489B052
:100D700000AFF860B9607A60FB6803F00703FB61BD
:100D8000FB69C3F10703042B28BF0423BB61FB6984
:100D90000433062B02D9FB69033B00E000237B618F
:100DA0004FF0FF32BB6902FA03F3DA43BB681A4023
:100DB0007B699A404FF0FF317B6901FA03F3D94315
:100DC0007B680B40134318462437BD465DF8047B0F
:100DD0007047000080B582B000AF78607B68013B4F
:100DE000B3F1807F01D301230FE00A4A7B68013B06
:100DF00053600F214FF0FF30FFF78EFF054B0022AD
:100E00009A60044B07221A60002318460837BD4633
:100E100080BD00BF10E000E080B582B000AF786018
:100E20007868FFF729FF00BF0837BD4680BD80B551
:100E300086B000AF0346B9607A60FB7300237B6124
:100E4000FFF73EFF78617A68B9687869FFF78EFF2F
:100E5000024697F90F3011461846FFF75DFF00BFB5
:100E60001837BD4680BD80B582B000AF0346FB7128
:100E700097F907301846FFF731FF00BF0837BD4626
:100E800080BD80B582B000AF78607868FFF7A2FFC0
:100E9000034618460837BD4680BD000080B487B0C1
:100EA00000AF7860396000237B617FE13B681A689E
:100EB00001217B6901FA03F31340FB60FB68002BFF
:100EC00000F071813B685B68012B0BD03B685B686D
:100ED000022B07D03B685B68112B03D03B685B6833
:100EE000122B30D17B689B683B617B695B000322DE
:100EF00002FA03F3DB433A6913403B613B68DA686B
:100F00007B695B0002FA03F33A6913433B617B6838
:100F10003A699A607B685B683B6101227B6902FAEF
:100F200003F3DB433A6913403B613B685B681B0991
:100F300003F001027B6902FA03F33A6913433B6150
:100F40007B683A695A603B685B6803F00303032BD4
:100F500018D17B68DB6A3B6101227B6902FA03F3EB
:100F6000DB433A6913403B613B685B68DB0803F095
:100F700001027B6902FA03F33A6913433B617B6820
:100F80003A69DA627B68DB683B617B695B0003225C
:100F900002FA03F3DB433A6913403B613B689A680A
:100FA0007B695B0002FA03F33A6913433B617B6898
:100FB0003A69DA603B685B68022B03D03B685B6888
:100FC000122B23D17B69DA087B68083253F8223070
:100FD0003B617B6903F007039B000F2202FA03F3D6
:100FE000DB433A6913403B613B681A697B6903F054
:100FF00007039B0002FA03F33A6913433B617B69E1
:10100000DA087B680832396943F822107B681B686C
:101010003B617B695B00032202FA03F3DB433A691D
:1010200013403B613B685B6803F003027B695B0034
:1010300002FA03F33A6913433B617B683A691A6029
:101040003B685B6803F08053002B00F0AC805F4B83
:101050001B6E5E4A43F0010313665C4B1B6E03F08C
:101060000103BB60BB685A4A7B699B08023352F894
:1010700023303B617B6903F003039B000F2202FADC
:1010800003F3DB433A6913403B617B68B3F1904F54
:1010900025D07B684F4A93421FD07B684E4A9342CB
:1010A00019D07B684D4A934213D07B684C4A9342D7
:1010B0000DD07B684B4A934207D07B684A4A9342E3
:1010C00001D106230CE007230AE0052308E00423EE
:1010D00006E0032304E0022302E0012300E00023F2
:1010E0007A6902F00302920093403A6913433B612C
:1010F00037497B699B0802333A6941F823203B4B0F
:101100001B683B61FB68DB433A6913403B613B680A
:101110005B6803F48033002B03D03A69FB68134308
:101120003B61324A3B691360304B5B683B61FB6853
:10113000DB433A6913403B613B685B6803F400336F
:10114000002B03D03A69FB6813433B61274A3B6994
:101150005360264B9B683B61FB68DB433A69134055
:101160003B613B685B6803F48013002B03D03A6952
:10117000FB6813433B611D4A3B6993601B4BDB6873
:101180003B61FB68DB433A6913403B613B685B684A
:1011900003F40013002B03D03A69FB6813433B614F
:1011A000124A3B69D3607B6901337B613B681A68F3
:1011B0007B6922FA03F3002B7FF478AE00BF00BFF7
:1011C0001C37BD465DF8047B704700BF001002402D
:1011D000000001400004004800080048000C0048DE
:1011E00000100048001400480018004800040140A6
:1011F00080B400AF044B1B6803F4C0631846BD46BF
:101200005DF8047B704700BF0070004080B485B07B
:1012100000AF78607B68B3F5007F30D1234B1B684B
:1012200003F4C063B3F5007F38D0204B1B6823F470
:10123000C0631E4A43F4007313601D4B1B683222C7
:1012400002FB03F31B4AA2FB03239B0C0133FB604D
:1012500002E0FB68013BFB60144B5B6903F48063B5
:10126000B3F5806F02D1FB68002BF2D10F4B5B69A5
:1012700003F48063B3F5806F10D103230FE00B4BB1
:101280001B6803F4C063B3F5806F07D0074B1B687E
:1012900023F4C063054A43F48063136000231846B7
:1012A0001437BD465DF8047B704700BF00700040F6
:1012B0000000002083DE1B4380B588B000AF78605B
:1012C0007B68002B01D10123D4E3A14B9B6803F081
:1012D0000C03BB619E4BDB6803F003037B617B68FF
:1012E0001B6803F01003002B00F0E480BB69002BA7
:1012F00007D0BB690C2B40F08B807B69012B40F041
:101300008780934B1B6803F00203002B05D07B689A
:101310009B69002B01D10123ACE37B681A6A8C4BDB
:101320001B6803F00803002B04D0894B1B6803F0F3
:10133000F00305E0864BD3F894301B0903F0F0036B
:10134000934223D27B681B6A184600F041FD034696
:10135000002B01D001238DE37D4B1B687C4A43F0B9
:10136000080313607A4B1B6823F0F0027B681B6A4A
:10137000774913430B60764B5B6823F47F427B68AD
:10138000DB691B02724913434B6025E0704B1B68FD
:101390006F4A43F0080313606D4B1B6823F0F002A3
:1013A0007B681B6A6A4913430B60694B5B6823F4D3
:1013B0007F427B68DB691B02654913434B60BB6955
:1013C000002B09D17B681B6A184600F001FD03461B
:1013D000002B01D001234DE300F036FC02465C4BAC
:1013E0009B681B0903F00F035A49CB5C03F01F03F2
:1013F00022FA03F3584A1360584B1B681846FFF74C
:10140000BBFB0346FB73FB7B002B52D0FB7B31E322
:101410007B689B69002B32D04D4B1B684C4A43F0D4
:1014200001031360FFF7F8FB386108E0FFF7F4FBF6
:1014300002463B69D31A022B01D903231AE3444B1A
:101440001B6803F00203002BF0D0414B1B68404A9D
:1014500043F0080313603E4B1B6823F0F0027B68E7
:101460001B6A3B4913430B60394B5B6823F47F4293
:101470007B68DB691B02364913434B601AE0344B2F
:101480001B68334A23F001031360FFF7C5FB386183
:1014900008E0FFF7C1FB02463B69D31A022B01D9D2
:1014A0000323E7E22A4B1B6803F00203002BF0D171
:1014B00000E000BF7B681B6803F00103002B74D0C1
:1014C000BB69082B05D0BB690C2B0ED17B69032BA4
:1014D0000BD11F4B1B6803F40033002B64D07B68D7
:1014E0005B68002B60D10123C4E27B685B68B3F5C5
:1014F000803F06D1164B1B68154A43F480331360B6
:101500001DE07B685B68B3F5A02F0CD1104B1B6806
:101510000F4A43F4802313600D4B1B680C4A43F4BD
:10152000803313600BE00A4B1B68094A23F48033B5
:101530001360074B1B68064A23F4802313607B6803
:101540005B68002B1CD0FFF767FB386111E000BF20
:1015500000100240F45900080000002004000020A0
:10156000FFF75AFB02463B69D31A642B01D90323C8
:1015700080E2AF4B1B6803F40033002BF0D014E083
:10158000FFF74AFB386108E0FFF746FB02463B697C
:10159000D31A642B01D903236CE2A54B1B6803F417
:1015A0000033002BF0D100E000BF7B681B6803F024
:1015B0000203002B60D0BB69042B05D0BB690C2B48
:1015C00019D17B69022B16D1994B1B6803F48063F8
:1015D000002B05D07B68DB68002B01D1012349E299
:1015E000934B5B6823F0F8527B681B691B0690499C
:1015F00013434B6040E07B68DB68002B23D08C4BAF
:101600001B688B4A43F480731360FFF705FB386156
:1016100008E0FFF701FB02463B69D31A022B01D910
:10162000032327E2824B1B6803F48063002BF0D076
:101630007F4B5B6823F0F8527B681B691B067C4973
:1016400013434B6018E07A4B1B68794A23F480738C
:101650001360FFF7E1FA386108E0FFF7DDFA0246B0
:101660003B69D31A022B01D9032303E2704B1B6899
:1016700003F48063002BF0D17B681B6803F0080340
:10168000002B3CD07B685B69002B1CD0684BD3F8E7
:101690009430674A43F00103C2F89430FFF7BCFA74
:1016A000386108E0FFF7B8FA02463B69D31A022B0B
:1016B00001D90323DEE15E4BD3F8943003F002033B
:1016C000002BEFD01BE05A4BD3F89430584A23F04C
:1016D0000103C2F89430FFF79FFA386108E0FFF782
:1016E0009BFA02463B69D31A022B01D90323C1E1BD
:1016F0004F4BD3F8943003F00203002BEFD17B68FB
:101700001B6803F00403002B00F0A6800023FB7786
:10171000474B9B6D03F08053002B0DD1444B9B6DC9
:10172000434A43F080539365414B9B6D03F08053D4
:10173000BB60BB680123FB773E4B1B6803F48073DF
:10174000002B18D13B4B1B683A4A43F4807313605B
:10175000FFF762FA386108E0FFF75EFA02463B697C
:10176000D31A022B01D9032384E1324B1B6803F403
:101770008073002BF0D07B689B68012B08D12C4B29
:10178000D3F890302A4A43F00103C2F8903024E0A5
:101790007B689B68052B10D1254BD3F89030244AE9
:1017A00043F00403C2F89030214BD3F89030204A24
:1017B00043F00103C2F890300FE01D4BD3F8903096
:1017C0001B4A23F00103C2F89030194BD3F8903034
:1017D000174A23F00403C2F890307B689B68002B03
:1017E00016D0FFF719FA38610AE0FFF715FA02463A
:1017F0003B69D31A41F28832934201D9032339E17C
:101800000B4BD3F8903003F00203002BEDD01AE01D
:10181000FFF702FA38610FE0FFF7FEF902463B6975
:10182000D31A41F28832934206D9032322E100BF42
:101830000010024000700040904BD3F8903003F04D
:101840000203002BE8D1FB7F012B05D18B4B9B6D55
:101850008A4A23F0805393657B689B6A002B00F0D3
:1018600008817B689B6A022B40F0D080834BDB6849
:101870007B617B6903F003027B68DB6A9A4230D1AB
:101880007B6903F070027B681B6B013B1B019A4272
:1018900027D17B6903F4FE427B685B6B1B029A4293
:1018A0001FD17B6903F400337A68926B072A14BF57
:1018B00001220022D2B2934213D17B6903F4C00209
:1018C0007B68DB6B5B08013B5B059A4209D17B6956
:1018D00003F0C0627B681B6C5B08013B5B069A42AD
:1018E0006ED0BB690C2B69D0644B1B6803F080631E
:1018F000002B05D1614B1B6803F08053002B01D0F6
:101900000123B7E05D4B1B685C4A23F080731360D2
:10191000FFF782F9386108E0FFF77EF902463B697C
:10192000D31A022B01D90323A4E0544B1B6803F004
:101930000073002BF0D1514BDA68514B13407A6899
:10194000D16A7A68126B013A120111437A68526BBC
:10195000120211437A68D26B5208013A52051143C0
:101960007A68126C5208013A520611437A68926BF7
:10197000120952040A4341491343CB603F4B1B6891
:101980003E4A43F0807313603C4BDB683B4A43F0B4
:101990008073D360FFF740F9386108E0FFF73CF946
:1019A00002463B69D31A022B01D9032362E0334B71
:1019B0001B6803F00073002BF0D05AE0012359E0BC
:1019C0002E4B1B6803F00073002B52D12B4B1B686E
:1019D0002A4A43F080731360284BDB68274A43F0A0
:1019E0008073D360FFF718F9386108E0FFF714F946
:1019F00002463B69D31A022B01D903233AE01F4B5D
:101A00001B6803F00073002BF0D032E0BB690C2B95
:101A10002DD01A4B1B68194A23F080731360174BA3
:101A20001B6803F02053002B05D1144BDB68134ACD
:101A300023F00303D360114BDB68104A23F0887353
:101A400023F48033D360FFF7E7F8386108E0FFF74D
:101A5000E3F802463B69D31A022B01D9032309E0BC
:101A6000064B1B6803F00073002BF0D101E001234B
:101A700000E0002318462037BD4680BD001002401C
:101A80008C809DF980B584B000AF786039607B6848
:101A9000002B01D10123C8E0664B1B6803F007034C
:101AA0003A689A4210D9634B1B6823F007026149D8
:101AB0003B6813430B605F4B1B6803F007033A68F6
:101AC0009A4201D00123B0E07B681B6803F0010358
:101AD000002B4CD07B685B68032B07D1564B1B68EF
:101AE00003F00073002B21D101239EE07B685B682B
:101AF000022B07D1504B1B6803F40033002B15D188
:101B0000012392E07B685B68002B07D14A4B1B687E
:101B100003F00203002B09D1012386E0464B1B682A
:101B200003F48063002B01D101237EE0424B9B68CC
:101B300023F003027B685B683F4913438B60FFF728
:101B40006BF8F8600AE0FFF767F80246FB68D31A03
:101B500041F28832934201D9032366E0364B9B68F9
:101B600003F00C027B685B689B009A42EBD17B68B8
:101B70001B6803F00203002B08D02F4B9B6823F057
:101B8000F0027B689B682C4913438B60294B1B68D0
:101B900003F007033A689A4210D2264B1B6823F0E1
:101BA000070224493B6813430B60224B1B6803F078
:101BB00007033A689A4201D0012336E07B681B682C
:101BC00003F00403002B08D01B4B9B6823F4E06256
:101BD0007B68DB68184913438B607B681B6803F0E4
:101BE0000803002B09D0144B9B6823F460527B68D8
:101BF0001B69DB00104913438B6000F025F8024697
:101C00000D4B9B681B0903F00F030C49CB5C03F0E1
:101C10001F0322FA03F30A4A13600A4B1B68184693
:101C2000FEF7AAFF0346FB72FB7A18461037BD4643
:101C300080BD00BF0020024000100240F45900089F
:101C4000000000200400002080B489B000AF002311
:101C5000FB610023BB613E4B9B6803F00C033B61BF
:101C60003B4BDB6803F00303FB603B69002B05D0B3
:101C70003B690C2B21D1FB68012B1ED1344B1B6817
:101C800003F00803002B07D1314BD3F894301B0A23
:101C900003F00F03FB6105E02D4B1B681B0903F0EC
:101CA0000F03FB612B4AFB6952F82330FB613B6950
:101CB000002B0DD1FB69BB610AE03B69042B02D10B
:101CC000254BBB6104E03B69082B01D1234BBB6171
:101CD0003B690C2B34D11E4BDB6803F00303BB6064
:101CE000BB68022B03D0BB68032B03D005E01A4B63
:101CF0007B6105E0194B7B6102E0FB697B6100BF02
:101D0000134BDB681B0903F0070301337B60104BA7
:101D1000DB681B0A03F07F037A6902FB03F27B682E
:101D2000B2FBF3F37B610A4BDB685B0E03F003034A
:101D300001335B003B607A693B68B2FBF3F3BB6144
:101D4000BB6918462437BD465DF8047B704700BF69
:101D5000001002400C5A00080024F40000127A001F
:101D600080B400AF034B1B681846BD465DF8047B8A
:101D7000704700BF0000002080B500AFFFF7F0FF04
:101D80000246064B9B681B0A03F007030449CB5C21
:101D900003F01F0322FA03F3184680BD001002402F
:101DA000045A000880B500AFFFF7DAFF0246064B81
:101DB0009B68DB0A03F007030449CB5C03F01F03B5
:101DC00022FA03F3184680BD00100240045A0008AE
:101DD00080B586B000AF786000233B612A4B9B6DD5
:101DE00003F08053002B03D0FFF702FA786114E070
:101DF000254B9B6D244A43F080539365224B9B6D8A
:101E000003F08053FB60FB68FFF7F2F978611E4B2B
:101E10009B6D1D4A23F0805393657B69B3F5007F6A
:101E20000BD17B68802B19D97B68A02B02D90223A8
:101E30003B6113E001233B6110E07B68802B02D9FA
:101E400003233B610AE07B68802B02D102233B61C4
:101E500004E07B68702B01D101233B610B4B1B68B5
:101E600023F0070209493B6913430B60074B1B68CA
:101E700003F007033A699A4201D0012300E00023EE
:101E800018461837BD4680BD0010024000200240B1
:101E900080B586B000AF78600023FB740023BB746C
:101EA0007B681B6803F40063002B41D07B685B6E8A
:101EB000B3F5400F2AD0B3F5400F24D8B3F5000F87
:101EC00008D0B3F5000F1ED8002B0AD0B3F5800F51
:101ED00010D018E0864BDB68854A43F48033D3602A
:101EE00015E07B6804330021184600F0BBFA034676
:101EF000FB740CE07B6820330021184600F0A6FB41
:101F00000346FB7403E00123FB7400E000BFFB7C8D
:101F1000002B0BD1764BD3F8883023F440027B683A
:101F20005B6E73491343C1F8883001E0FB7CBB74DE
:101F30007B681B6803F48053002B41D07B689B6E49
:101F4000B3F1407F2AD0B3F1407F24D8B3F1007FB2
:101F500008D0B3F1007F1ED8002B0AD0B3F1807FE8
:101F600010D018E0624BDB68614A43F48033D360E1
:101F700015E07B6804330021184600F073FA03462D
:101F8000FB740CE07B6820330021184600F05EFBF8
:101F90000346FB7403E00123FB7400E000BFFB7CFD
:101FA000002B0BD1524BD3F8883023F040727B6862
:101FB0009B6E4F491343C1F8883001E0FB7CBB7432
:101FC0007B681B6803F40033002B00F0A080002323
:101FD0007B74474B9B6D03F08053002B01D1012391
:101FE00000E00023002B0DD0414B9B6D404A43F095
:101FF000805393653E4B9B6D03F08053BB60BB6881
:1020000001237B743B4B1B683A4A43F48073136093
:10201000FEF702FEF86009E0FEF7FEFD0246FB68EF
:10202000D31A022B02D90323FB7405E0314B1B6842
:1020300003F48073002BEFD0FB7C002B5CD12C4B86
:10204000D3F8903003F440737B617B69002B1FD081
:102050007B68D3F884307A699A4219D0244BD3F83C
:10206000903023F440737B61214BD3F89030204AA9
:1020700043F48033C2F890301D4BD3F890301C4AA3
:1020800023F48033C2F89030194A7B69C2F890304B
:102090007B6903F00103002B16D0FEF7BDFDF8604D
:1020A0000BE0FEF7B9FD0246FB68D31A41F2883215
:1020B000934202D90323FB7406E00D4BD3F8903012
:1020C00003F00203002BECD0FB7C002B0CD1084B5F
:1020D000D3F8903023F440727B68D3F884300449FD
:1020E0001343C1F8903009E0FB7CBB7406E000BFED
:1020F0000010024000700040FB7CBB747B7C012B15
:1021000005D19E4B9B6D9D4A23F0805393657B6860
:102110001B6803F00103002B0AD0984BD3F88830DA
:1021200023F003027B689B6B94491343C1F888300A
:102130007B681B6803F00203002B0AD08F4BD3F897
:10214000883023F00C027B68DB6B8C491343C1F8A9
:1021500088307B681B6803F00403002B0AD0874B90
:10216000D3F8883023F030027B681B6C834913431B
:10217000C1F888307B681B6803F00803002B0AD085
:102180007E4BD3F8883023F0C0027B685B6C7B49C0
:102190001343C1F888307B681B6803F01003002BE1
:1021A0000AD0764BD3F8883023F440727B689B6C5E
:1021B00072491343C1F888307B681B6803F0200321
:1021C000002B0AD06D4BD3F8883023F440627B6833
:1021D000DB6C6A491343C1F888307B681B6803F4E1
:1021E0000073002B0AD0654BD3F8883023F44022CB
:1021F0007B68DB6D61491343C1F888307B681B68DD
:1022000003F48063002B0AD05C4BD3F8883023F4AE
:1022100040127B681B6E59491343C1F888307B68B4
:102220001B6803F04003002B0AD0544BD3F88830CE
:1022300023F440527B681B6D50491343C1F888302A
:102240007B681B6803F08003002B0AD04B4BD3F84C
:10225000883023F440427B685B6D48491343C1F8E2
:1022600088307B681B6803F48073002B0AD0434BD3
:10227000D3F8883023F440327B689B6D3F49134389
:10228000C1F888307B681B6803F40053002B28D00A
:102290003A4BD3F8883023F040627B68DB6E3749D5
:1022A0001343C1F888307B68DB6EB3F1006F06D151
:1022B000324BDB68314A43F48013D36011E07B6812
:1022C000DB6EB3F1806F0CD17B68043301211846BB
:1022D00000F0C8F80346FB74FB7C002B01D0FB7CAC
:1022E000BB747B681B6803F40023002B28D0234BAE
:1022F000D3F8883023F040627B681B6F1F4913437B
:10230000C1F888307B681B6FB3F1006F06D11B4B9F
:10231000DB681A4A43F48013D36011E07B681B6FBB
:10232000B3F1806F0CD17B6804330121184600F0B3
:1023300099F80346FB74FB7C002B01D0FB7CBB743B
:102340007B681B6803F48023002B2BD00B4BD3F846
:10235000883023F040627B685B6F08491343C1F803
:1023600088307B685B6FB3F1006F09D1034BDB688A
:10237000024A43F48013D36014E000BF001002400F
:102380007B685B6FB3F1806F0CD17B6804330121F4
:10239000184600F067F80346FB74FB7C002B01D065
:1023A000FB7CBB747B681B6803F48043002B2FD03D
:1023B0002B4BD3F8883023F040527B689B6F284921
:1023C0001343C1F888307B689B6FB3F1805F0DD1F8
:1023D0007B6804330221184600F044F80346FB747E
:1023E000FB7C002B14D0FB7CBB7411E07B689B6FE3
:1023F000B3F1005F0CD17B6820330221184600F056
:1024000025F90346FB74FB7C002B01D0FB7CBB74DD
:102410007B681B6803F40043002B0AD0104BD3F8F1
:10242000883023F080427B68DB6F0D491343C1F88D
:1024300088307B681B6803F48033002B0BD0084B7B
:10244000D3F8883023F000427B68D3F88030044909
:102450001343C1F88830BB7C18461837BD4680BD91
:102460000010024080B584B000AF7860396000236E
:10247000FB73754BDB6803F00303002B18D0724B22
:10248000DB6803F003027B681B689A420DD17B680E
:102490001B68002B09D06C4BDB681B0903F007039A
:1024A0005A1C7B685B689A4247D00123FB7344E067
:1024B0007B681B68032B18D0032B25D8012B02D077
:1024C000022B09D020E0604B1B6803F00203002BB5
:1024D0001DD10123FB731AE05B4B1B6803F480637F
:1024E000002B16D10123FB7313E0574B1B6803F439
:1024F0000033002B0FD1544B1B6803F48023002BB7
:1025000009D10123FB7306E00123FB7304E000BF44
:1025100002E000BF00E000BFFB7B002B0DD14A4B67
:10252000DB6823F073027B6819687B685B68013B9A
:102530001B010B4344491343CB60FB7B002B7DD134
:10254000414B1B68404A23F080631360FEF764FB35
:10255000B86009E0FEF760FB0246BB68D31A022BA5
:1025600002D90323FB7305E0374B1B6803F00063BC
:10257000002BEFD1FB7B002B60D13B68002B11D1EE
:10258000314B1B6923F41F3323F440737A6892683C
:1025900011027A68D268120952040A432A49134385
:1025A0000B6127E03B68012B12D1274B1B6923F4F9
:1025B000C00323F4FE437A68926811027A681269B4
:1025C0005208013A52050A431F4913430B6111E0B7
:1025D0001D4B1B6923F0C06323F4FE437A689268A5
:1025E00011027A6852695208013A52060A431649A2
:1025F00013430B61144B1B68134A43F08063136051
:10260000FEF70AFBB86009E0FEF706FB0246BB686E
:10261000D31A022B02D90323FB7305E00A4B1B6874
:1026200003F00063002BEFD0FB7B002B06D1064BA1
:102630001A697B689B69044913430B61FB7B18464D
:102640001037BD4680BD00BF0010024080B584B089
:1026500000AF786039600023FB736A4BDB6803F0DE
:102660000303002B18D0674BDB6803F003027B6881
:102670001B689A420DD17B681B68002B09D0614B07
:10268000DB681B0903F007035A1C7B685B689A42EE
:1026900047D00123FB7344E07B681B68032B18D0F1
:1026A000032B25D8012B02D0022B09D020E0554B5B
:1026B0001B6803F00203002B1DD10123FB731AE0FA
:1026C000504B1B6803F48063002B16D10123FB736E
:1026D00013E04C4B1B6803F40033002B0FD1494B24
:1026E0001B6803F48023002B09D10123FB7306E050
:1026F0000123FB7304E000BF02E000BF00E000BF65
:10270000FB7B002B0DD13F4BDB6823F073027B6812
:1027100019687B685B68013B1B010B433949134314
:10272000CB60FB7B002B67D1364B1B68354A23F00F
:1027300080531360FEF770FAB86009E0FEF76CFA98
:102740000246BB68D31A022B02D90323FB7305E0B0
:102750002C4B1B6803F00053002BEFD1FB7B002BAD
:102760004AD13B68002B11D1264B5B6923F41F3300
:1027700023F440737A68926811027A68D268120969
:1027800052040A431F4913434B6111E01D4B5B691F
:1027900023F0C06323F4FE437A68926811027A68DA
:1027A00012695208013A52060A43164913434B6113
:1027B000144B1B68134A43F080531360FEF72CFA46
:1027C000B86009E0FEF728FA0246BB68D31A022B6C
:1027D00002D90323FB7305E00A4B1B6803F0005387
:1027E000002BEFD0FB7B002B06D1064B5A697B6890
:1027F0005B69044913434B61FB7B18461037BD46A8
:1028000080BD00BF0010024080B582B000AF78608C
:102810007B68002B01D1012349E07B6893F83D30B0
:10282000DBB2002B06D17B68002283F83C2078685D
:10283000FDF7CAFF7B68022283F83D207B681A6897
:102840007B6804331946104600F01CFA7B680122AD
:1028500083F848207B68012283F83E207B680122B0
:1028600083F83F207B68012283F840207B680122A7
:1028700083F841207B68012283F842207B68012293
:1028800083F843207B68012283F844207B6801227F
:1028900083F845207B68012283F846207B6801226B
:1028A00083F847207B68012283F83D2000231846E7
:1028B0000837BD4680BD000080B485B000AF7860A9
:1028C0007B6893F83D30DBB2012B01D001234FE050
:1028D0007B68022283F83D207B681B68DA687B688E
:1028E0001B6842F00102DA607B681B68234A93424E
:1028F0001DD07B681B68B3F1804F18D07B681B68C4
:102900001F4A934213D07B681B681E4A93420ED025
:102910007B681B681C4A934209D07B681B681B4A72
:10292000934204D07B681B68194A934215D17B6897
:102930001B689A68174B1340FB60FB68062B15D089
:10294000FB68B3F5803F11D07B681B681A687B6811
:102950001B6842F001021A6008E07B681B681A6875
:102960007B681B6842F001021A6000E000BF002390
:1029700018461437BD465DF8047B7047002C0140B3
:102980000004004000080040000C004000340140FA
:10299000004001400700010080B483B000AF7860C0
:1029A0007B681B68DA687B681B6822F00102DA60CA
:1029B0007B681B681A6A41F211131340002B0FD178
:1029C0007B681B681A6A40F244431340002B07D10E
:1029D0007B681B681A687B681B6822F001021A601A
:1029E0007B68012283F83D20002318460C37BD4642
:1029F0005DF8047B704780B582B000AF78607B687B
:102A00001B681B6903F00203022B22D17B681B6841
:102A1000DB6803F00203022B1BD17B681B686FF09D
:102A200002021A617B6801221A777B681B689B6926
:102A300003F00303002B03D0786800F005F905E0EC
:102A4000786800F0F7F8786800F008F97B680022F1
:102A50001A777B681B681B6903F00403042B22D1DF
:102A60007B681B68DB6803F00403042B1BD17B68C5
:102A70001B686FF004021A617B6802221A777B6878
:102A80001B689B6903F44073002B03D0786800F047
:102A9000DBF805E0786800F0CDF8786800F0DEF843
:102AA0007B6800221A777B681B681B6903F00803A8
:102AB000082B22D17B681B68DB6803F00803082B16
:102AC0001BD17B681B686FF008021A617B680422C7
:102AD0001A777B681B68DB6903F00303002B03D0C4
:102AE000786800F0B1F805E0786800F0A3F878683D
:102AF00000F0B4F87B6800221A777B681B681B69BA
:102B000003F01003102B22D17B681B68DB6803F0F5
:102B10001003102B1BD17B681B686FF010021A6129
:102B20007B6808221A777B681B68DB6903F44073B3
:102B3000002B03D0786800F087F805E0786800F093
:102B400079F8786800F08AF87B6800221A777B6849
:102B50001B681B6903F00103012B0ED17B681B6806
:102B6000DB6803F00103012B07D17B681B686FF062
:102B700001021A61786801F075FB7B681B681B69AC
:102B800003F08003802B0ED17B681B68DB6803F0A9
:102B90008003802B07D17B681B686FF080021A616D
:102BA000786800F09BF97B681B681B6903F48073ED
:102BB000B3F5807F0ED17B681B68DB6803F0800370
:102BC000802B07D17B681B686FF480721A6178686C
:102BD00000F08EF97B681B681B6903F04003402BF3
:102BE0000ED17B681B68DB6803F04003402B07D1E4
:102BF0007B681B686FF040021A61786800F038F853
:102C00007B681B681B6903F02003202B0ED17B68B7
:102C10001B68DB6803F02003202B07D17B681B684F
:102C20006FF020021A61786800F04EF900BF083793
:102C3000BD4680BD80B483B000AF786000BF0C3764
:102C4000BD465DF8047B704780B483B000AF786008
:102C500000BF0C37BD465DF8047B704780B483B07D
:102C600000AF786000BF0C37BD465DF8047B70474D
:102C700080B483B000AF786000BF0C37BD465DF80C
:102C8000047B704780B485B000AF786039607B68A2
:102C90001B68FB607B68404A934213D07B68B3F1AA
:102CA000804F0FD07B683D4A93420BD07B683C4AF3
:102CB000934207D07B683B4A934203D07B683A4AF1
:102CC000934208D1FB6823F07003FB603B685B68AC
:102CD000FA681343FB607B682F4A93421FD07B68DE
:102CE000B3F1804F1BD07B682C4A934217D07B688E
:102CF0002B4A934213D07B682A4A93420FD07B68B9
:102D0000294A93420BD07B68284A934207D07B68BC
:102D1000274A934203D07B68264A934208D1FB6836
:102D200023F44073FB603B68DB68FA681343FB6085
:102D3000FB6823F080023B685B691343FB607B68A0
:102D4000FA681A603B689A687B68DA623B681A68BE
:102D50007B689A627B68104A93420FD07B68124A64
:102D600093420BD07B68114A934207D07B68104A8C
:102D7000934203D07B680F4A934203D13B681A69A0
:102D80007B681A637B6801225A6100BF1437BD4615
:102D90005DF8047B704700BF002C01400004004038
:102DA00000080040000C0040003401400040014099
:102DB000004401400048014080B485B000AF786015
:102DC00039607B6893F83C30012B01D1022368E025
:102DD0007B68012283F83C207B68022283F83D2037
:102DE0007B681B685B68FB607B681B689B68BB60DB
:102DF0007B681B682E4A934204D07B681B682D4A6F
:102E0000934208D1FB6823F47003FB603B685B6866
:102E1000FA681343FB60FB6823F07003FB603B68B8
:102E20001B68FA681343FB607B681B68FA685A608A
:102E30007B681B681E4A93421DD07B681B68B3F1F8
:102E4000804F18D07B681B681B4A934213D07B6865
:102E50001B681A4A93420ED07B681B68184A93423B
:102E600009D07B681B68134A934204D07B681B68B7
:102E7000144A93420CD1BB6823F08003BB603B68CB
:102E80009B68BA681343BB607B681B68BA689A602A
:102E90007B68012283F83D207B68002283F83C2078
:102EA000002318461437BD465DF8047B704700BF09
:102EB000002C0140003401400004004000080040A4
:102EC000000C00400040014080B483B000AF786047
:102ED00000BF0C37BD465DF8047B704780B483B0FB
:102EE00000AF786000BF0C37BD465DF8047B7047CB
:102EF00080B483B000AF786000BF0C37BD465DF88A
:102F0000047B704780B582B000AF78607B68002B8F
:102F100001D1012340E07B689B6F002B06D17B68C9
:102F2000002283F874207868FDF774FC7B68242203
:102F30009A677B681B681A687B681B6822F001022D
:102F40001A60786800F0C0F80346012B01D1012314
:102F500022E07B685B6A002B02D0786800F03EFBC1
:102F60007B681B685A687B681B6822F490425A6031
:102F70007B681B689A687B681B6822F02A029A604B
:102F80007B681B681A687B681B6842F001021A6044
:102F9000786800F0C5FB034618460837BD4680BD7B
:102FA00080B58AB002AFF860B9603B601346FB8021
:102FB000FB689B6F202B40F08280BB68002B02D007
:102FC000FB88002B01D101237AE0FB6893F8743071
:102FD000012B01D1022373E0FB68012283F87420E6
:102FE000FB680022C3F88020FB6821229A67FDF766
:102FF00013FE7861FB68FA88A3F85020FB68FA8812
:10300000A3F85220FB689B68B3F5805F08D1FB688A
:103010001B69002B04D10023FB61BB68BB6103E08B
:10302000BB68FB610023BB61FB68002283F874204E
:103030002DE03B6800937B6900228021F86800F056
:10304000B8FB0346002B01D0032339E0FB69002BBA
:103050000BD1BB691A88FB681B68C2F3080292B2E5
:103060001A85BB690233BB6108E0FB691A78FB680B
:103070001B6892B21A85FB690133FB61FB68B3F8E8
:1030800052309BB2013B9AB2FB68A3F85220FB6816
:10309000B3F852309BB2002BCBD13B6800937B69D5
:1030A00000224021F86800F084FB0346002B01D089
:1030B000032305E0FB6820229A67002300E0022337
:1030C00018462037BD4680BDB0B588B000AF7860E7
:1030D0000023BB767B689A687B681B691A437B6810
:1030E0005B691A437B68DB691343FB617B681B6880
:1030F0001A68AD4B13407A681268F9690B43136084
:103100007B681B685B6823F440517B68DA687B68E6
:103110001B680A435A607B689B69FB617B681B687C
:10312000A24A934204D07B681B6AFA691343FB618D
:103130007B681B689B6823F430617B681B68FA69B5
:103140000A439A607B681B68994A934221D1994B44
:10315000D3F8883003F00303032B17D801A252F8E9
:1031600023F000BF75310008813100087B31000871
:10317000873100080123FB76E7E00223FB76E4E0D9
:103180000423FB76E1E00823FB76DEE01023FB76E8
:10319000DBE07B681B68884A934232D1854BD3F8C9
:1031A000883003F00C030C2B28D801A252F823F02E
:1031B000E5310008FD310008FD310008FD3100084F
:1031C000F1310008FD310008FD310008FD31000833
:1031D000EB310008FD310008FD310008FD31000829
:1031E000F73100080023FB76AFE00223FB76ACE06A
:1031F0000423FB76A9E00823FB76A6E01023FB76E8
:10320000A3E07B681B686D4A934220D1694BD3F8D9
:10321000883003F03003302B13D0302B14D8202B00
:1032200009D0202B10D8002B02D0102B06D00BE099
:103230000023FB7689E00223FB7686E00423FB76FD
:1032400083E00823FB7680E01023FB767DE07B683B
:103250001B685B4A934220D1564BD3F8883003F069
:10326000C003C02B13D0C02B14D8802B09D0802BC7
:1032700010D8002B02D0402B06D00BE00023FB76A9
:1032800063E00223FB7660E00423FB765DE0082325
:10329000FB765AE01023FB7657E07B681B68494AAF
:1032A000934225D1434BD3F8883003F44073B3F5F0
:1032B000407F17D0B3F5407F17D8B3F5007F0BD010
:1032C000B3F5007F11D8002B03D0B3F5807F06D073
:1032D0000BE00023FB7638E00223FB7635E0042385
:1032E000FB7632E00823FB762FE01023FB762CE000
:1032F0007B681B682D4A934225D12E4BD3F888302A
:1033000003F44063B3F5406F17D0B3F5406F17D89F
:10331000B3F5006F0BD0B3F5006F11D8002B03D0BD
:10332000B3F5806F06D00BE00023FB760DE002239F
:10333000FB760AE00423FB7607E00823FB7604E033
:103340001023FB7601E01023FB767B681B68174A8D
:10335000934240F08780FB7E082B37D801A252F8B9
:1033600023F000BF89330008CD33000891330008F3
:10337000CD33000897330008CD330008CD33000863
:10338000CD3300089F330008FEF7F6FC786122E099
:103390000D4B7B611FE0FEF757FC78611BE04FF49B
:1033A00000437B6117E000BFF369FFEF008000403E
:1033B0000038014000100240004400400048004036
:1033C000004C0040005000400024F40000237B61CA
:1033D0000123BB7600BF7B69002B00F0F1807B6886
:1033E0005A6813465B0013447A699A4205D37B6896
:1033F0005B681B037A699A4202D90123BB76DFE03E
:103400007B6918464FF000014FF000024FF00003B7
:103410000B0243EA106302027968496849080846CA
:103420004FF00001141843EB01057B685B681A46F6
:103430004FF0000320462946FCF722FF02460B46C8
:1034400013463B613B69B3F5407F08D33B69B3F555
:10345000801F04D27B681B683A69DA60B0E0012300
:10346000BB76ADE07B68DB69B3F5004F5CD1FB7EDA
:10347000082B28D801A252F823F000BFA13400087D
:10348000A9340008B1340008C7340008B734000874
:10349000C7340008C7340008C7340008BF34000828
:1034A000FEF76AFC786113E0FEF77CFC78610FE0C0
:1034B000494B7B610CE0FEF7C7FB786108E04FF4F5
:1034C00000437B6104E000237B610123BB7600BFE6
:1034D0007B69002B74D07B695A007B685B685B0852
:1034E0001A447B685B68B2FBF3F39BB23B613B69B8
:1034F0000F2B16D93B69B3F5803F12D23B699BB2C3
:1035000023F00F03FB813B695B089BB203F00703C9
:103510009AB2FB891343FB817B681B68FA89DA60E6
:103520004EE00123BB764BE0FB7E082B27D801A29F
:1035300052F823F059350008613500086935000854
:103540007F3500086F3500087F3500087F3500089B
:103550007F35000877350008FEF70EFC786113E030
:10356000FEF720FC78610FE01B4B7B610CE0FEF75F
:103570006BFB786108E04FF400437B6104E00023BB
:103580007B610123BB7600BF7B69002B18D07B6871
:103590005B685A087B691A447B685B68B2FBF3F38B
:1035A0009BB23B613B690F2B08D93B69B3F5803F68
:1035B00004D27B681B683A69DA6001E00123BB76BC
:1035C0007B6800225A667B6800229A66BB7E18469A
:1035D0002037BD46B0BD00BF0024F40080B483B0E6
:1035E00000AF78607B685B6A03F00103002B0AD0B0
:1035F0007B681B685B6823F400317B689A6A7B6890
:103600001B680A435A607B685B6A03F00203002B65
:103610000AD07B681B685B6823F480317B68DA6AB8
:103620007B681B680A435A607B685B6A03F004038B
:10363000002B0AD07B681B685B6823F480217B68C1
:103640001A6B7B681B680A435A607B685B6A03F0ED
:103650000803002B0AD07B681B685B6823F40041D9
:103660007B685A6B7B681B680A435A607B685B6A9D
:1036700003F01003002B0AD07B681B689B6823F4BF
:1036800080517B689A6B7B681B680A439A607B68F1
:103690005B6A03F02003002B0AD07B681B689B68E1
:1036A00023F400517B68DA6B7B681B680A439A60DD
:1036B0007B685B6A03F04003002B1AD07B681B68B1
:1036C0005B6823F480117B681A6C7B681B680A4373
:1036D0005A607B681B6CB3F5801F0AD17B681B683E
:1036E0005B6823F4C0017B685A6C7B681B680A43E3
:1036F0005A607B685B6A03F08003002B0AD07B680A
:103700001B685B6823F400217B689A6C7B681B68EC
:103710000A435A6000BF0C37BD465DF8047B704712
:1037200080B586B002AF78607B680022C3F8802045
:10373000FDF772FAF8607B681B681B6803F00803EA
:10374000082B0ED16FF07E430093FB6800224FF4EC
:103750000011786800F02DF80346002B01D00323F8
:1037600023E07B681B681B6803F00403042B0ED165
:103770006FF07E430093FB6800224FF4800178686D
:1037800000F017F80346002B01D003230DE07B68FF
:1037900020229A677B682022DA677B6800221A66FB
:1037A0007B68002283F87420002318461037BD463A
:1037B00080BD80B584B000AFF860B9603B6013464F
:1037C000FB715EE0BB69B3F1FF3F5AD0FDF724FA0D
:1037D00002463B68D31ABA699A4202D3BB69002BEE
:1037E0001BD1FB681B681A68FB681B6822F4D07247
:1037F0001A60FB681B689A68FB681B6822F001026C
:103800009A60FB6820229A67FB682022DA67FB68CF
:10381000002283F87420032343E0FB681B681B68C5
:1038200003F00403002B2CD0FB681B68DB6903F456
:103830000063B3F5006F24D1FB681B684FF400628E
:103840001A62FB681B681A68FB681B6822F4D07256
:103850001A60FB681B689A68FB681B6822F001020B
:103860009A60FB6820229A67FB682022DA67FB686F
:103870002022C3F88020FB68002283F874200323F1
:103880000FE0FB681B68DA69BB681340BA689A42AC
:103890000CBF01230023DBB21A46FB799A4291D078
:1038A000002318461037BD4680BD80B48BB000AFF2
:1038B000F860B9607A60BB687B6100237B6200239B
:1038C0003B620023FB6113E0FB699B007A691344B0
:1038D0001B687A6A53407B62FB6901339B007A69FB
:1038E00013441B683A6A53403B62FB690233FB6135
:1038F000FB69032BE8DD7B6A1A047B6A53404FEABD
:1039000033437B623B6A1A043B6A53404FEA3343BA
:103910003B620023BB61BB69FB612AE0BB695A1CA7
:10392000BA619B007A6913441A683B6A5A40FB6883
:10393000F96953F8213082EA0301FB68FA6943F818
:103940002210BB695A1CBA619B007A6913441A6839
:103950007B6A5A40FB68F969083153F8213082EAE2
:103960000301FB68FA69083243F82210FB6901334E
:10397000FB61FB69012BD1DD0223FB611AE0FB68CF
:10398000FA6953F822203B6A82EA0301FB68FA696C
:1039900043F82210FB68FA69083253F822207B6A48
:1039A00082EA0301FB68FA69083243F82210FB69D6
:1039B0000133FB617B68DA0F13445B101A46FB6925
:1039C0009342DCDB00BF00BF2C37BD465DF8047BB3
:1039D000704780B487B000AF786039607B68FB6067
:1039E00000233B613B697B6119E03B695A1C3A61EA
:1039F0009B00FA6813443A68796952F821201A60EA
:103A00003B695A1C3A619B00FA6813443A68796929
:103A1000083152F821201A607B6901337B613B69D0
:103A2000032BE2DD00BF00BF1C37BD465DF8047B01
:103A3000704780B59CB000AFF860B960C7E900235B
:103A400007F1240340220021184600F03BFD00232B
:103A50007B6107F1180300221A605A609A603B6884
:103A6000BB660023FB6612E0BA68FB6ED11807F153
:103A7000240308221846FFF718FF07F12403082241
:103A80000821184600F066F9FB6E1033FB66BA6E2B
:103A9000FB6ED31A102BE7D8BA6EFB6ED31A7B6677
:103AA000BA68FB6ED11807F114037A6E184600F05D
:103AB000FBFC7B6E0F2B05D807F114027B6E1344C1
:103AC00080221A7007F1140107F124030822184616
:103AD000FFF7EBFE7B6E0F2B04D83B6D83F08073FA
:103AE0003B6503E03B6D83F000733B6507F1240306
:103AF0000C220821184600F02DF907F1240319467D
:103B0000F868FFF766FF07F124030822082118462A
:103B100000F020F9FB68103307F124021146184623
:103B2000FFF757FF07F1240308220821184600F089
:103B300011F9FB68203307F1240211461846FFF7FC
:103B400048FF002318467037BD4680BD80B489B059
:103B500000AF786039603B68DA0F13445B107B611B
:103B60007B683B617B682033FB600023BB610023E3
:103B7000FB610AE0FB699B003A6913441B68BA6960
:103B80005340BB61FB690133FB61FA697B699A426F
:103B9000F0DBBB691A04BB6953404FEA3343BB6196
:103BA0000023FB6118E0FA697B6913449B00FA6803
:103BB00013441968FB699B00FA6813441A68BB69CF
:103BC0005A40F8697B6903449B00F86803444A4003
:103BD0001A60FB690133FB61FA697B699A42E2DB97
:103BE0000023BB610023FB610AE0FB699B00FA68CC
:103BF00013441B68BA695340BB61FB690133FB6125
:103C0000FA697B699A42F0DBBB691A04BB695340CD
:103C10004FEA3343BB610023FB6118E0FA697B691B
:103C200013449B003A6913441968FB699B003A6985
:103C300013441A68BB695A40F8697B6903449B00C6
:103C4000386903444A401A60FB690133FB61FA6931
:103C50007B699A42E2DB3B691B68BB610023FB6125
:103C60001DE0FA697B69134401339B003A691A44E9
:103C7000FB699B0039690B4412681A60FB690133C8
:103C80009B003A691A44F9697B690B4401339B0034
:103C900039690B4412681A60FB690133FB617B6967
:103CA000013BFA699A42DCDB7B699B003A691A4462
:103CB0007B6903F18043013B9B0039690B44126827
:103CC0001A607B699B003A691344BA691A60FB6801
:103CD0001B68BB610023FB611DE0FA697B6913442B
:103CE00001339B00FA681A44FB699B00F9680B4496
:103CF00012681A60FB6901339B00FA681A44F9697B
:103D00007B690B4401339B00F9680B4412681A600D
:103D1000FB690133FB617B69013BFA699A42DCDB99
:103D20007B699B00FA681A447B6903F18043013B7D
:103D30009B00F9680B4412681A607B699B00FA6863
:103D40001344BA691A6000BF2437BD465DF8047B8E
:103D50007047000080B586B000AFF860B9607A6047
:103D6000BB6803F00103002B05D1BB68032B02DD08
:103D7000BB68082B05DD7C4B7C4A6F217C4800F03A
:103D800039FB00237B61E5E0FB681A6A7B695942D5
:103D900003F0070301F0070158BF4B42754951F882
:103DA00023305A40FB681A62FB685A6A7B695A40A2
:103DB000FB685A6200233B61C0E0FB683A6953F834
:103DC0002220FB683969083153F821304FEAF37338
:103DD000D118FB683A6943F82210FB683A69083247
:103DE00053F82220FB68396953F821304FEA3363D6
:103DF00082EA0301FB683A69083243F82210FB6843
:103E00003A6953F822205B493B6951F8233082EA32
:103E10000301FB683A6943F82210FB683A6953F8DA
:103E20002220FB683969083153F821304FEA734387
:103E3000D118FB683A6943F82210FB683A690832E6
:103E400053F82220FB68396953F821304FEA734355
:103E500082EA0301FB683A69083243F82210FB68E2
:103E60003A6953F8222043493B6951F8233082EAEA
:103E70000301FB683A6943F82210FB683A6953F87A
:103E80002220FB683969083153F82130D118FB68CA
:103E90003A6943F82210FB683A69083253F8222045
:103EA000FB68396953F821304FEAF37382EA030162
:103EB000FB683A69083243F82210FB683A6953F804
:103EC00022202C493B6951F8233082EA0301FB6828
:103ED0003A6943F82210FB683A6953F82220FB68DC
:103EE0003969083153F821304FEA3363D118FB6840
:103EF0003A6943F82210FB683A69083253F82220E5
:103F0000FB68396953F821304FEA334382EA0301F1
:103F1000FB683A69083243F82210FB683A6953F8A3
:103F2000222014493B6951F8233082EA0301FB68DF
:103F30003A6943F822103B6901333B613A69BB6837
:103F40009A42FFF63AAFB968F868FFF7FFFD7B6960
:103F500001337B617A697B689A42FFF615AF00BF37
:103F600000BF1837BD4680BD885700085C5A00085E
:103F7000C05700083C5A000880B582B000AF00234B
:103F80007B6000F0DFF900F07FF900F097F9194A43
:103F900019491A4800F0B4F9194800F0B1F9194B61
:103FA0001B6B184AD26A1946174800F0A9F9154B3D
:103FB000196A144B5A6A134B9B6A144800F0A0F913
:103FC0004FF480720021124800F07CFA4FF48072A6
:103FD0000021104800F076FA4FF4807200210E485C
:103FE00000F070FA00F01AF878607B68184608371D
:103FF000BD4680BD685A0008E85A00089458000879
:10400000DC5800087C060020EC5800081459000811
:104010009800002098010020980200202DE9B0436C
:10402000ADF5896D00AF0023C7F8443407F13001C6
:104030004FF480624FF00003084600F0E9F84FF0BB
:1040400000024FF0000307F58761C1E9002351E04A
:10405000D7F838341946544800F052F900F014F9F2
:1040600007F13001384607F58763D3E90023FFF7EE
:10407000E0FCC7F8440400F021F94C4B1B685A1CC3
:104080004A490A604A4A12684A4941F82320D7F847
:104090004434002B15D1464B1B681946444B1B6812
:1040A000002B00DA0F331B111A46434B1B684348A1
:1040B00000F026F907F58763D3E9002313430DD1F8
:1040C00004E06FF00303C7F844341FE04FF004022C
:1040D0004FF0000307F58761C1E9002307F5876307
:1040E000D3E9002312EB020843EB030907F58763CA
:1040F000C3E9008907F58763D3E900234FF48060A3
:104100004FF00001994208BF9042A1D2274B0022F4
:104110001A602B4800F05AF82A4800F0F1F84FF0E6
:1041200000024FF0000307F58661C1E9002326E095
:10413000D7F830141D4B1B685A1C1C4802601D4ADE
:1041400052F823301A46204800F0DAF807F5866363
:10415000D3E90023134307D14FF004024FF00003CB
:1041600007F58661C1E9002307F58663D3E90023DB
:10417000941843EB030507F58663C3E9004507F58B
:104180008663D3E900234FF480604FF00001994229
:1041900008BF9042CCD2D7F84434184607F5896757
:1041A000BD46BDE8B08300BF405900089803002019
:1041B0009000002098020020940000205059000830
:1041C0006C590008745900088459000880B582B001
:1041D00000AF7860094B0A4A79680A4800F090F805
:1041E000094B196A084B5A6A074B9B6A074800F04B
:1041F00087F800BF0837BD4680BD00BF685A000879
:10420000E85A0008905900087C060020CC590008A4
:10421000B0B487B000AFF860C7E900234FF00002E8
:104220004FF00003C7E904230DE03A7C3B69F968CD
:104230000B443032D2B21A70D7E90423541C43F134
:104240000005C7E90445D7E90401D7E900239942ED
:1042500008BF9042E9D300BF00BF1C37BD46B0BCC9
:104260007047000080B483B000AF7860054B1B68D6
:104270000133044A136000BF0C37BD465DF8047B70
:10428000704700BF9C03002080B500AF084B0022A0
:104290001A60084B1B6800225A62FCF7BDFC0346FB
:1042A000054A13600348FEF707FB00BF80BD00BF4F
:1042B0009C0300202C0600209400002080B500AF55
:1042C0000B48FEF769FB0B4B1B681A04084B1B6875
:1042D0005B6A1343084A1360FCF79EFC0246074BD7
:1042E0001B68D31A054A1360034B1B68184680BD30
:1042F0002C0600209C030020900000209400002049
:104300000FB480B582B000AF07F114037B607A6808
:1043100039690A4800F0E2FB0848FBF759FF0346F9
:104320009AB2642305490648FEF73AFE00BF0837F3
:10433000BD46BDE8804004B0704700BFA003002028
:10434000A805002080B500AF34220021224800F0EB
:10435000B9F8214B4FF000621A601F4B1B681E4AD0
:1043600053601E4A1C4B9A601D4A1B4B9A611D4AA2
:10437000194BDA611C4A184BDA601C4A164B5A6119
:104380001B4A154B1A61144B9A68134B5B68D31A7E
:10439000114A1362104B5A690F4BDB68D31A0E4A4D
:1043A00053620D4BDA690C4B9B69D31A0A4A93622C
:1043B000094B5A6A084B9B6A1344074AD362064B5F
:1043C0001A69054B5B6A1A44034B1B68D31A024AED
:1043D000136300BF80BD00BF7C0600208857000823
:1043E00070000020C00600200000002070000020A7
:1043F0004C5C00081FB514461A46094B1B6805465D
:10440000D8684CB1074B0091CDE9013406492B46E1
:1044100000F014F800F02CFC044B1C46F3E700BF3E
:104420000C000020685B0008755B0008A35B0008B7
:10443000014B1868704700BF0C0000200EB403B594
:10444000014603AB054853F8042B0068019300F0C4
:104450006BF802B05DF804EB03B070470C0000206D
:1044600070B50D4D0D4C641BA4100026A64209D159
:104470000B4D0C4C01F07CF9641BA4100026A642E5
:1044800005D170BD55F8043B98470136EEE755F865
:10449000043B98470136F2E7445C0008445C00089E
:1044A000445C0008485C00080A44914200F1FF3374
:1044B00000D1704710B511F8014B03F8014F91423C
:1044C000F9D110BD02440346934200D1704703F86E
:1044D000011BF9E79368013B002B10B4936008DAE5
:1044E0009469A34201DB0A2903D15DF8044B00F073
:1044F000FFBA1368581C1060197008465DF8044B29
:104500007047F8B506460F461446D518AC4201D19F
:10451000002007E014F8011B3A463046FFF7DAFFA7
:10452000431CF3D1F8BD00002DE9F04F0D469DB0BE
:1045300014469846064618B183690BB900F0BAFCD8
:10454000894B9D421BD175686B6ED90705D4AB8929
:104550009A0502D4A86D00F04BFDAB891B0701D56D
:104560002B69EBB92946304600F014FBC0B16B6EE5
:10457000DC070ED54FF0FF301DB0BDE8F08F7B4B50
:104580009D4201D1B568DFE7794B9D4208BFF568D0
:10459000DAE7AB899805EDD4A86D00F02AFDE9E7CC
:1045A0000023099320238DF82930CDF80C80302387
:1045B000DFF8C0818DF82A304FF0010923469A4672
:1045C00013F8012B0AB1252AF9D1BAEB040B0BD051
:1045D0005B46224629463046FFF793FF013000F044
:1045E000AA80099A5A4409929AF80030002B00F0E8
:1045F000A28000234FF0FF32CDE905230AF1010A22
:10460000049307938DF853301A935446052214F8F7
:10461000011B5848FBF7E4FD049AD8B9D10644BF02
:1046200020238DF85330130744BF2B238DF85330CC
:104630009AF800302A2B15D0079A544600204FF0E4
:104640000A0C214611F8013B303B092B4ED9B0B181
:10465000079214E0A0EB080309FA03F31343049351
:10466000A246D2E7039B191D1B680391002BBBBF19
:104670005B4242F0020207930793B8BF049223788B
:104680002E2B0CD163782A2B35D1039B1A1D1B6866
:104690000392002BB8BF4FF0FF3302340593DFF8CD
:1046A000E4A0217803225046FBF79AFD40B1402355
:1046B000A0EB0A0003FA00F0049B034301340493C7
:1046C00014F8011B2C488DF828100622FBF788FDF2
:1046D00000283FD0294B1BBB039B073323F0070364
:1046E00008330393099B3B44099367E70CFB0232B1
:1046F0000C460120A5E700230134059319464FF02D
:104700000A0C204610F8012B303A092A03D9002B55
:10471000C5D00591C3E70CFB012104460123F0E756
:1047200003AB00932A46164B04A93046AFF3008032
:104730000746781CD6D16B6ED90705D4AB899A058C
:1047400002D4A86D00F055FCAB895B063FF512AFB3
:10475000099811E703AB00932A46094B04A9304698
:1047600000F080F8E4E700BFFC5B00081C5C000878
:10477000DC5B0008A85B0008B25B000800000000DA
:1047800003450008AE5B00082DE9F0471646994640
:104790008A680B69DDF820809342B8BF1346336006
:1047A00091F8432007460C460AB101333360236871
:1047B000990642BF336802333360256815F0060559
:1047C00006D104F1190AE36832689B1AAB4226DC71
:1047D00094F84320131E226818BF012392062BD49D
:1047E00004F1430249463846C04701301ED02368D1
:1047F000E568326803F00603042B08BFAD1AA3680E
:1048000022690CBF25EAE57500259342C4BF9B1AB7
:10481000ED1800261A34B5421AD1002008E0012311
:10482000524649463846C047013003D14FF0FF3069
:10483000BDE8F0870135C6E7E1185A1C302081F841
:104840004300224494F8451082F843100233C7E72E
:104850000123224649463846C0470130E6D001369A
:10486000D9E700002DE9FF470C469146277E0C99B9
:10487000782F80469A4604F1430207D8622F0AD85F
:10488000002F00F0D880582F00F0A38004F14206DA
:1048900084F842703AE0A7F16303152BF6D801A023
:1048A00050F823F0FD480008114900088D48000821
:1048B0008D4800088D4800088D48000811490008FF
:1048C0008D4800088D4800088D4800088D48000874
:1048D0001D4A000841490008FF4900088D480008AA
:1048E0008D4800083F4A00088D48000841490008EB
:1048F0008D4800088D480008074A00080B681A1DFB
:104900001B680A6004F1420684F842300123A3E0E8
:10491000256808682E0600F104030AD505680B60B7
:10492000002D03DA2D236D4284F843305E480A23BC
:1049300019E015F0400F05680B6018BF2DB2EFE7C6
:104940000B682568181D0860280601D51D6802E05F
:104950006906FBD51D8854486F2F0CBF08230A2316
:10496000002184F843106668A660002EA2BF21686B
:1049700021F0040121600DB9002E4DD01646B5FB83
:10498000F3F103FB1157C75D06F8017D2F46BB42CB
:104990000D46F4D9082B0BD12368DF0708D523690E
:1049A00061689942DEBF302306F8013C06F1FF360C
:1049B000921B2261CDF800A04B4603AA2146404637
:1049C000FFF7E2FE01304CD14FF0FF3004B0BDE8FC
:1049D000F087354884F8457023680E681F0656F83E
:1049E000045B0E6014D5D90744BF43F02003236055
:1049F0001DB9236823F0200323601023B0E7236848
:104A000043F0200323607823284884F84530E3E707
:104A10005E0648BFADB2E6E71646BBE70B68266800
:104A200060691D1D0D6035061B6801D5186002E028
:104A30007106FBD51880002323611646BAE70B6880
:104A40001A1D0A601E68626800213046FBF7C8FB29
:104A500008B1801B606063682361002384F84330E1
:104A6000A8E72369324649464046D0470130ABD0DB
:104A700023689B0713D4E068039B9842B8BF18468D
:104A8000A4E70123324649464046D04701309BD037
:104A90000135E36803995B1AAB42F2DCEBE70025D2
:104AA00004F11906F5E700BFB95B0008CA5B00080E
:104AB00000B59BB0009104916FF000410591029107
:104AC00005490391694600F03FFC009B00221A70E3
:104AD0001BB05DF804FB00BF0802FFFF13460A4647
:104AE000014602480068FFF7E3BF00BF0C0000204A
:104AF000F8B50E461446054618B183690BB900F0A7
:104B0000D9F9214B9C422BD16C68A369A360A3897E
:104B10001A072FD523696BB323692068C01A63690C
:104B2000F6B28342374604DC2146284600F02EF9CF
:104B300030BBA368013BA36023685A1C22601E702F
:104B400063690130834204D0A389DB0706D50A2EAE
:104B500004D12146284600F019F988B93846F8BD35
:104B60000A4B9C4201D1AC68CFE7094B9C4208BF7D
:104B7000EC68CAE72146284600F00CF80028CBD0A4
:104B80004FF0FF37EAE700BFFC5B00081C5C000841
:104B9000DC5B0008324B70B51D6806460C4625B13B
:104BA000AB6913B9284600F085F92E4B9C420FD112
:104BB0006C68A389B4F90C2019072CD4DD0611D434
:104BC0000923336042F04003A3814FF0FF303EE001
:104BD000254B9C4201D1AC68EBE7244B9C4208BFBB
:104BE000EC68E6E7580712D5616B41B104F1440364
:104BF000994202D0304600F07BFA00236363A38918
:104C000023F02403A3810023636023692360A38925
:104C100043F00803A38123694BB9A38903F42073EC
:104C2000B3F5007F03D02146304600F007FAA08993
:104C3000B4F90C2010F001030AD00023A3606369CB
:104C40005B42A361236943B910F08000BAD170BD03
:104C5000810758BF6369A360F4E70020F7E700BF4E
:104C60000C000020FC5B00081C5C0008DC5B0008FA
:104C700008B5062000F0A0FC0120FBF75BFE000059
:104C80008A892DE9F041054610070C4658D44B6837
:104C9000002B05DC0B6C002B02DC0020BDE8F08152
:104CA000E66A002EF9D0002312F480522F682B60A0
:104CB00032D0606DA3895A0705D56368C01A636B4B
:104CC0000BB1236CC01A00230246E66A216A28460B
:104CD000B047431CA38906D129681D292CD82A4A2C
:104CE000CA40D60728D500226260D9042269226012
:104CF00004D5421C01D12B6803B96065616B2F603C
:104D00000029CAD004F14403994202D0284600F099
:104D1000EFF900206063C1E7216A01232846B0470C
:104D2000411CC7D12B68002BC4D01D2B01D0162BE2
:104D300001D12F60B1E7A38943F04003A381ADE720
:104D40000F69002FA9D093070E6808BF4B690F6049
:104D500018BF0023A6EB07088B60B8F1000F9CDD9D
:104D6000216AA66A43463A462846B047002806DC30
:104D7000A38943F04003A3814FF0FF308EE707443F
:104D8000A8EB0008E9E700BF0100402038B50B6937
:104D900005460C4613B90025284638BD18B183696D
:104DA0000BB900F087F8144B9C421BD16C68B4F926
:104DB0000C30002BEFD0626ED00704D4990502D4DA
:104DC000A06D00F015F928462146FFF759FF636EE4
:104DD000DA070546E0D4A3899B05DDD4A06D00F079
:104DE00008F9D9E7054B9C4201D1AC68DFE7044BD9
:104DF0009C4208BFEC68DAE7FC5B00081C5C00081A
:104E0000DC5B0008002310B50446C0E90033C0E9AC
:104E10000433836081814366C2818361194608221D
:104E20005C30FFF74FFB054B6362054BA362054BFC
:104E3000E362054B2462236310BD00BFF1550008F7
:104E4000135600084B5600086F560008014900F041
:104E5000AFB800BF8D4D000870B54A1E6825554398
:104E60000E4605F1740100F093F9044640B10021AB
:104E7000C0E900160C30A06005F16802FFF722FBC4
:104E8000204670BD014800F0B3B800BFB80600204E
:104E9000014800F0AEB800BFB8060020014800F09D
:104EA000A7B800BFB3060020014800F0A2B800BFB9
:104EB000B306002010B50446FFF7F0FFA3691BB14D
:104EC000BDE81040FFF7F0BFC4E912332365134B70
:104ED000134A1B68A262A34204BF0123A3612046B8
:104EE00000F020F86060204600F01CF8A06020462A
:104EF00000F018F80022E06004216068FFF782FFEC
:104F0000A06801220921FFF77DFFE068022212213B
:104F1000FFF778FF0123A361D2E700BFA45B00087D
:104F20004D4E0008F8B50746FFF7ACFF1E4B1E6854
:104F3000B36913B93046FFF7BDFF4836D6E90134EF
:104F4000013B03D533680BB33668F7E7B4F90C506F
:104F5000D5B9164BE36004F15800656600F047F8D8
:104F6000FFF796FFC4E90155C4E904552560A56122
:104F70000822294604F15C00FFF7A4FAC4E90D55A4
:104F8000C4E912552046F8BD6834D9E704213846F3
:104F9000FFF762FF044630600028D5D1FFF778FFA5
:104FA0000C233B60EEE700BFA45B00080100FFFF9D
:104FB0002DE9F8430646884600F148040027D4E965
:104FC0000195B9F1010905D52468002CF7D13846BF
:104FD000BDE8F883AB89012B07D9B5F90E30013351
:104FE00003D029463046C04707436835E9E7704794
:104FF0007047704770B50E46B1F90E10002996B093
:1050000014461D4607DA00232B60B3891A0610D414
:105010004FF480630EE06A4600F050FB0028F2DB9C
:10502000019A02F47042A2F500535A425A412A6092
:10503000EEE740230020236016B070BD8B8973B566
:105040009D0706460C4607D504F1470323602361FC
:105050000123636102B070BD01AB6A46FFF7CAFF6E
:1050600000990546304600F093F848B9B4F90C3081
:105070009A05EFD423F0030343F00203A381E3E78F
:105080000D4BB362A389206043F08003A381009B92
:105090006361019B20615BB1B4F90E10304600F0F2
:1050A0001FFB28B1A38923F0030343F00103A3816D
:1050B000A0890543A581CDE74D4E0008884210B573
:1050C00001EB020402D98442234607D8431EA142C1
:1050D00008D011F8012B03F8012FF8E7024401462C
:1050E0008A4200D110BD13F8014D02F8014DF7E7D7
:1050F00037B5002948D051F8043C0190002BA1F1AC
:105100000404B8BFE41800F00DFB204A01981368AE
:10511000154633B96360146003B0BDE8304000F059
:1051200007BBA3420BD921686218934204BF1A68D7
:105130005B68636004BF521822602C60ECE71A467B
:105140005B680BB1A342FAD911685518A5420BD17F
:10515000246821445418A3421160DDD11C685B68A7
:10516000536021441160D7E702D90C230360D3E7D1
:10517000256861198B4204BF19685B68636004BFCE
:10518000491921605460C7E703B030BDA005002075
:10519000F8B5CD1C25F0030508350C2D38BF0C25BE
:1051A000002D064601DBA94203D90C233360002001
:1051B000F8BD00F0B7FA21490A6814469CB9204F9F
:1051C0003B6823B92146304600F0BEF938602946D5
:1051D000304600F0B9F9431C23D10C23336030462C
:1051E00000F0A6FAE3E723685B1B17D40B2B03D967
:1051F00023601C44256004E06368A2420CBF0B607E
:105200005360304600F094FA04F10B00231D20F0A7
:105210000700C21ACCD01B1AA350C9E72246646803
:10522000CCE7C41C24F00304A042E3D0211A30468A
:1052300000F08AF90130DDD1CFE700BFA0050020E2
:10524000A4050020F8B5074614460E4621B9BDE86E
:10525000F8401146FFF79CBF22B9FFF749FF2546EA
:105260002846F8BD00F06AFAA0420FD2214638461F
:10527000FFF78EFF05460028F2D031462246FFF7A1
:1052800013F931463846FFF733FFE9E73546E7E7DC
:105290002DE9F0478E689E4282460C4690461F4696
:1052A00038D88A8912F4906F32D025680969A5EB45
:1052B0000109656905EB450505EBD57501334B44DF
:1052C0006D109D4238BF1D46530531D52946FFF765
:1052D0005FFF064650B90C23CAF80030A38943F09B
:1052E0004003A3814FF0FF30BDE8F08721694A46B3
:1052F000FFF7DAF8A38923F4906343F08003A381D6
:10530000266165614E44A5EB09052660A5603E4611
:10531000BE4200D93E46324620684146FFF7CEFEE7
:10532000A36822689B1B3244A36022600020DBE755
:105330002A46FFF787FF06460028E1D1216950463B
:10534000FFF7D6FEC7E700002DE9F04F98468B899E
:105350001B069DB007460D4614460ED50B6963B972
:105360004021FFF715FF2860286120B90C233B601E
:105370004FF0FF30D1E040236B61002309932023DD
:105380008DF82930CDF80C803023DFF8A8818DF816
:105390002A304FF0010923469A4613F8012B0AB12F
:1053A000252AF9D1BAEB040B0BD05B4622462946DD
:1053B0003846FFF76DFF013000F0AA80099A5A4481
:1053C00009929AF80030002B00F0A28000234FF0E1
:1053D000FF32CDE905230AF1010A049307938DF802
:1053E00053301A935446052214F8011B5148FAF71A
:1053F000F7FE049AD8B9D00644BF20238DF8533065
:10540000110744BF2B238DF853309AF800302A2B14
:1054100015D0079A544600204FF00A0C214611F887
:10542000013B303B092B4ED9B0B1079214E0A0EB01
:10543000080309FA03F313430493A246D2E7039B3C
:10544000191D1B680391002BBBBF5B4242F0020297
:1054500007930793B8BF049223782E2B0CD163785F
:105460002A2B35D1039B1A1D1B680392002BB8BF52
:105470004FF0FF3302340593DFF8C8A021780322F0
:105480005046FAF7ADFE40B14023A0EB0A0003FA04
:1054900000F0049B03430134049314F8011B2648D5
:1054A0008DF828100622FAF79BFE002838D0234BEF
:1054B0001BBB039B073323F0070308330393099BAC
:1054C0003344099367E70CFB02320C460120A5E741
:1054D00000230134059319464FF00A0C204610F8BA
:1054E000012B303A092A03D9002BC5D00591C3E717
:1054F0000CFB012104460123F0E703AB00932A468D
:105500000F4B04A93846AFF30080421C0646D6D1A3
:10551000AB895B063FF52CAF09981DB0BDE8F08F55
:1055200003AB00932A46064B04A93846FFF79AF9C5
:10553000EBE700BFA85B0008B25B000800000000BA
:1055400091520008AE5B000838B5064D00230446B2
:1055500008462B60FBF766FA431C02D12B6803B1A7
:10556000236038BDBC0600201F2938B504460D460F
:1055700004D9162303604FF0FF3038BD426C12B1DE
:1055800052F821304BB9204600F030F82A46014647
:105590002046BDE8384000F017B8012B0AD0591C4E
:1055A00003D1162303600120E7E7002442F82540D9
:1055B000284698470020E0E7024B01461868FFF7AD
:1055C000D3BF00BF0C00002038B5074D00230446B0
:1055D000084611462B60FBF79DF9431C02D12B684E
:1055E00003B1236038BD00BFBC060020FBF78AB9B9
:1055F00010B50C46B1F90E1000F0A8F80028ABBFAA
:10560000636DA3891B1823F48053ACBF6365A3812A
:1056100010BD2DE9F0411F468B89DB0505460C4680
:10562000164605D5B1F90E100223002200F068F8E5
:10563000A389B4F90E1023F48053A38132463B466C
:105640002846BDE8F04100F017B810B50C46B1F996
:105650000E1000F055F8431CA38915BF606523F4B4
:10566000805343F48053A38118BFA38110BDB1F9C7
:105670000E1000F013B8000038B5074D0446084678
:10568000114600222A601A46FBF77BF9431C02D11F
:105690002B6803B1236038BDBC06002038B5064D29
:1056A0000023044608462B60FBF787F9431C02D110
:1056B0002B6803B1236038BDBC06002038B5074D08
:1056C00000230446084611462B60FBF782F9431C71
:1056D00002D12B6803B1236038BD00BFBC06002097
:1056E00038B5064D0023044608462B60FBF781F9C8
:1056F000431C02D12B6803B1236038BDBC060020D7
:1057000038B5074D04460846114600222A601A465D
:10571000FBF77AF9431C02D12B6803B1236038BD33
:10572000BC0600200148FFF763BC00BFB4060020A0
:105730000148FFF75EBC00BFB406002051F8043CEE
:10574000181F002BBCBF0B58C018704738B5074D49
:1057500004460846114600222A601A46FBF7F4F870
:10576000431C02D12B6803B1236038BDBC06002066
:10577000F8B500BFF8BC08BC9E467047F8B500BF3E
:08578000F8BC08BC9E4670470E
:1057880028286E622026203129203D3D20302920FE
:10579800262620286E62203E3D20342920262620F9
:1057A800286E62203C3D204D41585F4252414E4395
:1057B8004845532900000000433A2F55736572731A
:1057C8002F766173696C69692F4465736B746F70A8
:1057D8002F6D645F6C6573736F6E732F6461746192
:1057E8005F6E65745F7365632F6E6973745F6C7742
:1057F800635F62656E63686D61726B2F616C676F62
:10580800732F737061726B6C652F496D706C656D69
:10581800656E746174696F6E732F63727970746FDB
:105828005F686173682F6573636833383476312F26
:105838007265662F737061726B6C655F7265662E38
:105848006300000028253032782530327825303240
:105858007825303278202530327825303278253056
:105868003278253032782900696E7075743A0000F4
:10587800737061726B6C653A00000000737061723E
:105888006B6C6520696E763A000000000A0A0A0A05
:105898005374617274696E672E2E2E0A25730A4D31
:1058A800617920203120323032312031363A343299
:1058B8003A33370A4F7074696D697A6174696F6E2B
:1058C8003A204F300A416C676F726974686D3A20EC
:1058D80025730A004D656D6F727920757361676570
:1058E8003A200000546F74616C20464C4153483A8A
:1058F8002025366C754220546F74616C2052414DDE
:105908003A2025366C7542200A00000053656374FE
:10591800696F6E733A20746578742025366C754209
:1059280020646174612025366C754220627373208F
:1059380025366C75420A00006D73675F6C656E3AB8
:105948002536642000000000686173683A2531300C
:10595800642075733A253964206D733A25376420BD
:105968000A000000484153480000000048415348DD
:10597800546F745265733A2000000000682825644B
:1059880029203D20256420002573202573204D61A2
:105998007920203120323032312031363A34323ACF
:1059A8003337204F7074696D697A6174696F6E3A24
:1059B800204F3020416C676F726974686D3A2025FA
:1059C8007320000053656374696F6E733A207465C1
:1059D80078742025366C7520646174612025366CD6
:1059E80075206273732025366C7520000000000056
:1059F8000000000001020304060708090000000077
:105A080001020304A0860100400D0300801A06006D
:105A180000350C0040420F0080841E0000093D0044
:105A280000127A000024F40000366E010048E801F4
:105A3800006CDC026251E1B7805871BF56DAB438A5
:105A480038774E32EB8511BB577B7C4FC8A1BFCF4F
:105A58003D29B3C2737061726B6C655F72656600D5
:105A68004C57435F414C474F5F484153485F535041
:105A780041524B4C455F4553434833383456310007
:105A8800000000000000000000000000000000000E
:105A980000000000000000000000000000000000FE
:105AA80000000000000000000000000000000000EE
:105AB80000000000000000000000000000000000DE
:105AC80000000000000000000000000000000000CE
