:020000040800F2
:100000000020002015070008890500088F0500085A
:1000100000000000000000000000000000000000E0
:10002000000000000000000000000000950500082E
:1000300000000000000000009F050008A90500085E
:1000400065070008650700086507000865070008E0
:1000500065070008650700086507000865070008D0
:1000600065070008650700086507000865070008C0
:1000700065070008650700086507000865070008B0
:1000800065070008B90500080000000065070008C2
:100090006507000865070008650700086507000890
:1000A0006507000865070008650700086507000880
:1000B0006507000800000000650700080000000058
:1000C00010B5064C2378002B07D1054B002B02D02E
:1000D000044800E000BF0123237010BD8000002011
:1000E00000000000C44D0008044B10B5002B03D0E5
:1000F0000349044800E000BF10BDC04600000000F6
:1001000084000020C44D00080023C25C0133002A93
:10011000FBD1581E7047000003B4714649084000E7
:100120004900095E49008E4403BC70470022430821
:100130008B4274D303098B425FD3030A8B4244D3AF
:10014000030B8B4228D3030C8B420DD3FF220902F1
:1001500012BA030C8B4202D31212090265D0030BB0
:100160008B4219D300E0090AC30B8B4201D3CB03A6
:10017000C01A5241830B8B4201D38B03C01A5241E8
:10018000430B8B4201D34B03C01A5241030B8B42EA
:1001900001D30B03C01A5241C30A8B4201D3CB02D5
:1001A000C01A5241830A8B4201D38B02C01A5241BA
:1001B000430A8B4201D34B02C01A5241030A8B42BD
:1001C00001D30B02C01A5241CDD2C3098B4201D3D5
:1001D000CB01C01A524183098B4201D38B01C01A53
:1001E000524143098B4201D34B01C01A52410309CA
:1001F0008B4201D30B01C01A5241C3088B4201D379
:10020000CB00C01A524183088B4201D38B00C01A25
:10021000524143088B4201D34B00C01A5241411A4C
:1002200000D20146524110467047FFE701B5002059
:1002300000F006F802BDC0460029F7D076E7704707
:100240007047C04680B584B000AF7860074B5969ED
:10025000064B7A680A435A61044B5B697A6813401B
:10026000FB60FB68C046BD4604B080BD0010024084
:1002700080B500AF00F078FA00F010F800F0DCF87C
:1002800000F06EF800F0A8F803F014F8024B180024
:1002900000F0CEFAF8E7C04640420F0090B597B0A4
:1002A00000AF28243B19180030231A00002103F066
:1002B000C0FB1823FB18180010231A00002103F0BC
:1002C000B8FB3B1D180014231A00002103F0B1FBFA
:1002D00021007B1802221A607B180122DA607B1849
:1002E00010221A617B1802221A627B1800225A62BD
:1002F0007B18802212039A627B180022DA627B1834
:10030000180000F007FD031E01D000F09FF818212F
:100310007B1807221A607B1802225A607B18002281
:100320009A607B180022DA607B180021180001F027
:100330000BF8031E01D000F089F83B1D01221A6062
:100340003B1D00229A603B1D180001F04FF9031E6F
:1003500001D000F07BF8C046BD4617B090BD00004C
:1003600080B582B000AF3B00180008231A000021BE
:1003700003F05FFB154B164A1A60144B00225A60BB
:10038000124B00229A60114B124ADA600F4B002286
:100390009A610E4B180001F007FA031E01D000F01D
:1003A00055F83B0000221A603B0000225A603A00D8
:1003B000064B1100180001F07DFC031E01D000F077
:1003C00045F8C046BD4602B080BDC046400600208C
:1003D00000100040FFFF000080B500AF144B154A2D
:1003E0001A60134BE12252025A60114B00229A60AC
:1003F0000F4B0022DA600E4B00221A610C4B0C22CC
:100400005A610B4B00229A61094B0022DA61084BBA
:1004100000221A62064B00225A62054B180001F0B6
:10042000B7FC031E01D000F011F8C046BD4680BDE8
:10043000BC0500200038014080B500AF80239B023E
:100440001800FFF7FFFEC046BD4680BD80B500AF77
:1004500072B6C046FEE7000080B582B000AF0F4B19
:100460009A690E4B01210A439A610C4B9B69012248
:1004700013407B607B68094BDA69084B8021490592
:100480000A43DA61054BDA6980235B0513403B6060
:100490003B68C046BD4602B080BDC0460010024069
:1004A00080B584B000AF78607B681B680D4A9342CA
:1004B00013D10D4BDA690C4B10210A43DA610A4B58
:1004C000DB6910221340FB60FB6800220021112031
:1004D00000F07EFA112000F090FAC046BD4604B04C
:1004E00080BDC046001000400010024090B58BB0A7
:1004F00000AF786014243B19180014231A0000215F
:1005000003F097FA7B681B681D4A934233D11D4B59
:100510009A691C4B8021C9010A439A61194B9A6957
:100520008023DB0113403B613B69164B5A69154B35
:10053000802189020A435A61124B5A6980239B0227
:100540001340FB60FB683B19C022D2001A602100F7
:100550007B1802225A607B1800229A607B180322C3
:10056000DA607B1801221A617A189023DB051100EA
:10057000180000F05FFAC046BD460BB090BDC04603
:10058000003801400010024080B500AFFEE780B5A2
:1005900000AFFEE780B500AFC046BD4680BD80B568
:1005A00000AFC046BD4680BD80B500AF00F024F965
:1005B000C046BD4680BD000080B500AF034B1800AB
:1005C00001F0C2F9C046BD4680BDC04640060020CD
:1005D00080B586B000AFF860B9607A6000237B61B7
:1005E0000AE000E000BF0100BB685A1CBA60CAB252
:1005F0001A707B6901337B617A697B689A42F0DB10
:100600007B681800BD4606B080BD80B586B000AFDF
:10061000F860B9607A6000237B6109E0BB685A1C0E
:10062000BA601B78180000E000BF7B6901337B6172
:100630007A697B689A42F1DB7B681800BD4606B098
:1006400080BD80B582B000AF786001235B421800A6
:10065000BD4602B080BD80B582B000AF7860396021
:100660003B68802292015A6000231800BD4602B008
:1006700080BD80B582B000AF786001231800BD4610
:1006800002B080BD80B584B000AFF860B9607A6018
:1006900000231800BD4604B080BD000080B586B0C0
:1006A00000AF7860144A154BD31A7B617B693B61BC
:1006B000134B1B68002B02D1114B124A1A60104BCE
:1006C0001A687B68D3183A699A4207D203F05CF93A
:1006D00003000C221A6001235B4209E0084B1B68EF
:1006E000FB60074B1A687B68D218054B1A60FB68E1
:1006F0001800BD4606B080BD0020002000040000A8
:100700009C000020D006002080B500AFC046BD464A
:1007100080BD00000D4885460D480E490E4A002355
:1007200002E0D458C4500433C4188C42F9D30B4AA5
:100730000B4C002301E013600432A242FBD3FFF70D
:10074000E3FF03F027F9FFF793FDFEE70020002009
:10075000000000208000002044520008800000209B
:10076000D0060020FEE7000080B500AF074B1A68F6
:10077000064B10210A431A60002000F009F8FFF729
:100780006BFE00231800BD4680BDC046002002401D
:1007900090B583B000AF7860144B1C68144B1B7885
:1007A0001900FA239800FFF7C1FC0300190020008C
:1007B000FFF7BCFC0300180000F02FF9031E01D066
:1007C00001230FE07B68032B0BD8796801235B4280
:1007D0000022180000F0FCF8064B7A681A6000232B
:1007E00000E001231800BD4603B090BD00000020CA
:1007F000080000200400002080B500AF054B1B78E6
:100800001A00054B1B68D218034B1A60C046BD4640
:1008100080BDC046080000208806002080B500AFDB
:10082000024B1B681800BD4680BDC04688060020EC
:1008300080B584B000AF7860FFF7F0FF0300BB60C5
:100840007B68FB60FB68013305D00A4B1B781A00FC
:10085000FB689B18FB60C046FFF7E0FF0200BB6827
:10086000D31AFA689A42F7D8C046C046BD4604B0CB
:1008700080BDC0460800002080B582B000AF0200F5
:10088000FB1D1A70FB1D1B787F2B09D8FB1D1B78E5
:100890001A001F231A40044B012191400A001A60DC
:1008A000C046BD4602B080BD00E100E090B583B017
:1008B00000AF02003960FB1D1A70FB1D1B787F2BF7
:1008C00028D82F4AFB1D1B785BB29B08C0339B00C6
:1008D0009B58FA1D1278110003220A40D200FF2112
:1008E00091400A00D2431A4011003B689B01FF224D
:1008F0001A40FB1D1B78180003230340DB009A40BD
:100900001F48FB1D1B785BB29B080A43C0339B004A
:100910001A5031E01B4AFB1D1B7819000F230B40B6
:10092000083B9B0806339B00D31804331B68FA1D51
:100930001278110003220A40D200FF2191400A00E0
:10094000D2431A4011003B689B01FF221A40FB1D55
:100950001B78180003230340DB009A400948FB1D65
:100960001B781C000F232340083B9B080A430633D7
:100970009B00C31804331A60C046BD4603B090BD47
:1009800000E100E000ED00E080B582B000AF7860EB
:100990007B685A1E80235B049A4201D3012310E036
:1009A0000A4B7A68013A5A6001235B42032118001E
:1009B000FFF77CFF054B00229A60044B07221A6068
:1009C00000231800BD4602B080BDC04610E000E024
:1009D00080B584B000AFB9607A600F217B18021C2B
:1009E0001A70BA687B181B785BB211001800FFF709
:1009F0005DFFC046BD4604B080BD80B582B000AF8B
:100A00000200FB1D1A70FB1D1B785BB21800FFF77C
:100A100033FFC046BD4602B080BD80B582B000AF96
:100A200078607B681800FFF7AFFF03001800BD4631
:100A300002B080BD80B586B000AF78603960002319
:100A40007B614FE13B681B6801217A6991400A0094
:100A50001340FB60FB68002B00D140E13B685B6802
:100A6000012B0BD03B685B68022B07D03B685B68AF
:100A7000112B03D03B685B68122B30D17B689B68DD
:100A80003B617B695B0003229A401300DA433B69B8
:100A900013403B613B68DA687B695B009A40130056
:100AA0003A6913433B617B683A699A607B685B688B
:100AB0003B6101227B699A401300DA433B69134092
:100AC0003B613B685B681B0901221A407B699A40C5
:100AD00013003A6913433B617B683A695A607B684B
:100AE000DB683B617B695B0003229A401300DA43B9
:100AF0003B6913403B613B689A687B695B009A40A5
:100B000013003A6913433B617B683A69DA603B68DA
:100B10005B68022B03D03B685B68122B23D17B6997
:100B2000DA087B6808329200D3583B617B69072260
:100B300013409B000F229A401300DA433B69134095
:100B40003B613B681A697B6907210B409B009A4017
:100B500013003A6913433B617B69DA087B6808320A
:100B600092003969D1507B681B683B617B695B00EF
:100B700003229A401300DA433B6913403B613B6810
:100B80005B6803221A407B695B009A4013003A6954
:100B900013433B617B683A691A603B685A6880235B
:100BA0005B05134000D19AE0544B9A69534B0121E5
:100BB0000A439A61514B9B6901221340BB60BB6899
:100BC0004F4A7B699B0802339B009B583B617B69C2
:100BD000032213409B000F229A401300DA433B6923
:100BE00013403B617A689023DB059A4213D07B68FF
:100BF000444A93420DD07B68434A934207D07B68B6
:100C0000424A934201D1032306E0052304E0022374
:100C100002E0012300E000237A6903210A409200E8
:100C200093403A6913433B6135497B699B08023322
:100C30009B003A695A50364B1B683B61FB68DA43AC
:100C40003B6913403B613B685A6880235B02134059
:100C500003D03A69FB6813433B612D4B3A691A6034
:100C60002B4B5B683B61FB68DA433B6913403B619C
:100C70003B685A6880239B02134003D03A69FB68A3
:100C800013433B61224B3A695A60214B9B683B619D
:100C9000FB68DA433B6913403B613B685A68802339
:100CA0005B03134003D03A69FB6813433B61184B65
:100CB0003A699A60164BDB683B61FB68DA433B6933
:100CC00013403B613B685A6880239B03134003D069
:100CD0003A69FB6813433B610D4B3A69DA607B6903
:100CE00001337B613B681A687B69DA40131E00D0D0
:100CF000A8E6C046C046BD4606B080BD0010024012
:100D0000000001400004004800080048000C0048B2
:100D10000004014080B588B000AF78607B68002B8C
:100D200001D1012301E37B681B680122134000D13C
:100D30008DE0C34B5B680C221340042B0ED0C04BDC
:100D40005B680C221340082B16D1BD4B5A688023D8
:100D50005B021A4080235B029A420DD1B84B1A689D
:100D600080239B02134000D170E07B685B68002BFE
:100D700000D06BE00123D8E27B685B68012B07D1D0
:100D8000AF4B1A68AE4B802149020A431A602FE02C
:100D90007B685B68002B0CD1A94B1A68A84BA9494A
:100DA0000A401A60A64B1A68A54BA7490A401A6068
:100DB0001EE07B685B68052B0ED1A14B1A68A04B27
:100DC0008021C9020A431A609D4B1A689C4B8021FE
:100DD00049020A431A600BE0994B1A68984B9949EB
:100DE0000A401A60964B1A68954B97490A401A6058
:100DF0007B685B68002B14D0FFF710FD0300BB611C
:100E000008E0FFF70BFD0200BB69D31A642B01D980
:100E100003238AE28A4B1A6880239B021340F0D096
:100E200015E0FFF7FBFC0300BB6108E0FFF7F6FCF1
:100E30000200BB69D31A642B01D9032375E2804BEE
:100E40001A6880239B021340F0D100E0C0467B6803
:100E50001B680222134000D169E0794B5B680C22C9
:100E600013400BD0764B5B680C221340082B1CD12F
:100E7000734B5A6880235B02134016D1704B1B687A
:100E80000222134005D07B68DB68012B01D00123CF
:100E90004BE26B4B1B68F822934319007B681B697C
:100EA000DA00674B0A431A6041E07B68DB68002B7D
:100EB00024D0634B1A68624B01210A431A60FFF782
:100EC000ADFC0300BB6108E0FFF7A8FC0200BB69B2
:100ED000D31A022B01D9032327E2594B1B680222A4
:100EE0001340F1D0564B1B68F822934319007B68DE
:100EF0001B69DA00524B0A431A6018E0504B1A681B
:100F00004F4B01218A431A60FFF788FC0300BB6145
:100F100008E0FFF783FC0200BB69D31A022B01D95A
:100F2000032302E2464B1B6802221340F1D17B6887
:100F30001B680822134036D07B68DB69002B19D070
:100F40003F4B5A6A3E4B01210A435A62FFF766FC47
:100F50000300BB6108E0FFF761FC0200BB69D31A24
:100F6000022B01D90323E0E1354B5B6A02221340D7
:100F7000F1D018E0324B5A6A314B01218A435A6250
:100F8000FFF74CFC0300BB6108E0FFF747FC0200E1
:100F9000BB69D31A022B01D90323C6E1284B5B6A34
:100FA00002221340F1D17B681B680422134000D158
:100FB000B4E01F203B1800221A70214BDA6980230D
:100FC0005B05134010D11E4BDA691D4B802149058A
:100FD0000A43DA611A4BDA6980235B051340FB6030
:100FE000FB683B1801221A70184B1A6880235B00BB
:100FF00013401AD1154B1A68144B802149000A433B
:101000001A60FFF70BFC0300BB6108E0FFF706FC6A
:101010000200BB69D31A642B01D9032385E10B4B72
:101020001A6880235B001340F0D07B689B68012B1B
:101030000ED1034B1A6A024B01210A431A6235E0B2
:1010400000100240FFFFFEFFFFFFFBFF00700040AB
:101050007B689B68002B0CD1B64B1A6AB54B0121FB
:101060008A431A62B34B1A6AB24B04218A431A624A
:101070001CE07B689B68052B0CD1AE4B1A6AAD4B0C
:1010800004210A431A62AB4B1A6AAA4B01210A4394
:101090001A620BE0A74B1A6AA64B01218A431A6217
:1010A000A44B1A6AA34B04218A431A627B689B688B
:1010B000002B14D0FFF7B2FB0300BB6109E0FFF780
:1010C000ADFB0200BB69D31A9B4A934201D90323AB
:1010D0002BE1984B1B6A02221340F0D013E0FFF77C
:1010E0009DFB0300BB6109E0FFF798FB0200BB69B1
:1010F000D31A914A934201D9032316E18D4B1B6AFF
:1011000002221340F0D11F23FB181B78012B05D1BD
:10111000884BDA69874B89490A40DA617B681B682A
:101120001022134063D07B685B69012B2AD1814B6D
:101130005A6B804B04210A435A637E4B5A6B7D4B9A
:1011400001210A435A63FFF769FB0300BB6108E012
:10115000FFF764FB0200BB69D31A022B01D90323FA
:10116000E3E0744B5B6B02221340F1D0714B5B6B7D
:10117000F822934319007B689B69DA006D4B0A43A0
:101180005A6334E07B685B69053311D1694B5A6B54
:10119000684B04218A435A63664B5B6BF822934386
:1011A00019007B689B69DA00624B0A435A631EE0B0
:1011B000604B5A6B5F4B04210A435A635D4B5A6B79
:1011C0005C4B01218A435A63FFF728FB0300BB6194
:1011D00008E0FFF723FB0200BB69D31A022B01D9F9
:1011E0000323A2E0534B5B6B02221340F1D17B68D7
:1011F0001B6A002B00D197E04E4B5B680C2213401A
:10120000082B00D16BE07B681B6A022B4CD1494B49
:101210001A68484B4A490A401A60FFF7FFFA030070
:10122000BB6108E0FFF7FAFA0200BB69D31A022B90
:1012300001D9032379E03F4B1A6880239B041340B4
:10124000F0D13C4BDB6A0F22934319007B68DA6ACA
:10125000384B0A43DA62374B5B683A4A134019004D
:101260007B689A6A7B685B6A1A43324B0A435A600E
:10127000304B1A682F4B802149040A431A60FFF74C
:10128000CDFA0300BB6108E0FFF7C8FA0200BB69B2
:10129000D31A022B01D9032347E0264B1A68802377
:1012A0009B041340F0D03FE0224B1A68214B2449A5
:1012B0000A401A60FFF7B2FA0300BB6108E0FFF7CB
:1012C000ADFA0200BB69D31A022B01D903232CE02B
:1012D000184B1A6880239B041340F0D124E07B68EC
:1012E0001B6A012B01D101231FE0124B5B687B615C
:1012F000104BDB6A3B617A6980235B021A407B6892
:101300005B6A9A420ED13B690F221A407B68DB6A06
:101310009A4207D17A69F0239B031A407B689B6A43
:101320009A4201D0012300E000231800BD4608B016
:1013300080BDC0460010024088130000FFFFFFEF91
:10134000FFFFFFFEFFFFC2FF80B584B000AF7860F3
:1013500039607B68002B01D10123B3E05B4B1B6834
:10136000012213403A689A4211D9584B1B68012256
:1013700093431900554B3A680A431A60534B1B6854
:10138000012213403A689A4201D001239AE07B6817
:101390001B680222134015D07B681B68042213408F
:1013A00006D04B4B5A684A4BE021C9000A435A60A9
:1013B000474B5B68F022934319007B689A68444B63
:1013C0000A435A607B681B680122134040D07B6847
:1013D0005B68012B07D13E4B1A6880239B021340A8
:1013E00014D101236EE07B685B68022B07D1384B78
:1013F0001A6880239B04134008D1012362E0344B18
:101400001B680222134001D101235BE0304B5B6873
:101410000322934319007B685A682D4B0A435A6094
:10142000FFF7FCF90300FB6009E0FFF7F7F90200A2
:10143000FB68D31A274A934201D9032342E0244B85
:101440005B680C221A407B685B689B009A42ECD177
:101450001E4B1B68012213403A689A4211D21B4B63
:101460001B68012293431900184B3A680A431A601B
:10147000164B1B68012213403A689A4201D001239F
:1014800020E07B681B680422134009D0104B5B6886
:10149000114A134019007B68DA680D4B0A435A6001
:1014A00000F020F801000A4B5B681B090F22134073
:1014B0000A4AD35C0A00DA40094B1A600020FFF7A1
:1014C00067F900231800BD4604B080BD002002402B
:1014D0000010024088130000FFF8FFFFEC4F0008E7
:1014E0000000002090B58FB000AF1423FB182B4AEA
:1014F00013CA13C312681A603B1D294A13CA13C3C7
:1015000012681A600023FB620023BB6200237B6326
:1015100000237B6200233B63224B5B68FB62FB6A18
:101520000C221340042B02D0082B03D02DE01E4BBD
:101530003B632DE0FB6A9B0C0F2213401422BA1868
:10154000D35C7B62174BDB6A0F2213403A1DD35CDE
:10155000BB62FA6A80235B02134009D0B96A124861
:10156000FEF7E4FD03001A007B6A53437B6309E046
:10157000796A0A005201521A93019B1ADB005B1828
:101580001B027B637B6B3B6302E0074B3B63C04604
:101590003B6B1800BD460FB090BDC046DC4D000847
:1015A000EC4D00080010024000127A0080B500AF38
:1015B000024B1B681800BD4680BDC04600000020DD
:1015C00080B500AFFFF7F2FF0100064B5B681B0A16
:1015D00007221340044AD35CD9400B001800BD46D3
:1015E00080BDC04600100240FC4F000880B586B0A8
:1015F00000AF786000233B610023FB607B681A68C2
:1016000080235B02134000D18EE017203B1800229C
:101610001A705F4BDA6980235B05134010D15C4B75
:10162000DA695B4B802149050A43DA61584BDA6974
:1016300080235B051340BB60BB683B1801221A7016
:10164000544B1A6880235B0013401AD1514B1A681F
:10165000504B802149000A431A60FFF7DFF803006E
:101660003B6108E0FFF7DAF802003B69D31A642B0C
:1016700001D9032387E0474B1A6880235B0013409E
:10168000F0D0434B1A6AC0239B001340FB60FB68F9
:10169000002B34D07B685A68C0239B001340FA6843
:1016A0009A422CD03A4B1B6A3B4A1340FB60384BA2
:1016B0001A6A374B802149020A431A62344B1A6A6C
:1016C000334B36490A401A62314BFA681A62FB689A
:1016D0000122134013D0FFF7A1F803003B6109E09A
:1016E000FFF79CF802003B69D31A2D4A934201D9B7
:1016F000032348E0264B1B6A02221340F0D0244B00
:101700001B6A254A134019007B685A68204B0A431C
:101710001A621723FB181B78012B05D11C4BDA69C1
:101720001B4B20490A40DA617B681B680122134089
:1017300009D0174B1B6B0322934319007B689A68EF
:10174000134B0A431A637B681B682022134009D09D
:101750000F4B1B6B1022934319007B68DA680C4B0C
:101760000A431A637B681A688023DB00134009D0A0
:10177000074B1B6B4022934319007B681A69044B8B
:101780000A431A6300231800BD4606B080BDC04658
:101790000010024000700040FFFCFFFFFFFFFEFF53
:1017A00088130000FFFFFFEF80B582B000AF7860C4
:1017B0007B68002B01D1012342E07B683D229B5CCA
:1017C000DBB2002B07D17B683C22002199547B6857
:1017D0001800FEF765FE7B683D22022199547B6864
:1017E0001A687B6804331900100000F0E3F97B6885
:1017F0004622012199547B683E22012199547B683D
:101800003F22012199547B684022012199547B6831
:101810004122012199547B684222012199547B681D
:101820004322012199547B684422012199547B6809
:101830004522012199547B683D22012199540023BE
:101840001800BD4602B080BD80B584B000AF78609E
:101850007B683D229B5CDBB2012B01D001233BE086
:101860007B683D22022199547B681B68DA687B689B
:101870001B6801210A43DA607B681B68184A93429F
:101880000FD07B681A688023DB059A4209D07B68F9
:101890001B68144A934204D07B681B68124A934227
:1018A00011D17B681B689B6807221340FB60FB68B3
:1018B000062B10D07B681B681A687B681B680121A7
:1018C0000A431A6007E07B681B681A687B681B681C
:1018D00001210A431A6000231800BD4604B080BDF0
:1018E000002C0140000400400040014080B582B05F
:1018F00000AF78607B681B68DA687B681B68012131
:101900008A43DA607B681B681B6A0D4A13400DD15D
:101910007B681B681B6A0B4A134007D17B681B68F6
:101920001A687B681B6801218A431A607B683D2224
:101930000121995400231800BD4602B080BDC04665
:10194000111100004404000080B582B000AF78603F
:101950007B681B681B6902221340022B24D17B6821
:101960001B68DB6802221340022B1DD17B681B68B9
:10197000032252421A617B6801221A777B681B6836
:101980009B690322134004D07B68180000F0FAF82A
:1019900007E07B68180000F0EDF87B68180000F0A5
:1019A000F9F87B6800221A777B681B681B690422A0
:1019B0001340042B25D17B681B68DB68042213408D
:1019C000042B1ED17B681B68052252421A617B687A
:1019D00002221A777B681B689A69C0239B00134018
:1019E00004D07B68180000F0CDF807E07B68180091
:1019F00000F0C0F87B68180000F0CCF87B6800228B
:101A00001A777B681B681B6908221340082B24D1B6
:101A10007B681B68DB6808221340082B1DD17B689C
:101A20001B68092252421A617B6804221A777B687C
:101A30001B68DB690322134004D07B68180000F0A8
:101A4000A1F807E07B68180000F094F87B681800A4
:101A500000F0A0F87B6800221A777B681B681B697E
:101A600010221340102B25D17B681B68DB681022E5
:101A70001340102B1ED17B681B68112252421A6141
:101A80007B6808221A777B681B68DA69C0239B0091
:101A9000134004D07B68180000F074F807E07B68FE
:101AA000180000F067F87B68180000F073F87B6896
:101AB00000221A777B681B681B6901221340012BE7
:101AC0000FD17B681B68DB6801221340012B08D112
:101AD0007B681B68022252421A617B68180001F081
:101AE00063FE7B681B681B6980221340802B0FD12B
:101AF0007B681B68DB6880221340802B08D17B68E1
:101B00001B68812252421A617B68180000F038F984
:101B10007B681B681B6940221340402B0FD17B68F8
:101B20001B68DB6840221340402B08D17B681B6890
:101B3000412252421A617B68180000F033F87B683A
:101B40001B681B6920221340202B0FD17B681B6868
:101B5000DB6820221340202B08D17B681B682122E0
:101B600052421A617B68180000F002F9C046BD4677
:101B700002B080BD80B582B000AF7860C046BD467F
:101B800002B080BD80B582B000AF7860C046BD466F
:101B900002B080BD80B582B000AF7860C046BD465F
:101BA00002B080BD80B582B000AF7860C046BD464F
:101BB00002B080BD80B584B000AF786039607B68CA
:101BC0001B68FB607B68344A934208D07A688023A4
:101BD000DB059A4203D07B68304A934208D1FB6808
:101BE00070229343FB603B685B68FA681343FB60B9
:101BF0007B68294A934218D07A688023DB059A4291
:101C000013D07B68254A93420FD07B68244A9342C5
:101C10000BD07B68234A934207D07B68224A9342C9
:101C200003D07B68214A934208D1FB68204A1340C5
:101C3000FB603B68DB68FA681343FB60FB6880224B
:101C400093431A003B685B691343FB607B68FA6847
:101C50001A603B689A687B68DA623B681A687B683E
:101C60009A627B680C4A93420BD07B680D4A934280
:101C700007D07B680C4A934203D07B680B4A93429F
:101C800003D13B681A697B681A637B6801225A6139
:101C9000C046BD4604B080BD002C01400004004099
:101CA0000020004000400140004401400048014045
:101CB000FFFCFFFF80B584B000AF786039607B68BF
:101CC0003C229B5C012B01D1022347E07B683C2234
:101CD000012199547B683D22022199547B681B683D
:101CE0005B68FB607B681B689B68BB60FB6870225D
:101CF0009343FB603B681B68FA681343FB607B6897
:101D00001B68FA685A607B681B68164A93420FD0BA
:101D10007B681A688023DB059A4209D07B681B68C0
:101D2000114A934204D07B681B68104A93420CD13D
:101D3000BB6880229343BB603B685B68BA6813430F
:101D4000BB607B681B68BA689A607B683D22012192
:101D500099547B683C220021995400231800BD4609
:101D600004B080BD002C0140000400400040014050
:101D700080B582B000AF7860C046BD4602B080BD7D
:101D800080B582B000AF7860C046BD4602B080BD6D
:101D900080B582B000AF78607B68002B01D1012351
:101DA00044E07B689B6F002B07D17B687422002185
:101DB00099547B681800FEF799FB7B6824229A6788
:101DC0007B681B681A687B681B6801218A431A605C
:101DD0007B68180000F0DAF80300012B01D1012321
:101DE00024E07B685B6A002B03D07B68180000F05E
:101DF0000DFA7B681B685A687B681B680D490A40AE
:101E00005A607B681B689A687B681B682A218A4332
:101E10009A607B681B681A687B681B6801210A430B
:101E20001A607B68180000F0A5FA03001800BD4690
:101E300002B080BDFFB7FFFF80B58AB002AFF86087
:101E4000B9603B60BB1D1A80FB689B6F202B00D0E4
:101E500096E0BB68002B03D0BB1D1B88002B01D173
:101E600001238EE0FB689A6880235B019A4209D1C6
:101E7000FB681B69002B05D1BB680122134001D010
:101E800001237EE0FB6874229B5C012B01D10223BD
:101E900077E0FB68742201219954FB6880220021BD
:101EA0009950FB6821229A67FEF7B8FC03007B611A
:101EB000FB68BA1D502112885A52FB68BA1D522184
:101EC00012885A52FB689A6880235B019A4208D1B3
:101ED000FB681B69002B04D10023FB61BB68BB615D
:101EE00003E0BB68FB610023BB61FB687422002137
:101EF00099542DE07A69F8683B680093130000223A
:101F0000802100F07FFA031E01D0032339E0FB6932
:101F1000002B0BD1BB691A88FB681B68D205D20D58
:101F200092B21A85BB690233BB6108E0FB691A787B
:101F3000FB681B6892B21A85FB690133FB61FB6881
:101F400052229B5A9BB2013B99B2FB685222995292
:101F5000FB6852229B5A9BB2002BCBD17A69F8685E
:101F60003B68009313000022402100F04BFA031E4F
:101F700001D0032305E0FB6820229A67002300E0DC
:101F800002231800BD4608B080BD000080B588B0AF
:101F900000AF78601E23FB1800221A707B689A68D5
:101FA0007B681B691A437B685B691A437B68DB6942
:101FB00013437B617B681B681B688D4A13401900C3
:101FC0007B681B687A690A431A607B681B685B68D8
:101FD000884A134019007B68DA687B681B680A43EB
:101FE0005A607B689B697B617B681B6A7A691343D3
:101FF0007B617B681B689B687F4A134019007B6884
:102000001B687A690A439A607B681B687B4A934223
:1020100027D17B4B1B6B03221340032B0DD01BD806
:10202000022B14D018D8002B02D0012B0AD013E0B9
:102030001F23FB1800221A7021E01F23FB18022225
:102040001A701CE01F23FB1804221A7017E01F23CC
:10205000FB1808221A7012E01F23FB1810221A70B6
:102060000DE07B681B68674A934204D11F23FB186D
:1020700000221A7003E01F23FB1810221A707B68DD
:10208000DA6980231B029A425DD11F23FB181B785B
:10209000082B15D018DC042B0DD015DC002B02D03A
:1020A000022B05D010E0FFF78BFA0300BB6112E0B2
:1020B000554BBB610FE0FFF715FA0300BB610AE067
:1020C00080231B02BB6106E00023BB611E23FB18BB
:1020D00001221A70C046BB69002B00D17BE0BB69AE
:1020E0005A007B685B685B08D2187B685B681900E4
:1020F0001000FEF71BF803009BB23B613B690F2BFE
:102100001CD93A6980235B029A4217D23B699AB282
:102110000E203B180F218A431A803B695B089BB253
:102120000722134099B23B183A1812880A431A80C2
:102130007B681B683A181288DA604CE01E23FB1893
:1021400001221A7047E01F23FB181B78082B15D0BB
:1021500018DC042B0DD015DC002B02D0022B05D08F
:1021600010E0FFF72DFA0300BB6112E0264BBB61C4
:102170000FE0FFF7B7F90300BB610AE080231B0201
:10218000BB6106E00023BB611E23FB1801221A700D
:10219000C046BB69002B1ED07B685B685A08BB69D0
:1021A000D2187B685B6819001000FDF7BFFF0300C1
:1021B0009BB23B613B690F2B09D93A6980235B02D3
:1021C0009A4204D27B681B683A69DA6003E01E23F6
:1021D000FB1801221A707B6800225A667B68002275
:1021E0009A661E23FB181B781800BD4608B080BDF8
:1021F000F369FFFFFFCFFFFFFFF4FFFF003801404F
:10220000001002400044004000127A0080B582B005
:1022100000AF78607B685B6A012213400BD07B685B
:102220001B685B684A4A134019007B689A6A7B689E
:102230001B680A435A607B685B6A022213400BD01A
:102240007B681B685B68434A134019007B68DA6A45
:102250007B681B680A435A607B685B6A04221340F0
:102260000BD07B681B685B683B4A134019007B6896
:102270001A6B7B681B680A435A607B685B6A08229A
:1022800013400BD07B681B685B68344A134019000D
:102290007B685A6B7B681B680A435A607B685B6A81
:1022A000102213400BD07B681B689B682C4A13409C
:1022B00019007B689A6B7B681B680A439A607B688D
:1022C0005B6A202213400BD07B681B689B68254A01
:1022D000134019007B68DA6B7B681B680A439A60BD
:1022E0007B685B6A402213401DD07B681B685B687B
:1022F0001D4A134019007B681A6C7B681B680A43EF
:102300005A607B681A6C80235B039A420BD17B680E
:102310001B685B68154A134019007B685A6C7B6820
:102320001B680A435A607B685B6A802213400BD0AB
:102330007B681B685B680E4A134019007B689A6CC7
:102340007B681B680A435A60C046BD4602B080BD28
:10235000FFFFFDFFFFFFFEFFFFFFFBFFFF7FFFFF14
:10236000FFEFFFFFFFDFFFFFFFFFEFFFFFFF9FFF1D
:10237000FFFFF7FF80B586B002AF78607B688022F0
:1023800000219950FEF74AFA0300FB607B681B6846
:102390001B6808221340082B0CD1FB688022910394
:1023A0007868174A0092002200F02CF8031E01D032
:1023B000032321E07B681B681B6804221340042B65
:1023C0000CD1FB688022D10378680D4A009200226C
:1023D00000F018F8031E01D003230DE07B682022D3
:1023E0009A677B682022DA677B6800221A667B681E
:1023F00074220021995400231800BD4604B080BD0A
:10240000FFFFFF0180B584B000AFF860B9603B60AA
:10241000FB1D1A705EE0BB6901335BD0FEF7FEF96D
:1024200002003B68D31ABA699A4202D3BB69002BF7
:102430001BD1FB681B681A68FB681B682F490A40A0
:102440001A60FB681B689A68FB681B6801218A4355
:102450009A60FB6820229A67FB682022DA67FB6893
:10246000742200219954032344E0FB681B681B6815
:10247000042213402ED0FB681B68DA6980231B01FD
:102480001A4080231B019A4224D1FB681B688022DA
:1024900012011A62FB681B681A68FB681B681749FF
:1024A0000A401A60FB681B689A68FB681B68012178
:1024B0008A439A60FB6820229A67FB682022DA67C9
:1024C000FB68802220219950FB68742200219954D6
:1024D00003230FE0FB681B68DB69BA681340BA6826
:1024E000D31A5A425341DBB21A00FB1D1B789A42A1
:1024F00091D000231800BD4604B080BD5FFEFFFFF1
:10250000B0B582B000AF05000C0010001900FB1D33
:102510002A1C1A70BB1D221C1A707B1D021C1A700B
:102520003B1D0A1C1A70FB1D1B78002B06D0BB1D1F
:102530001B78002B02D07B1D1B7811E0FB1D1B7844
:10254000002B02D03B1D1B780AE0BB1D1B78002B23
:1025500003D01823FB181B7802E01C23FB181B7800
:102560001800BD4602B0B0BD80B584B000AFF860C1
:10257000B9607A603B607A68B968FB68180001F05E
:102580004FFAFA687B68D318BA693968180001F005
:1025900047FAC046BD4604B080BD80B586B000AFE6
:1025A000F860B9607A603B6000237B6110E0BA6834
:1025B0007B69D31819787A687B69D3181A78F86818
:1025C0007B69C3184A40D2B21A707B6901337B61C0
:1025D0007A693B689A42EAD3C046C046BD4606B017
:1025E00080BD80B582B000AF78600A00FB1C1A7015
:1025F0007B681F331B785AB2FB1C1B785B015BB2F4
:1026000053405AB27B681F33D2B21A70C046BD46DF
:1026100002B080BD80B586B000AFF860B9607A6066
:102620001323FB18BA6812781A7000237B6117E035
:10263000BA687B69D3181B785B08DBB25AB27B6936
:102640000133B968CB181B78DB015BB2134359B275
:10265000FA687B69D318CAB21A707B6901337B614F
:102660007B68013B7A699A42E2D3BA687B69D318E6
:102670001B785B08DBB25AB21323FB181B78DB0113
:102680005BB2134359B27B68013BFA68D318CAB2F4
:102690001A70C046BD4606B080BD80B588B000AF98
:1026A000F860B9607A603B60BB68BB61BB680233AD
:1026B0007B6110203B1800221A80B9693B18022266
:1026C0001800FFF7A7FF0023FB6110E07A69FB69A0
:1026D000D31819787A68FB69D3181A78F868FB69F7
:1026E000C3184A40D2B21A70FB690133FB61FA6920
:1026F0003B689A4215D2FB69012BE7D911E0FB69CF
:10270000023B1022BA18D15C7A68FB69D3181A7898
:10271000F868FB69C3184A40D2B21A70FB690133EA
:10272000FB61FA693B689A42E9D3C046C046BD46A0
:1027300008B080BD80B584B000AFF860B9607A6041
:102740003B603B687A68F968B868FFF7A6FFBB6929
:10275000002B06D13B687A68F968F868FFF71DFF1F
:1027600005E03B68BA68F968F868FFF716FFC046ED
:10277000BD4604B080BDB0B588B000AFF860B960A8
:102780003A607B60FB68BB613A687B68032000218C
:1027900012184B41990794080C439D0823007B6154
:1027A0000023FB610FE0BB69180000F0FFFCFB6930
:1027B0009B00BA68D218B969B8690423FFF7EDFE27
:1027C000FB690133FB617B69013BFA699A42EAD3F9
:1027D000BB69180000F0EAFC3A68FB699B00D31A59
:1027E0003B61FB699B00BA68D2183B69B969B8695B
:1027F000FFF7D3FE3B69032B0AD8BA693B69D318AC
:102800001A78B9693B69CB1801214A40D2B21A70D3
:102810003023FB181A78BB6911001800FFF7E1FE9E
:10282000C046BD4608B0B0BDB0B58AB002AFF860D2
:10283000B9607A60FB68BB613A6B7B6B0320002157
:1028400012184B41990794080C439D0823007B61A3
:102850000023FB6114E0BB69180000F0A7FCFB69D2
:102860009B00BA68D118FB699B007A68D218B869D6
:10287000FB6B00930423FFF75DFFFB690133FB61F2
:102880007B69013BFA699A42E5D3BB69180000F005
:102890008DFC3A6BFB699B00D31A3B61FB699B0083
:1028A000BA68D118FB699B007A68D2183C69B8698C
:1028B000FB6B00932300FFF73DFF3B69032B0AD816
:1028C000BA693B69D3181A78B9693B69CB180121F9
:1028D0004A40D2B21A703823FB181A78BB6911002B
:1028E0001800FFF77EFEC046BD4608B0B0BD80B5FB
:1028F00084B000AF786039601023FB600FE03B6864
:10290000180000F053FC39687B681022180001F0B1
:1029100087F87B6810337B60FB68103BFB60FB68CB
:10292000102BECD83B68180000F040FCFA683968BE
:102930007B68180001F074F8C046BD4604B080BD45
:10294000F0B59BB004AF78613961FA607B697B6553
:102950003B6F7A69D3183B65FB68FB64BB6FBB6454
:10296000842308229446BC4463441B687B64882308
:1029700008229446BC4463441B683B641426082226
:10298000BB189B1900221A6004331C220021180076
:1029900001F04FF83B6C796C0822B81880191022AE
:1029A00000921022FFF7E0FD8023FB181B688421B2
:1029B00079180A68134318D13B6F7A6F134314D107
:1029C00008243B199B1901211800FFF70AFE3B1947
:1029D0009A193B6D11001800FFF789FF3969102221
:1029E00000230A604B60002393E03A6F7B6F134330
:1029F0005A1E9341D8B28026BB191B68032213408C
:102A00003B608423F9180B68002213407B603A680E
:102A10007B68110019430B005A425341D9B2372346
:102A20000822BA18D6180423019303230093022323
:102A30000122FFF765FD030033708026B9190A688B
:102A40008423F9180B6813435A1E9341D8B23B6F85
:102A5000032213401C007B6F002213401D00230043
:102A60002B435A425341D9B2362208243C19A418A8
:102A7000062301930523009302230122FFF740FD63
:102A800003002370B9190B688422BA181268134323
:102A900012D0BB191A685B68BC6C142008218C46E4
:102AA000BC44604437210825AC46BC4461440978E5
:102AB00000912100FFF75FFE3B6F7A6F134315D043
:102AC000FC6C796D14230822BA18D01800230393E4
:102AD000362308229446BC4463441B7802933A6F21
:102AE0007B6F009201932200FFF79EFE14230822C1
:102AF000BA18D2183B6D11001800FFF7F8FE3A6FB4
:102B00007B6F1020002112184B4139690A604B601D
:102B100000231800BD4617B0F0BDF0B5A1B004AF5A
:102B200078613961FA60BB600023FB66BB68BB66F5
:102B3000802608217B189B191B68103BBA68D318A4
:102B40007B66882308229446BC4463441B683B662A
:102B5000982308229446BC4463441B68FB659C236D
:102B600008229446BC4463441B68BB6524230822A6
:102B70009446BC44634400221A6004331C220021A2
:102B8000180000F056FF142308229446BC44634406
:102B900000221A6004330C220021180000F049FFC3
:102BA000842208217B189B181B68002B0CD17B18F2
:102BB0009B181B68002B04D17B189B191B680F2BDB
:102BC00002D801235B4219E1802308229446BC44C9
:102BD00063441A685B6810204042C11712184B41C9
:102BE0003A657B65BB6DF96D24260822B8188019FB
:102BF000102200921022FFF7B7FC902308218C4688
:102C0000BC4463441B68942208218C46BC44624443
:102C10001268134326D13B6D7A6D134322D10825E8
:102C20007B199B1901211800FFF7DBFC7B199A190E
:102C300014247B191B1911001800FFF758FE796E38
:102C40007B191B191022180000F0DCFE031E02D0B5
:102C500001235B42D2E03969002200230A604B6005
:102C60000023CBE03A6D7B6D13435A1E9341D8B2DB
:102C7000902608217B189B191B68032213403B6098
:102C800094230E007A18D2181368002219001140FC
:102C900079603A687B6811001A0011430B005A42B0
:102CA0005341D9B24722BB199E1804230193032331
:102CB000009302230122FFF723FC030033709026C8
:102CC00008217B189819026894237818C0180368A3
:102CD00013435A1E9341D8B23B6D032213401C008C
:102CE0007B6D002213401D0023002B435A425341A9
:102CF000D9B2462408239C46BC446444062301936D
:102D00000523009302230122FFF7FAFB030023703F
:102D100008217B1898190368942278188018026893
:102D2000134313D07B189B191A685B683C6E2420F0
:102D300008218C46BC44604447210825AC46BC446D
:102D40006144097800912100FFF715FD3B6D7A6D14
:102D5000134321D03B6D180000F040FE0300FB66DA
:102D6000FB6E002B02D102235B4247E0BC6EF96E82
:102D700024230822BA18D0180123039346230822DB
:102D80009446BC4463441B7802933A6D7B6D009279
:102D900001932200FFF748FD242308257A19D21851
:102DA00014247B191B1911001800FFF7A0FD796E80
:102DB0007B191B191022180000F024FE031E09D0F5
:102DC000FB6E002B03D0FB6E180000F011FE0123F8
:102DD0005B4213E03B6D7A6D134309D03A6DF96E97
:102DE0007B69180000F01CFEFB6E180000F000FE6E
:102DF00039693A6D7B6D0A604B6000231800BD464F
:102E00001DB0F0BD80B584B000AF0200FB1D1A708C
:102E1000BB1D0A1C1A700F23FB18FA1D12781A70BA
:102E20000E23FB1800221A700023BB602FE0BB1D8D
:102E30001A78BB681A4113000122134008D00E22F1
:102E4000BB18B9180F22BA18097812784A401A70BC
:102E50000F217B181B78DB08DBB21A00012313401B
:102E60000CD07A1808007B181B78DB18137003212C
:102E70003B183A1812784A401A7005E00F23FA18E6
:102E8000FB181B78DB181370BB680133BB60BB6891
:102E9000032BCCDD0F220E23FB181B781340DBB273
:102EA0001800BD4604B080BD80B584B000AF786026
:102EB000164B1B68002B25D00023FB601BE0002372
:102EC000BB600FE0FB68DB007A68D218BB68D318E0
:102ED0001B781A000E4B1100180000F05BFEBB6857
:102EE0000133BB60BB68072BECDD0A2000F06CFEF1
:102EF000FB680133FB60FB68072BE0DD0A2000F074
:102F000063FE00E0C046BD4604B080BDA0000020C6
:102F1000FC4D000880B584B000AF786039600023B4
:102F2000FB6018E0FB68DB007A68D31819780E485C
:102F3000FA6813005B009B189B00C2183B68D3180B
:102F40001A78FB68DB007868C3184A40D2B21A705E
:102F5000FB680133FB60FB68072BE3DDC046C0461E
:102F6000BD4604B080BDC0460450000880B584B0A2
:102F700000AF78600023FB601DE00023BB6014E01D
:102F8000FB68DB007A68D218BB68D3181B7819007D
:102F9000FB68DB007A68D2180B4B595CBB68D3180E
:102FA0000A1C1A70BB680133BB60BB68072BE7DDE6
:102FB000FB680133FB60FB68072BDEDDC046C046C3
:102FC000BD4604B080BDC0460C00002080B586B070
:102FD00000AF786001237B6138E000233B610FE0A4
:102FE0007B69DB007A68D2183B69D318197808230B
:102FF000FA183B69D3180A1C1A703B6901333B610C
:103000003B69072BECDD00233B6119E03A697B69E2
:10301000D318124A134004D5013B082252421343ED
:10302000013319007B69DB007A68D2180823FB188A
:10303000595C3B69D3180A1C1A703B6901333B6128
:103040003B69072BE2DD7B6901337B617B69072BE1
:10305000C3DDC046C046BD4606B080BD0700008047
:1030600080B588B000AF78600023BB614FE00023DB
:10307000FB6130E01323FB1800221A7000237B61F0
:103080001BE0274AFB69DB00D2187B69D31818784C
:103090007B69DB007A68D218BB69D3181B781900EA
:1030A000FFF7B0FE030019001322BB18BA181278FC
:1030B0004A401A707B6901337B617B69072BE0DD35
:1030C0000823FA18FB69D3181322BA1812781A7059
:1030D000FB690133FB61FB69072BCBDD0023FB613F
:1030E0000FE0FB69DB007A68D2180823F918FB6946
:1030F000CB181978BB69D3180A1C1A70FB69013305
:10310000FB61FB69072BECDDBB690133BB61BB696C
:10311000072BACDDC046C046BD4608B080BDC046EA
:103120006450000880B584B000AF78603960002337
:10313000FB602EE01B4B1B68002B05D0FA681A4B76
:103140001100180000F026FDFA687B6811001800D5
:10315000FFF7E0FE7B681800FFF7A6FE7B6818000B
:10316000FFF704FF7B681800FFF79EFE7B681800DE
:10317000FFF72CFF7B681800FFF796FE7B681800AE
:10318000FFF76EFF7B681800FFF78EFEFB680133C8
:10319000FB60FA683B689A42CCDBC046C046BD463D
:1031A00004B080BDA0000020044E0008B0B594B06B
:1031B00000AF78600023FB642CE0FB6C002B00DA8E
:1031C00001335B101A007B689B181B781900FB6C9D
:1031D000012213409B0019410B00DAB2FB6C002B5B
:1031E00000DA0733DB101C00FB6C31490B4004D5BF
:1031F000013B082149420B43013319000F231340BF
:10320000D8B20C23FA18E300D318021C5A54FB6CF2
:103210000133FB64FB6C3F2BCFDD0C23FB180C212F
:103220001800FFF77FFF7B6820220021180000F0C4
:1032300000FC0023FB6433E0FB6C002B00DA01335D
:103240005B101D002A007B689B181B785AB2FB6C30
:10325000002B00DA0733DB101C00FB6C14490B4019
:1032600004D5013B082149420B43013318000C23CC
:10327000F918E300CB181B5C19000F231940FB6CF5
:10328000012003409B0099400B005BB213435AB2EC
:1032900029007B685B18D2B21A70FB6C0133FB64A7
:1032A000FB6C3F2BC8DDC046C046BD4614B0B0BD68
:1032B0000700008080B582B000AF00237B6000F083
:1032C00009FB00F081FA00F09BFA214A2149224BC8
:1032D000180000F0B9FA214B180000F0B5FA204BA5
:1032E000196B1F4BDA6A1F4B180000F0ADFA1C4B2C
:1032F000196A1B4B5A6A1A4B9B6A1B4800F0A4FAC6
:1033000080235A00194B0021180000F092FB802303
:103310005A00174B0021180000F08BFB80235A0045
:10332000144B0021180000F084FB00F027F8030084
:103330007B607B68002B05D07A680F4B110018006A
:1033400000F082FA7B681800BD4602B080BDC0461E
:10335000A450000824510008184E0008604E0008D0
:103360008C060020704E0008984E0008AC0000202B
:10337000AC010020AC020020C44E0008F0B5C7B07C
:103380000AAF00220023BA60FB60002200233A60EB
:103390007B600023C422BA1813600023EC22BA1801
:1033A0001360B423F91810220023080000F0CEF9AE
:1033B000A423F91810220023080000F0C7F9842381
:1033C000F91820220023080000F0C0F94423F9185E
:1033D00020220023080000F0B9F9BD4B00221A603A
:1033E00000220023E02179180A604B60E0E000220F
:1033F0000023D82179180A604B60BEE0E0257B19D4
:103400001968D826BB191A68B24B180000F01CFACC
:1034100000F0DAF98423FC180823F9181423F818AB
:10342000B423FB180893A423FB18079300230693E7
:10343000BB191A685B68049205934423FB18029336
:103440007B191A685B68009201932200FFF778FAF3
:103450000300C4243A19136000F0D2F99E4B196896
:103460009D4B1B681A099D4B1B689D4800F0ECF9A9
:10347000974B1A68984B19689A4B9200D1503B1998
:103480001B68002B05D004235B42EC22BA181360A2
:1034900083E000F099F9BA68FB6814217E183D00BA
:1034A00064203C18B42179180791A4217918069159
:1034B000D821791808684968049005914421791841
:1034C0000291009201933300002229002000FFF7AF
:1034D00024FB0300C4243A19136000F091F97E4BD9
:1034E00019687D4B1B681A097C4B1B687E4800F0ED
:1034F000ABF9BA68FB6814217B181100180000F0C2
:10350000C7F97A4B180000F09FF9714B1A68724B9B
:103510001968774B9200D1503B191B68002B16D1CC
:103520003A687B68E0243919096891420FD1E42197
:103530007918096899420AD13B191A686420391828
:103540008423FB18180000F05DFA031E05D0042345
:103550005B42EC22BA1813601FE05D4B1B685A1CDB
:103560005B4B1A60D8243B191A685B68082000215D
:1035700012184B4139190A604B60DC22BB181B68DA
:10358000002B0AD1BB181B68002B00D036E7D823CC
:10359000FB181B68202B00D830E7E0243B191A6881
:1035A0005B680820002112184B4139190A604B60F2
:1035B000E422BB181B68002B0ED1BB181B68002B24
:1035C00004D1E023FB181B68202B05D8EC23FB1843
:1035D0001B68002B00D10AE7EC23FB181B68002BAB
:1035E00003D0444B180000F02FF9394B00221A6029
:1035F000414B180000F088F8404B180000F024F907
:1036000000220023D02179180A604B604AE0002292
:103610000023C82179180A604B602AE0D026BB1924
:103620001968C8257B191C68294B1A682D4B920014
:10363000D3583348220000F007F9BB1919687B19E9
:103640001C68234B1A682A4B9200D3582D4822003D
:1036500000F0FAF81E4B1B685A1C1D4B1A607B19B0
:103660001A685B680820002112184B4179190A601A
:103670004B60CC22BB181B68002B08D1BB181B6801
:10368000002BCBD1C823FB181B68202BC6D9D02414
:103690003B191A685B680820002112184B41391940
:1036A0000A604B60D422BB181B68002B08D1BB18E2
:1036B0001B68002BABD1D023FB181B68202BA6D98D
:1036C000EC23FB181B681800BD463DB0F0BDC0469A
:1036D000AC030020D84E0008A4000020A800002061
:1036E000F44E0008AC000020104F00082C4F0008DA
:1036F000AC010020304F0008404F0008484F000840
:10370000584F00086C4F000880B582B000AF786059
:10371000094B0A4A79680A4800F096F8094B196A79
:10372000084B5A6A074B9B6A074800F08DF8C04661
:10373000BD4602B080BDC046A45000082451000818
:10374000804F00088C060020BC4F000880B586B072
:1037500000AFF8603A607B60002200233A617B6131
:1037600011E03A697B69131CDAB23B69F968CB183E
:103770003032D2B21A703A697B69012000211218E6
:103780004B413A617B617A687B699A42E9D87A68F1
:103790007B699A4203D13A683B699A42E1D8C046B4
:1037A000BD4606B080BD000080B582B000AF786035
:1037B000044B1B685A1C034B1A60C046BD4602B03E
:1037C00080BDC046B003002080B500AF094B002289
:1037D0001A60094B1B6800225A62FDF71FF80200AD
:1037E000064B1A60044B1800FEF72EF8C046BD4683
:1037F00080BDC046B003002040060020A800002085
:1038000080B500AF0C4B1800FEF770F80B4B1B682F
:103810001A04094B1B685B6A1A43094B1A60FCF7D0
:10382000FDFF0200074B1B68D21A064B1A60044BBF
:103830001B681800BD4680BD40060020B003002074
:10384000A4000020A80000200FB480B582B000AF13
:103850001423FB187B607A6839690B4B180000F061
:10386000EFF9094B1800FCF74FFC03009AB2064928
:1038700006486423FEF7E0FAC046BD4602B080BCAD
:1038800008BC04B01847C046B4030020BC050020A3
:1038900080B584B000AF786039607B68BB6000237E
:1038A000FB600CE0BA68FB68D3181B781A00084B61
:1038B00011001800FFF7C8FFFB680133FB60FA68CE
:1038C0003B689A42EED3C046C046BD4604B080BDB8
:1038D000E44F000880B500AF244B342200211800CB
:1038E00000F0A7F8214B802212051A601F4B1A68BE
:1038F0001E4B5A601E4A1D4B9A601E4A1B4B9A6112
:103900001D4A1A4BDA611D4A184BDA601C4A174BE4
:103910005A611C4A154B1A61144B9A68134B5B6829
:10392000D21A124B1A62114B5A69104BDB68D21A29
:103930000E4B5A620D4BDA690C4B9B69D21A0B4B3A
:103940009A620A4B5A6A094B9B6AD218074BDA6291
:10395000064B1A69054B5B6AD218044B1B68D21AD6
:10396000024B1A63C046BD4680BDC0468C0600208F
:10397000DC4D000880000020D00600200000002060
:103980008000002044520008014B18687047C04670
:103990001C00002070B500260C4D0D4C641BA410BB
:1039A000A64209D1002601F00DFA0A4D0A4C641B0B
:1039B000A410A64205D170BDB300EB58984701365C
:1039C000EEE7B300EB5898470136F2E73C520008A7
:1039D0003C5200083C5200084052000810B5034B0E
:1039E0000100186800F078F810BDC0461C000020E7
:1039F00010B5034B0100186800F024F810BDC04654
:103A00001C00002030B500240139A24201D1002061
:103A100005E0035D01340D5DAB42F6D0581B30BDAF
:103A2000002310B59A4200D110BDCC5CC4540133C0
:103A3000F8E703008218934200D1704719700133F0
:103A4000F9E7000070B50500002910D00C1F2368AD
:103A5000002B00DAE418280000F004FA1D4A13686D
:103A6000002B05D163601460280000F003FA70BDDC
:103A7000A34208D9216860188342F3D118685B68B3
:103A800041182160EEE71A005B68002B01D0A342C9
:103A9000F9D911685018A0420BD1206809185018A4
:103AA00011608342E0D118685B684118116053606F
:103AB000DAE7A04202D90C232B60D5E72168601811
:103AC000834203D118685B684118216063605460C9
:103AD000CAE7C046B4050020F8B50323CD1C9D43BA
:103AE000083506000C2D1FD20C25A9421ED8300027
:103AF00000F0B8F925490A681400002C1AD1244FA7
:103B00003B68002B04D12100300000F071F83860D0
:103B10002900300000F06CF8431C2BD10C2330003E
:103B2000336000F0A7F903E0002DDEDA0C233360E8
:103B30000020F8BD23685B1B19D40B2B03D923602D
:103B4000E418256003E06368A2420ED10B603000E8
:103B500000F090F9200007220B30231D9043C21A79
:103B60009842E6D01B1AA350E3E75360EFE7220028
:103B70006468C2E70323C41C9C43A042E1D0211A1D
:103B8000300000F035F8431CDBD1C7E7B405002056
:103B9000B80500200FB40B4B13B51C68002C05D0E2
:103BA000A369002B02D1200000F0B8F805AB20007B
:103BB000049AA168019300F0EFFA16BC08BC04B0A7
:103BC0001847C0461C000020084B70B51C68050053
:103BD000002C05D0A369002B02D1200000F09EF834
:103BE00029002000A26800F093FD70BD1C00002099
:103BF000002370B5064D040008002B60FCF74EFD55
:103C0000431C03D12B68002B00D0236070BDC0463D
:103C1000CC06002000B59BB00091049106490591A7
:103C2000029106490391694600F08EF90023009A3B
:103C300013701BB000BDC046FFFFFF7F0802FFFFEF
:103C400010B513000A00010002480068FFF7E2FF08
:103C500010BDC0461C000020002310B50400036006
:103C600043608360818143661900C28103614361BF
:103C7000836108225C30FFF7DCFE054B6362054B75
:103C80002462A362044BE362044B236310BDC0466D
:103C9000A5470008CD47000805480008314800083E
:103CA00010B5024900F0BAF810BDC0463D4B0008FF
:103CB00070B568254A1E55430E0029007431FFF780
:103CC0000BFF041E08D000212A00016046600C3062
:103CD000A0606832FFF7ADFE200070BD10B502484D
:103CE00000F0BDF810BDC046C806002010B502485F
:103CF00000F0B6F810BDC046C806002010B5024856
:103D000000F0ADF810BDC046C306002010B5024853
:103D100000F0A6F810BDC046C306002013B504008D
:103D2000FFF7ECFFA369002B02D0FFF7EFFF13BDF5
:103D3000A364E3642365134B134A1B68A2620193D7
:103D4000A34201D10123A361200000F01FF86060AD
:103D5000200000F01BF8A060200000F017F80022FF
:103D60000421E0606068FFF777FF01220921A06865
:103D7000FFF772FF02221221E068FFF76DFF0123B7
:103D8000A361D2E7A4510008A13C0008F8B50700E0
:103D9000FFF7A4FF1F4B1E68B369002B02D1300050
:103DA000FFF7BCFF4836B4687368013B04D533683D
:103DB000002B22D03668F6E70C22A55E002D1AD122
:103DC0002000154B5830E360656600F047F8FFF7B8
:103DD0008DFF2000082229002560A560656025610F
:103DE0006561A5615C30FFF724FE6563A563A5648A
:103DF000E5642000F8BD6834D7E704213800FFF7F8
:103E000057FF041E3060D5D1FFF770FF0C233B60D5
:103E1000EFE7C046A45100080100FFFFF7B504001A
:103E200006000027019148346368A5680093009B51
:103E3000013B009304D52468002CF5D13800FEBD69
:103E4000AB89012B08D90E22AB5E013304D02900C7
:103E50003000019B984707436835E8E77047704793
:103E60007047000010B50248FFF7F9FF10BDC046CB
:103E7000C406002010B50248FFF7F2FF10BDC0468F
:103E8000C4060020F0B58E6885B007000C000392D0
:103E900001939E423CD890238A89DB001A4234D099
:103EA0000325096923685B1A0293636902985D43DD
:103EB000EB0F5D19019B6D1001331B18AB4200D94C
:103EC0001D00530532D529003800FFF705FE061EF8
:103ED00009D10C233B6040230120A28940421343B7
:103EE000A38105B0F0BD029A2169FFF799FDA3896E
:103EF000144A1A4080231343A381029B2661F618BB
:103F000026606561019EED1AA560019B9E4200D965
:103F1000019E32000399206800F0DBFEA3680020B8
:103F20009B1BA36023689E192660DAE72A003800ED
:103F300000F0E2FE061EE0D138002169FFF782FDA5
:103F4000C7E7C0467FFBFFFFF0B5A1B003901D009F
:103F50008B890F0016001B0611D50B69002B0ED1A3
:103F60004021FFF7B9FD38603861002805D10C23E6
:103F7000039A0138136021B0F0BD40237B61002318
:103F800008AC6361203363761033A3760795350060
:103F90002B78002B01D0252B47D1AB1B0593B542C5
:103FA0000CD0320039000398FFF76CFF431C00D19E
:103FB000AEE06269059B9446634463612B78002BF5
:103FC00000D1A5E0012200235242626004A95432CC
:103FD00052186E1C2360E360A3601370A365052272
:103FE0003178544800F06AFE751C00281FD1226801
:103FF000D30604D5532304A95B1820211970130795
:1040000004D5532304A95B182B21197033782A2B6C
:1040100016D0350000210A20E3682A786E1C303A59
:10402000092A4ED9002911D117E00135B0E7414BDB
:104030002268C01A0123834013432E002360CEE779
:10404000079B191D1B680791002B01DB0B9304E0F4
:104050005B42E3600223134323602B782E2B0AD1AB
:104060006B782A2B35D1079B02351A1D1B680792E6
:10407000002B2BDB0993304E03223000297800F00F
:104080001DFE002806D04023801B83402268013596
:10409000134323602978062228486E1C217600F0FD
:1040A0000DFE00283CD0264B002B25D10722079B74
:1040B00007339343083307936369049A9B1863613A
:1040C00065E74343350001219B18A6E701235B42C6
:1040D000D0E700230A201A000135636029786E1C9E
:1040E0003039092903D9002BC5D00992C3E74243CF
:1040F000350001235218F1E707AB00933A00210085
:10410000104B039800E000BF0490049B0133D3D10F
:10411000BB890D985B0600D42DE7012040422AE7B9
:1041200007AB00933A002100064B039800F0DEF93C
:10413000EAE7C046085200080E5200081252000872
:1041400000000000853E0008936810B5013B9360B5
:10415000002B04DA9469A34207DB0A2905D013680F
:10416000581C10601970080010BD00F067FB0100BA
:10417000F9E7F8B506000F001400D518AC4201D1DC
:10418000002007E021783A003000FFF7DDFF01341E
:10419000431CF3D1F8BD0000F0B5A1B006000C003F
:1041A0001F000392002804D08369002B01D1FFF780
:1041B000B5FD8E4B9C421CD17468636EDB0705D441
:1041C000A3899B0502D4A06DFFF749FEA3891B07B5
:1041D00002D52369002B1DD12100300000F098FB8F
:1041E000002817D0636EDB070DD50120404221B0B7
:1041F000F0BD7F4B9C4201D1B468DEE77D4B9C4211
:10420000DBD1F468D9E7A3899B05EED4A06DFFF755
:1042100027FEEAE7002308AD6B6120336B7610338D
:10422000AB760797039F3B78002B01D0252B4ED10F
:10423000039BFB1A0593039B9F420DD0059B210016
:104240003000039AFFF795FF431C00D1B5E06A697F
:10425000059B944663446B613B78002B00D1ACE036
:1042600001227B1C0393002352426A6004A954324A
:1042700052182B60EB60AB601370AB65039B05229B
:1042800019785D4800F01AFD039B5F1C002820D1BF
:104290002A68D30604D5532304A95B18202119707A
:1042A000130704D5532304A95B182B211970039B12
:1042B0001B782A2B16D00021EB68039F3A78781CD4
:1042C000303A8446092A4FD9002911D117E0013725
:1042D000A9E7494B2A68C01A0123834013432B6086
:1042E0000397CBE7079B191D1B680791002B01DB88
:1042F0000B9304E05B42EB60022313432B603B789B
:104300002E2B0AD17B782A2B37D1079B02371A1D17
:104310001B680792002B2DDB09930322397837485D
:1043200000F0CCFC002807D0344B2A68C01A402388
:104330008340134301372B6039787B1C06223048B9
:104340000393297600F0BAFC002845D02D4B002BB2
:1043500027D10722079B07339343083307936B69E1
:10436000049A9B186B615DE70A214B4367469B18D3
:104370000939A3E701235B42CEE700231A00013786
:104380006B603978781C30398446092903D9002BB1
:10439000C3D00992C1E70A235A4367465218093B22
:1043A000EFE707AB0093220029003000164B00E036
:1043B00000BF0490049B0133D1D1636EDB0705D4A9
:1043C000A3899B0502D4A06DFFF74AFDA3895B0674
:1043D00000D50AE70D980AE707AB009322002900F1
:1043E0003000094B00F082F8E3E7C046C8510008EE
:1043F000E8510008A8510008085200080E520008B1
:10440000125200080000000073410008F7B51500C3
:1044100001938A680B690C000090934200DA130044
:1044200022002B6043321278002A01D001332B6026
:1044300023689B0602D52B6802332B602268062373
:1044400017001F401A4227D0230043331B785A1EFF
:1044500093412268920630D4220001990098089E68
:104460004332B047431C25D0062320682A68E16800
:1044700000250340042B03D18D1AEB43DB171D40AD
:10448000A3682269934201DD9B1AED180027BD4203
:1044900020D1002010E00137E3682A689B1ABB4254
:1044A000D2DD2200012301990098089E1932B047FD
:1044B000431CF0D101204042FEBD3020E1184331C1
:1044C000087021005A1C45310978A2184332023382
:1044D0001170C1E72200012301990098089E1A3249
:1044E000B047431CE6D00137D1E70000F0B58BB0F0
:1044F00006920A0043320793059004920A7E0C004C
:10450000109B782A06D8622A08D8002A00D1C0E079
:10451000582A52D026004236327022E0100063380A
:104520001528F7D8FBF7F8FD16001F00F6FFF6FF79
:10453000F6FFF6FF1F00F6FFF6FFF6FFF6FFA800F6
:1045400036009A00F6FFF6FFB900F6FF3600F6FFD8
:10455000F6FF9E0026001A684236111D1960136886
:1045600033700123A7E0086819680A1D05060BD5FA
:104570000D681A60002D03DA2D23049A6D42137022
:10458000614B0A27039332E00D681A604106F1D5AA
:104590002DB2EFE70D681968081D18602E0601D5C9
:1045A0000D6803E06D06FBD50D68ADB2564B0A27CA
:1045B00003936F2A17D1082715E045310A70524A34
:1045C00003921A68216820CA1A60080650D5CB07E2
:1045D00002D52023194321601027002D03D1202369
:1045E00022689A4322602300002243331A706368D2
:1045F000A360002B03DB0422216891432160002D7E
:1046000002D1049E002B0CD0049E28003900FBF739
:1046100013FE039B013E5B5C33702B0005009F4241
:10462000F3D9082F09D12368DB0706D5636822690F
:10463000934202DC3023013E3370049B9B1B2361B9
:10464000079B210000930598069B09AAFFF7DEFE51
:10465000431C35D1012040420BB0F0BD2022096837
:104660000A4322602200782145321170274AA7E7C9
:104670004806ACD5ADB2AAE71A680D68101D4969A5
:10468000186013682E0601D5196002E06D06FBD58F
:1046900019800023049E2361D2E71A68111D196056
:1046A000166800213000626800F008FB002801D085
:1046B000801B6060636823610023049A1370BFE766
:1046C0002369320006990598079DA847431CC1D06D
:1046D00023689B0715D4099BE0689842BCDA180050
:1046E000BAE72200012306990598079E1932B047C0
:1046F000431CAFD00135E368099A9B1AAB42F0DC4A
:10470000E9E70025F7E7C046195200082A520008D9
:1047100070B506000D001400002804D08369002B3A
:1047200001D1FFF7FBFA1C4B9C4224D17468636EE5
:10473000DB0705D4A3899B0502D4A06DFFF78FFB8F
:10474000A368013BA360002B05DAA26993421CDB3E
:10475000EBB20A2B19D023685A1C22601D70EDB2EF
:10476000636EDB0705D4A3899B0502D4A06DFFF718
:1047700077FB280070BD094B9C4201D1B468D6E795
:10478000074B9C42D3D1F468D1E7290022003000C6
:1047900000F054F80500E3E7C8510008E8510008AC
:1047A000A851000870B50C000E25495F00F0CAFA48
:1047B000002803DB636D1B18636570BDA389024A83
:1047C0001340A381F9E7C046FFEFFFFFF8B51F00D4
:1047D0008B8905000C001600DB0505D50E23C95E8C
:1047E0000022022300F0EAF9A389054A28001340B9
:1047F000A38132000E23E15E3B0000F075F8F8BDA6
:10480000FFEFFFFF70B50C000E25495F00F0D6F9F1
:10481000A389421C03D1054A1340A38170BD8022A5
:1048200052011343A3816065F8E7C046FFEFFFFF25
:1048300010B50E23C95E00F0E3F810BDF8B5050011
:104840000E001400002804D08369002B01D1FFF76B
:1048500065FA224B9C422ED16C68A369A360A389A0
:104860001B0732D52369002B2FD023682269F7B2AA
:10487000981A6369F6B2834205DC2100280000F033
:104880005DF9002827D1A3680130013BA3602368AC
:104890005A1C22601F706369834204D0A389DB071E
:1048A00007D50A2E05D12100280000F047F900287D
:1048B00011D13000F8BD0A4B9C4201D1AC68CCE765
:1048C000084B9C42C9D1EC68C7E72100280000F0E2
:1048D0001FF80028C9D001267642EAE7C85100082F
:1048E000E8510008A851000870B504000800110044
:1048F0001A000023054D2B60FBF787FE431C03D1F4
:104900002B68002B00D0236070BDC046CC06002071
:10491000374B70B51D6806000C00002D05D0AB6943
:10492000002B02D12800FFF7F9F9324B9C420FD13E
:104930006C680C23E25E93B211072DD4D90611D412
:1049400009230120336037331343A381404270BDF4
:10495000294B9C4201D1AC68EBE7284B9C42E8D143
:10496000EC68E6E75B0713D5616B002908D02300EC
:104970004433994202D03000FFF764F800236363A8
:104980002422A3899343A3810023636023692360C6
:104990000823A2891343A3812369002B0BD1A021F3
:1049A0008022A389890092000B40934203D021000A
:1049B000300000F03FF90C22A35E01201A0099B2EA
:1049C000024003420FD00022A26062695242A261FB
:1049D000002022698242BAD10A06B8D54022134388
:1049E000A3810138B3E7880700D46269A260EFE7CA
:1049F0001C000020C8510008E8510008A851000818
:104A0000002370B5064D040008002B60FBF719FE6B
:104A1000431C03D12B68002B00D0236070BDC0461F
:104A2000CC060020F7B58B8905000C001A075FD46F
:104A30004A68002A04DC0A6C002A01DC0020FEBD62
:104A4000E76A002FFAD0002280212E682A601A001F
:104A500049010A400B4234D0606DA3895B0706D53B
:104A60006368C01A636B002B01D0236CC01A02006C
:104A7000216A00232800E76AB847A189431C06D1B0
:104A80002B681D2B31D82C4ADA40D3072DD50023B3
:104A9000636023692360CB0405D5431C02D12B68D6
:104AA000002B00D16065616B2E600029C6D0230009
:104AB0004433994202D02800FEF7C4FF002060630F
:104AC000BDE701232800216AB847431CC5D12B68E4
:104AD000002BC2D01D2B01D0162B01D12E60ADE7CB
:104AE0004023A2891343A381A9E740230B43FAE79C
:104AF0000F69002FA2D00A680F60D21B019200221A
:104B00009B0700D14A69A260019B002B00DC95E75E
:104B10003A002800019B216AA66AB047002806DCFB
:104B200040230120A28940421343A38187E7019BD0
:104B30003F181B1A0193E7E7010040200B6970B58D
:104B400005000C00002B02D10025280070BD0028B4
:104B500004D08369002B01D1FFF7E0F8144B9C428D
:104B60001BD16C680C22A35E002BEDD0626ED207C5
:104B700004D49B0502D4A06DFFF771F92800210031
:104B8000FFF750FF636E0500DB07DED4A3899B05AA
:104B9000DBD4A06DFFF764F9D7E7064B9C4201D147
:104BA000AC68DFE7044B9C42DCD1EC68DAE7C04636
:104BB000C8510008E8510008A851000870B5040069
:104BC000080011001A000023054D2B60FBF75AFD69
:104BD000431C03D12B68002B00D0236070BDC0465E
:104BE000CC06002070B50E001D000E23C95E140017
:104BF00096B0002907DA00232B60B3891B0611D475
:104C00008023DB000FE06A4600F0B0F80028F2DBFA
:104C1000F02301991B021940054BC9184B42594119
:104C20002960EDE740230020236016B070BDC04628
:104C300000E0FFFFF7B502268B8905000C00334228
:104C400006D0230047332360236101236361F7BD4E
:104C50006A4601ABFFF7C6FF009907002800FEF780
:104C60003BFF002808D10C22A35E9A05EFD4032253
:104C700093431E43A681E4E70F4BAB628023A289D6
:104C800020601343A381009B20616361019B002B83
:104C90000DD028000E23E15E00F07AF8002806D03F
:104CA0000322A38993431A0001231343A381A089FC
:104CB0000743A781CBE7C046A13C0008C9B28218D0
:104CC000904201D10020704703788B42FBD0013025
:104CD000F6E710B5884202D98B18984203D3002317
:104CE00007E08B5C8354013AFBD210BDCC5CC4540A
:104CF00001339A42FAD1F8E7F8B507000D00160023
:104D0000002905D11100FEF7E7FE04002000F8BDE0
:104D1000002A03D1FEF796FE3400F7E700F04AF8C8
:104D20002C00B042F2D231003800FEF7D5FE041E4E
:104D3000ECD029003200FEF773FE29003800FEF7A0
:104D400081FEE3E770B50400080011001A0000239B
:104D5000054D2B60FBF73CFC431C03D12B68002B5B
:104D600000D0236070BDC046CC060020002370B583
:104D7000064D0400080011002B60FBF76CFC431C7F
:104D800003D12B68002B00D0236070BDCC0600201F
:104D9000002370B5064D040008002B60FBF769FC8A
:104DA000431C03D12B68002B00D0236070BDC0468C
:104DB000CC0600200B1F1B68181F002B01DA0B58B4
:104DC000C0187047F8B5C046F8BC08BC9E4670478E
:0C4DD000F8B5C046F8BC08BC9E46704711
:104DDC0002030405060708090A0B0C0D0E0F101030
:104DEC000102030405060708090A0B0C0D0E0F102F
:104DFC0025325820000000002D2D2D20526F756E8D
:104E0C0064202564202D2D2D0A0000000A0A0A0AB0
:104E1C005374617274696E672E2E2E0A25730A4DB7
:104E2C00617920323320323032312031313A33370C
:104E3C003A33370A4F7074696D697A6174696F6EB1
:104E4C003A204F300A416C676F726974686D3A2072
:104E5C0025730A004D656D6F7279207573616765F6
:104E6C003A200000546F74616C20464C4153483A10
:104E7C002025366C754220546F74616C2052414D64
:104E8C003A2025366C7542200A0000005365637485
:104E9C00696F6E733A20746578742025366C754290
:104EAC0020646174612025366C7542206273732016
:104EBC0025366C75420A0000546F745265733A20A3
:104ECC004572726F72202564000000006D73675F7D
:104EDC006C656E3A2534642061645F6C656E3A25AE
:104EEC003464202000000000656E633A25386C7530
:104EFC002075733A25386C75206D733A25386C75AE
:104F0C00202020006465633A25386C752075733A4F
:104F1C0025386C75206D733A25386C7520000000AF
:104F2C000A0000004572726F72206F6363757272B3
:104F3C0065640A004145414400000000414541447C
:104F4C00546F745265733A2000000000656E63283C
:104F5C0025642C256429203D2025642000000000B8
:104F6C006465632825642C256429203D2025642054
:104F7C00000000002573202573204D617920323309
:104F8C0020323032312031313A33373A3337204FF7
:104F9C007074696D697A6174696F6E3A204F302054
:104FAC00416C676F726974686D3A2025732000003C
:104FBC0053656374696F6E733A2074657874202539
:104FCC00366C7520646174612025366C75206273B3
:104FDC00732025366C7520002530325800000000F7
:104FEC00000000000000000001020304060708098D
:104FFC0000000000010203040103070E0D0B060C58
:10500C000902050A0002060F0C0A070D0803040B1F
:10501C000200040D0E08050F0A010609060400091A
:10502C000A0C010B0E05020D0E0C080102040903FB
:10503C00060D0A050F0D090003050802070C0B04E9
:10504C000D0F0B0201070A00050E0906090B0F06CE
:10505C0005030E04010A0D020204020B02080506E8
:10506C000C09080D0707050204040D0D09040D09B0
:10507C00010605010C0D0F0E0F0C090D0E050E0D82
:10508C00090E050F040C09060C02020A0301010E9D
:10509C000F010D0A050A02034C57435F414C474F61
:1050AC005F414541445F50484F544F4E5F42454528
:1050BC00544C455F50484F544F4E424545544C4517
:1050CC004145414431323852415445333256310016
:1050DC0000000000000000000000000000000000C4
:1050EC0000000000000000000000000000000000B4
:1050FC0000000000000000000000000000000000A4
:10510C000000000000000000000000000000000093
:10511C0000000000000000005465737420456E61AF
:10512C00626C6564000000000000000000000000DC
:10513C000000000000000000000000000000000063
:10514C000000000000000000000000000000000053
:10515C000000000000000000000000000000000043
:10516C000000000000000000000000000000000033
:10517C000000000000000000000000000000000023
:10518C000000000000000000000000000000000013
:10519C0000000000000000002000002000000000C3
:1051AC0000000000000000000000000000000000F3
:1051BC0000000000000000000000000000000000E3
:1051CC0000000000000000000000000000000000D3
:1051DC0000000000000000000000000000000000C3
:1051EC0000000000000000000000000000000000B3
:1051FC00000000000000000000000000232D302BF8
:10520C002000686C4C0065666745464700303132BB
:10521C003334353637383941424344454600303112
:10522C003233343536373839616263646566000071
:04523C00E90000087D
:04524000C1000008A1
:1052440000127A0004000000010000000C05060BA7
:1052540009000A0D030E0F080407010220000020B4
:1052640000000000C8510008E8510008A8510008D7
:10527400000000000000000000000000000000002A
:10528400000000000000000000000000000000001A
:10529400000000000000000000000000000000000A
:1052A40000000000000000000000000000000000FA
:1052B40000000000000000000000000000000000EA
:0400000508000715D3
:00000001FF
