:020000040800F2
:1000000000200020A1050008E1040008E704000822
:1000100000000000000000000000000000000000E0
:10002000000000000000000000000000ED040008D7
:100030000000000000000000F704000801050008AF
:10004000F1050008F1050008F1050008F1050008B8
:10005000F1050008F1050008F1050008F1050008A8
:10006000F1050008F1050008F1050008F105000898
:10007000F1050008F1050008F1050008F105000888
:10008000F10500081105000800000000F105000856
:10009000F1050008F1050008F1050008F105000868
:1000A000F1050008F1050008F1050008F105000858
:1000B000F105000800000000F10500080000000044
:1000C00010B5064C2378002B07D1054B002B02D02E
:1000D000044800E000BF0123237010BD740000201D
:1000E0000000000060400008044B10B5002B03D056
:1000F0000349044800E000BF10BDC04600000000F6
:1001000078000020604000080023C25C0133002A10
:10011000FBD1581E7047000003B4714649084000E7
:100120004900095E49008E4403BC70470022430821
:100130008B4274D303098B425FD3030A8B4244D3AF
:10014000030B8B4228D3030C8B420DD3FF220902F1
:1001500012BA030C8B4202D31212090265D0030BB0
:100160008B4219D300E0090AC30B8B4201D3CB03A6
:10017000C01A5241830B8B4201D38B03C01A5241E8
:10018000430B8B4201D34B03C01A5241030B8B42EA
:1001900001D30B03C01A5241C30A8B4201D3CB02D5
:1001A000C01A5241830A8B4201D38B02C01A5241BA
:1001B000430A8B4201D34B02C01A5241030A8B42BD
:1001C00001D30B02C01A5241CDD2C3098B4201D3D5
:1001D000CB01C01A524183098B4201D38B01C01A53
:1001E000524143098B4201D34B01C01A52410309CA
:1001F0008B4201D30B01C01A5241C3088B4201D379
:10020000CB00C01A524183088B4201D38B00C01A25
:10021000524143088B4201D34B00C01A5241411A4C
:1002200000D20146524110467047FFE701B5002059
:1002300000F006F802BDC0460029F7D076E7704707
:100240007047C04680B584B000AF7860074B5969ED
:10025000064B7A680A435A61044B5B697A6813401B
:10026000FB60FB68C046BD4604B080BD0010024084
:1002700010B500F0BFF900F00FF800F091F800F0B1
:1002800049F800F071F803F0E3F8024800F016FABC
:10029000F9E7C04640420F0070B596B01C2200211D
:1002A0000BA803F0B6FA10220021684603F0B1FA59
:1002B0001422002105A803F0ACFA0222002310202A
:1002C0001292139380220126022100230E90120322
:1002D0000AA8149215930D960A9100F061FC00286B
:1002E00016D102230722002400256846002100922F
:1002F00001930294039500F06DFF031E08D105A839
:100300000596079301F0B8F8002801D116B070BD2A
:1003100000F04CF810B582B008220021684603F0C6
:1003200078FA00230D4C0E490E4A20006360A3604A
:10033000A3612160E26001F07DF900280BD1002269
:100340000023694620000092019301F0F9FB002888
:1003500001D102B010BD00F029F8C04630060020DF
:1003600000100040FFFF0000E12200230C2110B527
:1003700009480A4C52024260046041618360C360D4
:1003800003618361C3610362436201F047FC00289B
:1003900000D110BD00F00AF8AC0500200038014083
:1003A000802010B58002FFF74DFF10BD72B6FEE74A
:1003B00080B582B000AF0F4B9A690E4B01210A4302
:1003C0009A610C4B9B69012213407B607B68094B4F
:1003D000DA69084B802149050A43DA61054BDA697D
:1003E00080235B0513403B603B68C046BD4602B0BE
:1003F00080BDC0460010024080B584B000AF786078
:100400007B681B680D4A934213D10D4BDA690C4B84
:1004100010210A43DA610A4BDB6910221340FB60AA
:10042000FB6800220021112000F018FA112000F0D2
:100430002AFAC046BD4604B080BDC0460010004048
:100440000010024090B58BB000AF786014243B19C7
:10045000180014231A00002103F0DBF97B681B68E5
:100460001D4A934233D11D4B9A691C4B8021C9010F
:100470000A439A61194B9A698023DB0113403B615F
:100480003B69164B5A69154B802189020A435A6110
:10049000124B5A6980239B021340FB60FB683B1997
:1004A000C022D2001A6021007B1802225A607B18F9
:1004B00000229A607B180322DA607B1801221A61FD
:1004C0007A189023DB051100180000F0F9F9C046F6
:1004D000BD460BB090BDC046003801400010024040
:1004E00080B500AFFEE780B500AFFEE780B500AF96
:1004F000C046BD4680BD80B500AFC046BD4680BD8C
:1005000080B500AF00F0BEF8C046BD4680BD00001B
:1005100080B500AF034B180001F05CF9C046BD4642
:1005200080BDC0463006002080B586B000AF786040
:10053000144A154BD31A7B617B693B61134B1B68D3
:10054000002B02D1114B124A1A60104B1A687B68BB
:10055000D3183A699A4207D203F028F903000C2213
:100560001A6001235B4209E0084B1B68FB60074BE4
:100570001A687B68D218054B1A60FB681800BD46E4
:1005800006B080BD00200020000400009000002084
:10059000C006002080B500AFC046BD4680BD00004B
:1005A0000D4885460D480E490E4A002302E0D458F6
:1005B000C4500433C4188C42F9D30B4A0B4C0023AB
:1005C00001E013600432A242FBD3FFF7E3FF03F024
:1005D000F3F8FFF74DFEFEE70020002000000020AA
:1005E000740000205444000874000020C00600205D
:1005F000FEE7000080B500AF074B1A68064B1021DC
:100600000A431A60002000F009F8FFF7D1FE00232A
:100610001800BD4680BDC0460020024090B583B0A2
:1006200000AF7860144B1C68144B1B781900FA2338
:100630009800FFF77BFD030019002000FFF776FD0F
:100640000300180000F02FF9031E01D001230FE072
:100650007B68032B0BD8796801235B4200221800CA
:1006600000F0FCF8064B7A681A60002300E00123D2
:100670001800BD4603B090BD000000200800002017
:100680000400002080B500AF054B1B781A00054B15
:100690001B68D218034B1A60C046BD4680BDC046D9
:1006A000080000207806002080B500AF024B1B68D0
:1006B0001800BD4680BDC0467806002080B584B0D5
:1006C00000AF7860FFF7F0FF0300BB607B68FB6062
:1006D000FB68013305D00A4B1B781A00FB689B1896
:1006E000FB60C046FFF7E0FF0200BB68D31AFA6860
:1006F0009A42F7D8C046C046BD4604B080BDC04649
:100700000800002080B582B000AF0200FB1D1A7007
:10071000FB1D1B787F2B09D8FB1D1B781A001F239C
:100720001A40044B012191400A001A60C046BD46A0
:1007300002B080BD00E100E090B583B000AF0200E0
:100740003960FB1D1A70FB1D1B787F2B28D82F4AA0
:10075000FB1D1B785BB29B08C0339B009B58FA1DA6
:100760001278110003220A40D200FF2191400A00B2
:10077000D2431A4011003B689B01FF221A40FB1D27
:100780001B78180003230340DB009A401F48FB1D21
:100790001B785BB29B080A43C0339B001A5031E0C0
:1007A0001B4AFB1D1B7819000F230B40083B9B08BD
:1007B00006339B00D31804331B68FA1D127811000E
:1007C00003220A40D200FF2191400A00D2431A407E
:1007D00011003B689B01FF221A40FB1D1B7818008B
:1007E00003230340DB009A400948FB1D1B781C00D3
:1007F0000F232340083B9B080A4306339B00C31882
:1008000004331A60C046BD4603B090BD00E100E06D
:1008100000ED00E080B582B000AF78607B685A1EC2
:1008200080235B049A4201D3012310E00A4B7A68CB
:10083000013A5A6001235B4203211800FFF77CFF55
:10084000054B00229A60044B07221A60002318000F
:10085000BD4602B080BDC04610E000E080B584B067
:1008600000AFB9607A600F217B18021C1A70BA6859
:100870007B181B785BB211001800FFF75DFFC046C4
:10088000BD4604B080BD80B582B000AF0200FB1D44
:100890001A70FB1D1B785BB21800FFF733FFC046D0
:1008A000BD4602B080BD80B582B000AF78607B6885
:1008B0001800FFF7AFFF03001800BD4602B080BD6F
:1008C00080B586B000AF7860396000237B614FE16E
:1008D0003B681B6801217A6991400A001340FB6064
:1008E000FB68002B00D140E13B685B68012B0BD01B
:1008F0003B685B68022B07D03B685B68112B03D019
:100900003B685B68122B30D17B689B683B617B69DD
:100910005B0003229A401300DA433B6913403B61BA
:100920003B68DA687B695B009A4013003A691343BD
:100930003B617B683A699A607B685B683B61012236
:100940007B699A401300DA433B6913403B613B6883
:100950005B681B0901221A407B699A4013003A69BF
:1009600013433B617B683A695A607B68DB683B6193
:100970007B695B0003229A401300DA433B69134012
:100980003B613B689A687B695B009A4013003A6957
:1009900013433B617B683A69DA603B685B68022B12
:1009A00003D03B685B68122B23D17B69DA087B6834
:1009B00008329200D3583B617B69072213409B00A9
:1009C0000F229A401300DA433B6913403B613B68B6
:1009D0001A697B6907210B409B009A4013003A6912
:1009E00013433B617B69DA087B68083292003969FE
:1009F000D1507B681B683B617B695B0003229A4096
:100A00001300DA433B6913403B613B685B68032298
:100A10001A407B695B009A4013003A6913433B61BB
:100A20007B683A691A603B685A6880235B0513400B
:100A300000D19AE0544B9A69534B01210A439A61C1
:100A4000514B9B6901221340BB60BB684F4A7B69D5
:100A50009B0802339B009B583B617B690322134038
:100A60009B000F229A401300DA433B6913403B611D
:100A70007A689023DB059A4213D07B68444A9342FC
:100A80000DD07B68434A934207D07B68424A934229
:100A900001D1032306E0052304E0022302E0012341
:100AA00000E000237A6903210A40920093403A69EA
:100AB00013433B6135497B699B0802339B003A69CC
:100AC0005A50364B1B683B61FB68DA433B69134065
:100AD0003B613B685A6880235B02134003D03A694C
:100AE000FB6813433B612D4B3A691A602B4B5B68E3
:100AF0003B61FB68DA433B6913403B613B685A68E2
:100B000080239B02134003D03A69FB6813433B6187
:100B1000224B3A695A60214B9B683B61FB68DA4380
:100B20003B6913403B613B685A6880235B03134079
:100B300003D03A69FB6813433B61184B3A699A60EA
:100B4000164BDB683B61FB68DA433B6913403B6152
:100B50003B685A6880239B03134003D03A69FB68C3
:100B600013433B610D4B3A69DA607B6901337B616A
:100B70003B681A687B69DA40131E00D0A8E6C046BD
:100B8000C046BD4606B080BD0010024000000140D6
:100B90000004004800080048000C00480004014020
:100BA00080B588B000AF78607B68002B01D101234D
:100BB00001E37B681B680122134000D18DE0C34B29
:100BC0005B680C221340042B0ED0C04B5B680C22D8
:100BD0001340082B16D1BD4B5A6880235B021A4084
:100BE00080235B029A420DD1B84B1A6880239B0286
:100BF000134000D170E07B685B68002B00D06BE095
:100C00000123D8E27B685B68012B07D1AF4B1A68E0
:100C1000AE4B802149020A431A602FE07B685B6873
:100C2000002B0CD1A94B1A68A84BA9490A401A609D
:100C3000A64B1A68A54BA7490A401A601EE07B68BC
:100C40005B68052B0ED1A14B1A68A04B8021C9020D
:100C50000A431A609D4B1A689C4B802149020A4343
:100C60001A600BE0994B1A68984B99490A401A6030
:100C7000964B1A68954B97490A401A607B685B68E7
:100C8000002B14D0FFF710FD0300BB6108E0FFF755
:100C90000BFD0200BB69D31A642B01D903238AE23E
:100CA0008A4B1A6880239B021340F0D015E0FFF7AF
:100CB000FBFC0300BB6108E0FFF7F6FC0200BB6928
:100CC000D31A642B01D9032375E2804B1A68802361
:100CD0009B021340F0D100E0C0467B681B680222F3
:100CE000134000D169E0794B5B680C2213400BD0B4
:100CF000764B5B680C221340082B1CD1734B5A684F
:100D000080235B02134016D1704B1B6802221340F4
:100D100005D07B68DB68012B01D001234BE26B4BD4
:100D20001B68F822934319007B681B69DA00674B44
:100D30000A431A6041E07B68DB68002B24D0634BD8
:100D40001A68624B01210A431A60FFF7ADFC0300E9
:100D5000BB6108E0FFF7A8FC0200BB69D31A022BB5
:100D600001D9032327E2594B1B6802221340F1D01B
:100D7000564B1B68F822934319007B681B69DA0005
:100D8000524B0A431A6018E0504B1A684F4B01212E
:100D90008A431A60FFF788FC0300BB6108E0FFF795
:100DA00083FC0200BB69D31A022B01D9032302E2A0
:100DB000464B1B6802221340F1D17B681B68082256
:100DC000134036D07B68DB69002B19D03F4B5A6A41
:100DD0003E4B01210A435A62FFF766FC0300BB61E8
:100DE00008E0FFF761FC0200BB69D31A022B01D9AE
:100DF0000323E0E1354B5B6A02221340F1D018E097
:100E0000324B5A6A314B01218A435A62FFF74CFC3C
:100E10000300BB6108E0FFF747FC0200BB69D31A7F
:100E2000022B01D90323C6E1284B5B6A022213403F
:100E3000F1D17B681B680422134000D1B4E01F206D
:100E40003B1800221A70214BDA6980235B0513409E
:100E500010D11E4BDA691D4B802149050A43DA6126
:100E60001A4BDA6980235B051340FB60FB683B1873
:100E700001221A70184B1A6880235B0013401AD1A4
:100E8000154B1A68144B802149000A431A60FFF77A
:100E90000BFC0300BB6108E0FFF706FC0200BB6926
:100EA000D31A642B01D9032385E10B4B1A688023E5
:100EB0005B001340F0D07B689B68012B0ED1034B85
:100EC0001A6A024B01210A431A6235E000100240FF
:100ED000FFFFFEFFFFFFFBFF007000407B689B6889
:100EE000002B0CD1B64B1A6AB54B01218A431A620A
:100EF000B34B1A6AB24B04218A431A621CE07B6826
:100F00009B68052B0CD1AE4B1A6AAD4B04210A43EA
:100F10001A62AB4B1A6AAA4B01210A431A620BE010
:100F2000A74B1A6AA64B01218A431A62A44B1A6A7C
:100F3000A34B04218A431A627B689B68002B14D060
:100F4000FFF7B2FB0300BB6109E0FFF7ADFB020056
:100F5000BB69D31A9B4A934201D903232BE1984BD7
:100F60001B6A02221340F0D013E0FFF79DFB030041
:100F7000BB6109E0FFF798FB0200BB69D31A914AF5
:100F8000934201D9032316E18D4B1B6A02221340C1
:100F9000F0D11F23FB181B78012B05D1884BDA6990
:100FA000874B89490A40DA617B681B68102213402D
:100FB00063D07B685B69012B2AD1814B5A6B804BD4
:100FC00004210A435A637E4B5A6B7D4B01210A432D
:100FD0005A63FFF769FB0300BB6108E0FFF764FB9E
:100FE0000200BB69D31A022B01D90323E3E0744B3F
:100FF0005B6B02221340F1D0714B5B6BF822934381
:1010000019007B689B69DA006D4B0A435A6334E030
:101010007B685B69053311D1694B5A6B684B0421BE
:101020008A435A63664B5B6BF822934319007B68D3
:101030009B69DA00624B0A435A631EE0604B5A6BAD
:101040005F4B04210A435A635D4B5A6B5C4B012191
:101050008A435A63FFF728FB0300BB6108E0FFF7F0
:1010600023FB0200BB69D31A022B01D90323A2E0A0
:10107000534B5B6B02221340F1D17B681B6A002B40
:1010800000D197E04E4B5B680C221340082B00D137
:101090006BE07B681B6A022B4CD1494B1A68484BAA
:1010A0004A490A401A60FFF7FFFA0300BB6108E0F3
:1010B000FFF7FAFA0200BB69D31A022B01D9032306
:1010C00079E03F4B1A6880239B041340F0D13C4BDE
:1010D000DB6A0F22934319007B68DA6A384B0A43B4
:1010E000DA62374B5B683A4A134019007B689A6AA8
:1010F0007B685B6A1A43324B0A435A60304B1A686A
:101100002F4B802149040A431A60FFF7CDFA0300F0
:10111000BB6108E0FFF7C8FA0200BB69D31A022BD3
:1011200001D9032347E0264B1A6880239B04134010
:10113000F0D03FE0224B1A68214B24490A401A6044
:10114000FFF7B2FA0300BB6108E0FFF7ADFA020057
:10115000BB69D31A022B01D903232CE0184B1A6860
:1011600080239B041340F0D124E07B681B6A012B91
:1011700001D101231FE0124B5B687B61104BDB6ADE
:101180003B617A6980235B021A407B685B6A9A4202
:101190000ED13B690F221A407B68DB6A9A4207D165
:1011A0007A69F0239B031A407B689B6A9A4201D0BC
:1011B000012300E000231800BD4608B080BDC046F2
:1011C0000010024088130000FFFFFFEFFFFFFFFE4B
:1011D000FFFFC2FF80B584B000AF786039607B68E4
:1011E000002B01D10123B3E05B4B1B6801221340AC
:1011F0003A689A4211D9584B1B680122934319004F
:10120000554B3A680A431A60534B1B68012213403E
:101210003A689A4201D001239AE07B681B68022257
:10122000134015D07B681B680422134006D04B4B3B
:101230005A684A4BE021C9000A435A60474B5B6831
:10124000F022934319007B689A68444B0A435A6022
:101250007B681B680122134040D07B685B68012BD0
:1012600007D13E4B1A6880239B02134014D10123FF
:101270006EE07B685B68022B07D1384B1A688023CD
:101280009B04134008D1012362E0344B1B68022207
:10129000134001D101235BE0304B5B680322934391
:1012A00019007B685A682D4B0A435A60FFF7FCF916
:1012B0000300FB6009E0FFF7F7F90200FB68D31AAF
:1012C000274A934201D9032342E0244B5B680C2256
:1012D0001A407B685B689B009A42ECD11E4B1B68EE
:1012E000012213403A689A4211D21B4B1B6801221B
:1012F00093431900184B3A680A431A60164B1B684F
:10130000012213403A689A4201D0012320E07B6811
:101310001B680422134009D0104B5B68114A13402C
:1013200019007B68DA680D4B0A435A6000F020F818
:1013300001000A4B5B681B090F2213400A4AD35C69
:101340000A00DA40094B1A600020FFF767F9002312
:101350001800BD4604B080BD0020024000100240CD
:1013600088130000FFF8FFFF9840000800000020ED
:1013700090B58FB000AF1423FB182B4A13CA13C3C8
:1013800012681A603B1D294A13CA13C312681A60F7
:101390000023FB620023BB6200237B6300237B628C
:1013A00000233B63224B5B68FB62FB6A0C22134009
:1013B000042B02D0082B03D02DE01E4B3B632DE005
:1013C000FB6A9B0C0F2213401422BA18D35C7B6279
:1013D000174BDB6A0F2213403A1DD35CBB62FA6ADB
:1013E00080235B02134009D0B96A1248FEF79EFEC3
:1013F00003001A007B6A53437B6309E0796A0A00A1
:101400005201521A93019B1ADB005B181B027B638B
:101410007B6B3B6302E0074B3B63C0463B6B1800B2
:10142000BD460FB090BDC046784000088840000817
:101430000010024000127A0080B500AF024B1B681A
:101440001800BD4680BDC0460000002080B500AF3A
:10145000FFF7F2FF0100064B5B681B0A07221340EF
:10146000044AD35CD9400B001800BD4680BDC0467D
:1014700000100240A840000880B586B000AF786038
:1014800000233B610023FB607B681A6880235B02BA
:10149000134000D18EE017203B1800221A705F4BDA
:1014A000DA6980235B05134010D15C4BDA695B4B32
:1014B000802149050A43DA61584BDA6980235B05CC
:1014C0001340BB60BB683B1801221A70544B1A686A
:1014D00080235B0013401AD1514B1A68504B802176
:1014E00049000A431A60FFF7DFF803003B6108E098
:1014F000FFF7DAF802003B69D31A642B01D9032302
:1015000087E0474B1A6880235B001340F0D0434BC1
:101510001A6AC0239B001340FB60FB68002B34D089
:101520007B685A68C0239B001340FA689A422CD00B
:101530003A4B1B6A3B4A1340FB60384B1A6A374BE5
:10154000802149020A431A62344B1A6A334B3649E6
:101550000A401A62314BFA681A62FB680122134092
:1015600013D0FFF7A1F803003B6109E0FFF79CF8F7
:1015700002003B69D31A2D4A934201D9032348E064
:10158000264B1B6A02221340F0D0244B1B6A254ACB
:10159000134019007B685A68204B0A431A621723CC
:1015A000FB181B78012B05D11C4BDA691B4B20491A
:1015B0000A40DA617B681B680122134009D0174B8F
:1015C0001B6B0322934319007B689A68134B0A43F1
:1015D0001A637B681B682022134009D00F4B1B6BDA
:1015E0001022934319007B68DA680C4B0A431A6394
:1015F0007B681A688023DB00134009D0074B1B6B04
:101600004022934319007B681A69044B0A431A630A
:1016100000231800BD4606B080BDC0460010024041
:1016200000700040FFFCFFFFFFFFFEFF881300007B
:10163000FFFFFFEF80B582B000AF78607B68002BC2
:1016400001D1012342E07B683D229B5CDBB2002B91
:1016500007D17B683C22002199547B681800FEF773
:10166000CBFE7B683D22022199547B681A687B6817
:1016700004331900100000F0E3F97B6846220121D1
:1016800099547B683E22012199547B683F220121B5
:1016900099547B684022012199547B6841220121A1
:1016A00099547B684222012199547B68432201218D
:1016B00099547B684422012199547B684522012179
:1016C00099547B683D220121995400231800BD469E
:1016D00002B080BD80B584B000AF78607B683D22E9
:1016E0009B5CDBB2012B01D001233BE07B683D22F8
:1016F000022199547B681B68DA687B681B680121AA
:101700000A43DA607B681B68184A93420FD07B68F3
:101710001A688023DB059A4209D07B681B68144A4B
:10172000934204D07B681B68124A934211D17B68B4
:101730001B689B6807221340FB60FB68062B10D0D8
:101740007B681B681A687B681B6801210A431A6062
:1017500007E07B681B681A687B681B6801210A43E5
:101760001A6000231800BD4604B080BD002C014063
:10177000000400400040014080B582B000AF7860B6
:101780007B681B68DA687B681B6801218A43DA6022
:101790007B681B681B6A0D4A13400DD17B681B6870
:1017A0001B6A0B4A134007D17B681B681A687B6869
:1017B0001B6801218A431A607B683D2201219954EC
:1017C00000231800BD4602B080BDC04611110000C4
:1017D0004404000080B582B000AF78607B681B686D
:1017E0001B6902221340022B24D17B681B68DB6833
:1017F00002221340022B1DD17B681B680322524238
:101800001A617B6801221A777B681B689B69032237
:10181000134004D07B68180000F0FAF807E07B68FA
:10182000180000F0EDF87B68180000F0F9F87B680C
:1018300000221A777B681B681B6904221340042B63
:1018400025D17B681B68DB6804221340042B1ED162
:101850007B681B68052252421A617B6802221A7754
:101860007B681B689A69C0239B00134004D07B6887
:10187000180000F0CDF807E07B68180000F0C0F811
:101880007B68180000F0CCF87B6800221A777B6830
:101890001B681B6908221340082B24D17B681B6836
:1018A000DB6808221340082B1DD17B681B680922C6
:1018B00052421A617B6804221A777B681B68DB69D5
:1018C0000322134004D07B68180000F0A1F807E061
:1018D0007B68180000F094F87B68180000F0A0F80E
:1018E0007B6800221A777B681B681B6910221340F3
:1018F000102B25D17B681B68DB6810221340102B4E
:101900001ED17B681B68112252421A617B68082233
:101910001A777B681B68DA69C0239B00134004D0E8
:101920007B68180000F074F807E07B68180000F08E
:1019300067F87B68180000F073F87B6800221A775C
:101940007B681B681B6901221340012B0FD17B6848
:101950001B68DB6801221340012B08D17B681B68E0
:10196000022252421A617B68180001F06BFE7B680C
:101970001B681B6980221340802B0FD17B681B687A
:10198000DB6880221340802B08D17B681B68812292
:1019900052421A617B68180000F038F97B681B68B6
:1019A0001B6940221340402B0FD17B681B68DB680A
:1019B00040221340402B08D17B681B6841225242D1
:1019C0001A617B68180000F033F87B681B681B699C
:1019D00020221340202B0FD17B681B68DB6820225C
:1019E0001340202B08D17B681B68212252421A61C8
:1019F0007B68180000F002F9C046BD4602B080BD09
:101A000080B582B000AF7860C046BD4602B080BDF0
:101A100080B582B000AF7860C046BD4602B080BDE0
:101A200080B582B000AF7860C046BD4602B080BDD0
:101A300080B582B000AF7860C046BD4602B080BDC0
:101A400080B584B000AF786039607B681B68FB604C
:101A50007B68344A934208D07A688023DB059A4237
:101A600003D07B68304A934208D1FB6870229343CD
:101A7000FB603B685B68FA681343FB607B68294A3C
:101A8000934218D07A688023DB059A4213D07B6892
:101A9000254A93420FD07B68244A93420BD07B683F
:101AA000234A934207D07B68224A934203D07B6843
:101AB000214A934208D1FB68204A1340FB603B68EF
:101AC000DB68FA681343FB60FB68802293431A00CB
:101AD0003B685B691343FB607B68FA681A603B688C
:101AE0009A687B68DA623B681A687B689A627B68EE
:101AF0000C4A93420BD07B680D4A934207D07B6817
:101B00000C4A934203D07B680B4A934203D13B6853
:101B10001A697B681A637B6801225A61C046BD4618
:101B200004B080BD002C01400004004000200040B3
:101B3000004001400044014000480140FFFCFFFF1D
:101B400080B584B000AF786039607B683C229B5CD4
:101B5000012B01D1022347E07B683C2201219954EB
:101B60007B683D22022199547B681B685B68FB609F
:101B70007B681B689B68BB60FB6870229343FB60BB
:101B80003B681B68FA681343FB607B681B68FA6854
:101B90005A607B681B68164A93420FD07B681A68AC
:101BA0008023DB059A4209D07B681B68114A934267
:101BB00004D07B681B68104A93420CD1BB6880221A
:101BC0009343BB603B685B68BA681343BB607B6848
:101BD0001B68BA689A607B683D22012199547B6832
:101BE0003C220021995400231800BD4604B080BD5A
:101BF000002C0140000400400040014080B582B04C
:101C000000AF7860C046BD4602B080BD80B582B0EE
:101C100000AF7860C046BD4602B080BD80B582B0DE
:101C200000AF78607B68002B01D1012344E07B6822
:101C30009B6F002B07D17B687422002199547B682D
:101C40001800FEF7FFFB7B6824229A677B681B68FD
:101C50001A687B681B6801218A431A607B68180038
:101C600000F0DAF80300012B01D1012324E07B68A6
:101C70005B6A002B03D07B68180000F00DFA7B68CC
:101C80001B685A687B681B680D490A405A607B686C
:101C90001B689A687B681B682A218A439A607B6864
:101CA0001B681A687B681B6801210A431A607B68FD
:101CB000180000F0A5FA03001800BD4602B080BD70
:101CC000FFB7FFFF80B58AB002AFF860B9603B6034
:101CD000BB1D1A80FB689B6F202B00D096E0BB6871
:101CE000002B03D0BB1D1B88002B01D101238EE0EC
:101CF000FB689A6880235B019A4209D1FB681B69E3
:101D0000002B05D1BB680122134001D001237EE0E6
:101D1000FB6874229B5C012B01D1022377E0FB68F6
:101D2000742201219954FB68802200219950FB689C
:101D300021229A67FEF7B8FC03007B61FB68BA1D9D
:101D4000502112885A52FB68BA1D522112885A52E9
:101D5000FB689A6880235B019A4208D1FB681B6983
:101D6000002B04D10023FB61BB68BB6103E0BB68AF
:101D7000FB610023BB61FB687422002199542DE0B4
:101D80007A69F8683B68009313000022802100F014
:101D90007FFA031E01D0032339E0FB69002B0BD12E
:101DA000BB691A88FB681B68D205D20D92B21A85EE
:101DB000BB690233BB6108E0FB691A78FB681B68EA
:101DC00092B21A85FB690133FB61FB6852229B5A70
:101DD0009BB2013B99B2FB6852229952FB68522296
:101DE0009B5A9BB2002BCBD17A69F8683B68009371
:101DF00013000022402100F04BFA031E01D0032300
:101E000005E0FB6820229A67002300E00223180007
:101E1000BD4608B080BD000080B588B000AF7860D6
:101E20001E23FB1800221A707B689A687B681B6966
:101E30001A437B685B691A437B68DB6913437B61E8
:101E40007B681B681B688D4A134019007B681B6800
:101E50007A690A431A607B681B685B68884A13408A
:101E600019007B68DA687B681B680A435A607B68E4
:101E70009B697B617B681B6A7A6913437B617B6822
:101E80001B689B687F4A134019007B681B687A694E
:101E90000A439A607B681B687B4A934227D17B4B3D
:101EA0001B6B03221340032B0DD01BD8022B14D025
:101EB00018D8002B02D0012B0AD013E01F23FB18E7
:101EC00000221A7021E01F23FB1802221A701CE066
:101ED0001F23FB1804221A7017E01F23FB18082287
:101EE0001A7012E01F23FB1810221A700DE07B6895
:101EF0001B68674A934204D11F23FB1800221A7003
:101F000003E01F23FB1810221A707B68DA69802314
:101F10001B029A425DD11F23FB181B78082B15D09A
:101F200018DC042B0DD015DC002B02D0022B05D0C1
:101F300010E0FFF78BFA0300BB6112E0554BBB6169
:101F40000FE0FFF715FA0300BB610AE080231B02D4
:101F5000BB6106E00023BB611E23FB1801221A703F
:101F6000C046BB69002B00D17BE0BB695A007B688F
:101F70005B685B08D2187B685B6819001000FEF78D
:101F8000D5F803009BB23B613B690F2B1CD93A6922
:101F900080235B029A4217D23B699AB20E203B180B
:101FA0000F218A431A803B695B089BB207221340CA
:101FB00099B23B183A1812880A431A807B681B684A
:101FC0003A181288DA604CE01E23FB1801221A70BE
:101FD00047E01F23FB181B78082B15D018DC042BB7
:101FE0000DD015DC002B02D0022B05D010E0FFF73E
:101FF0002DFA0300BB6112E0264BBB610FE0FFF737
:10200000B7F90300BB610AE080231B02BB6106E055
:102010000023BB611E23FB1801221A70C046BB6956
:10202000002B1ED07B685B685A08BB69D2187B689E
:102030005B6819001000FEF779F803009BB23B6162
:102040003B690F2B09D93A6980235B029A4204D27B
:102050007B681B683A69DA6003E01E23FB180122E3
:102060001A707B6800225A667B6800229A661E23DB
:10207000FB181B781800BD4608B080BDF369FFFF50
:10208000FFCFFFFFFFF4FFFF0038014000100240C8
:102090000044004000127A0080B582B000AF786042
:1020A0007B685B6A012213400BD07B681B685B680E
:1020B0004A4A134019007B689A6A7B681B680A4386
:1020C0005A607B685B6A022213400BD07B681B68F6
:1020D0005B68434A134019007B68DA6A7B681B68B7
:1020E0000A435A607B685B6A042213400BD07B680A
:1020F0001B685B683B4A134019007B681A6B7B685E
:102100001B680A435A607B685B6A082213400BD045
:102110007B681B685B68344A134019007B685A6B04
:102120007B681B680A435A607B685B6A1022134015
:102130000BD07B681B689B682C4A134019007B6896
:102140009A6B7B681B680A439A607B685B6A2022F3
:1021500013400BD07B681B689B68254A134019000D
:102160007B68DA6B7B681B680A439A607B685B6AF2
:10217000402213401DD07B681B685B681D4A1340DA
:1021800019007B681A6C7B681B680A435A607B687D
:102190001A6C80235B039A420BD17B681B685B68D7
:1021A000154A134019007B685A6C7B681B680A4308
:1021B0005A607B685B6A802213400BD07B681B6887
:1021C0005B680E4A134019007B689A6C7B681B6839
:1021D0000A435A60C046BD4602B080BDFFFFFDFF06
:1021E000FFFFFEFFFFFFFBFFFF7FFFFFFFEFFFFF94
:1021F000FFDFFFFFFFFFEFFFFFFF9FFFFFFFF7FF87
:1022000080B586B002AF78607B688022002199504B
:10221000FEF74AFA0300FB607B681B681B68082214
:102220001340082B0CD1FB68802291037868174A71
:102230000092002200F02CF8031E01D0032321E0BD
:102240007B681B681B6804221340042B0CD1FB68BD
:102250008022D10378680D4A0092002200F018F81D
:10226000031E01D003230DE07B6820229A677B6860
:102270002022DA677B6800221A667B6874220021BC
:10228000995400231800BD4604B080BDFFFFFF0134
:1022900080B584B000AFF860B9603B60FB1D1A7078
:1022A0005EE0BB6901335BD0FEF7FEF902003B68DC
:1022B000D31ABA699A4202D3BB69002B1BD1FB68BF
:1022C0001B681A68FB681B682F490A401A60FB6884
:1022D0001B689A68FB681B6801218A439A60FB6847
:1022E00020229A67FB682022DA67FB6874220021AB
:1022F0009954032344E0FB681B681B6804221340C5
:102300002ED0FB681B68DA6980231B011A408023EA
:102310001B019A4224D1FB681B68802212011A62B9
:10232000FB681B681A68FB681B6817490A401A603B
:10233000FB681B689A68FB681B6801218A439A60E6
:10234000FB6820229A67FB682022DA67FB688022FC
:1023500020219950FB6874220021995403230FE037
:10236000FB681B68DB69BA681340BA68D31A5A4223
:102370005341DBB21A00FB1D1B789A4291D0002317
:102380001800BD4604B080BD5FFEFFFF10B5034BD3
:102390000A001B680021984710BDC0460C000020B1
:1023A00010B56C22002101F034FA10BD10B50028E0
:1023B00002D06C21FFF7EAFF10BDC046002310B524
:1023C00003604360002912D1114A124B124C826003
:1023D000C360124A124B04614261124C124A83617B
:1023E000124BC461026243628166002010BD104A34
:1023F000104B114C8260C360104A114B0461426162
:10240000104C114A8361114BC46102624362EBE7D5
:1024100067E6096A85AE67BB72F36E3C3AF54FA575
:102420007F520E518C68059BABD9831F19CDE05BA1
:10243000D89E05C107D57C3617DD703039590EF7A7
:10244000310BC0FF11155868A78FF964A44FFABE6D
:10245000F0B5DE4657464E4645460C000100E0B555
:10246000E9B020221F90083120A801F0C9F9637853
:10247000227C99469346227D23789446E27A9A46B6
:102480009046627B63790392E27C1B0404924A4685
:10249000120491465246120692465A461206934636
:1024A000624612060193944653464A461A439246A0
:1024B0004246617A267A0904029136065946164345
:1024C000E27DE37890460093019B0196049E039A77
:1024D0000E43B146A6784146B34666460E43039680
:1024E0005646E179207B8C460099E57B0E43A17925
:1024F000B2468846594609028B46414666462779C8
:10250000000628433F0612041F430243090288467F
:10251000637C657D3E43A77A029900924A461B047C
:102520001A43A37D9146039A1B022D04B44615431A
:10253000019E524601935B461A431C9243466246F3
:1025400031433F023943A67B12912A91617E009F5D
:1025500088463602202137433E0011974F461A43E2
:10256000019BA07C1D43E37E0A921C9A0093635C4E
:1025700004310002149528922D950A9A655C043165
:102580000743605C043129922B96227F267E1397A5
:102590002C97675C0431615C12060D91E17F01921A
:1025A00089462321615C22228C462121615CA25C48
:1025B0008B462721615C029203912521615C2622D2
:1025C00004912B21615CA25C06912921615C05923A
:1025D00007912F21615C2A2209912D21615CA25C67
:1025E0000B91332108922E22615CA25C0E91312165
:1025F0000C923222615C36060F91617F1B068A467F
:102600000D99A25C2D060D92009A000616434246D3
:10261000120490464A460096019E3F061643320039
:1026200056463604B246664633435E463604B446E2
:10263000039E09063543A67E0193B346049E009B84
:1026400036040396069E3043A67FB146079E3604A5
:102650000496099E37430B9E360406960E9E314320
:102660000F9E3604079646461E43B0465E46360227
:10267000B34656461643B2464E463602B146664605
:10268000019B029A3343039E12022E43059D01963D
:102690002D02AC46089D049E2D0230430295069EF5
:1026A00000920C9A37431602079A5D461143039134
:1026B0004146294310914D465146294365460F91A5
:1026C000009937431943019B3E002B431B93029D06
:1026D0003193324B284307939A46342305000D9AD1
:1026E0001797039F1202174328AA19973497069247
:1026F0003F2735221A90109833962E90E65C0F985B
:1027000004333295E55C04332F90E05C053BE35CD9
:10271000159100933091A15CE75D0632B8463D27E4
:10272000E35D073FA25CE75D91469B46BC463E23C6
:1027300039223A27A25CE75DE45C009B36061E4323
:102740004B462D061D434346000618435B460904CD
:102750001B040E436146184333001204090215435B
:102760000B432A00010027983F0205902498240279
:10277000019026983A43804625982143039021985A
:102780001893049022980C92029023980B91814602
:102790002098359300903692379101E0B0400008C0
:1027A000019B009F1900062218000B243E00D14116
:1027B000043AD641E0413A0019250234E24148404A
:1027C0003C005146EB41033DEC410D6806997240D7
:1027D000464658400B680399EB184546C0183B0025
:1027E0004E40019962400E4004996E40029D0F4395
:1027F0008019059E0B402F40B4461F43D2194F4607
:1028000060443F1891463E000B248144E641380065
:1028100006223100D04102264A461925F2413E00E7
:10282000EE414D460234E54116234C46DC41534609
:10283000414006985B6840686A40181840448446E6
:102840000398019D03006B40009D3B407140434055
:102850002E004846064304986344064018002B00A7
:1028600040184D4602992B408B461E4362408344DC
:1028700092191018594606220226D14102005D46DF
:102880008C460B245946F2411736F5410600E141CA
:102890000234E04116233400DC410594644653467B
:1028A0006140069C9B68A4689846A446039CE0444B
:1028B000A446019C4240230002925A467B401340AA
:1028C0004046320063404C4669404D4660441440E7
:1028D000C31820003543009E059C35401600029A1F
:1028E0000543049862405918551942186B18150091
:1028F0000621CD410B20A84615001900C541093815
:10290000C141192410000492E0410D221C00D44161
:102910000393A4461C0016234246DC41534602940E
:102920005540DB68069A5C46D26845409046624650
:102930005140019A434494463A006240049C0196F7
:1029400022407A409046039C3000634426404A4629
:102950004344B046029E20437140009E10404246D0
:10296000B4465B1910439C440918664660468C4681
:102970000B259C443300EB41654600930223310054
:10298000DD41192406220295E1416546D041073216
:10299000D5410C0062461621CA41110052462B0057
:1029A0001569069A126990464544ED195F46009AEA
:1029B00000965040049A6040574037405E46039A64
:1029C0007740029EEF197340150066463543019E1D
:1029D00014003540664634403F184B402C431C19C8
:1029E000B9444946A1460800B94406270B25F841D9
:1029F00002230F004C46EF41DC410D224B46B84606
:102A0000D34116274A46FA411700524646460E352C
:102A10000591E9415569069A70405269049E9046B5
:102A2000009A634072401600059A64461640049A64
:102A3000454456404A465D4414434840AE196146F9
:102A40002500039C114025407B4029435918019BD8
:102A500036189846B04489190B234646DE410B00D0
:102A600032000226F3410D251C000B00EB410193BF
:102A700043461736F341062740460E00F8411F0033
:102A80001623DE41534602919D69069B5040996989
:102A9000049A6918009D93462A00059B59445A40A0
:102AA00043461A40019B6A404D46634064468A187B
:102AB000029978400D432540039C4F46A3461218C7
:102AC00093440F403D43594606270B20F9415F468A
:102AD000C74173405B199A1810003B00170002228F
:102AE0000D24D74102005D46E2410C340395049069
:102AF000E54104001620C44150460194069CC0697B
:102B0000E66959408019009B059E9B464446330068
:102B10006340039C584423407340C018029B4C46BA
:102B20001E007A40049F69403E4326403B401E43BE
:102B300020239B46069B41185B448C4406936346C6
:102B4000019C01936240921953180093064BDA449A
:102B50009A4500D024E6079B0133FF331E93024BB6
:102B60009A4638AB9B4610E0F0400008169B0B9548
:102B70000C93079B1B93069B15930D9B1A930E9B1F
:102B80001793089B1993099B18930C9A1123110012
:102B9000D9418C4611001322D141019A0B00062025
:102BA00011000B24C1411000E0410A9D07902E0046
:102BB00028001225EE4137001600043CE041123493
:102BC000E641009C0D222500D541220008950225F2
:102BD000EA411435EC4165466B400C9D7840AD0AE6
:102BE0000695079D69401C9D079129001B9DAC46D9
:102BF00061440D000699AC464B400799019D4E403B
:102C00000A996344CF0878404746039918184F4003
:102C1000390047462940794071180B9E112337002F
:102C2000DF41330007971327FB41089D0D936A404E
:102C300053465440009A844615001E68049B029F28
:102C400089190690129E05981D433D40614407274F
:102C5000844630001A40F8412A43370012254E4678
:102C6000EF4161447318A41864180E9706211F00E1
:102C70000B26CF41190025000D22F141D5410890C6
:102C800016971C910993190016232A0019250594FB
:102C90002600DC41E9410D9B0B981D94079C0D001B
:102CA00063401A99840A0A98A1468C460400644439
:102CB000A4464C46089863400E9C1299444020005C
:102CC000CC08634411996040181807900723080046
:102CD0000227D841FE41169C0B001C998446614096
:102CE000122054467240039EC3416068340069401C
:102CF000019D40446C402500099C25407540079E7D
:102D0000B04640442D181D98059E424000984D192C
:102D100004003443049E0599344006000E40069991
:102D2000344308001126F04114198046132208008C
:102D3000D041029A06219146A94462194C46CC41E1
:102D4000494608940B24E1411400FA411600220080
:102D50000B37FA4167464D460D927B401922119F71
:102D60000A95FF08B946129FD541033A0294D4410F
:102D70003A00179FBC464F4662447B404746944604
:102D8000069A7840970A784063441B1813981F00EE
:102D900002000723DA410300122090460D9AC34136
:102DA000724056460898624041406940039DB068B1
:102DB000AC46099E019D604475400A9EBC46354064
:102DC000019E60447540059E0D973400029F2D18AA
:102DD00000983C43044007984D193E4011210700DC
:102DE000CF410231C8410499344314194A191600DD
:102DF00065190624E641089616000534E641B946F1
:102E0000290002273400049216001922F941D64104
:102E1000033A0E9103952900D54142465340139A37
:102E20000B37D208F9411700119A7B409446199A42
:102E3000079F90464A46C4445040BA0A50406344F3
:102E40001B1814981F0002000723DA410300122008
:102E5000C3411800089B91465C400E9B019A594063
:102E600053469446DB6874406344BC460A9E099A04
:102E700063445640049A0E97099F16407E40029F75
:102E8000F6183B00A6193C00039A6940059D1343C0
:102E90002B400D9D1440234311222C00D44101945A
:102EA0001324C918009B89199A19E54113000C00D5
:102EB0000621CB41110098460B23D941230002275C
:102EC0001E00FC410B37FE41129619260092F2417A
:102ED00011924A461E005040149A0937D208FE410A
:102EE0001700139A78409446189A019F91467D40A6
:102EF0000D9FCC44BA0A60445540109A4519089574
:102F000007201500C5410B30C241139515004246FC
:102F10005140129A09985440524684460A981269C0
:102F200007009146119AE1445140049A7440574079
:102F3000009A01931740089A47409446039AE14447
:102F4000100018434F440600C919170002981F408B
:102F500006400E983E4311220700D741A41911974D
:102F600006001327FE41059FA146BC468C446246DD
:102F70000624894461464B46E2410534E141093C5F
:102F8000E3410D201C004B466746C3410C300597BA
:102F9000C741984612974B461627FB411F00109BCE
:102FA0001398DB080993149B68401D000C9B51404B
:102FB0009C46099B65445840119B40195E400E9BFE
:102FC0000A9A9D0A6E4083190F9E07253000E8413A
:102FD00035001226F54146467440564694467669B9
:102FE0001195129DB4446940049E009D059A98462F
:102FF0006E400993019D049B16405E404A462B009B
:10300000C444134366447C401F0089192E00039B6F
:1030100016401F402B00089D37432A001126E41953
:10302000F24113272E00FE41029F0225B846884434
:10303000671806244146E141444612910B21CC41D8
:1030400021003C00EC4114943C000A9242460B35AE
:10305000EC410C35EA411392119A033D50400F9A0E
:103060000297EF41D5080195109A15000B9A9446E6
:10307000019A654450400A9A40195640089A0193B3
:10308000950A6E40801956461690B069129E009DB2
:103090007140049E059AB44646466A403240169EE8
:1030A0006044B4464E4660446A4012180298149D2B
:1030B00006436C403500139E1D40159B0720714050
:1030C0001E00C64104961E000B30C64130004E461D
:1030D00089187C40099A029F13003E401127FB414A
:1030E0000A93039B35439C466419641815008C446D
:1030F00021000237FD41063FF94102232700DF414D
:10310000129716272300FC41674613940624E741D3
:103110006246109767460534E2410E340397E74153
:103120000A9C049E65400F9C7040A446159E069C18
:10313000F608704056466044A4461197F669099F08
:103140003400129E60444E400A96BE0A059F7540A8
:1031500045194646380070404E46A446039C0493E9
:103160002040109C029962407840029C049F1943C1
:103170003C403140139F0A9E009B774020266344C9
:10318000B4465E462143119C5B19C0186240121878
:103190001B98069C0A901A98791812901798079F06
:1031A00011901998346077600E9C0D9F13901898B9
:1031B000B760F4601490169BE244B361019B8918D8
:1031C0009C4694440B9A00910F92202261469446AB
:1031D000089C099F346177610C9CF5611E9B159ECC
:1031E00010940191E3441C969A4500D0BEE40098E7
:1031F0001F9984468B68049863448446CA680C69A6
:1032000062449246029A8E699446019A64449446B6
:10321000039A66449446CD69059A086A65449446C3
:103220001F9A40444F69496A9360106253460020D8
:103230004F446144D360146157619661D561516216
:1032400069B0F0BCBB46B246A946A046F0BDC04638
:10325000F8B54746CE460E0080B514000700002A98
:103260003FD03F25006883183B600540934202D25F
:103270007B6801337B60002D10D13F2C03D829E0FF
:1032800040363F2C24D931003800FFF7E1F8403CAC
:103290000028F5D0C0BCB946B046F8BD40235B1B42
:1032A00098469C42E9D328239946B9444B463100BD
:1032B0004246581900F0A4FA49463800FFF7C8F80A
:1032C0000028E7D16419403C002546443F2CDAD859
:1032D000002C06D03800283022003100401900F0C0
:1032E0008FFA0020D6E7C0463F2370B50400802245
:1032F00000680D0018402318283301301A70382850
:1033000000D965E02600483A2836121A0021301804
:1033100000F07FFA22686368510FDB000B43D20094
:1033200012BA1BBA3100200062662366FFF790F8DC
:1033300000284CD1E37A2B7063896B70A3681B0A59
:10334000AB70A368EB70E37B2B71E3896B71E3686F
:103350001B0AAB71E368EB71E37C2B72638A6B72BF
:1033600023691B0AAB722369EB72E37D2B73E38A3B
:103370006B7363691B0AAB736369EB73E37E2B7436
:10338000638B6B74A3691B0AAB74A369EB74E37F53
:103390002B75E38B6B75E3691B0AAB75E369EB7502
:1033A000236A1B0E2B76638C6B76236A1B0AAB7623
:1033B000236AEB76A36E002B09D1636A1B0E2B7771
:1033C000E38C6B77636A1B0AAB77636AEB7770BD3C
:1033D0002600402228360021121A301800F019FA6F
:1033E00031002000FFF734F80028F0D13822002106
:1033F000300000F00EFA8DE7F0B51C009DB005001E
:1034000001A80E001700FEF7CBFF210001A8FEF770
:10341000D5FF041E05D001A8FEF7C8FF20001DB08F
:10342000F0BD3200290001A8FFF712FF041EF2D1FF
:10343000390001A8FFF758FF0400ECE7130010B5AE
:103440000200080019000023FFF7D6FF10BDC04698
:1034500010B500F051F900F0FDF800F011F9134A31
:103460001349144800F02AF9134800F027F9134CC7
:103470001348E26A216B203400F020F90ECC80243E
:103480001048640000F01AF9220000210E4800F0F4
:10349000C0F9220000210D4800F0BBF922000021F4
:1034A0000B4800F0B6F900F015F810BDB041000867
:1034B00030420008B0420008FC4200087C060020B0
:1034C0000C430008344300089C0000209C010020AD
:1034D0009C020020F0B5DE46574645464E46802207
:1034E000E0B53B4C0025A54400240023D2000AA8E7
:1034F00000F09CF8374B384F9946384B9A46384B7A
:103500009846384B9B46384B01932100484600F0C3
:10351000D5F800F09FF822002B000AA902A8FFF7B7
:103520008DFF060000F0ACF852463B6811685A1C4B
:103530003A6042469B00C817D150002E44D10F225A
:103540005B46024052181B680198121100F0B6F851
:1035500023002B4332D024196D41002D03D1802349
:10356000DB00A342D1D2002320483B6000F046F8A4
:103570001F4800F0A3F880231E4ADB00002400252A
:1035800091469A4640463B6821009A008258013392
:1035900048463B6000F092F823002B4311D02419D9
:1035A0006D41002D01D1A245ECD23000124B9D445B
:1035B000F0BCBB46B246A946A046F0BD0824002593
:1035C000A3E708240025DDE704267642CBE7C046C2
:1035D000D4FBFFFF604300089C0300209400002000
:1035E0009C02002098000020704300088C430008D3
:1035F00094430008A44300082C040000010010B507
:10360000054B064A064800F059F80649064820319D
:103610000EC900F053F810BDB04100083042000858
:10362000B04300087C060020F0430008134308D094
:10363000302103008218081AC1181970013393420F
:10364000FAD17047024A1368013313607047C046CD
:10365000A0030020002210B5064C074B21681A6019
:103660004A62FDF721F8054B18602000FEF732F89A
:1036700010BDC04630060020A003002098000020A6
:1036800010B50A4C2000FEF777F8094B22681B683A
:10369000526A084C1B0413432360FDF705F803002E
:1036A000054A206811685B1A136010BD30060020BF
:1036B000A003002094000020980000200FB430B533
:1036C00083B006AA0A4C02CA2000019200F0C0F89A
:1036D0002000FCF719FD074D82B264232100280069
:1036E000FEF7F0FA03B030BC08BC04B01847C0467F
:1036F000A4030020AC05002080B500AF244B342289
:103700000021180000F085F8214B802212051A6074
:103710001F4B1A681E4B5A601E4A1D4B9A601E4A68
:103720001B4B9A611D4A1A4BDA611D4A184BDA602D
:103730001C4A174B5A611C4A154B1A61144B9A6864
:10374000134B5B68D21A124B1A62114B5A69104B19
:10375000DB68D21A0E4B5A620D4BDA690C4B9B692F
:10376000D21A0B4B9A620A4B5A6A094B9B6AD218BF
:10377000074BDA62064B1A69054B5B6AD218044B99
:103780001B68D21A024B1A63C046BD4680BDC046B4
:103790007C0600207840000874000020C00600204D
:1037A000000000207400002054440008014B1868F9
:1037B0007047C0461000002070B500260C4D0D4C1F
:1037C000641BA410A64209D1002600F049FC0A4D52
:1037D0000A4C641BA410A64205D170BDB300EB587F
:1037E00098470136EEE7B300EB5898470136F2E709
:1037F0004C4400084C4400084C4400085044000865
:10380000002310B59A4200D110BDCC5CC4540133E2
:10381000F8E703008218934200D170471970013312
:10382000F9E7000000B59BB00091049106490591AD
:10383000029106490391694600F078F80023009A46
:1038400013701BB000BDC046FFFFFF7F0802FFFFE3
:1038500010B513000A00010002480068FFF7E2FFFC
:1038600010BDC04610000020F0B58E6885B007007E
:103870000C00039201939E423CD890238A89DB007E
:103880001A4234D00325096923685B1A02936369DD
:1038900002985D43EB0F5D19019B6D1001331B18FE
:1038A000AB4200D91D00530532D52900380000F085
:1038B00027FB061E09D10C233B6040230120A2896F
:1038C00040421343A38105B0F0BD029A2169FFF77E
:1038D00097FFA389144A1A4080231343A381029BB4
:1038E0002661F61826606561019EED1AA560019BB0
:1038F0009E4200D9019E32000399206800F0A3FA8D
:10390000A36800209B1BA36023689E192660DAE74A
:103910002A00380000F052FB061EE0D13800216971
:1039200000F0A4FAC7E7C0467FFBFFFFF0B5A1B0E7
:1039300003901D008B890F0016001B0611D50B6923
:10394000002B0ED1402100F0DBFA386038610028EE
:1039500005D10C23039A0138136021B0F0BD402338
:103960007B61002308AC6361203363761033A37658
:10397000079535002B78002B01D0252B47D1AB1BA9
:103980000593B5420CD0320039000398FFF76CFF65
:10399000431C00D1AEE06269059B944663446361B9
:1039A0002B78002B00D1A5E0012200235242626057
:1039B00004A9543252186E1C2360E360A360137094
:1039C000A36505223178544800F032FA751C0028AE
:1039D0001FD12268D30604D5532304A95B182021E4
:1039E0001970130704D5532304A95B182B211970F0
:1039F00033782A2B16D0350000210A20E3682A7874
:103A00006E1C303A092A4ED9002911D117E0013530
:103A1000B0E7414B2268C01A0123834013432E00B4
:103A20002360CEE7079B191D1B680791002B01DB64
:103A30000B9304E05B42E3600223134323602B7883
:103A40002E2B0AD16B782A2B35D1079B02351A1DF4
:103A50001B680792002B2BDB0993304E03223000AA
:103A6000297800F0E5F9002806D04023801B834028
:103A700022680135134323602978062228486E1CEA
:103A8000217600F0D5F900283CD0264B002B25D11B
:103A90000722079B07339343083307936369049A0C
:103AA0009B18636165E74343350001219B18A6E736
:103AB00001235B42D0E700230A201A00013563602E
:103AC00029786E1C3039092903D9002BC5D00992F9
:103AD000C3E74243350001235218F1E707AB0093D7
:103AE0003A002100104B039800E000BF0490049BB3
:103AF0000133D3D1BB890D985B0600D42DE701209B
:103B000040422AE707AB00933A002100064B039896
:103B100000F07CF8EAE7C046184400081E4400089C
:103B2000224400080000000069380008F7B51500BD
:103B300001938A680B690C000090934200DA13002D
:103B400022002B6043321278002A01D001332B600F
:103B500023689B0602D52B6802332B60226806235C
:103B600017001F401A4227D0230043331B785A1EE8
:103B700093412268920630D4220001990098089E51
:103B80004332B047431C25D0062320682A68E168E9
:103B900000250340042B03D18D1AEB43DB171D4096
:103BA000A3682269934201DD9B1AED180027BD42EC
:103BB00020D1002010E00137E3682A689B1ABB423D
:103BC000D2DD2200012301990098089E1932B047E6
:103BD000431CF0D101204042FEBD3020E1184331AA
:103BE000087021005A1C45310978A218433202336B
:103BF0001170C1E72200012301990098089E1A3232
:103C0000B047431CE6D00137D1E70000F0B58BB0D8
:103C100006920A0043320793059004920A7E0C0034
:103C2000109B782A06D8622A08D8002A00D1C0E062
:103C3000582A52D026004236327022E010006338F3
:103C40001528F7D8FCF768FA16001F00F6FFF6FFF4
:103C5000F6FFF6FF1F00F6FFF6FFF6FFF6FFA800DF
:103C600036009A00F6FFF6FFB900F6FF3600F6FFC1
:103C7000F6FF9E0026001A684236111D196013686F
:103C800033700123A7E0086819680A1D05060BD5E3
:103C90000D681A60002D03DA2D23049A6D4213700B
:103CA000614B0A27039332E00D681A604106F1D593
:103CB0002DB2EFE70D681968081D18602E0601D5B2
:103CC0000D6803E06D06FBD50D68ADB2564B0A27B3
:103CD00003936F2A17D1082715E045310A70524A1D
:103CE00003921A68216820CA1A60080650D5CB07CB
:103CF00002D52023194321601027002D03D1202352
:103D000022689A4322602300002243331A706368BA
:103D1000A360002B03DB0422216891432160002D66
:103D200002D1049E002B0CD0049E28003900FCF721
:103D300083FA039B013E5B5C33702B0005009F42BE
:103D4000F3D9082F09D12368DB0706D563682269F8
:103D5000934202DC3023013E3370049B9B1B2361A2
:103D6000079B210000930598069B09AAFFF7DEFE3A
:103D7000431C35D1012040420BB0F0BD2022096820
:103D80000A4322602200782145321170274AA7E7B2
:103D90004806ACD5ADB2AAE71A680D68101D49698E
:103DA000186013682E0601D5196002E06D06FBD578
:103DB00019800023049E2361D2E71A68111D19603F
:103DC000166800213000626800F032F8002801D047
:103DD000801B6060636823610023049A1370BFE74F
:103DE0002369320006990598079DA847431CC1D056
:103DF00023689B0715D4099BE0689842BCDA180039
:103E0000BAE72200012306990598079E1932B047A8
:103E1000431CAFD00135E368099A9B1AAB42F0DC32
:103E2000E9E70025F7E7C046294400083A440008BE
:103E3000C9B28218904201D10020704703788B42AA
:103E4000FBD00130F6E710B5884202D98B189842B2
:103E500003D3002307E08B5C8354013AFBD210BDEF
:103E6000CC5CC45401339A42FAD1F8E770B505002E
:103E7000002910D00C1F2368002B00DAE41828005A
:103E800000F0D4F81D4A1368002B05D1636014605C
:103E9000280000F0D3F870BDA34208D9216860184B
:103EA0008342F3D118685B6841182160EEE71A007D
:103EB0005B68002B01D0A342F9D911685018A042C9
:103EC0000BD120680918501811608342E0D118689E
:103ED0005B68411811605360DAE7A04202D90C23F5
:103EE0002B60D5E721686018834203D118685B68AE
:103EF0004118216063605460CAE7C046A4050020F1
:103F0000F8B50323CD1C9D43083506000C2D1FD2A8
:103F10000C25A9421ED8300000F088F825490A680F
:103F20001400002C1AD1244F3B68002B04D121002F
:103F3000300000F069F838602900300000F064F8C3
:103F4000431C2BD10C233000336000F077F803E0E2
:103F5000002DDEDA0C2333600020F8BD23685B1BE4
:103F600019D40B2B03D92360E418256003E06368A0
:103F7000A2420ED10B60300000F060F82000072252
:103F80000B30231D9043C21A9842E6D01B1AA3504F
:103F9000E3E75360EFE722006468C2E70323C41C31
:103FA0009C43A042E1D0211A300000F02DF8431CC0
:103FB000DBD1C7E7A4050020A8050020F8B507005D
:103FC0000D001600002905D11100FFF799FF04002C
:103FD0002000F8BD002A03D1FFF748FF3400F7E7BF
:103FE00000F034F82C00B042F2D231003800FFF774
:103FF00087FF041EECD029003200FFF701FC2900E6
:104000003800FFF733FFE3E7002370B5064D0400E7
:1040100008002B60FCF788FA431C03D12B68002BA7
:1040200000D0236070BDC046B006002010B5024825
:1040300000F014F810BDC046B806002010B50248C4
:1040400000F00DF810BDC046B80600200B1F1B681D
:10405000181F002B01DA0B58C018704770477047C3
:10406000F8B5C046F8BC08BC9E467047F8B5C046D7
:08407000F8BC08BC9E46704735
:1040780002030405060708090A0B0C0D0E0F1010A1
:104088000102030405060708090A0B0C0D0E0F10A0
:1040980000000000000000000102030406070809F0
:1040A8000000000001020304982F8A4291443771EE
:1040B800CFFBC0B5A5DBB5E95BC25639F111F159A3
:1040C800A4823F92D55E1CAB98AA07D8015B8312E5
:1040D800BE853124C37D0C55745DBE72FEB1DE8091
:1040E800A706DC9B74F19BC1C1699BE48647BEEFC0
:1040F800C69DC10FCCA10C246F2CE92DAA84744A4B
:10410800DCA9B05CDA88F97652513E986DC631A8C0
:10411800C82703B0C77F59BFF30BE0C64791A7D59F
:104128005163CA0667292914850AB72738211B2E27
:10413800FC6D2C4D130D385354730A65BB0A6A760F
:104148002EC9C281852C7292A1E8BFA24B661AA81B
:10415800708B4BC2A3516CC719E892D1240699D62B
:1041680085350EF470A06A1016C1A419086C371EA4
:104178004C774827B5BCB034B30C1C394AAAD84E82
:104188004FCA9C5BF36F2E68EE828F746F63A578BD
:104198001478C8840802C78CFAFFBE90EB6C50A450
:1041A800F7A3F9BEF27871C64C57435F414C474FAD
:1041B8005F484153485F5348413235365F4D42545A
:1041C8004C53000000000000000000000000000048
:1041D80000000000000000000000000000000000D7
:1041E80000000000000000000000000000000000C7
:1041F80000000000000000000000000000000000B7
:1042080000000000000000000000000000000000A6
:104218000000000000000000000000000000000096
:1042280000000000000000005465737420456E61B2
:10423800626C6564000000000000000000000000DF
:104248000000000000000000000000000000000066
:104258000000000000000000000000000000000056
:104268000000000000000000000000000000000046
:104278000000000000000000000000000000000036
:104288000000000000000000000000000000000026
:104298000000000000000000000000000000000016
:1042A80000000000000000000A0A0A0A5374617244
:1042B80074696E672E2E2E0A25730A4D61792020A7
:1042C8003920323032312031353A35383A35340AEE
:1042D8004F7074696D697A6174696F6E3A204F66C0
:1042E8006173740A416C676F726974686D3A20254E
:1042F800730A00004D656D6F72792075736167658B
:104308003A200000546F74616C20464C4153483A7F
:104318002025366C754220546F74616C2052414DD3
:104328003A2025366C7542200A00000053656374F4
:10433800696F6E733A20746578742025366C7542FF
:1043480020646174612025366C7542206273732085
:1043580025366C75420A00006D73675F6C656E3AAE
:104368002536642000000000686173683A25313002
:10437800642075733A253964206D733A25376420B3
:104388000A000000484153480000000048415348D3
:10439800546F745265733A20000000006828256441
:1043A80029203D20256420002573202573204D6198
:1043B8007920203920323032312031353A35383AB7
:1043C8003534204F7074696D697A6174696F6E3A1B
:1043D800204F6661737420416C676F726974686DF1
:1043E8003A2025732000000053656374696F6E736B
:1043F8003A20746578742025366C75206461746180
:104408002025366C75206273732025366C75200064
:10441800232D302B2000686C4C00656667454647A5
:104428000030313233343536373839414243444528
:104438004600303132333435363738396162636497
:0444480065660000A5
:04444C00E90000087B
:04445000C10000089F
:1044540000127A0004000000010000001338000874
:104464001400002000000000000000000000000014
:104474000000000000000000000000000000000038
:104484000000000000000000000000000000000028
:104494000000000000000000000000000000000018
:1044A4000000000000000000000000000000000008
:1044B40000000000000000000000000000000000F8
:0444C40000000000F4
:04000005080005A149
:00000001FF
