:020000040800F2
:1000000000200020B1060008E1040008E704000811
:1000100000000000000000000000000000000000E0
:10002000000000000000000000000000ED040008D7
:100030000000000000000000F704000801050008AF
:100040000107000801070008010700080107000870
:100050000107000801070008010700080107000860
:100060000107000801070008010700080107000850
:100070000107000801070008010700080107000840
:100080000107000811050008000000000107000832
:100090000107000801070008010700080107000820
:1000A0000107000801070008010700080107000810
:1000B0000107000800000000010700080000000020
:1000C00010B5064C2378002B07D1054B002B02D02E
:1000D000044800E000BF0123237010BD7000002021
:1000E0000000000060450008044B10B5002B03D051
:1000F0000349044800E000BF10BDC04600000000F6
:1001000074000020604500080023C25C0133002A0F
:10011000FBD1581E7047000003B4714649084000E7
:100120004900095E49008E4403BC70470022430821
:100130008B4274D303098B425FD3030A8B4244D3AF
:10014000030B8B4228D3030C8B420DD3FF220902F1
:1001500012BA030C8B4202D31212090265D0030BB0
:100160008B4219D300E0090AC30B8B4201D3CB03A6
:10017000C01A5241830B8B4201D38B03C01A5241E8
:10018000430B8B4201D34B03C01A5241030B8B42EA
:1001900001D30B03C01A5241C30A8B4201D3CB02D5
:1001A000C01A5241830A8B4201D38B02C01A5241BA
:1001B000430A8B4201D34B02C01A5241030A8B42BD
:1001C00001D30B02C01A5241CDD2C3098B4201D3D5
:1001D000CB01C01A524183098B4201D38B01C01A53
:1001E000524143098B4201D34B01C01A52410309CA
:1001F0008B4201D30B01C01A5241C3088B4201D379
:10020000CB00C01A524183088B4201D38B00C01A25
:10021000524143088B4201D34B00C01A5241411A4C
:1002200000D20146524110467047FFE701B5002059
:1002300000F006F802BDC0460029F7D076E7704707
:100240007047C04680B584B000AF7860074B5969ED
:10025000064B7A680A435A61044B5B697A6813401B
:10026000FB60FB68C046BD4604B080BD0010024084
:1002700010B500F047FA00F00FF800F091F800F028
:1002800049F800F071F802F0BBFD024800F09EFA58
:10029000F9E7C04640420F0070B596B01C2200211D
:1002A0000BA802F0BCFF10220021684602F0B7FF45
:1002B0001422002105A802F0B2FF02220023102020
:1002C0001292139380220126022100230E90120322
:1002D0000AA8149215930D960A9100F0E9FC0028E3
:1002E00016D102230722002400256846002100922F
:1002F00001930294039500F0F5FF031E08D105A8B1
:100300000596079301F040F9002801D116B070BDA1
:1003100000F04CF810B582B008220021684602F0C7
:100320007EFF00230D4C0E490E4A20006360A3603F
:10033000A3612160E26001F005FA00280BD10022E0
:100340000023694620000092019301F081FC0028FF
:1003500001D102B010BD00F029F8C0462C060020E3
:1003600000100040FFFF0000E12200230C2110B527
:1003700009480A4C52024260046041618360C360D4
:1003800003618361C3610362436201F0CFFC002813
:1003900000D110BD00F00AF8A80500200038014087
:1003A000802010B58002FFF74DFF10BD72B6FEE74A
:1003B00080B582B000AF0F4B9A690E4B01210A4302
:1003C0009A610C4B9B69012213407B607B68094B4F
:1003D000DA69084B802149050A43DA61054BDA697D
:1003E00080235B0513403B603B68C046BD4602B0BE
:1003F00080BDC0460010024080B584B000AF786078
:100400007B681B680D4A934213D10D4BDA690C4B84
:1004100010210A43DA610A4BDB6910221340FB60AA
:10042000FB6800220021112000F0A0FA112000F04A
:10043000B2FAC046BD4604B080BDC04600100040C0
:100440000010024090B58BB000AF786014243B19C7
:10045000180014231A00002102F0E1FE7B681B68DB
:100460001D4A934233D11D4B9A691C4B8021C9010F
:100470000A439A61194B9A698023DB0113403B615F
:100480003B69164B5A69154B802189020A435A6110
:10049000124B5A6980239B021340FB60FB683B1997
:1004A000C022D2001A6021007B1802225A607B18F9
:1004B00000229A607B180322DA607B1801221A61FD
:1004C0007A189023DB051100180000F081FAC0466D
:1004D000BD460BB090BDC046003801400010024040
:1004E00080B500AFFEE780B500AFFEE780B500AF96
:1004F000C046BD4680BD80B500AFC046BD4680BD8C
:1005000080B500AF00F046F9C046BD4680BD000092
:1005100080B500AF034B180001F0E4F9C046BD46BA
:1005200080BDC0462C06002080B500AF0123180016
:10053000BD4680BD80B582B000AF7860396002F002
:100540002BFE030016221A6001235B421800BD46F1
:1005500002B080BD80B582B000AF786001235A42FE
:100560007B6811001800FFF7E5FFFEE780B586B055
:1005700000AFF860B9607A6000237B610AE000E0B8
:1005800000BF0100BB685A1CBA60CAB21A707B690E
:1005900001337B617A697B689A42F0DB7B681800E3
:1005A000BD4606B080BD80B586B000AFF860B960CA
:1005B0007A6000237B6109E0BB685A1CBA601B7833
:1005C000180000E000BF7B6901337B617A697B68BA
:1005D0009A42F1DB7B681800BD4606B080BD80B54D
:1005E00082B000AF786001235B421800BD4602B0C4
:1005F00080BD80B582B000AF786039603B688022F2
:1006000092015A6000231800BD4602B080BD80B53B
:1006100082B000AF786001231800BD4602B080BDF3
:1006200080B584B000AFF860B9607A60002318002C
:10063000BD4604B080BD000080B586B000AF7860D4
:10064000144A154BD31A7B617B693B61134B1B68C2
:10065000002B02D1114B124A1A60104B1A687B68AA
:10066000D3183A699A4207D202F096FD03000C2291
:100670001A6001235B4209E0084B1B68FB60074BD3
:100680001A687B68D218054B1A60FB681800BD46D3
:1006900006B080BD00200020000400008C00002077
:1006A000C006002080B500AFC046BD4680BD00003A
:1006B0000D4885460D480E490E4A002302E0D458E5
:1006C000C4500433C4188C42F9D30B4A0B4C00239A
:1006D00001E013600432A242FBD3FFF7E3FF02F014
:1006E00071FDFFF7C5FDFEE700200020000000209F
:1006F00070000020204B000870000020BC06002085
:10070000FEE7000080B500AF074B1A68064B1021CA
:100710000A431A60002000F009F8FFF749FE0023A1
:100720001800BD4680BDC0460020024090B583B091
:1007300000AF7860144B1C68144B1B781900FA2327
:100740009800FFF7F3FC030019002000FFF7EEFC10
:100750000300180000F02FF9031E01D001230FE061
:100760007B68032B0BD8796801235B4200221800B9
:1007700000F0FCF8064B7A681A60002300E00123C1
:100780001800BD4603B090BD000000200800002006
:100790000400002080B500AF054B1B781A00054B04
:1007A0001B68D218034B1A60C046BD4680BDC046C8
:1007B000080000207406002080B500AF024B1B68C3
:1007C0001800BD4680BDC0467406002080B584B0C8
:1007D00000AF7860FFF7F0FF0300BB607B68FB6051
:1007E000FB68013305D00A4B1B781A00FB689B1885
:1007F000FB60C046FFF7E0FF0200BB68D31AFA684F
:100800009A42F7D8C046C046BD4604B080BDC04637
:100810000800002080B582B000AF0200FB1D1A70F6
:10082000FB1D1B787F2B09D8FB1D1B781A001F238B
:100830001A40044B012191400A001A60C046BD468F
:1008400002B080BD00E100E090B583B000AF0200CF
:100850003960FB1D1A70FB1D1B787F2B28D82F4A8F
:10086000FB1D1B785BB29B08C0339B009B58FA1D95
:100870001278110003220A40D200FF2191400A00A1
:10088000D2431A4011003B689B01FF221A40FB1D16
:100890001B78180003230340DB009A401F48FB1D10
:1008A0001B785BB29B080A43C0339B001A5031E0AF
:1008B0001B4AFB1D1B7819000F230B40083B9B08AC
:1008C00006339B00D31804331B68FA1D12781100FD
:1008D00003220A40D200FF2191400A00D2431A406D
:1008E00011003B689B01FF221A40FB1D1B7818007A
:1008F00003230340DB009A400948FB1D1B781C00C2
:100900000F232340083B9B080A4306339B00C31870
:1009100004331A60C046BD4603B090BD00E100E05C
:1009200000ED00E080B582B000AF78607B685A1EB1
:1009300080235B049A4201D3012310E00A4B7A68BA
:10094000013A5A6001235B4203211800FFF77CFF44
:10095000054B00229A60044B07221A6000231800FE
:10096000BD4602B080BDC04610E000E080B584B056
:1009700000AFB9607A600F217B18021C1A70BA6848
:100980007B181B785BB211001800FFF75DFFC046B3
:10099000BD4604B080BD80B582B000AF0200FB1D33
:1009A0001A70FB1D1B785BB21800FFF733FFC046BF
:1009B000BD4602B080BD80B582B000AF78607B6874
:1009C0001800FFF7AFFF03001800BD4602B080BD5E
:1009D00080B586B000AF7860396000237B614FE15D
:1009E0003B681B6801217A6991400A001340FB6053
:1009F000FB68002B00D140E13B685B68012B0BD00A
:100A00003B685B68022B07D03B685B68112B03D007
:100A10003B685B68122B30D17B689B683B617B69CC
:100A20005B0003229A401300DA433B6913403B61A9
:100A30003B68DA687B695B009A4013003A691343AC
:100A40003B617B683A699A607B685B683B61012225
:100A50007B699A401300DA433B6913403B613B6872
:100A60005B681B0901221A407B699A4013003A69AE
:100A700013433B617B683A695A607B68DB683B6182
:100A80007B695B0003229A401300DA433B69134001
:100A90003B613B689A687B695B009A4013003A6946
:100AA00013433B617B683A69DA603B685B68022B01
:100AB00003D03B685B68122B23D17B69DA087B6823
:100AC00008329200D3583B617B69072213409B0098
:100AD0000F229A401300DA433B6913403B613B68A5
:100AE0001A697B6907210B409B009A4013003A6901
:100AF00013433B617B69DA087B68083292003969ED
:100B0000D1507B681B683B617B695B0003229A4084
:100B10001300DA433B6913403B613B685B68032287
:100B20001A407B695B009A4013003A6913433B61AA
:100B30007B683A691A603B685A6880235B051340FA
:100B400000D19AE0544B9A69534B01210A439A61B0
:100B5000514B9B6901221340BB60BB684F4A7B69C4
:100B60009B0802339B009B583B617B690322134027
:100B70009B000F229A401300DA433B6913403B610C
:100B80007A689023DB059A4213D07B68444A9342EB
:100B90000DD07B68434A934207D07B68424A934218
:100BA00001D1032306E0052304E0022302E0012330
:100BB00000E000237A6903210A40920093403A69D9
:100BC00013433B6135497B699B0802339B003A69BB
:100BD0005A50364B1B683B61FB68DA433B69134054
:100BE0003B613B685A6880235B02134003D03A693B
:100BF000FB6813433B612D4B3A691A602B4B5B68D2
:100C00003B61FB68DA433B6913403B613B685A68D0
:100C100080239B02134003D03A69FB6813433B6176
:100C2000224B3A695A60214B9B683B61FB68DA436F
:100C30003B6913403B613B685A6880235B03134068
:100C400003D03A69FB6813433B61184B3A699A60D9
:100C5000164BDB683B61FB68DA433B6913403B6141
:100C60003B685A6880239B03134003D03A69FB68B2
:100C700013433B610D4B3A69DA607B6901337B6159
:100C80003B681A687B69DA40131E00D0A8E6C046AC
:100C9000C046BD4606B080BD0010024000000140C5
:100CA0000004004800080048000C0048000401400F
:100CB00080B588B000AF78607B68002B01D101233C
:100CC00001E37B681B680122134000D18DE0C34B18
:100CD0005B680C221340042B0ED0C04B5B680C22C7
:100CE0001340082B16D1BD4B5A6880235B021A4073
:100CF00080235B029A420DD1B84B1A6880239B0275
:100D0000134000D170E07B685B68002B00D06BE083
:100D10000123D8E27B685B68012B07D1AF4B1A68CF
:100D2000AE4B802149020A431A602FE07B685B6862
:100D3000002B0CD1A94B1A68A84BA9490A401A608C
:100D4000A64B1A68A54BA7490A401A601EE07B68AB
:100D50005B68052B0ED1A14B1A68A04B8021C902FC
:100D60000A431A609D4B1A689C4B802149020A4332
:100D70001A600BE0994B1A68984B99490A401A601F
:100D8000964B1A68954B97490A401A607B685B68D6
:100D9000002B14D0FFF710FD0300BB6108E0FFF744
:100DA0000BFD0200BB69D31A642B01D903238AE22D
:100DB0008A4B1A6880239B021340F0D015E0FFF79E
:100DC000FBFC0300BB6108E0FFF7F6FC0200BB6917
:100DD000D31A642B01D9032375E2804B1A68802350
:100DE0009B021340F0D100E0C0467B681B680222E2
:100DF000134000D169E0794B5B680C2213400BD0A3
:100E0000764B5B680C221340082B1CD1734B5A683D
:100E100080235B02134016D1704B1B6802221340E3
:100E200005D07B68DB68012B01D001234BE26B4BC3
:100E30001B68F822934319007B681B69DA00674B33
:100E40000A431A6041E07B68DB68002B24D0634BC7
:100E50001A68624B01210A431A60FFF7ADFC0300D8
:100E6000BB6108E0FFF7A8FC0200BB69D31A022BA4
:100E700001D9032327E2594B1B6802221340F1D00A
:100E8000564B1B68F822934319007B681B69DA00F4
:100E9000524B0A431A6018E0504B1A684F4B01211D
:100EA0008A431A60FFF788FC0300BB6108E0FFF784
:100EB00083FC0200BB69D31A022B01D9032302E28F
:100EC000464B1B6802221340F1D17B681B68082245
:100ED000134036D07B68DB69002B19D03F4B5A6A30
:100EE0003E4B01210A435A62FFF766FC0300BB61D7
:100EF00008E0FFF761FC0200BB69D31A022B01D99D
:100F00000323E0E1354B5B6A02221340F1D018E085
:100F1000324B5A6A314B01218A435A62FFF74CFC2B
:100F20000300BB6108E0FFF747FC0200BB69D31A6E
:100F3000022B01D90323C6E1284B5B6A022213402E
:100F4000F1D17B681B680422134000D1B4E01F205C
:100F50003B1800221A70214BDA6980235B0513408D
:100F600010D11E4BDA691D4B802149050A43DA6115
:100F70001A4BDA6980235B051340FB60FB683B1862
:100F800001221A70184B1A6880235B0013401AD193
:100F9000154B1A68144B802149000A431A60FFF769
:100FA0000BFC0300BB6108E0FFF706FC0200BB6915
:100FB000D31A642B01D9032385E10B4B1A688023D4
:100FC0005B001340F0D07B689B68012B0ED1034B74
:100FD0001A6A024B01210A431A6235E000100240EE
:100FE000FFFFFEFFFFFFFBFF007000407B689B6878
:100FF000002B0CD1B64B1A6AB54B01218A431A62F9
:10100000B34B1A6AB24B04218A431A621CE07B6814
:101010009B68052B0CD1AE4B1A6AAD4B04210A43D9
:101020001A62AB4B1A6AAA4B01210A431A620BE0FF
:10103000A74B1A6AA64B01218A431A62A44B1A6A6B
:10104000A34B04218A431A627B689B68002B14D04F
:10105000FFF7B2FB0300BB6109E0FFF7ADFB020045
:10106000BB69D31A9B4A934201D903232BE1984BC6
:101070001B6A02221340F0D013E0FFF79DFB030030
:10108000BB6109E0FFF798FB0200BB69D31A914AE4
:10109000934201D9032316E18D4B1B6A02221340B0
:1010A000F0D11F23FB181B78012B05D1884BDA697F
:1010B000874B89490A40DA617B681B68102213401C
:1010C00063D07B685B69012B2AD1814B5A6B804BC3
:1010D00004210A435A637E4B5A6B7D4B01210A431C
:1010E0005A63FFF769FB0300BB6108E0FFF764FB8D
:1010F0000200BB69D31A022B01D90323E3E0744B2E
:101100005B6B02221340F1D0714B5B6BF82293436F
:1011100019007B689B69DA006D4B0A435A6334E01F
:101120007B685B69053311D1694B5A6B684B0421AD
:101130008A435A63664B5B6BF822934319007B68C2
:101140009B69DA00624B0A435A631EE0604B5A6B9C
:101150005F4B04210A435A635D4B5A6B5C4B012180
:101160008A435A63FFF728FB0300BB6108E0FFF7DF
:1011700023FB0200BB69D31A022B01D90323A2E08F
:10118000534B5B6B02221340F1D17B681B6A002B2F
:1011900000D197E04E4B5B680C221340082B00D126
:1011A0006BE07B681B6A022B4CD1494B1A68484B99
:1011B0004A490A401A60FFF7FFFA0300BB6108E0E2
:1011C000FFF7FAFA0200BB69D31A022B01D90323F5
:1011D00079E03F4B1A6880239B041340F0D13C4BCD
:1011E000DB6A0F22934319007B68DA6A384B0A43A3
:1011F000DA62374B5B683A4A134019007B689A6A97
:101200007B685B6A1A43324B0A435A60304B1A6858
:101210002F4B802149040A431A60FFF7CDFA0300DF
:10122000BB6108E0FFF7C8FA0200BB69D31A022BC2
:1012300001D9032347E0264B1A6880239B041340FF
:10124000F0D03FE0224B1A68214B24490A401A6033
:10125000FFF7B2FA0300BB6108E0FFF7ADFA020046
:10126000BB69D31A022B01D903232CE0184B1A684F
:1012700080239B041340F0D124E07B681B6A012B80
:1012800001D101231FE0124B5B687B61104BDB6ACD
:101290003B617A6980235B021A407B685B6A9A42F1
:1012A0000ED13B690F221A407B68DB6A9A4207D154
:1012B0007A69F0239B031A407B689B6A9A4201D0AB
:1012C000012300E000231800BD4608B080BDC046E1
:1012D0000010024088130000FFFFFFEFFFFFFFFE3A
:1012E000FFFFC2FF80B584B000AF786039607B68D3
:1012F000002B01D10123B3E05B4B1B68012213409B
:101300003A689A4211D9584B1B680122934319003D
:10131000554B3A680A431A60534B1B68012213402D
:101320003A689A4201D001239AE07B681B68022246
:10133000134015D07B681B680422134006D04B4B2A
:101340005A684A4BE021C9000A435A60474B5B6820
:10135000F022934319007B689A68444B0A435A6011
:101360007B681B680122134040D07B685B68012BBF
:1013700007D13E4B1A6880239B02134014D10123EE
:101380006EE07B685B68022B07D1384B1A688023BC
:101390009B04134008D1012362E0344B1B680222F6
:1013A000134001D101235BE0304B5B680322934380
:1013B00019007B685A682D4B0A435A60FFF7FCF905
:1013C0000300FB6009E0FFF7F7F90200FB68D31A9E
:1013D000274A934201D9032342E0244B5B680C2245
:1013E0001A407B685B689B009A42ECD11E4B1B68DD
:1013F000012213403A689A4211D21B4B1B6801220A
:1014000093431900184B3A680A431A60164B1B683D
:10141000012213403A689A4201D0012320E07B6800
:101420001B680422134009D0104B5B68114A13401B
:1014300019007B68DA680D4B0A435A6000F020F807
:1014400001000A4B5B681B090F2213400A4AD35C58
:101450000A00DA40094B1A600020FFF767F9002301
:101460001800BD4604B080BD0020024000100240BC
:1014700088130000FFF8FFFF9845000800000020D7
:1014800090B58FB000AF1423FB182B4A13CA13C3B7
:1014900012681A603B1D294A13CA13C312681A60E6
:1014A0000023FB620023BB6200237B6300237B627B
:1014B00000233B63224B5B68FB62FB6A0C221340F8
:1014C000042B02D0082B03D02DE01E4B3B632DE0F4
:1014D000FB6A9B0C0F2213401422BA18D35C7B6268
:1014E000174BDB6A0F2213403A1DD35CBB62FA6ACA
:1014F00080235B02134009D0B96A1248FEF716FE3A
:1015000003001A007B6A53437B6309E0796A0A008F
:101510005201521A93019B1ADB005B181B027B637A
:101520007B6B3B6302E0074B3B63C0463B6B1800A1
:10153000BD460FB090BDC0467845000888450008FC
:101540000010024000127A0080B500AF024B1B6809
:101550001800BD4680BDC0460000002080B500AF29
:10156000FFF7F2FF0100064B5B681B0A07221340DE
:10157000044AD35CD9400B001800BD4680BDC0466C
:1015800000100240A845000880B586B000AF786022
:1015900000233B610023FB607B681A6880235B02A9
:1015A000134000D18EE017203B1800221A705F4BC9
:1015B000DA6980235B05134010D15C4BDA695B4B21
:1015C000802149050A43DA61584BDA6980235B05BB
:1015D0001340BB60BB683B1801221A70544B1A6859
:1015E00080235B0013401AD1514B1A68504B802165
:1015F00049000A431A60FFF7DFF803003B6108E087
:10160000FFF7DAF802003B69D31A642B01D90323F0
:1016100087E0474B1A6880235B001340F0D0434BB0
:101620001A6AC0239B001340FB60FB68002B34D078
:101630007B685A68C0239B001340FA689A422CD0FA
:101640003A4B1B6A3B4A1340FB60384B1A6A374BD4
:10165000802149020A431A62344B1A6A334B3649D5
:101660000A401A62314BFA681A62FB680122134081
:1016700013D0FFF7A1F803003B6109E0FFF79CF8E6
:1016800002003B69D31A2D4A934201D9032348E053
:10169000264B1B6A02221340F0D0244B1B6A254ABA
:1016A000134019007B685A68204B0A431A621723BB
:1016B000FB181B78012B05D11C4BDA691B4B204909
:1016C0000A40DA617B681B680122134009D0174B7E
:1016D0001B6B0322934319007B689A68134B0A43E0
:1016E0001A637B681B682022134009D00F4B1B6BC9
:1016F0001022934319007B68DA680C4B0A431A6383
:101700007B681A688023DB00134009D0074B1B6BF2
:101710004022934319007B681A69044B0A431A63F9
:1017200000231800BD4606B080BDC0460010024030
:1017300000700040FFFCFFFFFFFFFEFF881300006A
:10174000FFFFFFEF80B582B000AF78607B68002BB1
:1017500001D1012342E07B683D229B5CDBB2002B80
:1017600007D17B683C22002199547B681800FEF762
:1017700043FE7B683D22022199547B681A687B688E
:1017800004331900100000F0E3F97B6846220121C0
:1017900099547B683E22012199547B683F220121A4
:1017A00099547B684022012199547B684122012190
:1017B00099547B684222012199547B68432201217C
:1017C00099547B684422012199547B684522012168
:1017D00099547B683D220121995400231800BD468D
:1017E00002B080BD80B584B000AF78607B683D22D8
:1017F0009B5CDBB2012B01D001233BE07B683D22E7
:10180000022199547B681B68DA687B681B68012198
:101810000A43DA607B681B68184A93420FD07B68E2
:101820001A688023DB059A4209D07B681B68144A3A
:10183000934204D07B681B68124A934211D17B68A3
:101840001B689B6807221340FB60FB68062B10D0C7
:101850007B681B681A687B681B6801210A431A6051
:1018600007E07B681B681A687B681B6801210A43D4
:101870001A6000231800BD4604B080BD002C014052
:10188000000400400040014080B582B000AF7860A5
:101890007B681B68DA687B681B6801218A43DA6011
:1018A0007B681B681B6A0D4A13400DD17B681B685F
:1018B0001B6A0B4A134007D17B681B681A687B6858
:1018C0001B6801218A431A607B683D2201219954DB
:1018D00000231800BD4602B080BDC04611110000B3
:1018E0004404000080B582B000AF78607B681B685C
:1018F0001B6902221340022B24D17B681B68DB6822
:1019000002221340022B1DD17B681B680322524226
:101910001A617B6801221A777B681B689B69032226
:10192000134004D07B68180000F0FAF807E07B68E9
:10193000180000F0EDF87B68180000F0F9F87B68FB
:1019400000221A777B681B681B6904221340042B52
:1019500025D17B681B68DB6804221340042B1ED151
:101960007B681B68052252421A617B6802221A7743
:101970007B681B689A69C0239B00134004D07B6876
:10198000180000F0CDF807E07B68180000F0C0F800
:101990007B68180000F0CCF87B6800221A777B681F
:1019A0001B681B6908221340082B24D17B681B6825
:1019B000DB6808221340082B1DD17B681B680922B5
:1019C00052421A617B6804221A777B681B68DB69C4
:1019D0000322134004D07B68180000F0A1F807E050
:1019E0007B68180000F094F87B68180000F0A0F8FD
:1019F0007B6800221A777B681B681B6910221340E2
:101A0000102B25D17B681B68DB6810221340102B3C
:101A10001ED17B681B68112252421A617B68082222
:101A20001A777B681B68DA69C0239B00134004D0D7
:101A30007B68180000F074F807E07B68180000F07D
:101A400067F87B68180000F073F87B6800221A774B
:101A50007B681B681B6901221340012B0FD17B6837
:101A60001B68DB6801221340012B08D17B681B68CF
:101A7000022252421A617B68180001F0BBFA7B68AF
:101A80001B681B6980221340802B0FD17B681B6869
:101A9000DB6880221340802B08D17B681B68812281
:101AA00052421A617B68180000F038F97B681B68A5
:101AB0001B6940221340402B0FD17B681B68DB68F9
:101AC00040221340402B08D17B681B6841225242C0
:101AD0001A617B68180000F033F87B681B681B698B
:101AE00020221340202B0FD17B681B68DB6820224B
:101AF0001340202B08D17B681B68212252421A61B7
:101B00007B68180000F002F9C046BD4602B080BDF7
:101B100080B582B000AF7860C046BD4602B080BDDF
:101B200080B582B000AF7860C046BD4602B080BDCF
:101B300080B582B000AF7860C046BD4602B080BDBF
:101B400080B582B000AF7860C046BD4602B080BDAF
:101B500080B584B000AF786039607B681B68FB603B
:101B60007B68344A934208D07A688023DB059A4226
:101B700003D07B68304A934208D1FB6870229343BC
:101B8000FB603B685B68FA681343FB607B68294A2B
:101B9000934218D07A688023DB059A4213D07B6881
:101BA000254A93420FD07B68244A93420BD07B682E
:101BB000234A934207D07B68224A934203D07B6832
:101BC000214A934208D1FB68204A1340FB603B68DE
:101BD000DB68FA681343FB60FB68802293431A00BA
:101BE0003B685B691343FB607B68FA681A603B687B
:101BF0009A687B68DA623B681A687B689A627B68DD
:101C00000C4A93420BD07B680D4A934207D07B6805
:101C10000C4A934203D07B680B4A934203D13B6842
:101C20001A697B681A637B6801225A61C046BD4607
:101C300004B080BD002C01400004004000200040A2
:101C4000004001400044014000480140FFFCFFFF0C
:101C500080B584B000AF786039607B683C229B5CC3
:101C6000012B01D1022347E07B683C2201219954DA
:101C70007B683D22022199547B681B685B68FB608E
:101C80007B681B689B68BB60FB6870229343FB60AA
:101C90003B681B68FA681343FB607B681B68FA6843
:101CA0005A607B681B68164A93420FD07B681A689B
:101CB0008023DB059A4209D07B681B68114A934256
:101CC00004D07B681B68104A93420CD1BB68802209
:101CD0009343BB603B685B68BA681343BB607B6837
:101CE0001B68BA689A607B683D22012199547B6821
:101CF0003C220021995400231800BD4604B080BD49
:101D0000002C0140000400400040014080B582B03A
:101D100000AF7860C046BD4602B080BD80B582B0DD
:101D200000AF7860C046BD4602B080BD80B582B0CD
:101D300000AF78607B68002B01D1012344E07B6811
:101D40009B6F002B07D17B687422002199547B681C
:101D50001800FEF777FB7B6824229A677B681B6874
:101D60001A687B681B6801218A431A607B68180027
:101D700000F0DAF80300012B01D1012324E07B6895
:101D80005B6A002B03D07B68180000F00DFA7B68BB
:101D90001B685A687B681B680D490A405A607B685B
:101DA0001B689A687B681B682A218A439A607B6853
:101DB0001B681A687B681B6801210A431A607B68EC
:101DC000180000F0A5FA03001800BD4602B080BD5F
:101DD000FFB7FFFF80B58AB002AFF860B9603B6023
:101DE000BB1D1A80FB689B6F202B00D096E0BB6860
:101DF000002B03D0BB1D1B88002B01D101238EE0DB
:101E0000FB689A6880235B019A4209D1FB681B69D1
:101E1000002B05D1BB680122134001D001237EE0D5
:101E2000FB6874229B5C012B01D1022377E0FB68E5
:101E3000742201219954FB68802200219950FB688B
:101E400021229A67FEF7B8FC03007B61FB68BA1D8C
:101E5000502112885A52FB68BA1D522112885A52D8
:101E6000FB689A6880235B019A4208D1FB681B6972
:101E7000002B04D10023FB61BB68BB6103E0BB689E
:101E8000FB610023BB61FB687422002199542DE0A3
:101E90007A69F8683B68009313000022802100F003
:101EA0007FFA031E01D0032339E0FB69002B0BD11D
:101EB000BB691A88FB681B68D205D20D92B21A85DD
:101EC000BB690233BB6108E0FB691A78FB681B68D9
:101ED00092B21A85FB690133FB61FB6852229B5A5F
:101EE0009BB2013B99B2FB6852229952FB68522285
:101EF0009B5A9BB2002BCBD17A69F8683B68009360
:101F000013000022402100F04BFA031E01D00323EE
:101F100005E0FB6820229A67002300E002231800F6
:101F2000BD4608B080BD000080B588B000AF7860C5
:101F30001E23FB1800221A707B689A687B681B6955
:101F40001A437B685B691A437B68DB6913437B61D7
:101F50007B681B681B688D4A134019007B681B68EF
:101F60007A690A431A607B681B685B68884A134079
:101F700019007B68DA687B681B680A435A607B68D3
:101F80009B697B617B681B6A7A6913437B617B6811
:101F90001B689B687F4A134019007B681B687A693D
:101FA0000A439A607B681B687B4A934227D17B4B2C
:101FB0001B6B03221340032B0DD01BD8022B14D014
:101FC00018D8002B02D0012B0AD013E01F23FB18D6
:101FD00000221A7021E01F23FB1802221A701CE055
:101FE0001F23FB1804221A7017E01F23FB18082276
:101FF0001A7012E01F23FB1810221A700DE07B6884
:102000001B68674A934204D11F23FB1800221A70F1
:1020100003E01F23FB1810221A707B68DA69802303
:102020001B029A425DD11F23FB181B78082B15D089
:1020300018DC042B0DD015DC002B02D0022B05D0B0
:1020400010E0FFF78BFA0300BB6112E0554BBB6158
:102050000FE0FFF715FA0300BB610AE080231B02C3
:10206000BB6106E00023BB611E23FB1801221A702E
:10207000C046BB69002B00D17BE0BB695A007B687E
:102080005B685B08D2187B685B6819001000FEF77C
:102090004DF803009BB23B613B690F2B1CD93A6999
:1020A00080235B029A4217D23B699AB20E203B18FA
:1020B0000F218A431A803B695B089BB207221340B9
:1020C00099B23B183A1812880A431A807B681B6839
:1020D0003A181288DA604CE01E23FB1801221A70AD
:1020E00047E01F23FB181B78082B15D018DC042BA6
:1020F0000DD015DC002B02D0022B05D010E0FFF72D
:102100002DFA0300BB6112E0264BBB610FE0FFF725
:10211000B7F90300BB610AE080231B02BB6106E044
:102120000023BB611E23FB1801221A70C046BB6945
:10213000002B1ED07B685B685A08BB69D2187B688D
:102140005B6819001000FDF7F1FF03009BB23B61D3
:102150003B690F2B09D93A6980235B029A4204D26A
:102160007B681B683A69DA6003E01E23FB180122D2
:102170001A707B6800225A667B6800229A661E23CA
:10218000FB181B781800BD4608B080BDF369FFFF3F
:10219000FFCFFFFFFFF4FFFF0038014000100240B7
:1021A0000044004000127A0080B582B000AF786031
:1021B0007B685B6A012213400BD07B681B685B68FD
:1021C0004A4A134019007B689A6A7B681B680A4375
:1021D0005A607B685B6A022213400BD07B681B68E5
:1021E0005B68434A134019007B68DA6A7B681B68A6
:1021F0000A435A607B685B6A042213400BD07B68F9
:102200001B685B683B4A134019007B681A6B7B684C
:102210001B680A435A607B685B6A082213400BD034
:102220007B681B685B68344A134019007B685A6BF3
:102230007B681B680A435A607B685B6A1022134004
:102240000BD07B681B689B682C4A134019007B6885
:102250009A6B7B681B680A439A607B685B6A2022E2
:1022600013400BD07B681B689B68254A13401900FC
:102270007B68DA6B7B681B680A439A607B685B6AE1
:10228000402213401DD07B681B685B681D4A1340C9
:1022900019007B681A6C7B681B680A435A607B686C
:1022A0001A6C80235B039A420BD17B681B685B68C6
:1022B000154A134019007B685A6C7B681B680A43F7
:1022C0005A607B685B6A802213400BD07B681B6876
:1022D0005B680E4A134019007B689A6C7B681B6828
:1022E0000A435A60C046BD4602B080BDFFFFFDFFF5
:1022F000FFFFFEFFFFFFFBFFFF7FFFFFFFEFFFFF83
:10230000FFDFFFFFFFFFEFFFFFFF9FFFFFFFF7FF75
:1023100080B586B002AF78607B688022002199503A
:10232000FEF74AFA0300FB607B681B681B68082203
:102330001340082B0CD1FB68802291037868174A60
:102340000092002200F02CF8031E01D0032321E0AC
:102350007B681B681B6804221340042B0CD1FB68AC
:102360008022D10378680D4A0092002200F018F80C
:10237000031E01D003230DE07B6820229A677B684F
:102380002022DA677B6800221A667B6874220021AB
:10239000995400231800BD4604B080BDFFFFFF0123
:1023A00080B584B000AFF860B9603B60FB1D1A7067
:1023B0005EE0BB6901335BD0FEF7FEF902003B68CB
:1023C000D31ABA699A4202D3BB69002B1BD1FB68AE
:1023D0001B681A68FB681B682F490A401A60FB6873
:1023E0001B689A68FB681B6801218A439A60FB6836
:1023F00020229A67FB682022DA67FB68742200219A
:102400009954032344E0FB681B681B6804221340B3
:102410002ED0FB681B68DA6980231B011A408023D9
:102420001B019A4224D1FB681B68802212011A62A8
:10243000FB681B681A68FB681B6817490A401A602A
:10244000FB681B689A68FB681B6801218A439A60D5
:10245000FB6820229A67FB682022DA67FB688022EB
:1024600020219950FB6874220021995403230FE026
:10247000FB681B68DB69BA681340BA68D31A5A4212
:102480005341DBB21A00FB1D1B789A4291D0002306
:102490001800BD4604B080BD5FFEFFFF7047C04618
:1024A00010B53022002100F0BAFE10BD10B52F2A61
:1024B00003D8835C5940815410BD2721024B034A45
:1024C000034800F04BFEC046B0450008C046000877
:1024D000D4450008F0B5C64600B52F2A53D8D41805
:1024E000302C56D8002B42D005250024A8460D1DBF
:1024F000AC462500171DC719B94265412F00654636
:102500008618AE4264415D1EA845AD413C436D4214
:1025100025422FD00C003443A4072BD19D08AD00D9
:102520000024AC4635590F597D403551043464457B
:10253000F8D103251C00AC431D4218D01519A8463C
:10254000455D661CAC4667460D5D7D404746C555FA
:10255000B3420CD997198D5DC65D02347540C555DF
:10256000A34204D912190B5D815C4B40835480BC9B
:10257000B846F0BD0022B05C8C5C6040B0540132C3
:102580009342F8D1F3E73121054B064A064800F0A3
:10259000E5FD3221054B034A034800F0DFFDC0464C
:1025A000B0450008D0460008D4450008644600083D
:1025B00020B50500080011001A002F2906D8CB18F5
:1025C000302B09D8691800F021FE20BD4C21054BA5
:1025D000054A064800F0C2FD4D21054B024A03485A
:1025E00000F0BCFDB0450008E0460008D4450008F6
:1025F0006446000800230360F0B50C785746046079
:102600004A784E461202144304608A784546120402
:1026100022430260CC7843602406224302600C7996
:10262000DE4644604A79E0B51202144344608A7978
:102630009B46120422434260CC79836024062243E5
:1026400042600C7A202584604A7A212612021443C3
:1026500084608A7A120422438260CC7AC3602406A2
:10266000224382600C7BC4604A7B12021443C46024
:102670008A7B12042243C260CC7B0361240622437E
:10268000C2600C7C04614A7C1202144304618A7C9F
:10269000120422430261CC7C43612406224302617E
:1026A0000C7D44614A7D1202144344618A7D120408
:1026B00022434261CC7D83612406224342610C7E29
:1026C00084614A7E1202144384618A7E120422438A
:1026D0008261CF7E22243F063A4382612322C36176
:1026E0000F7F9146C7614A7F243312021743C761A7
:1026F0008A7F984612043A43C261CB7F25279C46C5
:102700005B46036263461B061A4326239C464B46E0
:10271000C2614D5D05628A5D06361202154305628F
:102720000A5D063412042A430262CB5C29259946CD
:102730005B4643624B461B061A432A23994643468F
:102740000262CB5C9A462B23984653464362CA5D8D
:1027500057466346120217434762CA5C06339C46DB
:102760005B4612043A4342628E5D83623606324310
:1027700042620B5D2D2783624A5D1D004B461202AB
:1027800015438562CA5C434612042A438262CD5CCB
:102790005B46C36263462E262D062A438262CA5CCC
:1027A0000734C262CB5D1B021A43C2628B5D1B04FD
:1027B0001343C3620A5D12061343C362F0BCBB46F7
:1027C000B246A946A046F0BD0B68202203700B68F4
:1027D000F0B51B0A43704B884F468370CB78464652
:1027E000C3704B68D64603714B6891461B0A437110
:1027F000CB88C0B58371CB790132C3718B689046A9
:1028000003728B6801321B0A43724B8994468372B0
:10281000CB7A0532C372CB6892460373CB684A46C3
:102820001B0A4373CB8923278373CB7B2426C37373
:102830000B69252503740B6926241B0A43744B8AF4
:102840008374CB7CC3744B6903754B691B0A437556
:10285000CB8A8375CB7DC3758B6903768B691B0A25
:1028600043764B8B8376CB7EC376CB690377CB697C
:102870001B0A4377CB8B8377CB7FC3770B6A835459
:102880000832914642460B6A1B0A8354083290462E
:1028900062464B8C83540832944652460B6A1B0E98
:1028A000C3554B6A083783554B6A08361B0A435594
:1028B000CB8C083503554B6A08341B0E8354083201
:1028C00092464A468B6A835442468B6A1B0A83545B
:1028D00062464B8D835452468B6A1B0EC355CB6A9E
:1028E0008355CB6A1B0A4355CB8D0355CB6A1B0E10
:1028F0008354E0BCBA46B146A846F0BDF0B504002A
:10290000E2681B239446DE4657464E4645466268BB
:10291000994693466269E0B592466246093B9846FD
:10292000C769C36A99B006937B405340A568009479
:102930001A004C46E2414446E3410893009B07924B
:102940009A69066801929A6A0069029232001C6ACA
:1029500042400B910394596A62405B46544663407F
:1029600004914B40019905954D4002994C464D40CC
:102970001100E14109914146CA411900E1410A9122
:102980004146CB412900E14189464146089CCD4161
:1029900007996140099C4E4062400A9C4840634050
:1029A0004C466540039C079061405C465440A346FA
:1029B000544605985440A246049C584081466240C3
:1029C0000198029C5840634064466C40A44680468F
:1029D000009C06986F40626245404A465846A36292
:1029E00063466060A260504642462660079EE360F0
:1029F0000B9B2661216260612100A261E761E562B3
:102A000010220CA8984600F001FC1523E069009400
:102A1000A26A10900098DD418146DA41276A666A11
:102A20002169DF41DE41179513004D466269A469B3
:102A30001191139444460CA91292302214971596C2
:102A4000169300F0E3FB2B68286A63401C00844364
:102A5000A0464C466A68E46800959246A1466A69B9
:102A6000009C2969AF68AE6994466A6AAD6A2360C2
:102A700044464C4010940C009C43A04604008C43F8
:102A8000210044464B40444014940C936446130088
:102A9000A343544663400D93534693439B46644679
:102AA00053469C43A04663465C465C402300444634
:102AB00062402C0011933B000099B4437C40C869EC
:102AC000A046C96A3400AB4373400E009C464B4697
:102AD000BC43270086434C465E4003006F404D4692
:102AE000A34344464B408D4300990E948946644667
:102AF00012944C4645401592080030220CA91793B9
:102B000016970F96139500F081FB494610220CA8EA
:102B100000F07CFB21691F228846616900948C4685
:102B2000E169A7698946A66AE56A206A616A44463E
:102B3000D441A04664461823D441DE41A446DD4179
:102B4000D841D9414C464346D741D44110936346BE
:102B500016901791302200980CA911931297139494
:102B60001496159500F052FB19B0F0BCBB46B24666
:102B7000A946A046F0BDC04670B50D000C248CB02F
:102B8000010006006846FFF735FD641B0B2C09D8D1
:102B9000074DA4006419303502CC6846FFF7AEFE3D
:102BA000AC42F9D169463000FFF70EFE0CB070BDA3
:102BB0009046000810B50C21FFF7DEFF10BDC0469F
:102BC00070B5040015001E0013000022FFF782FC00
:102BD0002A0020000121FFF769FC636B012B00D163
:102BE0001E4031002F222000FFF760FC01232363E9
:102BF00070BDC04670B50400406B0D001600190092
:102C0000012803D02F222000FFF750FC2000FFF7FF
:102C1000D1FF022329002363002233002000FFF7A5
:102C2000C7FC70BDF0B5C64600B506AF06000D0086
:102C3000140098463F7800E00027326B022A05D046
:102C40000023002200213000FFF7D4FF3B002900C1
:102C500030002200444500D94246A41AAD18FFF7BF
:102C6000AFFF002CE8D180BCB846F0BDF0B54746B8
:102C7000CE4680B5466B0400150098468FB0012EF5
:102C800031D1169BD6182B2E33D802272C2218238D
:102C900047638263C363002D04D10FB0C0BCB94643
:102CA000B046F0BD03AB18002A00994600F0AEFA1A
:102CB00028004146169A484400F0A8FA4946169B57
:102CC00020008B55721C2C230097FFF7ABFF189B3D
:102CD000002BE2D01A000023200000931799013343
:102CE000FFF7A0FFD9E76A21054B064A064800F026
:102CF00035FA6B21054B034A034800F02FFAC04612
:102D0000F4460008C847000818470008A047000814
:102D1000F0B5C646C76B0600904600B5974200D98D
:102D200017003A003000CD19FFF764FF4346DC1B63
:102D3000B84512D00023002200213000FFF740FFE9
:102D4000F26B290000233000A24200D92200A41A0D
:102D5000AD18FFF74FFF002CECD180BCB846F0BD9A
:102D6000F0B5040085B00E0015001F00FFF796FBBC
:102D70002000FFF795FB10230221012221636263EB
:102D8000A363E363002D01D105B0F0BD0C9B2A00C5
:102D900002930B9B310001930A9B200000933B00A0
:102DA000FFF764FFF0E7C04610B5032482B0836BE1
:102DB0000094FFF737FF02B010BDC04610B54023A6
:102DC000FFF7A6FF10BDC046002370B50D0016002A
:102DD000040094B002930193009304A80022002100
:102DE000FFF7BEFF3200290004A8FFF7DDFF04A8AB
:102DF00020222100FFF7E2FF002014B070BDC04682
:102E000010B500F051F900F0FDF800F011F9134A87
:102E10001349144800F02AF9134800F027F9134C1D
:102E20001348E26A216B203400F020F90ECC802494
:102E30001048640000F01AF9220000210E4800F04A
:102E4000EEF9220000210D4800F0E9F922000021EE
:102E50000B4800F0E4F900F015F810BDDC4700085D
:102E60005C480008DC480008284900087806002073
:102E700038490008604900089800002098010020A7
:102E800098020020F0B5DE46574645464E46802261
:102E9000E0B53B4C0025A54400240023D2000AA83D
:102EA00000F09CF8374B384F9946384B9A46384BD0
:102EB0009846384B9B46384B01932100484600F01A
:102EC000D5F800F09FF822002B000AA902A8FFF70E
:102ED0007BFF060000F0ACF852463B6811685A1CB4
:102EE0003A6042469B00C817D150002E44D10F22B1
:102EF0005B46024052181B680198121100F0B6F8A8
:102F000023002B4332D024196D41002D03D180239F
:102F1000DB00A342D1D2002320483B6000F046F8FA
:102F20001F4800F0A3F880231E4ADB000024002580
:102F300091469A4640463B6821009A0082580133E8
:102F400048463B6000F092F823002B4311D024192F
:102F50006D41002D01D1A245ECD23000124B9D44B1
:102F6000F0BCBB46B246A946A046F0BD08240025E9
:102F7000A3E708240025DDE704267642CBE7C04618
:102F8000D4FBFFFF8C49000898030020900000202C
:102F900098020020940000209C490008B8490008CD
:102FA000C0490008D04900082C040000010010B5F9
:102FB000054B064A064800F059F8064906482031F4
:102FC0000EC900F053F810BDDC4700085C4800084B
:102FD000DC490008780600201C4A0008134308D08A
:102FE000302103008218081AC11819700133934266
:102FF000FAD17047024A1368013313607047C04624
:103000009C030020002210B5064C074B21681A6073
:103010004A62FDF7D1FB054B18602000FEF7E2FB8A
:1030200010BDC0462C0600209C0300209400002008
:1030300010B50A4C2000FEF727FC094B22681B68DC
:10304000526A084C1B0413432360FDF7B5FB0300D1
:10305000054A206811685B1A136010BD2C06002019
:103060009C03002090000020940000200FB430B595
:1030700083B006AA0A4C02CA2000019200F0D0FBDD
:103080002000FDF741F8074D82B26423210028009B
:10309000FEF7A0FE03B030BC08BC04B01847C04621
:1030A000A0030020A805002080B500AF244B3422E7
:1030B0000021180000F0B3F8214B802212051A609D
:1030C0001F4B1A681E4B5A601E4A1D4B9A601E4ABF
:1030D0001B4B9A611D4A1A4BDA611D4A184BDA6084
:1030E0001C4A174B5A611C4A154B1A61144B9A68BB
:1030F000134B5B68D21A124B1A62114B5A69104B70
:10310000DB68D21A0E4B5A620D4BDA690C4B9B6985
:10311000D21A0B4B9A620A4B5A6A094B9B6AD21815
:10312000074BDA62064B1A69054B5B6AD218044BEF
:103130001B68D21A024B1A63C046BD4680BDC0460A
:10314000780600207845000870000020BC060020AA
:103150000000002070000020204B000830B5140053
:103160001A00094B05001B6885B0D868074B002C76
:1031700001D1074B1C00019300912B0005490294DB
:1031800000F010F800F026FC0C000020444A000873
:103190007F4A0008514A0008014B18687047C04632
:1031A0000C0000200EB403B5010003AB044804CBAF
:1031B0000068019300F062F802B008BC03B0184741
:1031C0000C00002070B500260C4D0D4C641BA410A3
:1031D000A64209D1002601F0C3F90A4D0A4C641B2E
:1031E000A410A64205D170BDB300EB589847013634
:1031F000EEE7B300EB5898470136F2E7184B0008AA
:10320000184B0008184B00081C4B0008002310B591
:103210009A4200D110BDCC5CC4540133F8E70300DE
:103220008218934200D1704719700133F9E793680F
:1032300010B5013B9360002B04DA9469A34207DBCD
:103240000A2905D01368581C10601970080010BDB9
:1032500000F0F2FA0100F9E7F8B506000F001400DB
:10326000D518AC4201D1002007E021783A003000A7
:10327000FFF7DDFF0134431CF3D1F8BDF0B5A1B079
:1032800006000C001F000392002804D08369002B65
:1032900001D100F0D5FC8E4B9C421CD17468636E4A
:1032A000DB0705D4A3899B0502D4A06D00F069FD5E
:1032B000A3891B0702D52369002B1DD121003000F3
:1032C00000F010FB002817D0636EDB070DD501203E
:1032D000404221B0F0BD7F4B9C4201D1B468DEE793
:1032E0007D4B9C42DBD1F468D9E7A3899B05EED4E2
:1032F000A06D00F047FDEAE7002308AD6B612033C5
:103300006B761033AB760797039F3B78002B01D089
:10331000252B4ED1039BFB1A0593039B9F420DD097
:10332000059B21003000039AFFF796FF431C00D154
:10333000B5E06A69059B944663446B613B78002B5A
:1033400000D1ACE001227B1C0393002352426A604F
:1033500004A9543252182B60EB60AB601370AB655C
:10336000039B052219785D4800F07AFD039B5F1CE2
:10337000002820D12A68D30604D5532304A95B185A
:1033800020211970130704D5532304A95B182B219E
:103390001970039B1B782A2B16D00021EB68039F22
:1033A0003A78781C303A8446092A4FD9002911D13D
:1033B00017E00137A9E7494B2A68C01A0123834067
:1033C00013432B600397CBE7079B191D1B680791DD
:1033D000002B01DB0B9304E05B42EB600223134301
:1033E0002B603B782E2B0AD17B782A2B37D1079B79
:1033F00002371A1D1B680792002B2DDB099303224D
:103400003978374800F02CFD002807D0344B2A6863
:10341000C01A40238340134301372B6039787B1C4B
:10342000062230480393297600F01AFD002845D083
:103430002D4B002B27D10722079B073393430833DB
:1034400007936B69049A9B186B615DE70A214B43F4
:1034500067469B180939A3E701235B42CEE70023A7
:103460001A0001376B603978781C30398446092995
:1034700003D9002BC3D00992C1E70A235A436746F8
:103480005218093BEFE707AB0093220029003000F8
:10349000164B00E000BF0490049B0133D1D1636E52
:1034A000DB0705D4A3899B0502D4A06D00F06AFC5C
:1034B000A3895B0600D50AE70D980AE707AB0093DE
:1034C000220029003000094B00F082F8E3E7C046F3
:1034D000D84A0008F84A0008B84A0008844A000898
:1034E0008A4A00088E4A000800000000593200088D
:1034F000F7B5150001938A680B690C0000909342A0
:1035000000DA130022002B6043321278002A01D027
:1035100001332B6023689B0602D52B6802332B6096
:103520002268062317001F401A4227D02300433386
:103530001B785A1E93412268920630D422000199CA
:103540000098089E4332B047431C25D006232068CC
:103550002A68E16800250340042B03D18D1AEB4350
:10356000DB171D40A3682269934201DD9B1AED1809
:103570000027BD4220D1002010E00137E3682A680F
:103580009B1ABB42D2DD2200012301990098089EBC
:103590001932B047431CF0D101204042FEBD30201B
:1035A000E1184331087021005A1C45310978A218EE
:1035B000433202331170C1E72200012301990098C0
:1035C000089E1A32B047431CE6D00137D1E700000D
:1035D000F0B58BB006920A0043320793059004922F
:1035E0000A7E0C00109B782A06D8622A08D8002A86
:1035F00000D1C0E0582A52D026004236327022E074
:10360000100063381528F7D8FCF786FD16001F0058
:10361000F6FFF6FFF6FFF6FF1F00F6FFF6FFF6FFD8
:10362000F6FFA80036009A00F6FFF6FFB900F6FF95
:103630003600F6FFF6FF9E0026001A684236111D7E
:103640001960136833700123A7E0086819680A1D20
:1036500005060BD50D681A60002D03DA2D23049A98
:103660006D421370614B0A27039332E00D681A60B4
:103670004106F1D52DB2EFE70D681968081D1860F5
:103680002E0601D50D6803E06D06FBD50D68ADB2C1
:10369000564B0A2703936F2A17D1082715E04531A7
:1036A0000A70524A03921A68216820CA1A600806F2
:1036B00050D5CB0702D52023194321601027002DB8
:1036C00003D1202322689A4322602300002243333F
:1036D0001A706368A360002B03DB04222168914306
:1036E0002160002D02D1049E002B0CD0049E2800E6
:1036F0003900FCF7A1FD039B013E5B5C33702B009E
:1037000005009F42F3D9082F09D12368DB0706D5AE
:1037100063682269934202DC3023013E3370049BCC
:103720009B1B2361079B210000930598069B09AA18
:10373000FFF7DEFE431C35D1012040420BB0F0BD47
:10374000202209680A432260220078214532117044
:10375000274AA7E74806ACD5ADB2AAE71A680D68B4
:10376000101D4969186013682E0601D5196002E022
:103770006D06FBD519800023049E2361D2E71A68E9
:10378000111D1960166800213000626800F068FBA6
:10379000002801D0801B6060636823610023049AC5
:1037A0001370BFE72369320006990598079DA84763
:1037B000431CC1D023689B0715D4099BE06898423D
:1037C000BCDA1800BAE72200012306990598079E83
:1037D0001932B047431CAFD00135E368099A9B1AF0
:1037E000AB42F0DCE9E70025F7E7C046954A000860
:1037F000A64A000800B59BB00091049106490591C6
:10380000029106490391694600F078FC0023009A72
:1038100013701BB000BDC046FFFFFF7F0802FFFF13
:1038200010B513000A00010002480068FFF7E2FF2C
:1038300010BDC0460C000020F8B505000E001400B5
:10384000002804D08369002B01D100F0F9F9224B44
:103850009C422ED16C68A369A360A3891B0732D553
:103860002369002B2FD023682269F7B2981A636965
:10387000F6B2834205DC2100280000F03FF9002861
:1038800027D1A3680130013BA36023685A1C226042
:103890001F706369834204D0A389DB0707D50A2E12
:1038A00005D12100280000F029F9002811D13000AD
:1038B000F8BD0A4B9C4201D1AC68CCE7084B9C4256
:1038C000C9D1EC68C7E72100280000F00BF80028F8
:1038D000C9D001267642EAE7D84A0008F84A00082B
:1038E000B84A0008374B70B51D6806000C00002D63
:1038F00005D0AB69002B02D1280000F0A1F9324BB2
:103900009C420FD16C680C23E25E93B211072DD458
:10391000D90611D409230120336037331343A3811F
:10392000404270BD294B9C4201D1AC68EBE7284B6B
:103930009C42E8D1EC68E6E75B0713D5616B002990
:1039400008D023004433994202D0300000F0A6FA98
:10395000002363632422A3899343A381002363602C
:10396000236923600823A2891343A3812369002BC1
:103970000BD1A0218022A389890092000B409342A1
:1039800003D02100300000F027FA0C22A35E0120B2
:103990001A0099B2024003420FD00022A26062696D
:1039A0005242A261002022698242BAD10A06B8D5E9
:1039B00040221343A3810138B3E7880700D462692A
:1039C000A260EFE70C000020D84A0008F84A00087F
:1039D000B84A0008062010B500F0CCFC0120FCF726
:1039E000B9FD0000F7B58B8905000C001A075FD4FC
:1039F0004A68002A04DC0A6C002A01DC0020FEBDB3
:103A0000E76A002FFAD0002280212E682A601A006F
:103A100049010A400B4234D0606DA3895B0706D58B
:103A20006368C01A636B002B01D0236CC01A0200BC
:103A3000216A00232800E76AB847A189431C06D100
:103A40002B681D2B31D82C4ADA40D3072DD5002303
:103A5000636023692360CB0405D5431C02D12B6826
:103A6000002B00D16065616B2E600029C6D0230059
:103A70004433994202D0280000F010FA002060631D
:103A8000BDE701232800216AB847431CC5D12B6834
:103A9000002BC2D01D2B01D0162B01D12E60ADE71B
:103AA0004023A2891343A381A9E740230B43FAE7EC
:103AB0000F69002FA2D00A680F60D21B019200226A
:103AC0009B0700D14A69A260019B002B00DC95E7AF
:103AD0003A002800019B216AA66AB047002806DC4C
:103AE00040230120A28940421343A38187E7019B21
:103AF0003F181B1A0193E7E7010040200B6970B5DE
:103B000005000C00002B02D10025280070BD002804
:103B100004D08369002B01D100F092F8144B9C4231
:103B20001BD16C680C22A35E002BEDD0626ED20715
:103B300004D49B0502D4A06D00F023F928002100D5
:103B4000FFF750FF636E0500DB07DED4A3899B05FA
:103B5000DBD4A06D00F016F9D7E7064B9C4201D1EB
:103B6000AC68DFE7044B9C42DCD1EC68DAE7C04686
:103B7000D84A0008F84A0008B84A0008002310B5DF
:103B80000400036043608360818143661900C28141
:103B900003614361836108225C30FFF740FB054B02
:103BA0006362054B2462A362044BE362044B23630C
:103BB00010BDC046B5430008DD43000815440008A9
:103BC0004144000810B5024900F0BAF810BDC046E3
:103BD000FD3A000870B568254A1E55430E002900BD
:103BE000743100F0A5F9041E08D000212A000160FC
:103BF00046600C30A0606832FFF711FB200070BDFA
:103C000010B5024800F0BDF810BDC046B406002053
:103C100010B5024800F0B6F810BDC046B40600204A
:103C200010B5024800F0ADF810BDC046AF06002048
:103C300010B5024800F0A6F810BDC046AF0600203F
:103C400013B50400FFF7ECFFA369002B02D0FFF7C8
:103C5000EFFF13BDA364E3642365134B134A1B6892
:103C6000A2620193A34201D10123A361200000F0CD
:103C70001FF86060200000F01BF8A060200000F03A
:103C800017F800220421E0606068FFF777FF012247
:103C90000921A068FFF772FF02221221E068FFF7F6
:103CA0006DFF0123A361D2E7804A0008C53B0008ED
:103CB000F8B50700FFF7A4FF1F4B1E68B369002B80
:103CC00002D13000FFF7BCFF4836B4687368013B8F
:103CD00004D53368002B22D03668F6E70C22A55EA7
:103CE000002D1AD12000154B5830E360656600F0B6
:103CF00047F8FFF78DFF2000082229002560A56006
:103D0000656025616561A5615C30FFF788FA6563D0
:103D1000A563A564E5642000F8BD6834D7E70421F5
:103D20003800FFF757FF041E3060D5D1FFF770FF52
:103D30000C233B60EFE7C046804A00080100FFFF0C
:103D4000F7B5040006000027019148346368A568B0
:103D50000093009B013B009304D52468002CF5D10F
:103D60003800FEBDAB89012B08D90E22AB5E0133B2
:103D700004D029003000019B984707436835E8E7E5
:103D8000704770477047000070B50E001D000E238D
:103D9000C95E140096B0002907DA00232B60B389AE
:103DA0001B0611D48023DB000FE06A4600F074FB91
:103DB0000028F2DBF02301991B021940054BC918BA
:103DC0004B4259412960EDE740230020236016B0A3
:103DD00070BDC04600E0FFFFF7B502268B890500E5
:103DE0000C00334206D023004733236023610123B4
:103DF0006361F7BD6A4601ABFFF7C6FF0099070094
:103E0000280000F095F8002808D10C22A35E9A053E
:103E1000EFD4032293431E43A681E4E70F4BAB622A
:103E20008023A28920601343A381009B20616361EA
:103E3000019B002B0DD028000E23E15E00F03EFB1D
:103E4000002806D00322A38993431A0001231343B9
:103E5000A381A0890743A781CBE7C046C53B0008E3
:103E6000C9B28218904201D10020704703788B427A
:103E7000FBD00130F6E710B5884202D98B18984282
:103E800003D3002307E08B5C8354013AFBD210BDBF
:103E9000CC5CC45401339A42FAD1F8E770B50500FE
:103EA000002910D00C1F2368002B00DAE41828002A
:103EB00000F02AFB1D4A1368002B05D163601460D3
:103EC000280000F029FB70BDA34208D921686018C2
:103ED0008342F3D118685B6841182160EEE71A004D
:103EE0005B68002B01D0A342F9D911685018A04299
:103EF0000BD120680918501811608342E0D118686E
:103F00005B68411811605360DAE7A04202D90C23C4
:103F10002B60D5E721686018834203D118685B687D
:103F20004118216063605460CAE7C046A0050020C4
:103F3000F8B50323CD1C9D43083506000C2D1FD278
:103F40000C25A9421ED8300000F0DEFA25490A6887
:103F50001400002C1AD1244F3B68002B04D12100FF
:103F6000300000F0CBF938602900300000F0C6F9CD
:103F7000431C2BD10C233000336000F0CDFA03E05A
:103F8000002DDEDA0C2333600020F8BD23685B1BB4
:103F900019D40B2B03D92360E418256003E0636870
:103FA000A2420ED10B60300000F0B6FA20000722CA
:103FB0000B30231D9043C21A9842E6D01B1AA3501F
:103FC000E3E75360EFE722006468C2E70323C41C01
:103FD0009C43A042E1D0211A300000F08FF9431C2D
:103FE000DBD1C7E7A0050020A4050020F8B5070035
:103FF0000D001600002905D11100FFF799FF0400FC
:104000002000F8BD002A03D1FFF748FF3400F7E78E
:1040100000F08AFA2C00B042F2D231003800FFF7EB
:1040200087FF041EECD029003200FFF7EFF82900CB
:104030003800FFF733FFE3E7F0B58E6885B007007F
:104040000C00039201939E423CD890238A89DB00A6
:104050001A4234D00325096923685B1A0293636905
:1040600002985D43EB0F5D19019B6D1001331B1826
:10407000AB4200D91D00530532D529003800FFF7A7
:1040800057FF061E09D10C233B6040230120A28963
:1040900040421343A38105B0F0BD029A2169FFF7A6
:1040A000B5F8A389144A1A4080231343A381029BC5
:1040B0002661F61826606561019EED1AA560019BD8
:1040C0009E4200D9019E320003992068FFF7D3FE7B
:1040D000A36800209B1BA36023689E192660DAE773
:1040E0002A003800FFF782FF061EE0D13800216960
:1040F000FFF7D4FEC7E7C0467FFBFFFFF0B5A1B0D6
:1041000003901D008B890F0016001B0611D50B694B
:10411000002B0ED14021FFF70BFF386038610028DB
:1041200005D10C23039A0138136021B0F0BD402360
:104130007B61002308AC6361203363761033A37680
:10414000079535002B78002B01D0252B47D1AB1BD1
:104150000593B5420CD0320039000398FFF76CFF8D
:10416000431C00D1AEE06269059B944663446361E1
:104170002B78002B00D1A5E001220023524262607F
:1041800004A9543252186E1C2360E360A3601370BC
:10419000A365052231785448FFF762FE751C00289C
:1041A0001FD12268D30604D5532304A95B1820210C
:1041B0001970130704D5532304A95B182B21197018
:1041C00033782A2B16D0350000210A20E3682A789C
:1041D0006E1C303A092A4ED9002911D117E0013559
:1041E000B0E7414B2268C01A0123834013432E00DD
:1041F0002360CEE7079B191D1B680791002B01DB8D
:104200000B9304E05B42E3600223134323602B78AB
:104210002E2B0AD16B782A2B35D1079B02351A1D1C
:104220001B680792002B2BDB0993304E03223000D2
:104230002978FFF715FE002806D04023801B834015
:1042400022680135134323602978062228486E1C12
:104250002176FFF705FE00283CD0264B002B25D108
:104260000722079B07339343083307936369049A34
:104270009B18636165E74343350001219B18A6E75E
:1042800001235B42D0E700230A201A000135636056
:1042900029786E1C3039092903D9002BC5D0099221
:1042A000C3E74243350001235218F1E707AB0093FF
:1042B0003A002100104B039800E000BF0490049BDB
:1042C0000133D3D1BB890D985B0600D42DE70120C3
:1042D00040422AE707AB00933A002100064B0398BF
:1042E000FFF776F9EAE7C046844A00088A4A0008E0
:1042F0008E4A00080000000039400008002370B515
:10430000064D040008002B60FCF796F9431C03D10E
:104310002B68002B00D0236070BDC046B80600207B
:1043200070B504000D001F2904D916230360012075
:10433000404270BD436C002B04D08A009B181A6861
:10434000002A08D1200000F031F82A0001002000E6
:1043500000F01AF8EDE70020012AEAD0511C03D141
:10436000162301302360E4E7002428001C609047F6
:104370002000DEE710B5034B01001868FFF7D0FFFF
:1043800010BDC0460C000020002370B5064D04008F
:10439000080011002B60FCF7CDF8431C03D12B68FB
:1043A000002B00D0236070BDB806002010B5FCF7CC
:1043B000BBF810BD70B50C000E25495F00F0BCF8CD
:1043C000002803DB636D1B18636570BDA389024A77
:1043D0001340A381F9E7C046FFEFFFFFF8B51F00C8
:1043E0008B8905000C001600DB0505D50E23C95E80
:1043F0000022022300F074F8A389054A2800134024
:10440000A38132000E23E15E3B0000F01FF8F8BDEF
:10441000FFEFFFFF70B50C000E25495F00F060F85C
:10442000A389421C03D1054A1340A38170BD802299
:1044300052011343A3816065F8E7C046FFEFFFFF19
:1044400010B50E23C95E00F015F810BD70B504005C
:10445000080011001A000023054D2B60FCF7A3F89B
:10446000431C03D12B68002B00D0236070BDC046D5
:10447000B8060020002370B5064D040008002B602C
:10448000FCF7ADF8431C03D12B68002B00D0236050
:1044900070BDC046B8060020002370B5064D04006C
:1044A000080011002B60FCF7A4F8431C03D12B6813
:1044B000002B00D0236070BDB8060020002370B52B
:1044C000064D040008002B60FCF7A1F8431C03D143
:1044D0002B68002B00D0236070BDC046B8060020BA
:1044E00070B50400080011001A000023054D2B6070
:1044F000FCF796F8431C03D12B68002B00D02360F7
:1045000070BDC046B806002010B50248FFF739FC60
:1045100010BDC046B006002010B50248FFF732FCBF
:1045200010BDC046B00600200B1F1B68181F002BD3
:1045300001DA0B58C018704770B50400080011006C
:104540001A000023054D2B60FCF710F8431C03D123
:104550002B68002B00D0236070BDC046B806002039
:10456000F8B5C046F8BC08BC9E467047F8B5C046D2
:08457000F8BC08BC9E46704730
:1045780002030405060708090A0B0C0D0E0F10109C
:104588000102030405060708090A0B0C0D0E0F109B
:1045980000000000000000000102030406070809EB
:1045A80000000000010203046F6666736574203C16
:1045B800204E4C414E45532A73697A656F662874BC
:1045C800586F6F646F6F4C616E652900433A2F55C1
:1045D800736572732F766173696C69692F446573AB
:1045E8006B746F702F6D645F6C6573736F6E732F70
:1045F800646174615F6E65745F7365632F6E697360
:10460800745F6C77635F62656E63686D61726B2F50
:10461800616C676F732F786F6F6479616B2F496D69
:10462800706C656D656E746174696F6E732F6372FB
:104638007970746F5F686173682F786F6F647961E0
:104648006B76312F7265662F586F6F646F6F2D729E
:1046580065666572656E63652E6300006F666673D6
:1046680065742B6C656E677468203C3D204E4C4128
:104678004E45532A73697A656F662874586F6F645C
:104688006F6F4C616E65290058000000380000000B
:10469800C0030000D000000020010000140000004A
:1046A800600000002C00000080030000F000000003
:1046B800A001000012000000586F6F646F6F5F4127
:1046C8006464427974650000586F6F646F6F5F416E
:1046D8006464427974657300586F6F646F6F5F45E7
:1046E800787472616374427974657300696E737467
:1046F800616E63652D3E6D6F6465203D3D20437995
:10470800636C6973745F4D6F64654861736800001A
:10471800433A2F55736572732F766173696C6969B3
:104728002F4465736B746F702F6D645F6C65737362
:104738006F6E732F646174615F6E65745F73656318
:104748002F6E6973745F6C77635F62656E63686D03
:1047580061726B2F616C676F732F786F6F6479610B
:104768006B2F496D706C656D656E746174696F6EE1
:10477800732F63727970746F5F686173682F786FD5
:104788006F6479616B76312F7265662F4379636C3C
:104798006973742E696E6300284B4C656E202B205C
:1047A80049444C656E29203C3D20284379636C6957
:1047B80073745F526B696E202D2031290000000050
:1047C800586F6F6479616B5F4162736F72624B659A
:1047D800790000004C57435F414C474F5F484153B5
:1047E800485F584F4F4459414B5631000000000074
:1047F80000000000000000000000000000000000B1
:1048080000000000000000000000000000000000A0
:104818000000000000000000000000000000000090
:104828000000000000000000000000000000000080
:104838000000000000000000000000000000000070
:104848000000000000000000000000000000000060
:10485800000000005465737420456E61626C6564E5
:104868000000000000000000000000000000000040
:104878000000000000000000000000000000000030
:104888000000000000000000000000000000000020
:104898000000000000000000000000000000000010
:1048A8000000000000000000000000000000000000
:1048B80000000000000000000000000000000000F0
:1048C80000000000000000000000000000000000E0
:1048D800000000000A0A0A0A5374617274696E675C
:1048E8002E2E2E0A25730A4D61792020332032306E
:1048F80032312030353A33323A33390A4F707469DD
:104908006D697A6174696F6E3A204F666173740AD3
:10491800416C676F726974686D3A2025730A0000EC
:104928004D656D6F72792075736167653A20000077
:10493800546F74616C20464C4153483A2025366CBC
:10494800754220546F74616C2052414D3A202536CF
:104958006C7542200A00000053656374696F6E73BA
:104968003A20746578742025366C75422064617429
:10497800612025366C7542206273732025366C756C
:10498800420A00006D73675F6C656E3A25366420D5
:1049980000000000686173683A253130642075733F
:1049A8003A253964206D733A253764200A000000DF
:1049B800484153480000000048415348546F74521E
:1049C80065733A20000000006828256429203D20EE
:1049D800256420002573202573204D61792020331C
:1049E80020323032312030353A33323A3339204FA1
:1049F8007074696D697A6174696F6E3A204F666187
:104A0800737420416C676F726974686D3A202573FE
:104A18002000000053656374696F6E733A207465F3
:104A280078742025366C7520646174612025366C95
:104A380075206273732025366C7520002C206675EE
:104A48006E6374696F6E3A2000617373657274697E
:104A58006F6E2022257322206661696C65643A2096
:104A680066696C6520222573222C206C696E65208E
:104A78002564257325730A0010000020232D302B90
:104A88002000686C4C006566674546470030313247
:104A9800333435363738394142434445460030319E
:104AA80032333435363738396162636465660000FD
:104AB80000000000000000000000000000000000EE
:104AC80000000000000000000000000000000000DE
:104AD80000000000000000000000000000000000CE
:104AE80000000000000000000000000000000000BE
:104AF80000000000000000000000000000000000AE
:104B0800000000000000000000000000000000009D
:044B1800E9000008A8
:044B1C00C1000008CC
:104B200000127A00040000000100000010000020C4
:104B300000000000D84A0008F84A0008B84A0008F7
:104B40000000000000000000000000000000000065
:104B50000000000000000000000000000000000055
:104B60000000000000000000000000000000000045
:104B70000000000000000000000000000000000035
:104B80000000000000000000000000000000000025
:04000005080006B138
:00000001FF
