:020000040800F2
:100000000020002059070008890500088F05000816
:1000100000000000000000000000000000000000E0
:10002000000000000000000000000000950500082E
:1000300000000000000000009F050008A90500085E
:10004000A9070008A9070008A9070008A9070008D0
:10005000A9070008A9070008A9070008A9070008C0
:10006000A9070008A9070008A9070008A9070008B0
:10007000A9070008A9070008A9070008A9070008A0
:10008000A9070008B905000800000000A90700083A
:10009000A9070008A9070008A9070008A907000880
:1000A000A9070008A9070008A9070008A907000870
:1000B000A907000800000000A907000800000000D0
:1000C00010B5064C2378002B07D1054B002B02D02E
:1000D000044800E000BF0123237010BD7000002021
:1000E0000000000080450008044B10B5002B03D031
:1000F0000349044800E000BF10BDC04600000000F6
:1001000074000020804500080023C25C0133002AEF
:10011000FBD1581E7047000003B4714649084000E7
:100120004900095E49008E4403BC70470022430821
:100130008B4274D303098B425FD3030A8B4244D3AF
:10014000030B8B4228D3030C8B420DD3FF220902F1
:1001500012BA030C8B4202D31212090265D0030BB0
:100160008B4219D300E0090AC30B8B4201D3CB03A6
:10017000C01A5241830B8B4201D38B03C01A5241E8
:10018000430B8B4201D34B03C01A5241030B8B42EA
:1001900001D30B03C01A5241C30A8B4201D3CB02D5
:1001A000C01A5241830A8B4201D38B02C01A5241BA
:1001B000430A8B4201D34B02C01A5241030A8B42BD
:1001C00001D30B02C01A5241CDD2C3098B4201D3D5
:1001D000CB01C01A524183098B4201D38B01C01A53
:1001E000524143098B4201D34B01C01A52410309CA
:1001F0008B4201D30B01C01A5241C3088B4201D379
:10020000CB00C01A524183088B4201D38B00C01A25
:10021000524143088B4201D34B00C01A5241411A4C
:1002200000D20146524110467047FFE701B5002059
:1002300000F006F802BDC0460029F7D076E7704707
:100240007047C04680B584B000AF7860074B5969ED
:10025000064B7A680A435A61044B5B697A6813401B
:10026000FB60FB68C046BD4604B080BD0010024084
:1002700080B500AF00F09AFA00F010F800F0DCF85A
:1002800000F06EF800F0A8F802F0BAFD024B18007A
:1002900000F0F0FAF8E7C04640420F0090B597B082
:1002A00000AF28243B19180030231A00002102F067
:1002B000C6FF1823FB18180010231A00002102F0B3
:1002C000BEFF3B1D180014231A00002102F0B7FFE7
:1002D00021007B1802221A607B180122DA607B1849
:1002E00010221A617B1802221A627B1800225A62BD
:1002F0007B18802212039A627B180022DA627B1834
:10030000180000F029FD031E01D000F09FF818210D
:100310007B1807221A607B1802225A607B18002281
:100320009A607B180022DA607B180021180001F027
:100330002DF8031E01D000F089F83B1D01221A6040
:100340003B1D00229A603B1D180001F071F9031E4D
:1003500001D000F07BF8C046BD4617B090BD00004C
:1003600080B582B000AF3B00180008231A000021BE
:1003700002F065FF154B164A1A60144B00225A60B2
:10038000124B00229A60114B124ADA600F4B002286
:100390009A610E4B180001F029FA031E01D000F0FB
:1003A00055F83B0000221A603B0000225A603A00D8
:1003B000064B1100180001F09FFC031E01D000F055
:1003C00045F8C046BD4602B080BDC04628030020A7
:1003D00000100040FFFF000080B500AF144B154A2D
:1003E0001A60134BE12252025A60114B00229A60AC
:1003F0000F4B0022DA600E4B00221A610C4B0C22CC
:100400005A610B4B00229A61094B0022DA61084BBA
:1004100000221A62064B00225A62054B180001F0B6
:10042000D9FC031E01D000F011F8C046BD4680BDC6
:10043000A40200200038014080B500AF80239B0259
:100440001800FFF7FFFEC046BD4680BD80B500AF77
:1004500072B6C046FEE7000080B582B000AF0F4B19
:100460009A690E4B01210A439A610C4B9B69012248
:1004700013407B607B68094BDA69084B8021490592
:100480000A43DA61054BDA6980235B0513403B6060
:100490003B68C046BD4602B080BDC0460010024069
:1004A00080B584B000AF78607B681B680D4A9342CA
:1004B00013D10D4BDA690C4B10210A43DA610A4B58
:1004C000DB6910221340FB60FB6800220021112031
:1004D00000F0A0FA112000F0B2FAC046BD4604B008
:1004E00080BDC046001000400010024090B58BB0A7
:1004F00000AF786014243B19180014231A0000215F
:1005000002F09DFE7B681B681D4A934233D11D4B50
:100510009A691C4B8021C9010A439A61194B9A6957
:100520008023DB0113403B613B69164B5A69154B35
:10053000802189020A435A61124B5A6980239B0227
:100540001340FB60FB683B19C022D2001A602100F7
:100550007B1802225A607B1800229A607B180322C3
:10056000DA607B1801221A617A189023DB051100EA
:10057000180000F081FAC046BD460BB090BDC046E1
:10058000003801400010024080B500AFFEE780B5A2
:1005900000AFFEE780B500AFC046BD4680BD80B568
:1005A00000AFC046BD4680BD80B500AF00F046F943
:1005B000C046BD4680BD000080B500AF034B1800AB
:1005C00001F0E4F9C046BD4680BDC04628030020C6
:1005D00080B500AF01231800BD4680BD80B582B054
:1005E00000AF7860396002F0E7FD030016221A6060
:1005F00001235B421800BD4602B080BD80B582B0C9
:1006000000AF786001235A427B6811001800FFF7A1
:10061000E5FFFEE780B586B000AFF860B9607A60AC
:1006200000237B610AE000E000BF0100BB685A1CA8
:10063000BA60CAB21A707B6901337B617A697B68E0
:100640009A42F0DB7B681800BD4606B080BD80B5DD
:1006500086B000AFF860B9607A6000237B6109E082
:10066000BB685A1CBA601B78180000E000BF7B69A9
:1006700001337B617A697B689A42F1DB7B68180001
:10068000BD4606B080BD80B582B000AF7860012362
:100690005B421800BD4602B080BD80B582B000AF9D
:1006A000786039603B68802292015A60002318000C
:1006B000BD4602B080BD80B582B000AF7860012336
:1006C0001800BD4602B080BD80B584B000AFF860B0
:1006D000B9607A6000231800BD4604B080BD0000F8
:1006E00080B586B000AF7860144A154BD31A7B6191
:1006F0007B693B61134B1B68002B02D1114B124AE3
:100700001A60104B1A687B68D3183A699A4207D26C
:1007100002F052FD03000C221A6001235B4209E043
:10072000084B1B68FB60074B1A687B68D218054BA7
:100730001A60FB681800BD4606B080BD002000208E
:10074000000400008C000020B803002080B500AF3A
:10075000C046BD4680BD00000D4885460D480E4987
:100760000E4A002302E0D458C4500433C4188C420B
:10077000F9D30B4A0B4C002301E013600432A24270
:10078000FBD3FFF7E3FF02F02DFDFFF771FDFEE75E
:10079000002000200000002070000020FC4A00081B
:1007A00070000020B8030020FEE7000080B500AF15
:1007B000074B1A68064B10210A431A60002000F00C
:1007C00009F8FFF749FE00231800BD4680BDC0466A
:1007D0000020024090B583B000AF7860144B1C68D5
:1007E000144B1B781900FA239800FFF79FFC0300B5
:1007F00019002000FFF79AFC0300180000F02FF901
:10080000031E01D001230FE07B68032B0BD879680E
:1008100001235B420022180000F0FCF8064B7A68C6
:100820001A60002300E001231800BD4603B090BD0C
:1008300000000020080000200400002080B500AF68
:10084000054B1B781A00054B1B68D218034B1A6026
:10085000C046BD4680BDC046080000207003002091
:1008600080B500AF024B1B681800BD4680BDC04676
:100870007003002080B584B000AF7860FFF7F0FF10
:100880000300BB607B68FB60FB68013305D00A4B4B
:100890001B781A00FB689B18FB60C046FFF7E0FF5F
:1008A0000200BB68D31AFA689A42F7D8C046C0461D
:1008B000BD4604B080BDC0460800002080B582B0AF
:1008C00000AF0200FB1D1A70FB1D1B787F2B09D89F
:1008D000FB1D1B781A001F231A40044B0121914075
:1008E0000A001A60C046BD4602B080BD00E100E0CB
:1008F00090B583B000AF02003960FB1D1A70FB1D7C
:100900001B787F2B28D82F4AFB1D1B785BB29B08D6
:10091000C0339B009B58FA1D1278110003220A4035
:10092000D200FF2191400A00D2431A4011003B68D7
:100930009B01FF221A40FB1D1B7818000323034074
:10094000DB009A401F48FB1D1B785BB29B080A43E3
:10095000C0339B001A5031E01B4AFB1D1B78190065
:100960000F230B40083B9B0806339B00D31804332E
:100970001B68FA1D1278110003220A40D200FF21E1
:1009800091400A00D2431A4011003B689B01FF22AC
:100990001A40FB1D1B78180003230340DB009A401C
:1009A0000948FB1D1B781C000F232340083B9B08B4
:1009B0000A4306339B00C31804331A60C046BD4681
:1009C00003B090BD00E100E000ED00E080B582B032
:1009D00000AF78607B685A1E80235B049A4201D383
:1009E000012310E00A4B7A68013A5A6001235B4206
:1009F00003211800FFF77CFF054B00229A60044B8F
:100A000007221A6000231800BD4602B080BDC04610
:100A100010E000E080B584B000AFB9607A600F21CB
:100A20007B18021C1A70BA687B181B785BB2110025
:100A30001800FFF75DFFC046BD4604B080BD80B51D
:100A400082B000AF0200FB1D1A70FB1D1B785BB269
:100A50001800FFF733FFC046BD4602B080BD80B529
:100A600082B000AF78607B681800FFF7AFFF03002B
:100A70001800BD4602B080BD80B586B000AF78607A
:100A8000396000237B614FE13B681B6801217A6973
:100A900091400A001340FB60FB68002B00D140E14D
:100AA0003B685B68012B0BD03B685B68022B07D06F
:100AB0003B685B68112B03D03B685B68122B30D11D
:100AC0007B689B683B617B695B0003229A40130053
:100AD000DA433B6913403B613B68DA687B695B0042
:100AE0009A4013003A6913433B617B683A699A6004
:100AF0007B685B683B6101227B699A401300DA43A3
:100B00003B6913403B613B685B681B0901221A404B
:100B10007B699A4013003A6913433B617B683A69E9
:100B20005A607B68DB683B617B695B0003229A400B
:100B30001300DA433B6913403B613B689A687B6969
:100B40005B009A4013003A6913433B617B683A6942
:100B5000DA603B685B68022B03D03B685B68122B52
:100B600023D17B69DA087B6808329200D3583B6155
:100B70007B69072213409B000F229A401300DA433F
:100B80003B6913403B613B681A697B6907210B4055
:100B90009B009A4013003A6913433B617B69DA0872
:100BA0007B68083292003969D1507B681B683B61D1
:100BB0007B695B0003229A401300DA433B691340D0
:100BC0003B613B685B6803221A407B695B009A408B
:100BD00013003A6913433B617B683A691A603B68CA
:100BE0005A6880235B05134000D19AE0544B9A6900
:100BF000534B01210A439A61514B9B6901221340D7
:100C0000BB60BB684F4A7B699B0802339B009B58C3
:100C10003B617B69032213409B000F229A40130023
:100C2000DA433B6913403B617A689023DB059A42C3
:100C300013D07B68444A93420DD07B68434A934269
:100C400007D07B68424A934201D1032306E0052383
:100C500004E0022302E0012300E000237A6903217B
:100C60000A40920093403A6913433B6135497B69DE
:100C70009B0802339B003A695A50364B1B683B6114
:100C8000FB68DA433B6913403B613B685A68802349
:100C90005B02134003D03A69FB6813433B612D4B61
:100CA0003A691A602B4B5B683B61FB68DA433B692E
:100CB00013403B613B685A6880239B02134003D07A
:100CC0003A69FB6813433B61224B3A695A60214BF6
:100CD0009B683B61FB68DA433B6913403B613B68BF
:100CE0005A6880235B03134003D03A69FB681343BF
:100CF0003B61184B3A699A60164BDB683B61FB68B5
:100D0000DA433B6913403B613B685A6880239B038D
:100D1000134003D03A69FB6813433B610D4B3A69BA
:100D2000DA607B6901337B613B681A687B69DA4072
:100D3000131E00D0A8E6C046C046BD4606B080BD22
:100D40000010024000000140000400480008004874
:100D5000000C00480004014080B588B000AF786006
:100D60007B68002B01D1012301E37B681B68012212
:100D7000134000D18DE0C34B5B680C221340042B61
:100D80000ED0C04B5B680C221340082B16D1BD4B14
:100D90005A6880235B021A4080235B029A420DD17D
:100DA000B84B1A6880239B02134000D170E07B6827
:100DB0005B68002B00D06BE00123D8E27B685B68A6
:100DC000012B07D1AF4B1A68AE4B802149020A4371
:100DD0001A602FE07B685B68002B0CD1A94B1A6866
:100DE000A84BA9490A401A60A64B1A68A54BA74907
:100DF0000A401A601EE07B685B68052B0ED1A14B90
:100E00001A68A04B8021C9020A431A609D4B1A68D8
:100E10009C4B802149020A431A600BE0994B1A68E7
:100E2000984B99490A401A60964B1A68954B974916
:100E30000A401A607B685B68002B14D0FFF710FD36
:100E40000300BB6108E0FFF70BFD0200BB69D31A8A
:100E5000642B01D903238AE28A4B1A6880239B0200
:100E60001340F0D015E0FFF7FBFC0300BB6108E086
:100E7000FFF7F6FC0200BB69D31A642B01D90323E8
:100E800075E2804B1A6880239B021340F0D100E08A
:100E9000C0467B681B680222134000D169E0794B91
:100EA0005B680C2213400BD0764B5B680C2213401E
:100EB000082B1CD1734B5A6880235B02134016D158
:100EC000704B1B680222134005D07B68DB68012B46
:100ED00001D001234BE26B4B1B68F82293431900AE
:100EE0007B681B69DA00674B0A431A6041E07B6844
:100EF000DB68002B24D0634B1A68624B01210A4344
:100F00001A60FFF7ADFC0300BB6108E0FFF7A8FC27
:100F10000200BB69D31A022B01D9032327E2594BE4
:100F20001B6802221340F1D0564B1B68F8229343F2
:100F300019007B681B69DA00524B0A431A6018E0FB
:100F4000504B1A684F4B01218A431A60FFF788FC07
:100F50000300BB6108E0FFF783FC0200BB69D31A02
:100F6000022B01D9032302E2464B1B6802221340E5
:100F7000F1D17B681B680822134036D07B68DB699F
:100F8000002B19D03F4B5A6A3E4B01210A435A624B
:100F9000FFF766FC0300BB6108E0FFF761FC02009D
:100FA000BB69D31A022B01D90323E0E1354B5B6AFD
:100FB00002221340F1D018E0324B5A6A314B012122
:100FC0008A435A62FFF74CFC0300BB6108E0FFF75D
:100FD00047FC0200BB69D31A022B01D90323C6E1E7
:100FE000284B5B6A02221340F1D17B681B68042204
:100FF000134000D1B4E01F203B1800221A70214B8F
:10100000DA6980235B05134010D11E4BDA691D4B52
:10101000802149050A43DA611A4BDA6980235B05AE
:101020001340FB60FB683B1801221A70184B1A68CA
:1010300080235B0013401AD1154B1A68144B802192
:1010400049000A431A60FFF70BFC0300BB6108E08C
:10105000FFF706FC0200BB69D31A642B01D90323F6
:1010600085E10B4B1A6880235B001340F0D07B684E
:101070009B68012B0ED1034B1A6A024B01210A43D4
:101080001A6235E000100240FFFFFEFFFFFFFBFF8A
:10109000007000407B689B68002B0CD1B64B1A6A2D
:1010A000B54B01218A431A62B34B1A6AB24B042131
:1010B0008A431A621CE07B689B68052B0CD1AE4BFF
:1010C0001A6AAD4B04210A431A62AB4B1A6AAA4B47
:1010D00001210A431A620BE0A74B1A6AA64B0121B1
:1010E0008A431A62A44B1A6AA34B04218A431A62E8
:1010F0007B689B68002B14D0FFF7B2FB0300BB6139
:1011000009E0FFF7ADFB0200BB69D31A9B4A93428B
:1011100001D903232BE1984B1B6A02221340F0D024
:1011200013E0FFF79DFB0300BB6109E0FFF798FBAD
:101130000200BB69D31A914A934201D9032316E1F5
:101140008D4B1B6A02221340F0D11F23FB181B7822
:10115000012B05D1884BDA69874B89490A40DA614E
:101160007B681B681022134063D07B685B69012B8E
:101170002AD1814B5A6B804B04210A435A637E4B20
:101180005A6B7D4B01210A435A63FFF769FB030049
:10119000BB6108E0FFF764FB0200BB69D31A022BB6
:1011A00001D90323E3E0744B5B6B02221340F1D0BF
:1011B000714B5B6BF822934319007B689B69DA00E3
:1011C0006D4B0A435A6334E07B685B69053311D188
:1011D000694B5A6B684B04218A435A63664B5B6BBD
:1011E000F822934319007B689B69DA00624B0A433B
:1011F0005A631EE0604B5A6B5F4B04210A435A63EB
:101200005D4B5A6B5C4B01218A435A63FFF728FB05
:101210000300BB6108E0FFF723FB0200BB69D31AA0
:10122000022B01D90323A2E0534B5B6B0222134034
:10123000F1D17B681B6A002B00D197E04E4B5B68B5
:101240000C221340082B00D16BE07B681B6A022B39
:101250004CD1494B1A68484B4A490A401A60FFF77B
:10126000FFFA0300BB6108E0FFF7FAFA0200BB696E
:10127000D31A022B01D9032379E03F4B1A6880234C
:101280009B041340F0D13C4BDB6A0F2293431900BF
:101290007B68DA6A384B0A43DA62374B5B683A4A52
:1012A000134019007B689A6A7B685B6A1A43324B69
:1012B0000A435A60304B1A682F4B802149040A4375
:1012C0001A60FFF7CDFA0300BB6108E0FFF7C8FA28
:1012D0000200BB69D31A022B01D9032347E0264B36
:1012E0001A6880239B041340F0D03FE0224B1A6819
:1012F000214B24490A401A60FFF7B2FA0300BB6190
:1013000008E0FFF7ADFA0200BB69D31A022B01D93E
:1013100003232CE0184B1A6880239B041340F0D160
:1013200024E07B681B6A012B01D101231FE0124BD3
:101330005B687B61104BDB6A3B617A6980235B02EF
:101340001A407B685B6A9A420ED13B690F221A40B1
:101350007B68DB6A9A4207D17A69F0239B031A40C3
:101360007B689B6A9A4201D0012300E000231800A9
:10137000BD4608B080BDC046001002408813000082
:10138000FFFFFFEFFFFFFFFEFFFFC2FF80B584B04E
:1013900000AF786039607B68002B01D10123B3E096
:1013A0005B4B1B68012213403A689A4211D9584B93
:1013B0001B68012293431900554B3A680A431A608F
:1013C000534B1B68012213403A689A4201D0012313
:1013D0009AE07B681B680222134015D07B681B686B
:1013E0000422134006D04B4B5A684A4BE021C900F7
:1013F0000A435A60474B5B68F022934319007B68AD
:101400009A68444B0A435A607B681B680122134068
:1014100040D07B685B68012B07D13E4B1A68802364
:101420009B02134014D101236EE07B685B68022BA2
:1014300007D1384B1A6880239B04134008D101233D
:1014400062E0344B1B680222134001D101235BE0B0
:10145000304B5B680322934319007B685A682D4B1D
:101460000A435A60FFF7FCF90300FB6009E0FFF74D
:10147000F7F90200FB68D31A274A934201D90323E4
:1014800042E0244B5B680C221A407B685B689B003F
:101490009A42ECD11E4B1B68012213403A689A42D3
:1014A00011D21B4B1B68012293431900184B3A6859
:1014B0000A431A60164B1B68012213403A689A428D
:1014C00001D0012320E07B681B680422134009D06F
:1014D000104B5B68114A134019007B68DA680D4BAA
:1014E0000A435A6000F020F801000A4B5B681B09B0
:1014F0000F2213400A4AD35C0A00DA40094B1A60F3
:101500000020FFF767F900231800BD4604B080BD36
:10151000002002400010024088130000FFF8FFFF87
:10152000904800080000002090B58FB000AF142351
:10153000FB182B4A13CA13C312681A603B1D294AB1
:1015400013CA13C312681A600023FB620023BB6234
:1015500000237B6300237B6200233B63224B5B6899
:10156000FB62FB6A0C221340042B02D0082B03D031
:101570002DE01E4B3B632DE0FB6A9B0C0F221340BA
:101580001422BA18D35C7B62174BDB6A0F2213401C
:101590003A1DD35CBB62FA6A80235B02134009D018
:1015A000B96A1248FEF7C2FD03001A007B6A534372
:1015B0007B6309E0796A0A005201521A93019B1A6F
:1015C000DB005B181B027B637B6B3B6302E0074B1A
:1015D0003B63C0463B6B1800BD460FB090BDC04694
:1015E00098450008A84500080010024000127A0043
:1015F00080B500AF024B1B681800BD4680BDC046D9
:101600000000002080B500AFFFF7F2FF0100064B9D
:101610005B681B0A07221340044AD35CD9400B00C5
:101620001800BD4680BDC04600100240A04800081A
:1016300080B586B000AF786000233B610023FB607B
:101640007B681A6880235B02134000D18EE017206C
:101650003B1800221A705F4BDA6980235B05134048
:1016600010D15C4BDA695B4B802149050A43DA6192
:10167000584BDA6980235B051340BB60BB683B189D
:1016800001221A70544B1A6880235B0013401AD150
:10169000514B1A68504B802149000A431A60FFF7EA
:1016A000DFF803003B6108E0FFF7DAF802003B696E
:1016B000D31A642B01D9032387E0474B1A68802390
:1016C0005B001340F0D0434B1A6AC0239B001340C9
:1016D000FB60FB68002B34D07B685A68C0239B00FA
:1016E0001340FA689A422CD03A4B1B6A3B4A13408B
:1016F000FB60384B1A6A374B802149020A431A6251
:10170000344B1A6A334B36490A401A62314BFA6835
:101710001A62FB680122134013D0FFF7A1F80300FF
:101720003B6109E0FFF79CF802003B69D31A2D4AA0
:10173000934201D9032348E0264B1B6A022213403F
:10174000F0D0244B1B6A254A134019007B685A6865
:10175000204B0A431A621723FB181B78012B05D173
:101760001C4BDA691B4B20490A40DA617B681B6815
:101770000122134009D0174B1B6B0322934319001E
:101780007B689A68134B0A431A637B681B682022A4
:10179000134009D00F4B1B6B1022934319007B6839
:1017A000DA680C4B0A431A637B681A688023DB00F3
:1017B000134009D0074B1B6B4022934319007B68F1
:1017C0001A69044B0A431A6300231800BD4606B089
:1017D00080BDC0460010024000700040FFFCFFFFCB
:1017E000FFFFFEFF88130000FFFFFFEF80B582B010
:1017F00000AF78607B68002B01D1012342E07B6859
:101800003D229B5CDBB2002B07D17B683C22002190
:1018100099547B681800FEF743FE7B683D22022145
:1018200099547B681A687B6804331900100000F033
:10183000E3F97B684622012199547B683E2201210D
:1018400099547B683F22012199547B6840220121F1
:1018500099547B684122012199547B6842220121DD
:1018600099547B684322012199547B6844220121C9
:1018700099547B684522012199547B683D220121BE
:10188000995400231800BD4602B080BD80B584B0D5
:1018900000AF78607B683D229B5CDBB2012B01D0FE
:1018A00001233BE07B683D22022199547B681B6841
:1018B000DA687B681B6801210A43DA607B681B6871
:1018C000184A93420FD07B681A688023DB059A423E
:1018D00009D07B681B68144A934204D07B681B685C
:1018E000124A934211D17B681B689B680722134000
:1018F000FB60FB68062B10D07B681B681A687B684E
:101900001B6801210A431A6007E07B681B681A689C
:101910007B681B6801210A431A6000231800BD463A
:1019200004B080BD002C0140000400400040014094
:1019300080B582B000AF78607B681B68DA687B682E
:101940001B6801218A43DA607B681B681B6A0D4AA9
:1019500013400DD17B681B681B6A0B4A134007D1EB
:101960007B681B681A687B681B6801218A431A60C0
:101970007B683D220121995400231800BD4602B026
:1019800080BDC046111100004404000080B582B043
:1019900000AF78607B681B681B6902221340022B32
:1019A00024D17B681B68DB6802221340022B1DD107
:1019B0007B681B68032252421A617B6801221A77F6
:1019C0007B681B689B690322134004D07B68180066
:1019D00000F0FAF807E07B68180000F0EDF87B688B
:1019E000180000F0F9F87B6800221A777B681B6802
:1019F0001B6904221340042B25D17B681B68DB681C
:101A000004221340042B1ED17B681B68052252421E
:101A10001A617B6802221A777B681B689A69C02367
:101A20009B00134004D07B68180000F0CDF807E05D
:101A30007B68180000F0C0F87B68180000F0CCF854
:101A40007B6800221A777B681B681B690822134099
:101A5000082B24D17B681B68DB6808221340082B05
:101A60001DD17B681B68092252421A617B680422DF
:101A70001A777B681B68DB690322134004D07B68FC
:101A8000180000F0A1F807E07B68180000F094F857
:101A90007B68180000F0A0F87B6800221A777B684A
:101AA0001B681B6910221340102B25D17B681B6813
:101AB000DB6810221340102B1ED17B681B6811229B
:101AC00052421A617B6808221A777B681B68DA69C0
:101AD000C0239B00134004D07B68180000F074F80A
:101AE00007E07B68180000F067F87B68180000F0DA
:101AF00073F87B6800221A777B681B681B690122D8
:101B00001340012B0FD17B681B68DB680122134057
:101B1000012B08D17B681B68022252421A617B6844
:101B2000180001F05DFA7B681B681B698022134076
:101B3000802B0FD17B681B68DB6880221340802BD1
:101B400008D17B681B68812252421A617B681800A9
:101B500000F038F97B681B681B6940221340402B5A
:101B60000FD17B681B68DB6840221340402B08D1F3
:101B70007B681B68412252421A617B68180000F0A2
:101B800033F87B681B681B6920221340202B0FD180
:101B90007B681B68DB6820221340202B08D17B6800
:101BA0001B68212252421A617B68180000F002F97A
:101BB000C046BD4602B080BD80B582B000AF78603F
:101BC000C046BD4602B080BD80B582B000AF78602F
:101BD000C046BD4602B080BD80B582B000AF78601F
:101BE000C046BD4602B080BD80B582B000AF78600F
:101BF000C046BD4602B080BD80B584B000AF7860FD
:101C000039607B681B68FB607B68344A934208D06C
:101C10007A688023DB059A4203D07B68304A93427E
:101C200008D1FB6870229343FB603B685B68FA68ED
:101C30001343FB607B68294A934218D07A6880235B
:101C4000DB059A4213D07B68254A93420FD07B680C
:101C5000244A93420BD07B68234A934207D07B6887
:101C6000224A934203D07B68214A934208D1FB6801
:101C7000204A1340FB603B68DB68FA681343FB6053
:101C8000FB68802293431A003B685B691343FB6047
:101C90007B68FA681A603B689A687B68DA623B681E
:101CA0001A687B689A627B680C4A93420BD07B6807
:101CB0000D4A934207D07B680C4A934203D07B685D
:101CC0000B4A934203D13B681A697B681A637B68AD
:101CD00001225A61C046BD4604B080BD002C0140BF
:101CE000000400400020004000400140004401404A
:101CF00000480140FFFCFFFF80B584B000AF786072
:101D000039607B683C229B5C012B01D1022347E0B8
:101D10007B683C22012199547B683D220221995421
:101D20007B681B685B68FB607B681B689B68BB60AB
:101D3000FB6870229343FB603B681B68FA6813439F
:101D4000FB607B681B68FA685A607B681B68164AF0
:101D500093420FD07B681A688023DB059A4209D032
:101D60007B681B68114A934204D07B681B68104A49
:101D700093420CD1BB6880229343BB603B685B6895
:101D8000BA681343BB607B681B68BA689A607B685B
:101D90003D22012199547B683C2200219954002363
:101DA0001800BD4604B080BD002C01400004004076
:101DB0000040014080B582B000AF7860C046BD46AB
:101DC00002B080BD80B582B000AF7860C046BD462D
:101DD00002B080BD80B582B000AF78607B68002B18
:101DE00001D1012344E07B689B6F002B07D17B6806
:101DF0007422002199547B681800FEF777FB7B68FA
:101E000024229A677B681B681A687B681B6801211B
:101E10008A431A607B68180000F0DAF80300012B8F
:101E200001D1012324E07B685B6A002B03D07B682F
:101E3000180000F00DFA7B681B685A687B681B6805
:101E40000D490A405A607B681B689A687B681B686A
:101E50002A218A439A607B681B681A687B681B6822
:101E600001210A431A607B68180000F0A5FA0300FC
:101E70001800BD4602B080BDFFB7FFFF80B58AB035
:101E800002AFF860B9603B60BB1D1A80FB689B6FB6
:101E9000202B00D096E0BB68002B03D0BB1D1B8815
:101EA000002B01D101238EE0FB689A6880235B013F
:101EB0009A4209D1FB681B69002B05D1BB6801223E
:101EC000134001D001237EE0FB6874229B5C012B50
:101ED00001D1022377E0FB68742201219954FB6849
:101EE000802200219950FB6821229A67FEF7B8FCF6
:101EF00003007B61FB68BA1D502112885A52FB68AF
:101F0000BA1D522112885A52FB689A6880235B01DD
:101F10009A4208D1FB681B69002B04D10023FB61A6
:101F2000BB68BB6103E0BB68FB610023BB61FB686E
:101F30007422002199542DE07A69F8683B68009377
:101F400013000022802100F07FFA031E01D003233A
:101F500039E0FB69002B0BD1BB691A88FB681B6851
:101F6000D205D20D92B21A85BB690233BB6108E07B
:101F7000FB691A78FB681B6892B21A85FB6901330A
:101F8000FB61FB6852229B5A9BB2013B99B2FB68F2
:101F900052229952FB6852229B5A9BB2002BCBD102
:101FA0007A69F8683B68009313000022402100F032
:101FB0004BFA031E01D0032305E0FB6820229A6739
:101FC000002300E002231800BD4608B080BD0000D9
:101FD00080B588B000AF78601E23FB1800221A700D
:101FE0007B689A687B681B691A437B685B691A4344
:101FF0007B68DB6913437B617B681B681B688D4AC8
:10200000134019007B681B687A690A431A607B6871
:102010001B685B68884A134019007B68DA687B6834
:102020001B680A435A607B689B697B617B681B6AFB
:102030007A6913437B617B681B689B687F4A134006
:1020400019007B681B687A690A439A607B681B6881
:102050007B4A934227D17B4B1B6B03221340032BFC
:102060000DD01BD8022B14D018D8002B02D0012B76
:102070000AD013E01F23FB1800221A7021E01F234F
:10208000FB1802221A701CE01F23FB1804221A708E
:1020900017E01F23FB1808221A7012E01F23FB18F9
:1020A00010221A700DE07B681B68674A934204D1C6
:1020B0001F23FB1800221A7003E01F23FB181022B5
:1020C0001A707B68DA6980231B029A425DD11F2354
:1020D000FB181B78082B15D018DC042B0DD015DC51
:1020E000002B02D0022B05D010E0FFF78BFA030083
:1020F000BB6112E0554BBB610FE0FFF715FA03001F
:10210000BB610AE080231B02BB6106E00023BB61C8
:102110001E23FB1801221A70C046BB69002B00D198
:102120007BE0BB695A007B685B685B08D2187B6800
:102130005B6819001000FDF7F9FF03009BB23B61DB
:102140003B690F2B1CD93A6980235B029A4217D254
:102150003B699AB20E203B180F218A431A803B69D3
:102160005B089BB20722134099B23B183A181288B9
:102170000A431A807B681B683A181288DA604CE0C0
:102180001E23FB1801221A7047E01F23FB181B783F
:10219000082B15D018DC042B0DD015DC002B02D039
:1021A000022B05D010E0FFF72DFA0300BB6112E00F
:1021B000264BBB610FE0FFF7B7F90300BB610AE0F4
:1021C00080231B02BB6106E00023BB611E23FB18BA
:1021D00001221A70C046BB69002B1ED07B685B6869
:1021E0005A08BB69D2187B685B6819001000FDF7BC
:1021F0009DFF03009BB23B613B690F2B09D93A69F4
:1022000080235B029A4204D27B681B683A69DA60D9
:1022100003E01E23FB1801221A707B6800225A6615
:102220007B6800229A661E23FB181B781800BD46A7
:1022300008B080BDF369FFFFFFCFFFFFFFF4FFFF92
:1022400000380140001002400044004000127A00B3
:1022500080B582B000AF78607B685B6A0122134072
:102260000BD07B681B685B684A4A134019007B6887
:102270009A6A7B681B680A435A607B685B6A022221
:1022800013400BD07B681B685B68434A13401900FE
:102290007B68DA6A7B681B680A435A607B685B6A02
:1022A000042213400BD07B681B685B683B4A1340D9
:1022B00019007B681A6B7B681B680A435A607B684D
:1022C0005B6A082213400BD07B681B685B68344A4A
:1022D000134019007B685A6B7B681B680A435A607D
:1022E0007B685B6A102213400BD07B681B689B687D
:1022F0002C4A134019007B689A6B7B681B680A4361
:102300009A607B685B6A202213400BD07B681B6855
:102310009B68254A134019007B68DA6B7B681B6851
:102320000A439A607B685B6A402213401DD07B6839
:102330001B685B681D4A134019007B681A6C7B6838
:102340001B680A435A607B681A6C80235B039A42BD
:102350000BD17B681B685B68154A134019007B68CA
:102360005A6C7B681B680A435A607B685B6A8022F0
:1023700013400BD07B681B685B680E4A1340190042
:102380007B689A6C7B681B680A435A60C046BD46EE
:1023900002B080BDFFFFFDFFFFFFFEFFFFFFFBFF61
:1023A000FF7FFFFFFFEFFFFFFFDFFFFFFFFFEFFFFD
:1023B000FFFF9FFFFFFFF7FF80B586B002AF786099
:1023C0007B68802200219950FEF74AFA0300FB60E7
:1023D0007B681B681B6808221340082B0CD1FB6824
:1023E000802291037868174A0092002200F02CF8AE
:1023F000031E01D0032321E07B681B681B680422B5
:102400001340042B0CD1FB688022D10378680D4A5D
:102410000092002200F018F8031E01D003230DE003
:102420007B6820229A677B682022DA677B6800221B
:102430001A667B6874220021995400231800BD4657
:1024400004B080BDFFFFFF0180B584B000AFF8602D
:10245000B9603B60FB1D1A705EE0BB6901335BD065
:10246000FEF7FEF902003B68D31ABA699A4202D31A
:10247000BB69002B1BD1FB681B681A68FB681B68D3
:102480002F490A401A60FB681B689A68FB681B6842
:1024900001218A439A60FB6820229A67FB68202208
:1024A000DA67FB68742200219954032344E0FB6837
:1024B0001B681B68042213402ED0FB681B68DA6976
:1024C00080231B011A4080231B019A4224D1FB6800
:1024D0001B68802212011A62FB681B681A68FB687D
:1024E0001B6817490A401A60FB681B689A68FB68FA
:1024F0001B6801218A439A60FB6820229A67FB6867
:102500002022DA67FB68802220219950FB68742220
:102510000021995403230FE0FB681B68DB69BA684C
:102520001340BA68D31A5A425341DBB21A00FB1D5A
:102530001B789A4291D000231800BD4604B080BD9C
:102540005FFEFFFF80B500AFC046BD4680BD80B5D1
:1025500082B000AF78607B6830220021180000F064
:102560006EFEC046BD4602B080BD000080B584B09E
:1025700000AFF8607A600B23FB180A1C1A707B68A6
:102580002F2B05D90B4B0C4A0C48272100F0F6FDE8
:10259000FA687B68D3181978FA687B68D3180B221D
:1025A000BA1812784A40D2B21A70C046BD4604B07A
:1025B00080BDC046B8450008D8480008DC45000882
:1025C00080B586B000AFF860B9607A603B607B6828
:1025D0002F2B05D9184B194A1948312100F0CEFD8F
:1025E0007A683B68D318302B05D9164B134A144828
:1025F000322100F0C3FD00237B6114E07A687B691F
:10260000D318FA68D3181978BA687B69D3181A787E
:1026100078687B69C318F868C3184A40D2B21A7048
:102620007B6901337B617A693B689A42E6D3C04695
:10263000C046BD4606B080BDB8450008E848000861
:10264000DC4500086C46000880B584B000AFF86037
:10265000B9607A603B607B682F2B05D90E4B0F4A1F
:102660000F484C2100F08AFD7A683B68D318302B64
:1026700005D90C4B094A0A484D2100F07FFDFA6844
:102680007B68D1183A68BB68180000F0CFFDC046DF
:10269000BD4604B080BDC046B8450008F8480008F3
:1026A000DC4500086C46000880B584B000AF786057
:1026B00039600023FB6027E0FB689B007A68D31831
:1026C00000221A600023BB6018E0FB689B007A6858
:1026D000D3181968FB689A00BB68D3183A68D318F6
:1026E0001B781A00BB68DB009A40FB689B00786887
:1026F000C3180A431A60BB680133BB60BB68032B75
:10270000E3D9FB680133FB60FB680B2BD4D9C046CF
:10271000C046BD4604B080BD80B584B000AF7860CF
:1027200039600023FB601CE00023BB6013E0FB6802
:102730009B003A68D3181A68BB68DB00DA401100C6
:10274000FB689A00BB68D3187A68D318CAB21A70AB
:10275000BB680133BB60BB68032BE8D9FB6801335E
:10276000FB60FB680B2BDFD9C046C046BD4604B0FA
:1027700080BDB0B598B000AF786039600023FB65CC
:1027800021E0FB6D032213409B007A68D3181A687E
:10279000FB6D03210B4004339B007968CB181B6849
:1027A0005A40FB6D03210B4008339B007968CB181E
:1027B0001B685A4011001823FB18FA6D9200D15083
:1027C000FB6D0133FB65FB6D032BDAD90023FB6541
:1027D0001DE0FB6D013B03221A4018203B189200BC
:1027E000D3581B22D3411A00FB6D013B0321194032
:1027F0003B188900CB581221CB415A4011000823C5
:10280000FB18FA6D9200D150FB6D0133FB65FB6D37
:10281000032BDED90023FB652BE00023BB6522E000
:10282000BB6D03211800FDF707FD0B001A00910096
:10283000FB6D03200340CB189B007968CB18186808
:102840000823FB18F96D8900C9589200FB6D032419
:102850002340D3189B007A68D31802004A401A60BC
:10286000BB6D0133BB65BB6D022BD9D9FB6D013349
:10287000FB65FB6D032BD0D90023FB6532E0FB6DBC
:10288000032213409B007A68D318FA6D03210A4093
:10289000196828203B189200D150FB6D013B0322A0
:1028A000134004339B007A68D318FA6D03210A4061
:1028B000043219683B189200D150FB6D032213407B
:1028C00008339B007A68D3181B68FA6D03210A400D
:1028D00008321521CB4119003B189200D150FB6DF5
:1028E0000133FB65FB6D032BC9D92823F9187B68DD
:1028F0003022180000F09AFC7B681A683B685A4046
:102900007B681A600023FB654DE00023BB6544E053
:10291000BB6D03211800FDF78FFC0B009A00FB6DC7
:1029200003210B40D3189B007A68D3181D68BB6D38
:10293000013303211800FDF77FFC0B009A00FB6DAB
:1029400003210B40D3189B007A68D3181B68DC4323
:10295000BB6D023303211800FDF76EFC0B009A00DB
:10296000FB6D03210B40D3189B007A68D3181B68BA
:102970001C40BB6D03211800FDF75EFC0B009A00A4
:10298000FB6D03210B40D218290061402823FB185E
:102990009200D150BB6D0133BB65BB6D022BB7D923
:1029A000FB6D0133FB65FB6D032BAED92823F918B2
:1029B0007B683022180000F039FC0023FB6535E00D
:1029C000FB6D032213409B007A68D318FA6D032134
:1029D0000A40196828203B189200D150FB6D032251
:1029E000134004339B007A68D3181B68FA6D0321E7
:1029F0000A4004321F21CB4119003B189200D150EC
:102A0000FB6D02330322134008339B007A68D3180E
:102A10001B68FA6D03210A4008321821CB411900C6
:102A20003B189200D150FB6D0133FB65FB6D032B0E
:102A3000C6D92823F9187B683022180000F0F6FB6D
:102A4000C046BD4618B0B0BD80B590B000AF78604C
:102A500039607A680C23FB1811001800FFF724FE78
:102A60003B680C22D31AFB630CE00D4BFA6B92000F
:102A7000D2580C23FB1811001800FFF77AFEFB6BED
:102A80000133FB63FB6B0B2BEFD90C23FA187B682C
:102A900011001800FFF740FEC046BD4610B080BDD3
:102AA000A848000880B582B000AF78607B680C2130
:102AB0001800FFF7C9FFC046BD4602B080BD80B513
:102AC00084B000AFF860B9607A601A00FB1C1A701D
:102AD000F8687B68B9680022FFF772FDFB687A68C6
:102AE00001211800FFF742FDF868FB685B6B012BC2
:102AF00005D1FB1C1B7801221340DBB201E0FB1C5B
:102B00001B782F221900FFF731FDFB6801221A63A1
:102B1000C046BD4604B080BD80B584B000AFF8604B
:102B2000B9607A601A00FB1C1A70FB685B6B012BA2
:102B300006D0F868FB1C1B782F221900FFF716FD42
:102B4000FB681800FFF7AEFFFB6802221A63F86803
:102B50007B68B9680022FFF777FDC046BD4604B028
:102B600080BDB0B586B000AFF860B9607A603B60F8
:102B7000FB681B6B022B05D0F868002300220021A4
:102B8000FFF7CAFF7A683B68934200D913007B6164
:102B9000202408257B191B191B787A69B968F86805
:102BA000FFF78DFF7B191B1900221A70BA687B6929
:102BB000D318BB607A687B69D31A7B607B68002B73
:102BC000D6D1C046C046BD4606B0B0BD90B593B0A4
:102BD00002AFF860B9607A603B60FB685B6B012B09
:102BE00005D0274B274A28486A2100F0C7FA7A689F
:102BF0003B6DD3182B2B05D9244B224A22486B213D
:102C000000F0BCFAFB6802225A63FB682C229A632C
:102C1000FB681822DA637B68002B2DD07A68B968CC
:102C200014243B19180000F001FB3A197B68D318F3
:102C30003A6D3968180000F0F9FA7A683B6DD318DC
:102C40003A6DD1B220003A18D1547A683B6DD3184E
:102C50005A1CFB689B6B3918F86802240094FFF734
:102C600080FFBB6D002B07D0BA6D796DF86800232B
:102C700000930123FFF775FFC046BD4611B090BD1C
:102C8000C04600080C490008E44600086C470008EC
:102C900080B586B000AFF860B9607A601A00FB1C9E
:102CA0001A70FB68DA6B7B68934200D913007B6172
:102CB000FB1C1B787A69B968F868FFF72DFFBA68C2
:102CC0007B69D318BB607A687B69D31A7B601AE092
:102CD000F868002300220021FFF7F1FEFB68DA6BA1
:102CE0007B68934200D913007B617A69B968F86800
:102CF0000023FFF711FFBA687B69D318BB607A68BD
:102D00007B69D31A7B607B68002BE1D1C046C0464B
:102D1000BD4606B080BD90B589B004AFF860B9601B
:102D20007A603B60FFF70EFCFB681800FFF70FFCB2
:102D3000FB6802221A63FB6801225A63FB681022B7
:102D40009A63FB681022DA637B68002B0CD03C6826
:102D50007A68B968F868BB6A02937B6A01933B6A38
:102D600000932300FFF732FFC046BD4605B090BD7B
:102D700090B587B002AFF860B9607A60FB689B6B72
:102D80007A68B968F86803240094FFF7EAFEC04641
:102D9000BD4605B090BD80B584B000AFF860B960A5
:102DA0007A607A68B968F8684023FFF771FFC04617
:102DB000BD4604B080BD90B599B004AFF860B9606D
:102DC0003A607B601024381900230293002301939A
:102DD00000230093002300220021FFF79CFF3A68A4
:102DE000B9683B191800FFF7C3FFF9683B192022A7
:102DF0001800FFF7D0FF00231800BD4615B090BDA6
:102E000080B582B000AF00F05FF900F0F9F800F093
:102E100013F9124A1249134B180000F031F9124B02
:102E2000180000F02DF9114B196B104BDA6A104B9A
:102E3000180000F025F90D4B196A0C4B5A6A0B4B20
:102E40009B6A0C4800F01CF900F016F803007B6048
:102E50007B681800BD4602B080BDC046204900080E
:102E6000A0490008B8470008004800087403002083
:102E70001048000838480008B0B53B4CA54400AFE6
:102E800000233A4ABA1813608022D200002320217E
:102E90007918080000F076F8002200238421C90088
:102EA00079180A604B6045E08424E4003B191A68F5
:102EB0002F4B1100180000F0E3F800F0A1F83B19C7
:102EC0001A685B68202179183800FFF774FF030047
:102ED000264D7A19136000F0AFF87B191B68002BA0
:102EE00011D1244B1968234B1B681A09224B1B680C
:102EF000224800F0C5F83B191B68214ABA1812682D
:102F000013430DD105E004235B42184ABA1813603D
:102F100021E0042200238421C90079180A604B6053
:102F20008421C9007B181A685B6892185B41791884
:102F30000A604B60124ABB181B68002B0BD1BB18F0
:102F40001B68002BB0D18423DB00FB181A68802398
:102F5000DB009A42A8D9054BFB181B681800BD4638
:102F60008623DB009D44B0BDD0FBFFFF2C04000096
:102F70006448000890000020940000207448000875
:102F80002404000080B586B000AFF8603A607B6032
:102F9000002200233A617B6111E03A697B69131CCE
:102FA000DAB23B69F968CB183032D2B21A703A699A
:102FB0007B690120002112184B413A617B617A68DC
:102FC0007B699A42E9D87A687B699A4203D13A6868
:102FD0003B699A42E1D8C046BD4606B080BD0000BC
:102FE00080B582B000AF7860044B1B685A1C034B5D
:102FF0001A60C046BD4602B080BDC04698000020A1
:1030000080B500AF094B00221A60094B1B680022F3
:103010005A62FDF725FC0200064B1A60044B1800AB
:10302000FEF734FCC046BD4680BDC0469800002077
:10303000280300209400002080B500AF0C4B18003E
:10304000FEF776FC0B4B1B681A04094B1B685B6A86
:103050001A43094B1A60FDF703FC0200074B1B687B
:10306000D21A064B1A60044B1B681800BD4680BD7F
:1030700028030020980000209000002094000020E9
:103080000FB480B582B000AF1423FB187B607A6860
:1030900039690B4B180000F0D3FB094B1800FDF702
:1030A00033F803009AB2064906486423FEF7E6FEA9
:1030B000C046BD4602B080BC08BC04B01847C0463C
:1030C0009C000020A402002080B500AF244B3422D5
:1030D0000021180000F0B3F8214B802212051A607D
:1030E0001F4B1A681E4B5A601E4A1D4B9A601E4A9F
:1030F0001B4B9A611D4A1A4BDA611D4A184BDA6064
:103100001C4A174B5A611C4A154B1A61144B9A689A
:10311000134B5B68D21A124B1A62114B5A69104B4F
:10312000DB68D21A0E4B5A620D4BDA690C4B9B6965
:10313000D21A0B4B9A620A4B5A6A094B9B6AD218F5
:10314000074BDA62064B1A69054B5B6AD218044BCF
:103150001B68D21A024B1A63C046BD4680BDC046EA
:10316000740300209845000870000020B803002078
:103170000000002070000020FC4A000830B5140058
:103180001A00094B05001B6885B0D868074B002C56
:1031900001D1074B1C00019300912B0005490294BB
:1031A00000F010F800F026FC0C000020204A000877
:1031B0005B4A00082D4A0008014B18687047C0465A
:1031C0000C0000200EB403B5010003AB044804CB8F
:1031D0000068019300F062F802B008BC03B0184721
:1031E0000C00002070B500260C4D0D4C641BA41083
:1031F000A64209D1002601F0C3F90A4D0A4C641B0E
:10320000A410A64205D170BDB300EB589847013613
:10321000EEE7B300EB5898470136F2E7F44A0008AE
:10322000F44A0008F44A0008F84A0008002310B5E0
:103230009A4200D110BDCC5CC4540133F8E70300BE
:103240008218934200D1704719700133F9E79368EF
:1032500010B5013B9360002B04DA9469A34207DBAD
:103260000A2905D01368581C10601970080010BD99
:1032700000F0F2FA0100F9E7F8B506000F001400BB
:10328000D518AC4201D1002007E021783A00300087
:10329000FFF7DDFF0134431CF3D1F8BDF0B5A1B059
:1032A00006000C001F000392002804D08369002B45
:1032B00001D100F0D5FC8E4B9C421CD17468636E2A
:1032C000DB0705D4A3899B0502D4A06D00F069FD3E
:1032D000A3891B0702D52369002B1DD121003000D3
:1032E00000F010FB002817D0636EDB070DD501201E
:1032F000404221B0F0BD7F4B9C4201D1B468DEE773
:103300007D4B9C42DBD1F468D9E7A3899B05EED4C1
:10331000A06D00F047FDEAE7002308AD6B612033A4
:103320006B761033AB760797039F3B78002B01D069
:10333000252B4ED1039BFB1A0593039B9F420DD077
:10334000059B21003000039AFFF796FF431C00D134
:10335000B5E06A69059B944663446B613B78002B3A
:1033600000D1ACE001227B1C0393002352426A602F
:1033700004A9543252182B60EB60AB601370AB653C
:10338000039B052219785D4800F07AFD039B5F1CC2
:10339000002820D12A68D30604D5532304A95B183A
:1033A00020211970130704D5532304A95B182B217E
:1033B0001970039B1B782A2B16D00021EB68039F02
:1033C0003A78781C303A8446092A4FD9002911D11D
:1033D00017E00137A9E7494B2A68C01A0123834047
:1033E00013432B600397CBE7079B191D1B680791BD
:1033F000002B01DB0B9304E05B42EB6002231343E1
:103400002B603B782E2B0AD17B782A2B37D1079B58
:1034100002371A1D1B680792002B2DDB099303222C
:103420003978374800F02CFD002807D0344B2A6843
:10343000C01A40238340134301372B6039787B1C2B
:10344000062230480393297600F01AFD002845D063
:103450002D4B002B27D10722079B073393430833BB
:1034600007936B69049A9B186B615DE70A214B43D4
:1034700067469B180939A3E701235B42CEE7002387
:103480001A0001376B603978781C30398446092975
:1034900003D9002BC3D00992C1E70A235A436746D8
:1034A0005218093BEFE707AB0093220029003000D8
:1034B000164B00E000BF0490049B0133D1D1636E32
:1034C000DB0705D4A3899B0502D4A06D00F06AFC3C
:1034D000A3895B0600D50AE70D980AE707AB0093BE
:1034E000220029003000094B00F082F8E3E7C046D3
:1034F000B44A0008D44A0008944A0008604A000808
:10350000664A00086A4A0008000000007932000894
:10351000F7B5150001938A680B690C00009093427F
:1035200000DA130022002B6043321278002A01D007
:1035300001332B6023689B0602D52B6802332B6076
:103540002268062317001F401A4227D02300433366
:103550001B785A1E93412268920630D422000199AA
:103560000098089E4332B047431C25D006232068AC
:103570002A68E16800250340042B03D18D1AEB4330
:10358000DB171D40A3682269934201DD9B1AED18E9
:103590000027BD4220D1002010E00137E3682A68EF
:1035A0009B1ABB42D2DD2200012301990098089E9C
:1035B0001932B047431CF0D101204042FEBD3020FB
:1035C000E1184331087021005A1C45310978A218CE
:1035D000433202331170C1E72200012301990098A0
:1035E000089E1A32B047431CE6D00137D1E70000ED
:1035F000F0B58BB006920A0043320793059004920F
:103600000A7E0C00109B782A06D8622A08D8002A65
:1036100000D1C0E0582A52D026004236327022E053
:10362000100063381528F7D8FCF776FD16001F0048
:10363000F6FFF6FFF6FFF6FF1F00F6FFF6FFF6FFB8
:10364000F6FFA80036009A00F6FFF6FFB900F6FF75
:103650003600F6FFF6FF9E0026001A684236111D5E
:103660001960136833700123A7E0086819680A1D00
:1036700005060BD50D681A60002D03DA2D23049A78
:103680006D421370614B0A27039332E00D681A6094
:103690004106F1D52DB2EFE70D681968081D1860D5
:1036A0002E0601D50D6803E06D06FBD50D68ADB2A1
:1036B000564B0A2703936F2A17D1082715E0453187
:1036C0000A70524A03921A68216820CA1A600806D2
:1036D00050D5CB0702D52023194321601027002D98
:1036E00003D1202322689A4322602300002243331F
:1036F0001A706368A360002B03DB042221689143E6
:103700002160002D02D1049E002B0CD0049E2800C5
:103710003900FCF791FD039B013E5B5C33702B008D
:1037200005009F42F3D9082F09D12368DB0706D58E
:1037300063682269934202DC3023013E3370049BAC
:103740009B1B2361079B210000930598069B09AAF8
:10375000FFF7DEFE431C35D1012040420BB0F0BD27
:10376000202209680A432260220078214532117024
:10377000274AA7E74806ACD5ADB2AAE71A680D6894
:10378000101D4969186013682E0601D5196002E002
:103790006D06FBD519800023049E2361D2E71A68C9
:1037A000111D1960166800213000626800F068FB86
:1037B000002801D0801B6060636823610023049AA5
:1037C0001370BFE72369320006990598079DA84743
:1037D000431CC1D023689B0715D4099BE06898421D
:1037E000BCDA1800BAE72200012306990598079E63
:1037F0001932B047431CAFD00135E368099A9B1AD0
:10380000AB42F0DCE9E70025F7E7C046714A000863
:10381000824A000800B59BB00091049106490591C9
:10382000029106490391694600F078FC0023009A52
:1038300013701BB000BDC046FFFFFF7F0802FFFFF3
:1038400010B513000A00010002480068FFF7E2FF0C
:1038500010BDC0460C000020F8B505000E00140095
:10386000002804D08369002B01D100F0F9F9224B24
:103870009C422ED16C68A369A360A3891B0732D533
:103880002369002B2FD023682269F7B2981A636945
:10389000F6B2834205DC2100280000F03FF9002841
:1038A00027D1A3680130013BA36023685A1C226022
:1038B0001F706369834204D0A389DB0707D50A2EF2
:1038C00005D12100280000F029F9002811D130008D
:1038D000F8BD0A4B9C4201D1AC68CCE7084B9C4236
:1038E000C9D1EC68C7E72100280000F00BF80028D8
:1038F000C9D001267642EAE7B44A0008D44A000853
:10390000944A0008374B70B51D6806000C00002D66
:1039100005D0AB69002B02D1280000F0A1F9324B91
:103920009C420FD16C680C23E25E93B211072DD438
:10393000D90611D409230120336037331343A381FF
:10394000404270BD294B9C4201D1AC68EBE7284B4B
:103950009C42E8D1EC68E6E75B0713D5616B002970
:1039600008D023004433994202D0300000F0A6FA78
:10397000002363632422A3899343A381002363600C
:10398000236923600823A2891343A3812369002BA1
:103990000BD1A0218022A389890092000B40934281
:1039A00003D02100300000F027FA0C22A35E012092
:1039B0001A0099B2024003420FD00022A26062694D
:1039C0005242A261002022698242BAD10A06B8D5C9
:1039D00040221343A3810138B3E7880700D462690A
:1039E000A260EFE70C000020B44A0008D44A0008A7
:1039F000944A0008062010B500F0CCFC0120FCF72A
:103A0000FDFD0000F7B58B8905000C001A075FD497
:103A10004A68002A04DC0A6C002A01DC0020FEBD92
:103A2000E76A002FFAD0002280212E682A601A004F
:103A300049010A400B4234D0606DA3895B0706D56B
:103A40006368C01A636B002B01D0236CC01A02009C
:103A5000216A00232800E76AB847A189431C06D1E0
:103A60002B681D2B31D82C4ADA40D3072DD50023E3
:103A7000636023692360CB0405D5431C02D12B6806
:103A8000002B00D16065616B2E600029C6D0230039
:103A90004433994202D0280000F010FA00206063FD
:103AA000BDE701232800216AB847431CC5D12B6814
:103AB000002BC2D01D2B01D0162B01D12E60ADE7FB
:103AC0004023A2891343A381A9E740230B43FAE7CC
:103AD0000F69002FA2D00A680F60D21B019200224A
:103AE0009B0700D14A69A260019B002B00DC95E78F
:103AF0003A002800019B216AA66AB047002806DC2C
:103B000040230120A28940421343A38187E7019B00
:103B10003F181B1A0193E7E7010040200B6970B5BD
:103B200005000C00002B02D10025280070BD0028E4
:103B300004D08369002B01D100F092F8144B9C4211
:103B40001BD16C680C22A35E002BEDD0626ED207F5
:103B500004D49B0502D4A06D00F023F928002100B5
:103B6000FFF750FF636E0500DB07DED4A3899B05DA
:103B7000DBD4A06D00F016F9D7E7064B9C4201D1CB
:103B8000AC68DFE7044B9C42DCD1EC68DAE7C04666
:103B9000B44A0008D44A0008944A0008002310B52B
:103BA0000400036043608360818143661900C28121
:103BB00003614361836108225C30FFF740FB054BE2
:103BC0006362054B2462A362044BE362044B2363EC
:103BD00010BDC046D5430008FD4300083544000829
:103BE0006144000810B5024900F0BAF810BDC046A3
:103BF0001D3B000870B568254A1E55430E0029007C
:103C0000743100F0A5F9041E08D000212A000160DB
:103C100046600C30A0606832FFF711FB200070BDD9
:103C200010B5024800F0BDF810BDC046B00300203A
:103C300010B5024800F0B6F810BDC046B003002031
:103C400010B5024800F0ADF810BDC046AB0300202F
:103C500010B5024800F0A6F810BDC046AB03002026
:103C600013B50400FFF7ECFFA369002B02D0FFF7A8
:103C7000EFFF13BDA364E3642365134B134A1B6872
:103C8000A2620193A34201D10123A361200000F0AD
:103C90001FF86060200000F01BF8A060200000F01A
:103CA00017F800220421E0606068FFF777FF012227
:103CB0000921A068FFF772FF02221221E068FFF7D6
:103CC0006DFF0123A361D2E75C4A0008E53B0008D1
:103CD000F8B50700FFF7A4FF1F4B1E68B369002B60
:103CE00002D13000FFF7BCFF4836B4687368013B6F
:103CF00004D53368002B22D03668F6E70C22A55E87
:103D0000002D1AD12000154B5830E360656600F095
:103D100047F8FFF78DFF2000082229002560A560E5
:103D2000656025616561A5615C30FFF788FA6563B0
:103D3000A563A564E5642000F8BD6834D7E70421D5
:103D40003800FFF757FF041E3060D5D1FFF770FF32
:103D50000C233B60EFE7C0465C4A00080100FFFF10
:103D6000F7B5040006000027019148346368A56890
:103D70000093009B013B009304D52468002CF5D1EF
:103D80003800FEBDAB89012B08D90E22AB5E013392
:103D900004D029003000019B984707436835E8E7C5
:103DA000704770477047000070B50E001D000E236D
:103DB000C95E140096B0002907DA00232B60B3898E
:103DC0001B0611D48023DB000FE06A4600F074FB71
:103DD0000028F2DBF02301991B021940054BC9189A
:103DE0004B4259412960EDE740230020236016B083
:103DF00070BDC04600E0FFFFF7B502268B890500C5
:103E00000C00334206D02300473323602361012393
:103E10006361F7BD6A4601ABFFF7C6FF0099070073
:103E2000280000F095F8002808D10C22A35E9A051E
:103E3000EFD4032293431E43A681E4E70F4BAB620A
:103E40008023A28920601343A381009B20616361CA
:103E5000019B002B0DD028000E23E15E00F03EFBFD
:103E6000002806D00322A38993431A000123134399
:103E7000A381A0890743A781CBE7C046E53B0008A3
:103E8000C9B28218904201D10020704703788B425A
:103E9000FBD00130F6E710B5884202D98B18984262
:103EA00003D3002307E08B5C8354013AFBD210BD9F
:103EB000CC5CC45401339A42FAD1F8E770B50500DE
:103EC000002910D00C1F2368002B00DAE41828000A
:103ED00000F02AFB1D4A1368002B05D163601460B3
:103EE000280000F029FB70BDA34208D921686018A2
:103EF0008342F3D118685B6841182160EEE71A002D
:103F00005B68002B01D0A342F9D911685018A04278
:103F10000BD120680918501811608342E0D118684D
:103F20005B68411811605360DAE7A04202D90C23A4
:103F30002B60D5E721686018834203D118685B685D
:103F40004118216063605460CAE7C0469C020020AB
:103F5000F8B50323CD1C9D43083506000C2D1FD258
:103F60000C25A9421ED8300000F0DEFA25490A6867
:103F70001400002C1AD1244F3B68002B04D12100DF
:103F8000300000F0CBF938602900300000F0C6F9AD
:103F9000431C2BD10C233000336000F0CDFA03E03A
:103FA000002DDEDA0C2333600020F8BD23685B1B94
:103FB00019D40B2B03D92360E418256003E0636850
:103FC000A2420ED10B60300000F0B6FA20000722AA
:103FD0000B30231D9043C21A9842E6D01B1AA350FF
:103FE000E3E75360EFE722006468C2E70323C41CE1
:103FF0009C43A042E1D0211A300000F08FF9431C0D
:10400000DBD1C7E79C020020A0020020F8B5070022
:104010000D001600002905D11100FFF799FF0400DB
:104020002000F8BD002A03D1FFF748FF3400F7E76E
:1040300000F08AFA2C00B042F2D231003800FFF7CB
:1040400087FF041EECD029003200FFF7EFF82900AB
:104050003800FFF733FFE3E7F0B58E6885B007005F
:104060000C00039201939E423CD890238A89DB0086
:104070001A4234D00325096923685B1A02936369E5
:1040800002985D43EB0F5D19019B6D1001331B1806
:10409000AB4200D91D00530532D529003800FFF787
:1040A00057FF061E09D10C233B6040230120A28943
:1040B00040421343A38105B0F0BD029A2169FFF786
:1040C000B5F8A389144A1A4080231343A381029BA5
:1040D0002661F61826606561019EED1AA560019BB8
:1040E0009E4200D9019E320003992068FFF7D3FE5B
:1040F000A36800209B1BA36023689E192660DAE753
:104100002A003800FFF782FF061EE0D1380021693F
:10411000FFF7D4FEC7E7C0467FFBFFFFF0B5A1B0B5
:1041200003901D008B890F0016001B0611D50B692B
:10413000002B0ED14021FFF70BFF386038610028BB
:1041400005D10C23039A0138136021B0F0BD402340
:104150007B61002308AC6361203363761033A37660
:10416000079535002B78002B01D0252B47D1AB1BB1
:104170000593B5420CD0320039000398FFF76CFF6D
:10418000431C00D1AEE06269059B944663446361C1
:104190002B78002B00D1A5E001220023524262605F
:1041A00004A9543252186E1C2360E360A36013709C
:1041B000A365052231785448FFF762FE751C00287C
:1041C0001FD12268D30604D5532304A95B182021EC
:1041D0001970130704D5532304A95B182B211970F8
:1041E00033782A2B16D0350000210A20E3682A787C
:1041F0006E1C303A092A4ED9002911D117E0013539
:10420000B0E7414B2268C01A0123834013432E00BC
:104210002360CEE7079B191D1B680791002B01DB6C
:104220000B9304E05B42E3600223134323602B788B
:104230002E2B0AD16B782A2B35D1079B02351A1DFC
:104240001B680792002B2BDB0993304E03223000B2
:104250002978FFF715FE002806D04023801B8340F5
:1042600022680135134323602978062228486E1CF2
:104270002176FFF705FE00283CD0264B002B25D1E8
:104280000722079B07339343083307936369049A14
:104290009B18636165E74343350001219B18A6E73E
:1042A00001235B42D0E700230A201A000135636036
:1042B00029786E1C3039092903D9002BC5D0099201
:1042C000C3E74243350001235218F1E707AB0093DF
:1042D0003A002100104B039800E000BF0490049BBB
:1042E0000133D3D1BB890D985B0600D42DE70120A3
:1042F00040422AE707AB00933A002100064B03989F
:10430000FFF776F9EAE7C046604A0008664A000807
:104310006A4A00080000000059400008002370B5F8
:10432000064D040008002B60FCF7DAF9431C03D1AA
:104330002B68002B00D0236070BDC046B403002062
:1043400070B504000D001F2904D916230360012055
:10435000404270BD436C002B04D08A009B181A6841
:10436000002A08D1200000F031F82A0001002000C6
:1043700000F01AF8EDE70020012AEAD0511C03D121
:10438000162301302360E4E7002428001C609047D6
:104390002000DEE710B5034B01001868FFF7D0FFDF
:1043A00010BDC0460C000020002370B5064D04006F
:1043B000080011002B60FCF711F9431C03D12B6896
:1043C000002B00D0236070BDB403002010B5FCF7B3
:1043D000FFF810BD70B50C000E25495F00F0BCF869
:1043E000002803DB636D1B18636570BDA389024A57
:1043F0001340A381F9E7C046FFEFFFFFF8B51F00A8
:104400008B8905000C001600DB0505D50E23C95E5F
:104410000022022300F074F8A389054A2800134003
:10442000A38132000E23E15E3B0000F01FF8F8BDCF
:10443000FFEFFFFF70B50C000E25495F00F060F83C
:10444000A389421C03D1054A1340A38170BD802279
:1044500052011343A3816065F8E7C046FFEFFFFFF9
:1044600010B50E23C95E00F015F810BD70B504003C
:10447000080011001A000023054D2B60FCF7E7F837
:10448000431C03D12B68002B00D0236070BDC046B5
:10449000B4030020002370B5064D040008002B6013
:1044A000FCF7F1F8431C03D12B68002B00D02360EC
:1044B00070BDC046B4030020002370B5064D040053
:1044C000080011002B60FCF7E8F8431C03D12B68AF
:1044D000002B00D0236070BDB4030020002370B512
:1044E000064D040008002B60FCF7E5F8431C03D1DF
:1044F0002B68002B00D0236070BDC046B4030020A1
:1045000070B50400080011001A000023054D2B604F
:10451000FCF7DAF8431C03D12B68002B00D0236092
:1045200070BDC046B403002010B50248FFF739FC47
:1045300010BDC046AC03002010B50248FFF732FCA6
:1045400010BDC046AC0300200B1F1B68181F002BBA
:1045500001DA0B58C018704770B50400080011004C
:104560001A000023054D2B60FCF754F8431C03D1BF
:104570002B68002B00D0236070BDC046B403002020
:10458000F8B5C046F8BC08BC9E467047F8B5C046B2
:08459000F8BC08BC9E46704710
:1045980002030405060708090A0B0C0D0E0F10107C
:1045A8000102030405060708090A0B0C0D0E0F107B
:1045B8006F6666736574203C204E4C414E45532A05
:1045C80073697A656F662874586F6F646F6F4C6192
:1045D8006E652900433A2F55736572732F566173C0
:1045E800696C69692F4465736B746F702F6D645FB4
:1045F8006C6573736F6E732F646174615F6E65743D
:104608005F7365632F6E6973745F6C77635F626550
:104618006E63686D61726B2F616C676F732F786F53
:104628006F6479616B2F496D706C656D656E74612F
:1046380074696F6E732F63727970746F5F686173DA
:10464800682F786F6F6479616B76312F7265662F8A
:10465800586F6F646F6F2D7265666572656E6365FE
:104668002E6300006F66667365742B6C656E6774E5
:1046780068203C3D204E4C414E45532A73697A656B
:104688006F662874586F6F646F6F4C616E65290090
:1046980062797465436F756E74203C3D204E4C41C1
:1046A8004E45532A73697A656F662874586F6F642C
:1046B8006F6F4C616E652900696E7374616E636516
:1046C8002D3E6D6F6465203D3D204379636C6973B1
:1046D800745F4D6F6465486173680000433A2F55F5
:1046E800736572732F566173696C69692F446573BA
:1046F8006B746F702F6D645F6C6573736F6E732F5F
:10470800646174615F6E65745F7365632F6E69734E
:10471800745F6C77635F62656E63686D61726B2F3F
:10472800616C676F732F786F6F6479616B2F496D58
:10473800706C656D656E746174696F6E732F6372EA
:104748007970746F5F686173682F786F6F647961CF
:104758006B76312F7265662F4379636C6973742E9B
:10476800696E6300284B4C656E202B2049444C65CC
:104778006E29203C3D20284379636C6973745F522D
:104788006B696E202D20312900000000696E73745A
:10479800616E63652D3E6D6F6465203D3D204379F4
:1047A800636C6973745F4D6F64654B65796564000C
:1047B8000A0A0A0A5374617274696E672E2E2E0AE9
:1047C80025730A417072203137203230323120315E
:1047D800393A31393A32370A4F7074696D697A61FA
:1047E80074696F6E3A204F300A416C676F72697452
:1047F800686D3A2025730A004D656D6F72792075D2
:10480800736167653A200000546F74616C20464CF0
:104818004153483A2025366C754220546F74616CB8
:104828002052414D3A2025366C7542200A0000007E
:1048380053656374696F6E733A20746578742025C4
:10484800366C754220646174612025366C7542208F
:104858006273732025366C75420A00006D73675FBA
:104868006C656E3A25366420000000006861736844
:104878003A25386C752075733A25386C75206D7338
:104888003A25386C75200A0000000000000000007E
:1048980001020304060708090000000001020304DE
:1048A8005800000038000000C0030000D0000000DD
:1048B8002001000014000000600000002C0000002F
:1048C80080030000F0000000A001000012000000BA
:1048D800586F6F646F6F5F4164644279746500005C
:1048E800586F6F646F6F5F416464427974657300D9
:1048F800586F6F646F6F5F45787472616374427943
:1049080074657300586F6F6479616B5F4162736F90
:1049180072624B65790000004C57435F414C474F2A
:104928005F484153485F584F4F4459414B563100F7
:10493800000000000000000000000000000000006F
:10494800000000000000000000000000000000005F
:10495800000000000000000000000000000000004F
:10496800000000000000000000000000000000003F
:10497800000000000000000000000000000000002F
:10498800000000000000000000000000000000001F
:1049980000000000000000005465737420456E613B
:1049A800626C656400000000000000000000000068
:1049B80000000000000000000000000000000000EF
:1049C80000000000000000000000000000000000DF
:1049D80000000000000000000000000000000000CF
:1049E80000000000000000000000000000000000BF
:1049F80000000000000000000000000000000000AF
:104A0800000000000000000000000000000000009E
:104A180000000000000000002C2066756E637469B9
:104A28006F6E3A2000617373657274696F6E20222D
:104A3800257322206661696C65643A2066696C6535
:104A480020222573222C206C696E6520256425732D
:104A580025730A0010000020232D302B2000686CDD
:104A68004C00656667454647003031323334353689
:104A780037383941424344454600303132333435C2
:104A880036373839616263646566000000000000EB
:104A9800000000000000000000000000000000000E
:104AA80000000000000000000000000000000000FE
:104AB80000000000000000000000000000000000EE
:104AC80000000000000000000000000000000000DE
:104AD80000000000000000000000000000000000CE
:0C4AE800000000000000000000000000C2
:044AF400E9000008CD
:044AF800C1000008F1
:104AFC0000127A00040000000100000010000020E9
:104B0C0000000000B44A0008D44A0008944A000887
:104B1C000000000000000000000000000000000089
:104B2C000000000000000000000000000000000079
:104B3C000000000000000000000000000000000069
:104B4C000000000000000000000000000000000059
:104B5C000000000000000000000000000000000049
:04000005080007598F
:00000001FF
