:020000040800F2
:10000000002000209D090008CD070008D307000844
:1000100000000000000000000000000000000000E0
:10002000000000000000000000000000D9070008E8
:100030000000000000000000E3070008ED070008D2
:10004000ED090008ED090008ED090008ED090008B8
:10005000ED090008ED090008ED090008ED090008A8
:10006000ED090008ED090008ED090008ED09000898
:10007000ED090008ED09000800000000ED09000886
:1000800000000000FD070008000000000000000064
:10009000ED09000800000000ED090008ED09000866
:1000A000ED090008ED090008ED090008ED09000858
:1000B000ED090008ED090008ED090008ED09000848
:1000C00010B5064C2378002B07D1054B002B02D02E
:1000D000044800E000BF0123237010BD7000002021
:1000E00000000000004D0008044B10B5002B03D0A9
:1000F0000349044800E000BF10BDC04600000000F6
:1001000074000020004D00080023C25C0133002A67
:10011000FBD1581E7047000003B4714649084000E7
:100120004900095E49008E4403BC70470022430821
:100130008B4274D303098B425FD3030A8B4244D3AF
:10014000030B8B4228D3030C8B420DD3FF220902F1
:1001500012BA030C8B4202D31212090265D0030BB0
:100160008B4219D300E0090AC30B8B4201D3CB03A6
:10017000C01A5241830B8B4201D38B03C01A5241E8
:10018000430B8B4201D34B03C01A5241030B8B42EA
:1001900001D30B03C01A5241C30A8B4201D3CB02D5
:1001A000C01A5241830A8B4201D38B02C01A5241BA
:1001B000430A8B4201D34B02C01A5241030A8B42BD
:1001C00001D30B02C01A5241CDD2C3098B4201D3D5
:1001D000CB01C01A524183098B4201D38B01C01A53
:1001E000524143098B4201D34B01C01A52410309CA
:1001F0008B4201D30B01C01A5241C3088B4201D379
:10020000CB00C01A524183088B4201D38B00C01A25
:10021000524143088B4201D34B00C01A5241411A4C
:1002200000D20146524110467047FFE701B5002059
:1002300000F006F802BDC0460029F7D076E7704707
:100240007047C046002B11D1002A0FD1002900D1E0
:10025000002802D00021C943081C07B4024802A1AB
:100260004018029003BDC046D9FFFFFF03B46846A3
:1002700001B5029800F02EF8019B9E4602B00CBC1E
:100280007047C046F0B515042D0C0F0001002E007C
:10029000C64684460004140C000C090C46434D432A
:1002A000604361434019340C241800B5A54203D9BA
:1002B0008020400280464144250C6D186146594318
:1002C0007A43300449192404000C2018891880BC92
:1002D000B846F0BDF0B557464E464546DE46E0B559
:1002E00004000D009246994683B08B4230D82DD041
:1002F0004946504600F0BAF829000600200000F0F8
:10030000B5F8331A9846203B9B4633D45A46534699
:10031000934042461F00534693401E00AF423AD8D6
:10032000AF4200D178E05B46A41BBD41002B00DA50
:1003300075E0002200230092019301235A46934066
:100340000193012342469340009328E08242CFD993
:1003500000220023009201930C9B002B01D01C6013
:100360005D600098019903B0F0BCBB46B246A94657
:10037000A046F0BD424620239B1A5246DA40414631
:1003800013004A468A40170042461F435346934093
:100390001E00AF42C4D900220023009201934346BD
:1003A000002BD9D0FB0772081A4346467B080EE0A3
:1003B000AB4201D1A2420CD8A41A9D4101202419BC
:1003C0006D410021013E24184D41002E06D0AB4264
:1003D000EED9013E24196D41002EF8D10098019903
:1003E0005B4600196941002B24DB2B005A4644462A
:1003F000D3402A00E2401C005B461500002B2ADB9C
:1004000026009E40330026004746BE403200801A38
:100410009941009001919FE7A342BCD883E74246EF
:10042000202300219B1A0022009101920122DA4030
:10043000019286E7424620239B1A2A0046469A40AC
:100440002300F340444613432A00E2401C005B466D
:100450001500002BD4DA42462F00202326009740B7
:100460009B1ADE403B003343CDE7C04610B5002960
:1004700003D100F007F8203002E0081C00F002F879
:1004800010BDC0461C2101231B04984201D3000C5F
:1004900010391B0A984201D3000A08391B099842F7
:1004A00001D30009043902A2105C40187047C0460D
:1004B000040302020101010100000000000000002D
:1004C00080B584B000AF7860074BD96A064B7A6874
:1004D0000A43DA62044BDB6A7A681340FB60FB680C
:1004E000C046BD4604B080BD0010024080B500AFDC
:1004F00000F07EFA00F010F800F0E2F800F074F876
:1005000000F0AEF802F094FF024B180000F0E0FAA1
:10051000F8E7C04640420F0090B59DB000AF3824C8
:100520003B19180038231A00002103F048FA24234D
:10053000FB18180014231A00002103F040FA3B00B6
:10054000180024231A00002103F039FA244B1B68F9
:10055000244A1A40224B802109010A431A602100D3
:100560007B1802221A607B180122DA607B181022A5
:100570001A617B1800229A627B18180000F020FD97
:10058000031E01D000F0A4F824217B180F221A606A
:100590007B1801225A607B1800229A607B18002287
:1005A000DA607B1800221A617B180021180001F024
:1005B000CBF8031E01D000F08BF83B0001221A603B
:1005C0003B000022DA603B00180001F0E1FA031E54
:1005D00001D000F07DF8C046BD461DB090BDC046BC
:1005E00000700040FFE7FFFF80B582B000AF3B0026
:1005F000180008231A00002103F0E1F9154B164AF0
:100600001A60144B00225A60124B00229A60114B60
:10061000124ADA600F4B00225A610E4B180001F0AB
:100620001BFC031E01D000F053F83B0000221A60AF
:100630003B0000225A603A00064B1100180001F0FE
:1006400019FE031E01D000F043F8C046BD4602B0BB
:1006500080BDC0462C06002000100040FFFF0000B7
:1006600080B500AF144B154A1A60134BE1225202B9
:100670005A60114B00229A600F4B0022DA600E4B39
:1006800000221A610C4B0C225A610B4B00229A611A
:10069000094B0022DA61084B00221A62064B002245
:1006A0005A62054B180001F03DFE031E01D000F018
:1006B0000FF8C046BD4680BDA805002000380140A7
:1006C00080B500AF0120FFF7FBFEC046BD4680BDF0
:1006D00080B500AF72B6C046FEE7000080B500AF3F
:1006E000074B5A6B064B01210A435A63044B9A6B22
:1006F000034B802149050A439A63C046BD4680BD2D
:100700000010024080B582B000AF78607B681B6843
:100710000A4A93420DD10A4B9A6B094B10210A43A6
:100720009A6300220021112000F0A2FA112000F0AB
:10073000B4FAC046BD4602B080BDC04600100040BD
:100740000010024090B589B000AF78600C243B19CE
:10075000180014231A00002103F031F97B681B688C
:10076000184A93422AD1184B5A6B174B8021C90162
:100770000A435A63144BDA6A134B01210A43DA62C3
:10078000114BDB6A01221340BB60BB683B19C022DE
:10079000D2001A6021007B1802225A607B180022C6
:1007A0009A607B180322DA607B1804221A617A1897
:1007B000A023DB051100180000F08CFAC046BD46EE
:1007C00009B090BD003801400010024080B500AF74
:1007D000FEE780B500AFFEE780B500AFC046BD467E
:1007E00080BD80B500AFC046BD4680BD80B500AFBE
:1007F00000F052F9C046BD4680BD000080B500AF94
:10080000034B180001F0DAFBC046BD4680BDC04670
:100810002C06002080B500AF01231800BD4680BD26
:1008200080B582B000AF7860396003F085F80300CE
:1008300016221A6001235B421800BD4602B080BD3B
:1008400080B582B000AF786001235A427B68110006
:100850001800FFF7E5FFFEE780B586B000AFF8604F
:10086000B9607A6000237B610AE000E000BF01000C
:10087000BB685A1CBA60CAB21A707B6901337B61CB
:100880007A697B689A42F0DB7B681800BD4606B047
:1008900080BD80B586B000AFF860B9607A60002393
:1008A0007B6109E0BB685A1CBA601B78180000E045
:1008B00000BF7B6901337B617A697B689A42F1DB17
:1008C0007B681800BD4606B080BD80B582B000AF21
:1008D000786001235B421800BD4602B080BD80B540
:1008E00082B000AF786039603B68802292015A6024
:1008F00000231800BD4602B080BD80B582B000AFB5
:10090000786001231800BD4602B080BD80B584B078
:1009100000AFF860B9607A6000231800BD4604B0EB
:1009200080BD000080B586B000AF7860144A154BDA
:10093000D31A7B617B693B61134B1B68002B02D18F
:10094000114B124A1A60104B1A687B68D3183A6927
:100950009A4207D202F0F0FF03000C221A60012332
:100960005B4209E0084B1B68FB60074B1A687B6819
:10097000D218054B1A60FB681800BD4606B080BD52
:1009800000200020000400008C000020B806002099
:1009900080B500AFC046BD4680BD00000D4885460D
:1009A0000D480E490E4A002302E0D458C4500433C7
:1009B000C4188C42F9D30B4A0B4C002301E013609E
:1009C0000432A242FBD3FFF7E3FF02F0CBFFFFF7B5
:1009D0008DFDFEE7002000200000002070000020B8
:1009E0000052000870000020B4060020FEE700005E
:1009F00080B582B000AFFB1D00221A700B4B1A6845
:100A00000A4B40210A431A60002000F011F8031E2F
:100A100003D0FB1D01221A7001E0FFF75FFEFB1DF2
:100A20001B781800BD4602B080BDC04600200240C1
:100A300090B583B000AF7860144B1C68144B1B78E2
:100A40001900FA239800FFF771FB0300190020003A
:100A5000FFF76CFB0300180000F02FF9031E01D014
:100A600001230FE07B68032B0BD8796801235B42DD
:100A70000022180000F0FCF8064B7A681A60002388
:100A800000E001231800BD4603B090BD0000002027
:100A9000080000200400002080B500AF054B1B7843
:100AA0001A00054B1B68D218034B1A60C046BD469E
:100AB00080BDC046080000206C06002080B500AF55
:100AC000024B1B681800BD4680BDC0466C06002066
:100AD00080B584B000AF7860FFF7F0FF0300BB6023
:100AE0007B68FB60FB68013305D00A4B1B781A005A
:100AF000FB689B18FB60C046FFF7E0FF0200BB6885
:100B0000D31AFA689A42F7D8C046C046BD4604B028
:100B100080BDC0460800002080B582B000AF020052
:100B2000FB1D1A70FB1D1B787F2B09D8FB1D1B7842
:100B30001A001F231A40044B012191400A001A6039
:100B4000C046BD4602B080BD00E100E090B583B074
:100B500000AF02003960FB1D1A70FB1D1B787F2B54
:100B600028D82F4AFB1D1B785BB29B08C0339B0023
:100B70009B58FA1D1278110003220A40D200FF216F
:100B800091400A00D2431A4011003B689B01FF22AA
:100B90001A40FB1D1B78180003230340DB009A401A
:100BA0001F48FB1D1B785BB29B080A43C0339B00A8
:100BB0001A5031E01B4AFB1D1B7819000F230B4014
:100BC000083B9B0806339B00D31804331B68FA1DAF
:100BD0001278110003220A40D200FF2191400A003E
:100BE000D2431A4011003B689B01FF221A40FB1DB3
:100BF0001B78180003230340DB009A400948FB1DC3
:100C00001B781C000F232340083B9B080A43063334
:100C10009B00C31804331A60C046BD4603B090BDA4
:100C200000E100E000ED00E080B582B000AF786048
:100C30007B685A1E80235B049A4201D3012310E093
:100C40000A4B7A68013A5A6001235B42032118007B
:100C5000FFF77CFF054B00229A60044B07221A60C5
:100C600000231800BD4602B080BDC04610E000E081
:100C700080B584B000AFB9607A600F217B18021C88
:100C80001A70BA687B181B785BB211001800FFF766
:100C90005DFFC046BD4604B080BD80B582B000AFE8
:100CA0000200FB1D1A70FB1D1B785BB21800FFF7DA
:100CB00033FFC046BD4602B080BD80B582B000AFF4
:100CC00078607B681800FFF7AFFF03001800BD468F
:100CD00002B080BD80B586B000AF78603960002377
:100CE0007B610023FB6000233B614FE13B681B6895
:100CF00001217A6991400A001340FB60FB68002BD8
:100D000000D140E13B685B68012B0BD03B685B681E
:100D1000022B07D03B685B68112B03D03B685B68F4
:100D2000122B30D17B689B683B617B695B0003229F
:100D30009A401300DA433B6913403B613B68DA6831
:100D40007B695B009A4013003A6913433B617B68FF
:100D50003A699A607B685B683B6101227B699A40D3
:100D60001300DA433B6913403B613B685B681B0936
:100D700001221A407B699A4013003A6913433B6190
:100D80007B683A695A607B68DB683B617B695B0022
:100D900003229A401300DA433B6913403B613B68EE
:100DA0009A687B695B009A4013003A6913433B6180
:100DB0007B683A69DA603B685B68022B03D03B686A
:100DC0005B68122B23D17B69DA087B6808329200BA
:100DD000D3583B617B69072213409B000F229A4046
:100DE0001300DA433B6913403B613B681A697B6936
:100DF00007210B409B009A4013003A6913433B6163
:100E00007B69DA087B68083292003969D1507B68C7
:100E10001B683B617B695B0003229A401300DA4345
:100E20003B6913403B613B685B6803221A407B6966
:100E30005B009A4013003A6913433B617B683A694F
:100E40001A603B685A6880235B05134000D19AE022
:100E5000544B5A6B534B01210A435A63524A7B69E4
:100E60009B0802339B009B583B617B690322134024
:100E70009B000F229A401300DA433B6913403B6109
:100E80007A68A023DB059A4219D07B68474A9342CF
:100E900013D07B68464A93420DD07B68454A934203
:100EA00007D07B68444A934201D1052308E006231A
:100EB00006E0032304E0022302E0012300E0002314
:100EC0007A6903210A40920093403A6913433B61D7
:100ED00035497B699B0802339B003A695A50374B6E
:100EE0001B683B61FB68DA433B6913403B613B682D
:100EF0005A6880235B02134003D03A69FB681343AE
:100F00003B612E4B3A691A602C4B5B683B61FB6876
:100F1000DA433B6913403B613B685A6880239B027C
:100F2000134003D03A69FB6813433B61234B3A6992
:100F30005A60224B9B683B61FB68DA433B69134074
:100F40003B613B685A6880235B03134003D03A69D6
:100F5000FB6813433B61194B3A699A60174BDB6896
:100F60003B61FB68DA433B6913403B613B685A686D
:100F700080239B03134003D03A69FB6813433B6112
:100F80000E4B3A69DA607B6901337B613B681A6812
:100F90007B69DA40131E00D0A8E6C046C046BD46B5
:100FA00006B080BD00100240000001400004005067
:100FB00000080050000C0050001C005000040140CC
:100FC000B0B58AB000AF78607B68002B02D10123F6
:100FD00000F0AFFBCF4BDB680C2213403B62CD4BE4
:100FE000DA6880235B021340FB617B681B68012287
:100FF000134000D17EE03B6A082B07D03B6A0C2BE4
:1010000012D1FA6980235B029A420DD1C14B1A6852
:1010100080239B02134000D16BE07B685B68002B50
:1010200067D1012300F085FB7B685A6880235B024F
:101030009A4207D1B74B1A68B64B802149020A433E
:101040001A6027E07B685A68A023DB029A420ED11F
:10105000B04B1A68AF4B8021C9020A431A60AD4BEE
:101060001A68AC4B802149020A431A6012E0A94B6E
:101070001A68A84BA8490A401A60A64B1A68802330
:101080005B021340FB60FB68A24B1A68A14BA349AB
:101090000A401A607B685B68002B15D0FFF70EFDD5
:1010A0000300BB6109E0FFF709FD0200BB69D31A29
:1010B000642B02D9032300F03CFB964B1A68802373
:1010C0009B021340EFD015E0FFF7F8FC0300BB6173
:1010D00008E0FFF7F3FC0200BB69D31A642B01D9C7
:1010E000032326E38B4B1A6880239B021340F0D125
:1010F00000E0C0467B681B680222134000D18BE0F1
:101100007B68DB687B613B6A042B05D03B6A0C2B58
:101110003ED1FB69002B3BD17E4B1B680422134060
:1011200004D07B69002B01D1012302E3794B5B687A
:101130007B4A134019007B681B691A02754B0A43EE
:101140005A60744B1B68092293431900714B7A69EA
:101150000A431A6000F040FC01006E4BDB681B097B
:101160000F2213406F4AD35C0A00DA406E4B1A60BC
:101170006E4B1B6813257C191800FFF759FC030000
:1011800023707B191B78002B46D07B191B78D0E28B
:101190007B69002B27D05F4B1B6809229343190002
:1011A0005C4B7A690A431A60FFF788FC0300BB6155
:1011B00008E0FFF783FC0200BB69D31A022B01D9B8
:1011C0000323B6E2534B1B6804221340F1D0514B6A
:1011D0005B68534A134019007B681B691A024D4B28
:1011E0000A435A6018E04B4B1A684A4B01218A4364
:1011F0001A60FFF763FC0300BB6108E0FFF75EFCC9
:101200000200BB69D31A022B01D9032391E2414B9F
:101210001B6804221340F1D17B681B681022134025
:1012200000D1A1E03B6A002B40D13A4B1A688023E1
:101230009B00134005D07B68DB69002B01D10123A3
:1012400077E2344B5B683A4A134019007B685A6A6C
:10125000304B0A435A602F4B5B681B02190A7B68AC
:101260001B6A1A062B4B0A435A607B685B6A5B0B4E
:101270000133802212029A40264BDB681B090F21A2
:101280000B402849CB5CDA40274B1A60274B1B6880
:1012900013257C191800FFF7CBFB030023707B1983
:1012A0001B78002B60D07B191B7842E27B68DB69DE
:1012B000002B3FD0174B1A68164B802149000A4378
:1012C0001A60FFF7FBFB0300BB6108E0FFF7F6FBCA
:1012D0000200BB69D31A022B01D9032329E20D4B6B
:1012E0001A6880239B001340F0D00A4B5B68104AB9
:1012F000134019007B685A6A064B0A435A60054B33
:101300005B681B02190A7B681B6A1A06014B0A43B9
:101310005A6029E000100240FFFFFEFFFFFFFBFFC5
:10132000FFE0FFFF844F00080000002004000020C1
:10133000FF1FFFFFBD4B1A68BC4BBD490A401A6036
:10134000FFF7BCFB0300BB6108E0FFF7B7FB02003F
:10135000BB69D31A022B01D90323EAE1B34B1A6804
:1013600080239B001340F0D17B681B680822134048
:1013700036D07B685B69002B19D0AC4B1A6DAB4B38
:1013800001210A431A65FFF799FB0300BB6108E0DE
:10139000FFF794FB0200BB69D31A022B01D9032388
:1013A000C7E1A24B1B6D02221340F1D018E09F4B06
:1013B0001A6D9E4B01218A431A65FFF77FFB0300DC
:1013C000BB6108E0FFF77AFB0200BB69D31A022B6E
:1013D00001D90323ADE1954B1B6D02221340F1D1DE
:1013E0007B681B680422134000D1AEE027203B1825
:1013F00000221A708D4B9A6B80235B05134009D134
:101400008A4B9A6B894B802149050A439A633B18A2
:1014100001221A70874B1A6880235B0013401AD18F
:10142000844B1A68834B802149000A431A60FFF7F6
:1014300045FB0300BB6108E0FFF740FB0200BB690E
:10144000D31A642B01D9032373E17A4B1A688023E2
:101450005B001340F0D07B689A6880235B009A425F
:1014600007D1724B1A6D714B802149000A431A65EE
:1014700031E07B689B68002B0CD16C4B1A6D6B4B79
:101480006B490A401A65694B1A6D684B6A490A40F4
:101490001A6520E07B689A68A023DB009A420ED18F
:1014A000624B1A6D614B8021C9000A431A655F4B7C
:1014B0001A6D5E4B802149000A431A650BE05B4BB5
:1014C0001A6D5A4B5A490A401A65584B1A6D574BB8
:1014D00059490A401A657B689B68002B15D0FFF7B5
:1014E000EDFA0300BB6109E0FFF7E8FA0200BB690F
:1014F000D31A524A934201D903231AE14B4B1A6D76
:1015000080239B001340EFD014E0FFF7D7FA0300CD
:10151000BB6109E0FFF7D2FA0200BB69D31A474A60
:10152000934201D9032304E1404B1A6D80239B00B1
:101530001340EFD12723FB181B78012B05D13B4B20
:101540009A6B3A4B3E490A409A637B681B6820229B
:10155000134049D07B689B69002B26D0334B9A6897
:10156000324B01210A439A60304B5A6B2F4B0121B9
:101570000A435A63334B1A6A324B802189010A436A
:101580001A62FFF79BFA0300BB6108E0FFF796FAC7
:101590000200BB69D31A022B01D90323C9E0234BF4
:1015A0009B6802221340F1D01EE0204B9A681F4B2B
:1015B00001218A439A60234B1A6A224B22490A402E
:1015C0001A62FFF77BFA0300BB6108E0FFF776FAC7
:1015D0000200BB69D31A022B01D90323A9E0134BE4
:1015E0009B6802221340F1D17B689B6A002B00D1DB
:1015F0009EE03B6A0C2B00D177E07B689B6A022B54
:1016000058D10A4B1A68094B10490A401A60FFF773
:1016100055FA0300BB611BE0FFF750FA0200BB69FB
:10162000D31A022B14D9032383E0C04600100240D2
:10163000FFFEFFFF00700040FFFBFFFF881300006C
:10164000FFFFFFEF00000140FFDFFFFFFFFFFFFE96
:101650003A4B1A6880239B041340DDD1374BDB687B
:10166000374A134019007B68DA6A7B681B6B1A43A0
:101670007B685B6B1A43314B0A43DA602F4B1A6865
:101680002E4B802149040A431A60FFF717FA030022
:10169000BB6108E0FFF712FA0200BB69D31A022B04
:1016A00001D9032345E0254B1A6880239B0413408E
:1016B000F0D03DE0214B1A68204B22490A401A60C5
:1016C000FFF7FCF90300BB6108E0FFF7F7F9020040
:1016D000BB69D31A022B01D903232AE0174B1A68DE
:1016E00080239B041340F0D122E07B689B6A012B8E
:1016F00001D101231DE0114BDB68FB61FA698023F6
:101700005B021A407B68DB6A9A420FD1FA69F023C8
:101710009B031A407B681B6B9A4207D1FA69C0236E
:101720001B041A407B685B6B9A4201D0012300E0E6
:1017300000231800BD460AB0B0BDC04600100240EC
:10174000FFFF02FFFFFFFFFEB0B584B000AF78607F
:1017500039607B68002B01D1012328E1964B1B687F
:10176000012213403A689A421ED9934B1B6801220A
:1017700093431900904B3A680A431A60FFF79EF9A9
:101780000300FB6009E0FFF799F90200FB68D31A38
:101790008A4A934201D9032309E1874B1B6801223E
:1017A00013403A689A42EED17B681B6802221340CC
:1017B00009D0834BDB68F022934319007B689A6859
:1017C0007F4B0A43DA607B681B680122134000D11B
:1017D00089E07B685B68022B07D1794B1A6880230C
:1017E0009B02134020D10123E1E07B685B68032B5F
:1017F00007D1734B1A6880239B04134014D1012333
:10180000D5E07B685B68012B06D16D4B1B68042219
:10181000134009D10123CAE0694B1A6880239B0059
:10182000134001D10123C2E0654BDB6803229343DF
:1018300019007B685A68624B0A43DA60FFF73EF989
:101840000300FB607B685B68022B11D109E0FFF7A6
:1018500035F90200FB68D31A584A934201D9032391
:10186000A5E0574BDB680C221340082BEFD13AE080
:101870007B685B68032B11D109E0FFF71FF90200B9
:10188000FB68D31A4D4A934201D903238FE04C4B96
:10189000DB680C2213400C2BEFD124E07B685B68E3
:1018A000012B1BD109E0FFF709F90200FB68D31AED
:1018B000424A934201D9032379E0414BDB680C2271
:1018C0001340042BEFD10EE0FFF7F8F80200FB689D
:1018D000D31A3A4A934201D9032368E0384BDB68B4
:1018E0000C221340F0D1344B1B68012213403A689C
:1018F0009A421ED2304B1B680122934319002E4B93
:101900003A680A431A60FFF7D9F80300FB6009E060
:10191000FFF7D4F80200FB68D31A284A934201D992
:10192000032344E0244B1B68012213403A689A4287
:10193000EED17B681B680422134009D0204BDB6882
:10194000204A134019007B68DA681D4B0A43DA60AD
:101950007B681B68082213400AD0194BDB681A4ABF
:10196000134019007B681B69DA00154B0A43DA60E3
:1019700000F032F80100124BDB681B090F22134004
:10198000124AD35C0A00DA40114B1A60114B1B68F3
:101990000B257C191800FFF74BF8030023707B1907
:1019A0001B78002B02D07B191B7800E00023180065
:1019B000BD4604B0B0BDC046002002408813000000
:1019C00000100240FFF8FFFFFFC7FFFF844F000831
:1019D0000000002004000020B0B58EB000AF4C4BDA
:1019E000DB68FB62FA6A0C2313400C2B14D000D97D
:1019F0007BE0042B02D0082B0BD076E0444B1B6815
:101A00001022134002D0434B3B637CE0424B3B63CC
:101A100079E0424B3B6376E0FB6A9A0C0F231A4055
:101A20003F4B9B5CBB62FB6A9A0D0323134001335F
:101A30007B62374BDA6880235B0213401AD0BB6AA3
:101A4000BB610023FB61354A0023B869F969FEF7E1
:101A500019FC02000B00100019007B6A3B61002397
:101A60007B613A697B69FEF7EDFB02000B00130016
:101A70007B6337E0264B1B68102213401AD0BB6AE9
:101A8000BB600023FB60234A0023B868F968FEF7B7
:101A9000F9FB02000B00100019007B6A3B60002379
:101AA0007B603A687B68FEF7CDFB02000B001300F9
:101AB0007B6317E0BB6A180000231900164A002355
:101AC000FEF7E0FB02000B00100019007B6A1C000F
:101AD00000231D0022002B00FEF7B4FB02000B00C8
:101AE00013007B637B6B3B630DE0094B5B685B0B17
:101AF000072213403B623B6A0133802212029A4064
:101B000013003B63C0463B6B1800BD460EB0B0BD32
:101B10000010024000093D000024F40000127A0089
:101B20009C4F000880B500AF024B1B681800BD46F3
:101B300080BDC0460000002080B500AFFFF7F2FF77
:101B40000100064BDB681B0A07221340044AD35CE2
:101B5000D9400B001800BD4680BDC04600100240B1
:101B6000944F000880B500AFFFF7DCFF0100064B83
:101B7000DB68DB0A07221340044AD35CD9400B0020
:101B80001800BD4680BDC04600100240944F0008BA
:101B900080B586B000AF78601723FB1800221A705A
:101BA0007B681B682022134006D17B681A6880235B
:101BB0001B01134000D1D9E09C4B9A6B80235B053D
:101BC00013400AD1994B9A6B984B802149050A43DF
:101BD0009A631723FB1801221A70954B1A68802309
:101BE0005B0013401AD1924B1A68914B8021490037
:101BF0000A431A60FEF762FF03003B6108E0FEF74C
:101C00005DFF02003B69D31A642B01D9032308E16D
:101C1000874B1A6880235B001340F0D0834B1A680F
:101C2000C0239B031340FB607B685A68C0239B035F
:101C30001340FA689A4207D17B689A68C0239B03D5
:101C40001340FA689A4213D07B685A68C0239B02FB
:101C50001A40C0239B029A420AD1744B1A6880230F
:101C60009B021A4080239B029A4201D10123D8E0B3
:101C70006E4B1A6DC0239B021340FB60FB68002B68
:101C800049D07B685A68C0239B021340FA689A4285
:101C900004D07B681B68202213400DD17B689A68B2
:101CA000C0239B021340FA689A4234D07B681A68BA
:101CB00080231B0113402ED05C4B1B6D5D4A1340EB
:101CC000FB605A4B1A6D594B802109030A431A6570
:101CD000564B1A6D554B58490A401A65534BFA68D2
:101CE0001A65FA6880235B00134014D0FEF7E6FE05
:101CF00003003B6109E0FEF7E1FE02003B69D31AF5
:101D00004E4A934201D903238BE0484B1A6D80233E
:101D10009B001340EFD07B685A68C0239B021A4097
:101D2000C0239B029A420CD1404B1B68444A13408B
:101D300019007B685A68C0239B031A403B4B0A4337
:101D40001A603A4B196D7B685A68C0239B021A408F
:101D5000364B0A431A651723FB181B78012B05D154
:101D6000324B9A6B314B37490A409A637B681B6848
:101D70000122134009D02D4BDB6C03229343190041
:101D80007B68DA68294B0A43DA647B681B680222A5
:101D9000134009D0254BDB6C0C22934319007B6860
:101DA0001A69224B0A43DA647B681B6804221340D9
:101DB00009D01E4BDB6C244A134019007B685A691A
:101DC0001A4B0A43DA647B681B680822134009D067
:101DD000164BDB6C1D4A134019007B689A69134B44
:101DE0000A43DA647B681B684022134009D00F4B1A
:101DF000DB6C174A134019007B681A6A0B4B0A43C5
:101E0000DA647B681B688022134009D0074BDB6CC7
:101E1000104A134019007B68DA69044B0A43DA64FC
:101E200000231800BD4606B080BDC0460010024029
:101E300000700040FFFFFCFFFFFFF7FF881300006A
:101E4000FFFFCFFFFFFFFFEFFFF3FFFFFFCFFFFF1E
:101E5000FFFFFFFBFFFFF3FF80B582B000AF7860AC
:101E60007B68002B01D1012332E07B6839229B5C27
:101E7000DBB2002B07D17B683822002199547B68A4
:101E80001800FEF73FFC7B683922022199547B68D9
:101E90001A687B6804331900100000F097F97B681A
:101EA0003E22012199547B683A22012199547B6892
:101EB0003B22012199547B683C22012199547B6883
:101EC0003D22012199547B68392201219954002334
:101ED0001800BD4602B080BD80B584B000AF786008
:101EE0007B6839229B5CDBB2012B01D0012336E0F9
:101EF0007B683922022199547B681B68DA687B6809
:101F00001B6801210A43DA607B681A688023DB05BD
:101F10009A4209D07B681B68134A934204D07B68BD
:101F20001B68124A934211D17B681B689B68072289
:101F30001340FB60FB68062B10D07B681B681A6897
:101F40007B681B6801210A431A6007E07B681B68F5
:101F50001A687B681B6801210A431A600023180075
:101F6000BD4604B080BDC0460008014000140140D9
:101F700080B582B000AF78607B681B68DA687B68E8
:101F80001B6801218A43DA607B681B681B6A0A4A66
:101F9000134007D17B681B681A687B681B680121A6
:101FA0008A431A607B683922012199540023180062
:101FB000BD4602B080BDC0461111000080B582B0A0
:101FC00000AF78607B681B681B6902221340022BFC
:101FD00024D17B681B68DB6802221340022B1DD1D1
:101FE0007B681B68032252421A617B6801221A76C1
:101FF0007B681B689B690322134004D07B68180030
:1020000000F0CCF807E07B68180000F0BFF87B68B0
:10201000180000F0CBF87B6800221A767B681B68FA
:102020001B6904221340042B25D17B681B68DB68E5
:1020300004221340042B1ED17B681B6805225242E8
:102040001A617B6802221A767B681B689A69C02332
:102050009B00134004D07B68180000F09FF807E055
:102060007B68180000F092F87B68180000F09EF87A
:102070007B6800221A767B681B681B690822134064
:10208000082B24D17B681B68DB6808221340082BCF
:102090001DD17B681B68092252421A617B680422A9
:1020A0001A767B681B68DB690322134004D07B68C7
:1020B000180000F073F807E07B68180000F066F87D
:1020C0007B68180000F072F87B6800221A767B6843
:1020D0001B681B6910221340102B25D17B681B68DD
:1020E000DB6810221340102B1ED17B681B68112265
:1020F00052421A617B6808221A767B681B68DA698B
:10210000C0239B00134004D07B68180000F046F801
:1021100007E07B68180000F039F87B68180000F0D1
:1021200045F87B6800221A767B681B681B690122D0
:102130001340012B0FD17B681B68DB680122134021
:10214000012B08D17B681B68022252421A617B680E
:10215000180001F005FB7B681B681B6940221340D7
:10216000402B0FD17B681B68DB6840221340402B5B
:1021700008D17B681B68412252421A617B681800B3
:1021800000F01CF8C046BD4602B080BD80B582B0EC
:1021900000AF7860C046BD4602B080BD80B582B059
:1021A00000AF7860C046BD4602B080BD80B582B049
:1021B00000AF7860C046BD4602B080BD80B582B039
:1021C00000AF7860C046BD4602B080BD80B584B027
:1021D00000AF786039607B681B68FB607A68802399
:1021E000DB059A4207D07B681F4A934203D07B6885
:1021F0001E4A934208D1FB6870229343FB603B6800
:102200005B68FA681343FB607A688023DB059A42B7
:1022100007D07B68144A934203D07B68134A9342E9
:1022200008D1FB68124A1340FB603B68DB68FA6820
:102230001343FB60FB68802293431A003B681B69D1
:102240001343FB607B68FA681A603B689A687B6896
:10225000DA623B681A687B689A627B6801225A617D
:10226000C046BD4604B080BD0008014000140140D6
:10227000FFFCFFFF80B584B000AF786039607B68F9
:1022800038229B5C012B01D1022342E07B6838227B
:10229000012199547B683922022199547B681B687B
:1022A0005B68FB607B681B689B68BB60FB68702297
:1022B0009343FB603B681B68FA681343FB607B68D1
:1022C0001B68FA685A607B681A688023DB059A42AB
:1022D00009D07B681B68114A934204D07B681B6855
:1022E0000F4A93420CD1BB6880229343BB603B688A
:1022F0005B68BA681343BB607B681B68BA689A6006
:102300007B683922012199547B6838220021995435
:1023100000231800BD4604B080BDC046000801403F
:102320000014014080B582B000AF78607B68002B5C
:1023300001D1012344E07B689B6F002B07D17B68B0
:102340007422002199547B681800FEF7FBF97B6822
:1023500024229A677B681B681A687B681B680121C6
:102360008A431A607B68180000F0D8F80300012B3C
:1023700001D1012324E07B685B6A002B03D07B68DA
:10238000180000F06BFB7B681B685A687B681B6851
:102390000D490A405A607B681B689A687B681B6815
:1023A0002A218A439A607B681B681A687B681B68CD
:1023B00001210A431A607B68180000F003FC030047
:1023C0001800BD4602B080BDFFB7FFFF80B58AB0E0
:1023D00002AFF860B9603B60BB1D1A80FB689B6F61
:1023E000202B00D095E0BB68002B03D0BB1D1B88C1
:1023F000002B01D101238DE0FB689A6880235B01EB
:102400009A4209D1FB681B69002B05D1BB680122E8
:10241000134001D001237DE0FB6874229B5C012BFB
:1024200001D1022376E0FB68742201219954FB68F4
:10243000802200219950FB6821229A67FEF73EFB1B
:1024400003007B61FB68BA1D502112885A52FB6859
:10245000BA1D522112885A52FB689A6880235B0188
:102460009A4208D1FB681B69002B04D10023FB6151
:10247000BB68BB6103E0BB68FB610023BB61FB6819
:102480007422002199542CE07A69F8683B68009323
:1024900013000022802100F0DDFB031E01D0032386
:1024A00038E0FB69002B0BD1BB691B881A00FB6865
:1024B0001B68D205D20D9A62BB690233BB6107E08B
:1024C000FB691A78FB681B689A62FB690133FB6140
:1024D000FB6852229B5A9BB2013B99B2FB68522285
:1024E0009952FB6852229B5A9BB2002BCCD17A693D
:1024F000F8683B68009313000022402100F0AAFB1B
:10250000031E01D0032305E0FB6820229A67002305
:1025100000E002231800BD4608B080BDB0B58EB003
:1025200000AFF8611A2318229446BC446344002289
:102530001A70FB699A68FB691B691A43FB695B693E
:102540001A43FB69DB6913437B63FB691B681B68E8
:10255000C14A13401900FB691B687A6B0A431A6071
:10256000FB691B685B68BD4A13401900FB69DA68A8
:10257000FB691B680A435A60FB699B697B63FB69C3
:102580001B68B74A934204D0FB691B6A7A6B1343FA
:102590007B63FB691B689B68B24A13401900FB69A7
:1025A0001B687A6B0A439A60FB691B68AE4A9342C8
:1025B00036D1AE4BDB6C03221340032B20D027D83F
:1025C000022B0DD024D8002B02D0012B10D01FE0FD
:1025D0001B2318229446BC44634401221A70ABE0CA
:1025E0001B2318229446BC44634402221A70A3E0C1
:1025F0001B2318229446BC44634404221A709BE0B7
:102600001B2318229446BC44634408221A7093E0AA
:102610001B2318229446BC44634410221A708BE09A
:10262000FB691B68924A934236D1904BDB6C0C22BB
:1026300013400C2B20D027D8082B0DD024D8002BEA
:1026400002D0042B10D01FE01B2318229446BC4458
:10265000634400221A706FE01B2318229446BC4486
:10266000634402221A7067E01B2318229446BC447C
:10267000634404221A705FE01B2318229446BC4472
:10268000634408221A7057E01B2318229446BC4466
:10269000634410221A704FE0FB691B68704A934232
:1026A00043D1724BDA6CC0231B011340C0221201CC
:1026B00093422AD0C022120193422ED880221201C6
:1026C000934212D080221201934226D8002B04D0CC
:1026D0008022D200934210D01FE01B231822944680
:1026E000BC44634400221A7026E01B23182294463F
:1026F000BC44634402221A701EE01B231822944635
:10270000BC44634404221A7016E01B23182294462A
:10271000BC44634408221A700EE01B23182294461E
:10272000BC44634410221A7006E01B23182294460E
:10273000BC44634410221A70FB691B68484A9342E8
:1027400000D09BE01B2318229446BC4463441B78B2
:10275000082B1DD020DC042B15D01DDC002B02D053
:10276000022B05D018E0FFF7E7F90300FB621DE03C
:102770003E4B1B681022134002D03E4BFB6215E01B
:102780003D4BFB6212E0FFF727F90300FB620DE00F
:1027900080231B02FB6209E00023FB621A2318223C
:1027A0009446BC44634401221A70C046FB6A002B65
:1027B00000D139E1FB695A6813005B009B18FA6A83
:1027C0009A4205D3FB695B681B03FA6A9A4207D9F0
:1027D0001A2318229446BC44634401221A7023E150
:1027E000FB6A3B6100237B6139697A690B001B0E30
:1027F000100005021D430B001C02FB695B685B08AF
:10280000BB600023FB60B868F96800196941FB6987
:102810005B683B6000237B603A687B68FDF712FDD4
:1028200002000B001300BB62BA6AC0239B009A42ED
:1028300009D3BA6A80235B039A4204D2FB691B68FE
:10284000BA6ADA60F0E01A2318229446BC44634462
:1028500001221A70E8E0C046F369FFEFFFCFFFFFE7
:1028600000480040FFF4FFFF003801400010024024
:102870000044004000093D000024F400FB69DA69CF
:1028800080231B029A4200D074E01B231822944636
:10289000BC4463441B78082B22D89A006A4BD31897
:1028A0001B689F46FFF748F90300FB6222E0FFF731
:1028B00059F90300FB621DE0644B1B6810221340B2
:1028C00002D0634BFB6215E0624BFB6212E0FFF744
:1028D00083F80300FB620DE080231B02FB6209E02A
:1028E0000023FB621A2318229446BC44634401224D
:1028F0001A70C046FB6A002B00D195E0FB6A5A00B3
:10290000FB695B685B08D218FB695B681900100003
:10291000FDF70CFC03009BB2BB62BB6A0F2B21D9F5
:10292000BA6A80235B029A421CD2BB6A9AB20E201A
:1029300018243B191B180F218A431A80BB6A5B08B5
:102940009BB20722134099B23B191B183A1912186F
:1029500012880A431A80FB691B683A1912181288F8
:10296000DA6061E01A2318229446BC4463440122D1
:102970001A7059E01B2318229446BC4463441B7808
:10298000082B22D89A00344BD3181B689F46FFF7B8
:10299000D3F80300FB6222E0FFF7E4F80300FB62D8
:1029A0001DE02A4B1B681022134002D0284BFB620B
:1029B00015E0284BFB6212E0FFF70EF80300FB6204
:1029C0000DE080231B02FB6209E00023FB621A2357
:1029D00018229446BC44634401221A70C046FB6A24
:1029E000002B21D0FB695B685A08FB6AD218FB698F
:1029F0005B6819001000FDF799FB03009BB2BB62F6
:102A0000BB6A0F2B09D9BA6A80235B029A4204D2AF
:102A1000FB691B68BA6ADA6006E01A23182294463A
:102A2000BC44634401221A70FB6900225A66FB69A8
:102A300000229A661A2318229446BC4463441B78E9
:102A40001800BD460EB0B0BDA84F000800100240EF
:102A500000093D000024F400CC4F000880B582B08E
:102A600000AF78607B685B6A012213400BD07B6803
:102A70001B685B684A4A134019007B689A6A7B6846
:102A80001B680A435A607B685B6A022213400BD0C2
:102A90007B681B685B68434A134019007B68DA6AED
:102AA0007B681B680A435A607B685B6A0422134098
:102AB0000BD07B681B685B683B4A134019007B683E
:102AC0001A6B7B681B680A435A607B685B6A082242
:102AD00013400BD07B681B685B68344A13401900B5
:102AE0007B685A6B7B681B680A435A607B685B6A29
:102AF000102213400BD07B681B689B682C4A134044
:102B000019007B689A6B7B681B680A439A607B6834
:102B10005B6A202213400BD07B681B689B68254AA8
:102B2000134019007B68DA6B7B681B680A439A6064
:102B30007B685B6A402213401DD07B681B685B6822
:102B40001D4A134019007B681A6C7B681B680A4396
:102B50005A607B681A6C80235B039A420BD17B68B6
:102B60001B685B68154A134019007B685A6C7B68C8
:102B70001B680A435A607B685B6A802213400BD053
:102B80007B681B685B680E4A134019007B689A6C6F
:102B90007B681B680A435A60C046BD4602B080BDD0
:102BA000FFFFFDFFFFFFFEFFFFFFFBFFFF7FFFFFBC
:102BB000FFEFFFFFFFDFFFFFFFFFEFFFFFFF9FFFC5
:102BC000FFFFF7FF80B586B002AF78607B68802298
:102BD00000219950FDF772FF0300FB607B681B68C2
:102BE0001B6808221340082B0CD1FB68802291033C
:102BF0007868174A0092002200F02CF8031E01D0DA
:102C0000032321E07B681B681B6804221340042B0C
:102C10000CD1FB688022D10378680D4A0092002213
:102C200000F018F8031E01D003230DE07B6820227A
:102C30009A677B682022DA677B6800221A667B68C5
:102C400074220021995400231800BD4604B080BDB1
:102C5000FFFFFF0180B584B000AFF860B9603B6052
:102C6000FB1D1A705EE0BB6901335BD0FDF726FFE8
:102C700002003B68D31ABA699A4202D3BB69002B9F
:102C80001BD1FB681B681A68FB681B682F490A4048
:102C90001A60FB681B689A68FB681B6801218A43FD
:102CA0009A60FB6820229A67FB682022DA67FB683B
:102CB000742200219954032344E0FB681B681B68BD
:102CC000042213402ED0FB681B68DA6980231B01A5
:102CD0001A4080231B019A4224D1FB681B68802282
:102CE00012011A62FB681B681A68FB681B681749A7
:102CF0000A401A60FB681B689A68FB681B68012120
:102D00008A439A60FB6820229A67FB682022DA6770
:102D1000FB68802220219950FB687422002199547D
:102D200003230FE0FB681B68DB69BA681340BA68CD
:102D3000D31A5A425341DBB21A00FB1D1B789A4248
:102D400091D000231800BD4604B080BD5FFEFFFF98
:102D500080B58AB000AFF860B9607A60BB687B610B
:102D600000237B6200233B620023FB6113E0FB69CD
:102D70009B007A69D3181B687A6A53407B62FB69AF
:102D800001339B007A69D3181B683A6A53403B624F
:102D9000FB690233FB61FB69032BE8DD7B6A1A04E4
:102DA0007B6A53401022D3417B623B6A1A043B6A20
:102DB00053401022D3413B620023BB61BB69FB61DE
:102DC0002AE0BB695A1CBA619B007A69D3181A6859
:102DD0003B6A5A40FB68F9698900CB585A40110098
:102DE000FB68FA699200D150BB695A1CBA619B001A
:102DF0007A69D3181A687B6A5A40FB68F969083106
:102E00008900CB585A401100FB68FA6908329200D9
:102E1000D150FB690133FB61FB69012BD1DD02233A
:102E2000FB611AE0FB68FA699200D2583B6A5A408B
:102E30001100FB68FA699200D150FB68FA69083208
:102E40009200D2587B6A5A401100FB68FA69083236
:102E50009200D150FB690133FB617B68002B00DAE3
:102E600001335B101A00FB699342DBDBC046C046AE
:102E7000BD460AB080BD80B586B000AF78603960CD
:102E80007B68FB6000233B613B697B6119E03B6928
:102E90005A1C3A619B00FA68D3183A68796989002C
:102EA0008A581A603B695A1C3A619B00FA68D31829
:102EB0003A687969083189008A581A607B69013358
:102EC0007B613B69032BE2DDC046C046BD4606B0D0
:102ED00080BD90B59DB000AFF860B9603A607B608E
:102EE0002423FB18180040231A00002100F067FD7E
:102EF0001423FB1800221A6004330C22002118004E
:102F000000F05DFD3B68BB660023FB6611E0BA681C
:102F1000FB6ED11824243B1908221800FFF718FF74
:102F20003B1908220821180000F06AF9FB6E1033E3
:102F3000FB66BA6EFB6ED31A102BE8D8BA6EFB6E26
:102F4000D31A7B66BA68FB6ED1187A6E14243B19CB
:102F5000180000F02BFD7B6E0F2B04D83A197B6E06
:102F6000D31880221A701423F91824243B1908223C
:102F70001800FFF7EDFE7B6E0F2B08D821007B18A1
:102F8000DB6A802252045A407B18DA6207E024216F
:102F90007B18DB6A802292045A407B18DA62242470
:102FA0003B190C220821180000F02AF93A19FB6895
:102FB00011001800FFF75FFF3B19082208211800D5
:102FC00000F01EF9FB6810333A1911001800FFF7E2
:102FD00052FF3B1908220821180000F011F9FB6884
:102FE00020333A1911001800FFF745FF002318009D
:102FF000BD461DB090BD000080B588B000AF7860C0
:1030000039603B68002B00DA01335B107B617B6821
:103010003B617B682033FB600023BB610023FB61C5
:103020000AE0FB699B003A69D3181B68BA695340F0
:10303000BB61FB690133FB61FA697B699A42F0DB92
:10304000BB691A04BB6953401022D341BB61002302
:10305000FB6118E0FA697B69D3189B00FA68D31802
:103060001968FB699B00FA68D3181A68BB695A4053
:10307000F8697B69C3189B00F868C3184A401A6056
:10308000FB690133FB61FA697B699A42E2DB002349
:10309000BB610023FB610AE0FB699B00FA68D3185F
:1030A0001B68BA695340BB61FB690133FB61FA6974
:1030B0007B699A42F0DBBB691A04BB69534010225A
:1030C000D341BB610023FB6118E0FA697B69D31827
:1030D0009B003A69D3181968FB699B003A69D318B9
:1030E0001A68BB695A40F8697B69C3189B00386944
:1030F000C3184A401A60FB690133FB61FA697B69B6
:103100009A42E2DB3B691B68BB610023FB611DE067
:10311000FA697B69D31801339B003A69D218FB69BD
:103120009B003969CB1812681A60FB6901339B0058
:103130003A69D218F9697B69CB1801339B00396968
:10314000CB1812681A60FB690133FB617B69013B94
:10315000FA699A42DCDB7B699B003A69D2187B6989
:1031600026498C4663449B003969CB1812681A6063
:103170007B699B003A69D318BA691A60FB681B68BF
:10318000BB610023FB611DE0FA697B69D318013341
:103190009B00FA68D218FB699B00F968CB1812688B
:1031A0001A60FB6901339B00FA68D218F9697B69E0
:1031B000CB1801339B00F968CB1812681A60FB69C1
:1031C0000133FB617B69013BFA699A42DCDB7B6975
:1031D0009B00FA68D2187B6908498C4663449B00BF
:1031E000F968CB1812681A607B699B00FA68D318DB
:1031F000BA691A60C046BD4608B080BDFFFFFF3FF8
:1032000080B586B000AFF860B9607A60BB68012213
:10321000134005D1BB68032B02DDBB68082B05DD1D
:103220007E4B7F4A7F486F2100F068FB00237B6163
:10323000E9E0FB681A6A7B697B490B4004D5013BD6
:10324000082149420B4301331900784B8900CB58C0
:103250005A40FB681A62FB685A6A7B695A40FB68ED
:103260005A6200233B61C0E0FB683A699200D25881
:10327000FB68396908318900CB581F21CB41D1182F
:10328000FB683A699200D150FB683A6908329200B3
:10329000D258FB6839698900CB581821CB415A4074
:1032A0001100FB683A6908329200D150FB683A6914
:1032B0009200D2585D4B39698900CB585A401100B1
:1032C000FB683A699200D150FB683A699200D25883
:1032D000FB68396908318900CB581121CB41D118DD
:1032E000FB683A699200D150FB683A690832920053
:1032F000D258FB6839698900CB581121CB415A401B
:103300001100FB683A6908329200D150FB683A69B3
:103310009200D258454B39698900CB585A40110068
:10332000FB683A699200D150FB683A699200D25822
:10333000FB68396908318900CB58D118FB683A69B4
:103340009200D150FB683A6908329200D258FB686B
:1033500039698900CB581F21CB415A401100FB68C5
:103360003A6908329200D150FB683A699200D2580B
:103370002E4B39698900CB585A401100FB683A69D5
:103380009200D150FB683A699200D258FB683969C3
:1033900008318900CB581821CB41D118FB683A6914
:1033A0009200D150FB683A6908329200D258FB680B
:1033B00039698900CB581021CB415A401100FB6874
:1033C0003A6908329200D150FB683A699200D258AB
:1033D000164B39698900CB585A401100FB683A698D
:1033E0009200D1503B6901333B613A69BB689A4214
:1033F00000DA39E7BA68FB6811001800FFF7FCFD36
:103400007B6901337B617A697B689A4200DA10E755
:10341000C046C046BD4606B080BDC046184D000837
:1034200010500008504D000807000080F04F0008C1
:1034300080B582B000AF00237B6000F005FA00F099
:103440009FF900F0B9F91C4A1C491D4B180000F007
:10345000D7F91C4B180000F0D3F91B4B196B1A4B12
:10346000DA6A1A4B180000F0CBF9174B196A164BA1
:103470005A6A154B9B6A164800F0C2F980235A001D
:10348000144B0021180000F09AFA80235A00124BC6
:103490000021180000F093FA80235A000F4B0021FE
:1034A000180000F08CFA00F01BF803007B607B68CA
:1034B0001800BD4602B080BD1C5000089C5000089A
:1034C000244E00086C4E0008700600207C4E000858
:1034D000A44E0008980000209801002098020020C7
:1034E00090B5694CA54400AF0023684ABA18136030
:1034F0008022D200002330217918080000F002F960
:10350000002200238721C90079180A604B6056E029
:103510008724E4003B191A685D4B1100180000F085
:103520006FF900F02DF93B191A685B6830217918A2
:103530003800FFF7CEFC0300544C3A19136000F03A
:103540003BF9544B1B68591C524A1160524A11688E
:10355000524A9B0099503B191B68002B18D14E4BC7
:103560001B6819004C4B1B68002B00DA0F331B1132
:103570001A004B4B1B684B4800F042F98723DB00D5
:10358000FB181B68484ABA18126813430DD105E0AE
:1035900004235B423D4ABA18136021E00422002351
:1035A0008721C90079180A604B608721C9007B1800
:1035B0001A685B6892185B4179180A604B603A4A56
:1035C000BB181B68002B0BD1BB181B68002B9FD1AD
:1035D0008723DB00FB181A688023DB009A4297D907
:1035E0002C4B00221A60314B180000F069F8304B68
:1035F000180000F005F9002200238621C90079187F
:103600000A604B6027E08624E4003B191868214BD0
:103610001B68591C1F4A1160204A9B009B581A00C6
:10362000244B0100180000F0EBF83B191B68224AFC
:10363000BA181268134304D10422002339190A600E
:103640004B608621C9007B181A685B6892185B4141
:1036500079180A604B60184ABB181B68002B0BD105
:10366000BB181B68002BCED18623DB00FB181A6821
:103670008023DB009A42C6D9044BFB181B68180054
:10368000BD460E4B9D4490BDB4FBFFFF44040000BB
:10369000D04E0008980300209000002098020020DF
:1036A00094000020E04E00083C040000FC4E00089E
:1036B000044F0008144F0008340400004C040000BC
:1036C00080B582B000AF7860094B0A4A79680A4831
:1036D00000F096F8094B196A084B5A6A074B9B6A27
:1036E000074800F08DF8C046BD4602B080BDC04618
:1036F0001C5000089C500008204F00087006002055
:103700005C4F000880B586B000AFF8603A607B601F
:10371000002200233A617B6111E03A697B69131C46
:10372000DAB23B69F968CB183032D2B21A703A6912
:103730007B690120002112184B413A617B617A6854
:103740007B699A42E9D87A687B699A4203D13A68E0
:103750003B699A42E1D8C046BD4606B080BD000034
:1037600080B582B000AF7860044B1B685A1C034BD5
:103770001A60C046BD4602B080BDC0469C03002012
:1037800080B500AF094B00221A60094B1B6800226C
:103790005A62FDF793F90200064B1A60044B1800B9
:1037A000FEF79AFBC046BD4680BDC0469C03002084
:1037B0002C0600209400002080B500AF0C4B1800B0
:1037C000FEF7D6FB0B4B1B681A04094B1B685B6AA0
:1037D0001A43094B1A60FDF771F90200074B1B6889
:1037E000D21A064B1A60044B1B681800BD4680BDF8
:1037F0002C0600209C030020900000209400002054
:103800000FB480B582B000AF1423FB187B607A68D8
:1038100039690B4B180000F0D3FB094B1800FCF77B
:1038200073FC03009AB2064906486423FEF7CEFDF6
:10383000C046BD4602B080BC08BC04B01847C046B4
:10384000A0030020A805002080B500AF244B34223F
:103850000021180000F0B3F8214B802212051A60F5
:103860001F4B1A681E4B5A601E4A1D4B9A601E4A17
:103870001B4B9A611D4A1A4BDA611D4A184BDA60DC
:103880001C4A174B5A611C4A154B1A61144B9A6813
:10389000134B5B68D21A124B1A62114B5A69104BC8
:1038A000DB68D21A0E4B5A620D4BDA690C4B9B69DE
:1038B000D21A0B4B9A620A4B5A6A094B9B6AD2186E
:1038C000074BDA62064B1A69054B5B6AD218044B48
:1038D0001B68D21A024B1A63C046BD4680BDC04663
:1038E00070060020184D000870000020B40600206B
:1038F00000000020700000200052000830B51400C5
:103900001A00094B05001B6885B0D868074B002CCE
:1039100001D1074B1C00019300912B000549029433
:1039200000F010F800F026FC0C0000201C510008EC
:103930005751000829510008014B18687047C046CC
:103940000C0000200EB403B5010003AB044804CB07
:103950000068019300F062F802B008BC03B0184799
:103960000C00002070B500260C4D0D4C641BA410FB
:10397000A64209D1002601F0C3F90A4D0A4C641B86
:10398000A410A64205D170BDB300EB58984701368C
:10399000EEE7B300EB5898470136F2E7F85100081C
:1039A000F8510008F8510008FC510008002310B538
:1039B0009A4200D110BDCC5CC4540133F8E7030037
:1039C0008218934200D1704719700133F9E7936868
:1039D00010B5013B9360002B04DA9469A34207DB26
:1039E0000A2905D01368581C10601970080010BD12
:1039F00000F0F2FA0100F9E7F8B506000F00140034
:103A0000D518AC4201D1002007E021783A003000FF
:103A1000FFF7DDFF0134431CF3D1F8BDF0B5A1B0D1
:103A200006000C001F000392002804D08369002BBD
:103A300001D100F0D5FC8E4B9C421CD17468636EA2
:103A4000DB0705D4A3899B0502D4A06D00F069FDB6
:103A5000A3891B0702D52369002B1DD1210030004B
:103A600000F010FB002817D0636EDB070DD5012096
:103A7000404221B0F0BD7F4B9C4201D1B468DEE7EB
:103A80007D4B9C42DBD1F468D9E7A3899B05EED43A
:103A9000A06D00F047FDEAE7002308AD6B6120331D
:103AA0006B761033AB760797039F3B78002B01D0E2
:103AB000252B4ED1039BFB1A0593039B9F420DD0F0
:103AC000059B21003000039AFFF796FF431C00D1AD
:103AD000B5E06A69059B944663446B613B78002BB3
:103AE00000D1ACE001227B1C0393002352426A60A8
:103AF00004A9543252182B60EB60AB601370AB65B5
:103B0000039B052219785D4800F07AFD039B5F1C3A
:103B1000002820D12A68D30604D5532304A95B18B2
:103B200020211970130704D5532304A95B182B21F6
:103B30001970039B1B782A2B16D00021EB68039F7A
:103B40003A78781C303A8446092A4FD9002911D195
:103B500017E00137A9E7494B2A68C01A01238340BF
:103B600013432B600397CBE7079B191D1B68079135
:103B7000002B01DB0B9304E05B42EB600223134359
:103B80002B603B782E2B0AD17B782A2B37D1079BD1
:103B900002371A1D1B680792002B2DDB09930322A5
:103BA0003978374800F02CFD002807D0344B2A68BC
:103BB000C01A40238340134301372B6039787B1CA4
:103BC000062230480393297600F01AFD002845D0DC
:103BD0002D4B002B27D10722079B07339343083334
:103BE00007936B69049A9B186B615DE70A214B434D
:103BF00067469B180939A3E701235B42CEE7002300
:103C00001A0001376B603978781C303984460929ED
:103C100003D9002BC3D00992C1E70A235A43674650
:103C20005218093BEFE707AB009322002900300050
:103C3000164B00E000BF0490049B0133D1D1636EAA
:103C4000DB0705D4A3899B0502D4A06D00F06AFCB4
:103C5000A3895B0600D50AE70D980AE707AB009336
:103C6000220029003000094B00F082F8E3E7C0464B
:103C7000B0510008D0510008905100085C51000874
:103C8000625100086651000800000000F939000880
:103C9000F7B5150001938A680B690C0000909342F8
:103CA00000DA130022002B6043321278002A01D080
:103CB00001332B6023689B0602D52B6802332B60EF
:103CC0002268062317001F401A4227D023004333DF
:103CD0001B785A1E93412268920630D42200019923
:103CE0000098089E4332B047431C25D00623206825
:103CF0002A68E16800250340042B03D18D1AEB43A9
:103D0000DB171D40A3682269934201DD9B1AED1861
:103D10000027BD4220D1002010E00137E3682A6867
:103D20009B1ABB42D2DD2200012301990098089E14
:103D30001932B047431CF0D101204042FEBD302073
:103D4000E1184331087021005A1C45310978A21846
:103D5000433202331170C1E7220001230199009818
:103D6000089E1A32B047431CE6D00137D1E7000065
:103D7000F0B58BB006920A00433207930590049287
:103D80000A7E0C00109B782A06D8622A08D8002ADE
:103D900000D1C0E0582A52D026004236327022E0CC
:103DA000100063381528F7D8FCF7B6F916001F0085
:103DB000F6FFF6FFF6FFF6FF1F00F6FFF6FFF6FF31
:103DC000F6FFA80036009A00F6FFF6FFB900F6FFEE
:103DD0003600F6FFF6FF9E0026001A684236111DD7
:103DE0001960136833700123A7E0086819680A1D79
:103DF00005060BD50D681A60002D03DA2D23049AF1
:103E00006D421370614B0A27039332E00D681A600C
:103E10004106F1D52DB2EFE70D681968081D18604D
:103E20002E0601D50D6803E06D06FBD50D68ADB219
:103E3000564B0A2703936F2A17D1082715E04531FF
:103E40000A70524A03921A68216820CA1A6008064A
:103E500050D5CB0702D52023194321601027002D10
:103E600003D1202322689A43226023000022433397
:103E70001A706368A360002B03DB0422216891435E
:103E80002160002D02D1049E002B0CD0049E28003E
:103E90003900FCF7D1F9039B013E5B5C33702B00CA
:103EA00005009F42F3D9082F09D12368DB0706D507
:103EB00063682269934202DC3023013E3370049B25
:103EC0009B1B2361079B210000930598069B09AA71
:103ED000FFF7DEFE431C35D1012040420BB0F0BDA0
:103EE000202209680A43226022007821453211709D
:103EF000274AA7E74806ACD5ADB2AAE71A680D680D
:103F0000101D4969186013682E0601D5196002E07A
:103F10006D06FBD519800023049E2361D2E71A6841
:103F2000111D1960166800213000626800F068FBFE
:103F3000002801D0801B6060636823610023049A1D
:103F40001370BFE72369320006990598079DA847BB
:103F5000431CC1D023689B0715D4099BE068984295
:103F6000BCDA1800BAE72200012306990598079EDB
:103F70001932B047431CAFD00135E368099A9B1A48
:103F8000AB42F0DCE9E70025F7E7C0466D510008D9
:103F90007E51000800B59BB000910491064905913F
:103FA000029106490391694600F078FC0023009ACB
:103FB00013701BB000BDC046FFFFFF7F0802FFFF6C
:103FC00010B513000A00010002480068FFF7E2FF85
:103FD00010BDC0460C000020F8B505000E0014000E
:103FE000002804D08369002B01D100F0F9F9224B9D
:103FF0009C422ED16C68A369A360A3891B0732D5AC
:104000002369002B2FD023682269F7B2981A6369BD
:10401000F6B2834205DC2100280000F03FF90028B9
:1040200027D1A3680130013BA36023685A1C22609A
:104030001F706369834204D0A389DB0707D50A2E6A
:1040400005D12100280000F029F9002811D1300005
:10405000F8BD0A4B9C4201D1AC68CCE7084B9C42AE
:10406000C9D1EC68C7E72100280000F00BF8002850
:10407000C9D001267642EAE7B0510008D0510008C5
:1040800090510008374B70B51D6806000C00002DDC
:1040900005D0AB69002B02D1280000F0A1F9324B0A
:1040A0009C420FD16C680C23E25E93B211072DD4B1
:1040B000D90611D409230120336037331343A38178
:1040C000404270BD294B9C4201D1AC68EBE7284BC4
:1040D0009C42E8D1EC68E6E75B0713D5616B0029E9
:1040E00008D023004433994202D0300000F0A6FAF1
:1040F000002363632422A3899343A3810023636085
:10410000236923600823A2891343A3812369002B19
:104110000BD1A0218022A389890092000B409342F9
:1041200003D02100300000F027FA0C22A35E01200A
:104130001A0099B2024003420FD00022A2606269C5
:104140005242A261002022698242BAD10A06B8D541
:1041500040221343A3810138B3E7880700D4626982
:10416000A260EFE70C000020B0510008D051000819
:1041700090510008062010B500F0CCFC0120FCF79F
:104180005FFB0000F7B58B8905000C001A075FD4B0
:104190004A68002A04DC0A6C002A01DC0020FEBD0B
:1041A000E76A002FFAD0002280212E682A601A00C8
:1041B00049010A400B4234D0606DA3895B0706D5E4
:1041C0006368C01A636B002B01D0236CC01A020015
:1041D000216A00232800E76AB847A189431C06D159
:1041E0002B681D2B31D82C4ADA40D3072DD500235C
:1041F000636023692360CB0405D5431C02D12B687F
:10420000002B00D16065616B2E600029C6D02300B1
:104210004433994202D0280000F010FA0020606375
:10422000BDE701232800216AB847431CC5D12B688C
:10423000002BC2D01D2B01D0162B01D12E60ADE773
:104240004023A2891343A381A9E740230B43FAE744
:104250000F69002FA2D00A680F60D21B01920022C2
:104260009B0700D14A69A260019B002B00DC95E707
:104270003A002800019B216AA66AB047002806DCA4
:1042800040230120A28940421343A38187E7019B79
:104290003F181B1A0193E7E7010040200B6970B536
:1042A00005000C00002B02D10025280070BD00285D
:1042B00004D08369002B01D100F092F8144B9C428A
:1042C0001BD16C680C22A35E002BEDD0626ED2076E
:1042D00004D49B0502D4A06D00F023F9280021002E
:1042E000FFF750FF636E0500DB07DED4A3899B0553
:1042F000DBD4A06D00F016F9D7E7064B9C4201D144
:10430000AC68DFE7044B9C42DCD1EC68DAE7C046DE
:10431000B0510008D051000890510008002310B59A
:104320000400036043608360818143661900C28199
:1043300003614361836108225C30FFF740FB054B5A
:104340006362054B2462A362044BE362044B236364
:1043500010BDC046554B00087D4B0008B54B00080A
:10436000E14B000810B5024900F0BAF810BDC04694
:104370009D42000870B568254A1E55430E0029006D
:10438000743100F0A5F9041E08D000212A00016054
:1043900046600C30A0606832FFF711FB200070BD52
:1043A00010B5024800F0BDF810BDC046AC060020B4
:1043B00010B5024800F0B6F810BDC046AC060020AB
:1043C00010B5024800F0ADF810BDC046A7060020A9
:1043D00010B5024800F0A6F810BDC046A7060020A0
:1043E00013B50400FFF7ECFFA369002B02D0FFF721
:1043F000EFFF13BDA364E3642365134B134A1B68EB
:10440000A2620193A34201D10123A361200000F025
:104410001FF86060200000F01BF8A060200000F092
:1044200017F800220421E0606068FFF777FF01229F
:104430000921A068FFF772FF02221221E068FFF74E
:104440006DFF0123A361D2E75851000865430008BE
:10445000F8B50700FFF7A4FF1F4B1E68B369002BD8
:1044600002D13000FFF7BCFF4836B4687368013BE7
:1044700004D53368002B22D03668F6E70C22A55EFF
:10448000002D1AD12000154B5830E360656600F00E
:1044900047F8FFF78DFF2000082229002560A5605E
:1044A000656025616561A5615C30FFF788FA656329
:1044B000A563A564E5642000F8BD6834D7E704214E
:1044C0003800FFF757FF041E3060D5D1FFF770FFAB
:1044D0000C233B60EFE7C046585100080100FFFF86
:1044E000F7B5040006000027019148346368A56809
:1044F0000093009B013B009304D52468002CF5D168
:104500003800FEBDAB89012B08D90E22AB5E01330A
:1045100004D029003000019B984707436835E8E73D
:10452000704770477047000070B50E001D000E23E5
:10453000C95E140096B0002907DA00232B60B38906
:104540001B0611D48023DB000FE06A4600F074FBE9
:104550000028F2DBF02301991B021940054BC91812
:104560004B4259412960EDE740230020236016B0FB
:1045700070BDC04600E0FFFFF7B502268B8905003D
:104580000C00334206D0230047332360236101230C
:104590006361F7BD6A4601ABFFF7C6FF00990700EC
:1045A000280000F095F8002808D10C22A35E9A0597
:1045B000EFD4032293431E43A681E4E70F4BAB6283
:1045C0008023A28920601343A381009B2061636143
:1045D000019B002B0DD028000E23E15E00F03EFB76
:1045E000002806D00322A38993431A000123134312
:1045F000A381A0890743A781CBE7C0466543000894
:10460000C9B28218904201D10020704703788B42D2
:10461000FBD00130F6E710B5884202D98B189842DA
:1046200003D3002307E08B5C8354013AFBD210BD17
:10463000CC5CC45401339A42FAD1F8E770B5050056
:10464000002910D00C1F2368002B00DAE418280082
:1046500000F02AFB1D4A1368002B05D1636014602B
:10466000280000F029FB70BDA34208D9216860181A
:104670008342F3D118685B6841182160EEE71A00A5
:104680005B68002B01D0A342F9D911685018A042F1
:104690000BD120680918501811608342E0D11868C6
:1046A0005B68411811605360DAE7A04202D90C231D
:1046B0002B60D5E721686018834203D118685B68D6
:1046C0004118216063605460CAE7C046A00500201D
:1046D000F8B50323CD1C9D43083506000C2D1FD2D1
:1046E0000C25A9421ED8300000F0DEFA25490A68E0
:1046F0001400002C1AD1244F3B68002B04D1210058
:10470000300000F0CBF938602900300000F0C6F925
:10471000431C2BD10C233000336000F0CDFA03E0B2
:10472000002DDEDA0C2333600020F8BD23685B1B0C
:1047300019D40B2B03D92360E418256003E06368C8
:10474000A2420ED10B60300000F0B6FA2000072222
:104750000B30231D9043C21A9842E6D01B1AA35077
:10476000E3E75360EFE722006468C2E70323C41C59
:104770009C43A042E1D0211A300000F08FF9431C85
:10478000DBD1C7E7A0050020A4050020F8B507008D
:104790000D001600002905D11100FFF799FF040054
:1047A0002000F8BD002A03D1FFF748FF3400F7E7E7
:1047B00000F08AFA2C00B042F2D231003800FFF744
:1047C00087FF041EECD029003200FFF7EFF8290024
:1047D0003800FFF733FFE3E7F0B58E6885B00700D8
:1047E0000C00039201939E423CD890238A89DB00FF
:1047F0001A4234D00325096923685B1A029363695E
:1048000002985D43EB0F5D19019B6D1001331B187E
:10481000AB4200D91D00530532D529003800FFF7FF
:1048200057FF061E09D10C233B6040230120A289BB
:1048300040421343A38105B0F0BD029A2169FFF7FE
:10484000B5F8A389144A1A4080231343A381029B1D
:104850002661F61826606561019EED1AA560019B30
:104860009E4200D9019E320003992068FFF7D3FED3
:10487000A36800209B1BA36023689E192660DAE7CB
:104880002A003800FFF782FF061EE0D138002169B8
:10489000FFF7D4FEC7E7C0467FFBFFFFF0B5A1B02E
:1048A00003901D008B890F0016001B0611D50B69A4
:1048B000002B0ED14021FFF70BFF38603861002834
:1048C00005D10C23039A0138136021B0F0BD4023B9
:1048D0007B61002308AC6361203363761033A376D9
:1048E000079535002B78002B01D0252B47D1AB1B2A
:1048F0000593B5420CD0320039000398FFF76CFFE6
:10490000431C00D1AEE06269059B94466344636139
:104910002B78002B00D1A5E00122002352426260D7
:1049200004A9543252186E1C2360E360A360137014
:10493000A365052231785448FFF762FE751C0028F4
:104940001FD12268D30604D5532304A95B18202164
:104950001970130704D5532304A95B182B21197070
:1049600033782A2B16D0350000210A20E3682A78F4
:104970006E1C303A092A4ED9002911D117E00135B1
:10498000B0E7414B2268C01A0123834013432E0035
:104990002360CEE7079B191D1B680791002B01DBE5
:1049A0000B9304E05B42E3600223134323602B7804
:1049B0002E2B0AD16B782A2B35D1079B02351A1D75
:1049C0001B680792002B2BDB0993304E032230002B
:1049D0002978FFF715FE002806D04023801B83406E
:1049E00022680135134323602978062228486E1C6B
:1049F0002176FFF705FE00283CD0264B002B25D161
:104A00000722079B07339343083307936369049A8C
:104A10009B18636165E74343350001219B18A6E7B6
:104A200001235B42D0E700230A201A0001356360AE
:104A300029786E1C3039092903D9002BC5D0099279
:104A4000C3E74243350001235218F1E707AB009357
:104A50003A002100104B039800E000BF0490049B33
:104A60000133D3D1BB890D985B0600D42DE701201B
:104A700040422AE707AB00933A002100064B039817
:104A8000FFF776F9EAE7C0465C510008625100087A
:104A90006651000800000000D9470008002370B5E7
:104AA000064D040008002B60FBF73CFF431C03D1BC
:104AB0002B68002B00D0236070BDC046B0060020DC
:104AC00070B504000D001F2904D9162303600120CE
:104AD000404270BD436C002B04D08A009B181A68BA
:104AE000002A08D1200000F031F82A00010020003F
:104AF00000F01AF8EDE70020012AEAD0511C03D19A
:104B0000162301302360E4E7002428001C6090474E
:104B10002000DEE710B5034B01001868FFF7D0FF57
:104B200010BDC0460C000020002370B5064D0400E7
:104B3000080011002B60FBF773FE431C03D12B68A8
:104B4000002B00D0236070BDB006002010B5FBF72D
:104B500061FE10BD70B50C000E25495F00F0BCF879
:104B6000002803DB636D1B18636570BDA389024ACF
:104B70001340A381F9E7C046FFEFFFFFF8B51F0020
:104B80008B8905000C001600DB0505D50E23C95ED8
:104B90000022022300F074F8A389054A280013407C
:104BA000A38132000E23E15E3B0000F01FF8F8BD48
:104BB000FFEFFFFF70B50C000E25495F00F060F8B5
:104BC000A389421C03D1054A1340A38170BD8022F2
:104BD00052011343A3816065F8E7C046FFEFFFFF72
:104BE00010B50E23C95E00F015F810BD70B50400B5
:104BF000080011001A000023054D2B60FBF749FE49
:104C0000431C03D12B68002B00D0236070BDC0462D
:104C1000B0060020002370B5064D040008002B608C
:104C2000FBF753FE431C03D12B68002B00D02360FD
:104C300070BDC046B0060020002370B5064D0400CC
:104C4000080011002B60FBF74AFE431C03D12B68C0
:104C5000002B00D0236070BDB0060020002370B58B
:104C6000064D040008002B60FBF747FE431C03D1F0
:104C70002B68002B00D0236070BDC046B00600201A
:104C800070B50400080011001A000023054D2B60C8
:104C9000FBF73CFE431C03D12B68002B00D02360A4
:104CA00070BDC046B006002010B50248FFF739FCC1
:104CB00010BDC046A806002010B50248FFF732FC20
:104CC00010BDC046A80600200B1F1B68181F002B34
:104CD00001DA0B58C018704770B5040008001100C5
:104CE0001A000023054D2B60FBF7B6FD431C03D1D2
:104CF0002B68002B00D0236070BDC046B00600209A
:104D0000F8B5C046F8BC08BC9E467047F8B5C0462A
:084D1000F8BC08BC9E46704788
:104D180028286E622026203129203D3D2030292078
:104D2800262620286E62203E3D2034292026262073
:104D3800286E62203C3D204D41585F4252414E430F
:104D48004845532900000000433A2F557365727394
:104D58002F766173696C69692F4465736B746F7022
:104D68002F6D645F6C6573736F6E732F646174610C
:104D78005F6E65745F7365632F6E6973745F6C77BC
:104D8800635F62656E63686D61726B2F616C676FDC
:104D9800732F737061726B6C652F496D706C656DE4
:104DA800656E746174696F6E732F63727970746F56
:104DB8005F686173682F6573636833383476312FA1
:104DC8007265662F737061726B6C655F7265662EB3
:104DD80063000000282530327825303278253032BB
:104DE80078253032782025303278253032782530D1
:104DF8003278253032782900696E7075743A00006F
:104E0800737061726B6C653A0000000073706172B8
:104E18006B6C6520696E763A000000000A0A0A0A7F
:104E28005374617274696E672E2E2E0A25730A4DAB
:104E3800617920203120323032312031363A343213
:104E48003A33310A4F7074696D697A6174696F6EAB
:104E58003A204F300A416C676F726974686D3A2066
:104E680025730A004D656D6F7279207573616765EA
:104E78003A200000546F74616C20464C4153483A04
:104E88002025366C754220546F74616C2052414D58
:104E98003A2025366C7542200A0000005365637479
:104EA800696F6E733A20746578742025366C754284
:104EB80020646174612025366C754220627373200A
:104EC80025366C75420A00006D73675F6C656E3A33
:104ED8002536642000000000686173683A25313087
:104EE800642075733A253964206D733A2537642038
:104EF8000A00000048415348000000004841534858
:104F0800546F745265733A200000000068282564C5
:104F180029203D20256420002573202573204D611C
:104F28007920203120323032312031363A34323A49
:104F38003331204F7074696D697A6174696F6E3AA4
:104F4800204F3020416C676F726974686D3A202574
:104F58007320000053656374696F6E733A2074653B
:104F680078742025366C7520646174612025366C50
:104F780075206273732025366C75200000000000D0
:104F880000000000010203040607080900000000F1
:104F980001020304030406080C1018203000000066
:104FA800A4280008AE280008B8280008E02800084F
:104FB800CE280008E0280008E0280008E0280008BB
:104FC800D82800088E29000898290008A229000876
:104FD800CA290008B8290008CA290008CA290008EF
:104FE800CA290008C22900086251E1B7805871BF78
:104FF80056DAB43838774E32EB8511BB577B7C4F85
:10500800C8A1BFCF3D29B3C2737061726B6C655F75
:10501800726566004C57435F414C474F5F484153A8
:10502800485F535041524B4C455F455343483338D2
:1050380034563100000000000000000000000000AD
:105048000000000000000000000000000000000058
:105058000000000000000000000000000000000048
:105068000000000000000000000000000000000038
:105078000000000000000000000000000000000028
:105088000000000000000000000000000000000018
:10509800000000005465737420456E61626C65649D
:1050A80000000000000000000000000000000000F8
:1050B80000000000000000000000000000000000E8
:1050C80000000000000000000000000000000000D8
:1050D80000000000000000000000000000000000C8
:1050E80000000000000000000000000000000000B8
:1050F80000000000000000000000000000000000A8
:105108000000000000000000000000000000000097
:10511800000000002C2066756E6374696F6E3A207B
:1051280000617373657274696F6E20222573222083
:105138006661696C65643A2066696C65202225732E
:10514800222C206C696E65202564257325730A005E
:1051580010000020232D302B2000686C4C00656661
:1051680067454647003031323334353637383941B0
:1051780042434445460030313233343536373839C6
:1051880061626364656600000000000000000000C2
:105198000000000000000000000000000000000007
:1051A80000000000000000000000000000000000F7
:1051B80000000000000000000000000000000000E7
:1051C80000000000000000000000000000000000D7
:1051D80000000000000000000000000000000000C7
:0851E8000000000000000000BF
:0851F000E4B0FF7F01000000A4
:0451F800E9000008C2
:0451FC00C1000008E6
:105200000000200004000000010000001000002049
:1052100000000000B0510008D05100089051000873
:10522000000000000000000000000000000000007E
:10523000000000000000000000000000000000006E
:10524000000000000000000000000000000000005E
:10525000000000000000000000000000000000004E
:10526000000000000000000000000000000000003E
:040000050800099D49
:00000001FF
